{"abi":[{"type":"constructor","inputs":[{"name":"_gateway","type":"address","internalType":"address"},{"name":"_nodeLogic","type":"address","internalType":"address"}],"stateMutability":"nonpayable"},{"type":"fallback","stateMutability":"payable"},{"type":"function","name":"GATEWAY_ZEVM_IMPL","inputs":[],"outputs":[{"name":"","type":"address","internalType":"address"}],"stateMutability":"view"},{"type":"function","name":"NODE_LOGIC","inputs":[],"outputs":[{"name":"","type":"address","internalType":"address"}],"stateMutability":"view"}],"bytecode":{"object":"0x60c0604052348015600e575f80fd5b50604051610aa1380380610aa1833981016040819052602b91605b565b6001600160a01b039182166080521660a0526087565b80516001600160a01b03811681146056575f80fd5b919050565b5f8060408385031215606b575f80fd5b6072836041565b9150607e602084016041565b90509250929050565b60805160a0516109de6100c35f395f818161011a015281816101d00152818161029b015261036901525f8181602c015261016901526109de5ff3fe608060405260043610610028575f3560e01c8063ced52b4014610109578063d9d2f07414610158575b5f807f00000000000000000000000000000000000000000000000000000000000000006001600160a01b03165f366040516100649291906103f8565b5f60405180830381855af49150503d805f811461009c576040519150601f19603f3d011682016040523d82523d5f602084013e6100a1565b606091505b5091509150816100f75760405162461bcd60e51b815260206004820152601f60248201527f476174657761795a45564d2064656c656761746563616c6c206661696c656400604482015260640160405180910390fd5b6101015f3661018b565b805160208201f35b348015610114575f80fd5b5061013c7f000000000000000000000000000000000000000000000000000000000000000081565b6040516001600160a01b03909116815260200160405180910390f35b348015610163575f80fd5b5061013c7f000000000000000000000000000000000000000000000000000000000000000081565b5f3563f934767d60e01b6001600160e01b031982160161025b575f808080806101b7876004818b610407565b8101906101c491906105ee565b945094509450945094507f00000000000000000000000000000000000000000000000000000000000000006001600160a01b031663b184b87c3387878787876040518763ffffffff1660e01b815260040161022496959493929190610723565b5f604051808303815f87803b15801561023b575f80fd5b505af115801561024d573d5f803e3d5ffd5b505050505050505050505050565b6383f234a160e01b6001600160e01b0319821601610323575f808080610284866004818a610407565b810190610291919061079b565b93509350935093507f00000000000000000000000000000000000000000000000000000000000000006001600160a01b0316638327f79033868686866040518663ffffffff1660e01b81526004016102ed959493929190610819565b5f604051808303815f87803b158015610304575f80fd5b505af1158015610316573d5f803e3d5ffd5b5050505050505050505050565b6384eaee7560e01b6001600160e01b03198216016103f3575f808080808061034e886004818c610407565b81019061035b9190610870565b9550955095509550955095507f00000000000000000000000000000000000000000000000000000000000000006001600160a01b031663acfdc212338888888888886040518863ffffffff1660e01b81526004016103bf9796959493929190610927565b5f604051808303815f87803b1580156103d6575f80fd5b505af11580156103e8573d5f803e3d5ffd5b505050505050505050505b505050565b818382375f9101908152919050565b5f8085851115610415575f80fd5b83861115610421575f80fd5b5050820193919092039150565b634e487b7160e01b5f52604160045260245ffd5b5f82601f830112610451575f80fd5b81356001600160401b0381111561046a5761046a61042e565b604051601f8201601f19908116603f011681016001600160401b03811182821017156104985761049861042e565b6040528181528382016020018510156104af575f80fd5b816020850160208301375f918101602001919091529392505050565b6001600160a01b03811681146104df575f80fd5b50565b803580151581146104f1575f80fd5b919050565b5f60408284031215610506575f80fd5b604080519081016001600160401b03811182821017156105285761052861042e565b6040528235815290508061053e602084016104e2565b60208201525092915050565b5f60a0828403121561055a575f80fd5b60405160a081016001600160401b038111828210171561057c5761057c61042e565b604052905080823561058d816104cb565b815261059b602084016104e2565b602082015260408301356105ae816104cb565b604082015260608301356001600160401b038111156105cb575f80fd5b6105d785828601610442565b606083015250608092830135920191909152919050565b5f805f805f60c08688031215610602575f80fd5b85356001600160401b03811115610617575f80fd5b61062388828901610442565b9550506020860135610634816104cb565b935060408601356001600160401b0381111561064e575f80fd5b61065a88828901610442565b93505061066a87606088016104f6565b915060a08601356001600160401b03811115610684575f80fd5b6106908882890161054a565b9150509295509295909350565b5f81518084528060208401602086015e5f602082860101526020601f19601f83011685010191505092915050565b60018060a01b03815116825260208101511515602083015260018060a01b0360408201511660408301525f606082015160a0606085015261070f60a085018261069d565b608093840151949093019390935250919050565b6001600160a01b038716815260e0602082018190525f906107469083018861069d565b6001600160a01b03871660408401528281036060840152610767818761069d565b855160808501526020860151151560a0850152905082810360c084015261078e81856106cb565b9998505050505050505050565b5f805f80608085870312156107ae575f80fd5b84356001600160401b038111156107c3575f80fd5b6107cf87828801610442565b9450506020850135925060408501356107e7816104cb565b915060608501356001600160401b03811115610801575f80fd5b61080d8782880161054a565b91505092959194509250565b6001600160a01b038616815260a0602082018190525f9061083c9083018761069d565b604083018690526001600160a01b0385166060840152828103608084015261086481856106cb565b98975050505050505050565b5f805f805f8060e08789031215610885575f80fd5b86356001600160401b0381111561089a575f80fd5b6108a689828a01610442565b9650506020870135945060408701356108be816104cb565b935060608701356001600160401b038111156108d8575f80fd5b6108e489828a01610442565b9350506108f488608089016104f6565b915060c08701356001600160401b0381111561090e575f80fd5b61091a89828a0161054a565b9150509295509295509295565b6001600160a01b0388168152610100602082018190525f9061094b9083018961069d565b604083018890526001600160a01b03871660608401528281036080840152610973818761069d565b855160a08501526020860151151560c0850152905082810360e084015261099a81856106cb565b9a995050505050505050505056fea2646970667358221220b63e97b36fef2f9b1e41150084ec7e788f988d6bd7469cd5b1b80e9bf9bb21e364736f6c634300081a0033","linkReferences":{}},"methodIdentifiers":{"GATEWAY_ZEVM_IMPL()":"d9d2f074","NODE_LOGIC()":"ced52b40"},"id":34}