{"abi":[{"type":"function","name":"DEFAULT_ADMIN_ROLE","inputs":[],"outputs":[{"name":"","type":"bytes32","internalType":"bytes32"}],"stateMutability":"view"},{"type":"function","name":"PAUSER_ROLE","inputs":[],"outputs":[{"name":"","type":"bytes32","internalType":"bytes32"}],"stateMutability":"view"},{"type":"function","name":"TSS_ROLE","inputs":[],"outputs":[{"name":"","type":"bytes32","internalType":"bytes32"}],"stateMutability":"view"},{"type":"function","name":"UPGRADE_INTERFACE_VERSION","inputs":[],"outputs":[{"name":"","type":"string","internalType":"string"}],"stateMutability":"view"},{"type":"function","name":"WITHDRAWER_ROLE","inputs":[],"outputs":[{"name":"","type":"bytes32","internalType":"bytes32"}],"stateMutability":"view"},{"type":"function","name":"gateway","inputs":[],"outputs":[{"name":"","type":"address","internalType":"contract IGatewayEVM"}],"stateMutability":"view"},{"type":"function","name":"getRoleAdmin","inputs":[{"name":"role","type":"bytes32","internalType":"bytes32"}],"outputs":[{"name":"","type":"bytes32","internalType":"bytes32"}],"stateMutability":"view"},{"type":"function","name":"grantRole","inputs":[{"name":"role","type":"bytes32","internalType":"bytes32"},{"name":"account","type":"address","internalType":"address"}],"outputs":[],"stateMutability":"nonpayable"},{"type":"function","name":"hasRole","inputs":[{"name":"role","type":"bytes32","internalType":"bytes32"},{"name":"account","type":"address","internalType":"address"}],"outputs":[{"name":"","type":"bool","internalType":"bool"}],"stateMutability":"view"},{"type":"function","name":"initialize","inputs":[{"name":"gateway_","type":"address","internalType":"address"},{"name":"zetaToken_","type":"address","internalType":"address"},{"name":"tssAddress_","type":"address","internalType":"address"},{"name":"admin_","type":"address","internalType":"address"}],"outputs":[],"stateMutability":"nonpayable"},{"type":"function","name":"maxSupply","inputs":[],"outputs":[{"name":"","type":"uint256","internalType":"uint256"}],"stateMutability":"view"},{"type":"function","name":"pause","inputs":[],"outputs":[],"stateMutability":"nonpayable"},{"type":"function","name":"paused","inputs":[],"outputs":[{"name":"","type":"bool","internalType":"bool"}],"stateMutability":"view"},{"type":"function","name":"proxiableUUID","inputs":[],"outputs":[{"name":"","type":"bytes32","internalType":"bytes32"}],"stateMutability":"view"},{"type":"function","name":"receiveTokens","inputs":[{"name":"amount","type":"uint256","internalType":"uint256"}],"outputs":[],"stateMutability":"nonpayable"},{"type":"function","name":"renounceRole","inputs":[{"name":"role","type":"bytes32","internalType":"bytes32"},{"name":"callerConfirmation","type":"address","internalType":"address"}],"outputs":[],"stateMutability":"nonpayable"},{"type":"function","name":"revokeRole","inputs":[{"name":"role","type":"bytes32","internalType":"bytes32"},{"name":"account","type":"address","internalType":"address"}],"outputs":[],"stateMutability":"nonpayable"},{"type":"function","name":"setMaxSupply","inputs":[{"name":"maxSupply_","type":"uint256","internalType":"uint256"}],"outputs":[],"stateMutability":"nonpayable"},{"type":"function","name":"supportsInterface","inputs":[{"name":"interfaceId","type":"bytes4","internalType":"bytes4"}],"outputs":[{"name":"","type":"bool","internalType":"bool"}],"stateMutability":"view"},{"type":"function","name":"tssAddress","inputs":[],"outputs":[{"name":"","type":"address","internalType":"address"}],"stateMutability":"view"},{"type":"function","name":"unpause","inputs":[],"outputs":[],"stateMutability":"nonpayable"},{"type":"function","name":"updateTSSAddress","inputs":[{"name":"newTSSAddress","type":"address","internalType":"address"}],"outputs":[],"stateMutability":"nonpayable"},{"type":"function","name":"upgradeToAndCall","inputs":[{"name":"newImplementation","type":"address","internalType":"address"},{"name":"data","type":"bytes","internalType":"bytes"}],"outputs":[],"stateMutability":"payable"},{"type":"function","name":"withdraw","inputs":[{"name":"to","type":"address","internalType":"address"},{"name":"amount","type":"uint256","internalType":"uint256"},{"name":"internalSendHash","type":"bytes32","internalType":"bytes32"}],"outputs":[],"stateMutability":"nonpayable"},{"type":"function","name":"withdrawAndCall","inputs":[{"name":"messageContext","type":"tuple","internalType":"struct MessageContext","components":[{"name":"sender","type":"address","internalType":"address"}]},{"name":"to","type":"address","internalType":"address"},{"name":"amount","type":"uint256","internalType":"uint256"},{"name":"data","type":"bytes","internalType":"bytes"},{"name":"internalSendHash","type":"bytes32","internalType":"bytes32"}],"outputs":[],"stateMutability":"nonpayable"},{"type":"function","name":"withdrawAndRevert","inputs":[{"name":"to","type":"address","internalType":"address"},{"name":"amount","type":"uint256","internalType":"uint256"},{"name":"data","type":"bytes","internalType":"bytes"},{"name":"internalSendHash","type":"bytes32","internalType":"bytes32"},{"name":"revertContext","type":"tuple","internalType":"struct RevertContext","components":[{"name":"sender","type":"address","internalType":"address"},{"name":"asset","type":"address","internalType":"address"},{"name":"amount","type":"uint256","internalType":"uint256"},{"name":"revertMessage","type":"bytes","internalType":"bytes"}]}],"outputs":[],"stateMutability":"nonpayable"},{"type":"function","name":"zetaToken","inputs":[],"outputs":[{"name":"","type":"address","internalType":"address"}],"stateMutability":"view"},{"type":"event","name":"Initialized","inputs":[{"name":"version","type":"uint64","indexed":false,"internalType":"uint64"}],"anonymous":false},{"type":"event","name":"MaxSupplyUpdated","inputs":[{"name":"maxSupply","type":"uint256","indexed":false,"internalType":"uint256"}],"anonymous":false},{"type":"event","name":"Paused","inputs":[{"name":"account","type":"address","indexed":false,"internalType":"address"}],"anonymous":false},{"type":"event","name":"RoleAdminChanged","inputs":[{"name":"role","type":"bytes32","indexed":true,"internalType":"bytes32"},{"name":"previousAdminRole","type":"bytes32","indexed":true,"internalType":"bytes32"},{"name":"newAdminRole","type":"bytes32","indexed":true,"internalType":"bytes32"}],"anonymous":false},{"type":"event","name":"RoleGranted","inputs":[{"name":"role","type":"bytes32","indexed":true,"internalType":"bytes32"},{"name":"account","type":"address","indexed":true,"internalType":"address"},{"name":"sender","type":"address","indexed":true,"internalType":"address"}],"anonymous":false},{"type":"event","name":"RoleRevoked","inputs":[{"name":"role","type":"bytes32","indexed":true,"internalType":"bytes32"},{"name":"account","type":"address","indexed":true,"internalType":"address"},{"name":"sender","type":"address","indexed":true,"internalType":"address"}],"anonymous":false},{"type":"event","name":"Unpaused","inputs":[{"name":"account","type":"address","indexed":false,"internalType":"address"}],"anonymous":false},{"type":"event","name":"UpdatedZetaConnectorTSSAddress","inputs":[{"name":"oldTSSAddress","type":"address","indexed":false,"internalType":"address"},{"name":"newTSSAddress","type":"address","indexed":false,"internalType":"address"}],"anonymous":false},{"type":"event","name":"Upgraded","inputs":[{"name":"implementation","type":"address","indexed":true,"internalType":"address"}],"anonymous":false},{"type":"event","name":"Withdrawn","inputs":[{"name":"to","type":"address","indexed":true,"internalType":"address"},{"name":"amount","type":"uint256","indexed":false,"internalType":"uint256"}],"anonymous":false},{"type":"event","name":"WithdrawnAndCalled","inputs":[{"name":"to","type":"address","indexed":true,"internalType":"address"},{"name":"amount","type":"uint256","indexed":false,"internalType":"uint256"},{"name":"data","type":"bytes","indexed":false,"internalType":"bytes"}],"anonymous":false},{"type":"event","name":"WithdrawnAndReverted","inputs":[{"name":"to","type":"address","indexed":true,"internalType":"address"},{"name":"amount","type":"uint256","indexed":false,"internalType":"uint256"},{"name":"data","type":"bytes","indexed":false,"internalType":"bytes"},{"name":"revertContext","type":"tuple","indexed":false,"internalType":"struct RevertContext","components":[{"name":"sender","type":"address","internalType":"address"},{"name":"asset","type":"address","internalType":"address"},{"name":"amount","type":"uint256","internalType":"uint256"},{"name":"revertMessage","type":"bytes","internalType":"bytes"}]}],"anonymous":false},{"type":"error","name":"AccessControlBadConfirmation","inputs":[]},{"type":"error","name":"AccessControlUnauthorizedAccount","inputs":[{"name":"account","type":"address","internalType":"address"},{"name":"neededRole","type":"bytes32","internalType":"bytes32"}]},{"type":"error","name":"AddressEmptyCode","inputs":[{"name":"target","type":"address","internalType":"address"}]},{"type":"error","name":"ERC1967InvalidImplementation","inputs":[{"name":"implementation","type":"address","internalType":"address"}]},{"type":"error","name":"ERC1967NonPayable","inputs":[]},{"type":"error","name":"EnforcedPause","inputs":[]},{"type":"error","name":"ExceedsMaxSupply","inputs":[]},{"type":"error","name":"ExpectedPause","inputs":[]},{"type":"error","name":"FailedInnerCall","inputs":[]},{"type":"error","name":"InvalidInitialization","inputs":[]},{"type":"error","name":"NotInitializing","inputs":[]},{"type":"error","name":"ReentrancyGuardReentrantCall","inputs":[]},{"type":"error","name":"UUPSUnauthorizedCallContext","inputs":[]},{"type":"error","name":"UUPSUnsupportedProxiableUUID","inputs":[{"name":"slot","type":"bytes32","internalType":"bytes32"}]},{"type":"error","name":"ZeroAddress","inputs":[]}],"bytecode":{"object":"0x60a0604052306080523480156012575f80fd5b50608051611c6d6100395f395f8181610f0201528181610f2b01526110710152611c6d5ff3fe608060405260043610610195575f3560e01c80636f8b44b0116100e7578063a217fddf11610087578063d547741f11610062578063d547741f14610489578063d5abeb01146104a8578063e63ab1e9146104bd578063f8c8765e146104dd575f80fd5b8063a217fddf14610419578063a783c7891461042c578063ad3cb1cc1461044c575f80fd5b80638456cb59116100c25780638456cb59146103a757806385f438c1146103bb57806391d14854146103db578063950837aa146103fa575f80fd5b80636f8b44b01461034a5780636fb9a7af14610369578063743e0c9b14610388575f80fd5b806336568abe1161015257806352d1902d1161012d57806352d1902d146102d55780635b112591146102e95780635c975abb146103085780636f8728ad1461032b575f80fd5b806336568abe1461028f5780633f4ba83a146102ae5780634f1ef286146102c2575f80fd5b806301ffc9a714610199578063106e6290146101cd578063116191b6146101ee57806321e093b114610224578063248a9ca3146102435780632f2ff15d14610270575b5f80fd5b3480156101a4575f80fd5b506101b86101b33660046115e4565b6104fc565b60405190151581526020015b60405180910390f35b3480156101d8575f80fd5b506101ec6101e7366004611626565b610532565b005b3480156101f9575f80fd5b505f5461020c906001600160a01b031681565b6040516001600160a01b0390911681526020016101c4565b34801561022f575f80fd5b5060015461020c906001600160a01b031681565b34801561024e575f80fd5b5061026261025d366004611656565b6105c3565b6040519081526020016101c4565b34801561027b575f80fd5b506101ec61028a36600461166d565b6105e3565b34801561029a575f80fd5b506101ec6102a936600461166d565b610605565b3480156102b9575f80fd5b506101ec610638565b6101ec6102d03660046116ab565b61065a565b3480156102e0575f80fd5b50610262610679565b3480156102f4575f80fd5b5060025461020c906001600160a01b031681565b348015610313575f80fd5b505f80516020611bf88339815191525460ff166101b8565b348015610336575f80fd5b506101ec6103453660046117b4565b610694565b348015610355575f80fd5b506101ec610364366004611656565b6107a1565b348015610374575f80fd5b506101ec610383366004611845565b6107fc565b348015610393575f80fd5b506101ec6103a2366004611656565b6108e1565b3480156103b2575f80fd5b506101ec61094b565b3480156103c6575f80fd5b506102625f80516020611bb883398151915281565b3480156103e6575f80fd5b506101b86103f536600461166d565b61096a565b348015610405575f80fd5b506101ec6104143660046118be565b6109a0565b348015610424575f80fd5b506102625f81565b348015610437575f80fd5b506102625f80516020611b5883398151915281565b348015610457575f80fd5b5061047c604051806040016040528060058152602001640352e302e360dc1b81525081565b6040516101c491906118d7565b348015610494575f80fd5b506101ec6104a336600461166d565b610ab5565b3480156104b3575f80fd5b5061026260035481565b3480156104c8575f80fd5b506102625f80516020611b9883398151915281565b3480156104e8575f80fd5b506101ec6104f736600461190c565b610ad1565b5f6001600160e01b03198216637965db0b60e01b148061052c57506301ffc9a760e01b6001600160e01b03198316145b92915050565b61053a610beb565b5f80516020611bb883398151915261055181610c22565b610559610c2c565b610564848484610c5e565b836001600160a01b03167f7084f5476618d8e60b11ef0d7d3f06914655adb8793e28ff7f018d4c76d505d58460405161059f91815260200190565b60405180910390a2506105be60015f80516020611c1883398151915255565b505050565b5f9081525f80516020611bd8833981519152602052604090206001015490565b6105ec826105c3565b6105f581610c22565b6105ff8383610d7e565b50505050565b6001600160a01b038116331461062e5760405163334bd91960e11b815260040160405180910390fd5b6105be8282610e1f565b5f80516020611b9883398151915261064f81610c22565b610657610e98565b50565b610662610ef7565b61066b82610f9b565b6106758282610fa5565b5050565b5f610682611066565b505f80516020611b7883398151915290565b61069c610beb565b5f80516020611bb88339815191526106b381610c22565b6106bb610c2c565b5f546106d1906001600160a01b03168785610c5e565b5f5460015460405163aa0c0fc160e01b81526001600160a01b039283169263aa0c0fc19261070e929116908b908b908b908b908a90600401611a14565b5f604051808303815f87803b158015610725575f80fd5b505af1158015610737573d5f803e3d5ffd5b50505050866001600160a01b03167f5272d2fee39bff41b2e763562526315906046373ce08a7bacf76c3080d731ff08787878660405161077a9493929190611a66565b60405180910390a25061079960015f80516020611c1883398151915255565b505050505050565b5f80516020611b588339815191526107b881610c22565b6107c0610c2c565b60038290556040518281527f7810bd47de260c3e9ee10061cf438099dd12256c79485f12f94dbccc981e806c9060200160405180910390a15050565b610804610beb565b5f80516020611bb883398151915261081b81610c22565b610823610c2c565b5f54610839906001600160a01b03168684610c5e565b5f54600154604051633ddf4d7d60e11b81526001600160a01b0392831692637bbe9afa92610877928c92909116908b908b908b908b90600401611a9c565b5f604051808303815f87803b15801561088e575f80fd5b505af11580156108a0573d5f803e3d5ffd5b50505050856001600160a01b03167f23b9573b29ff81f01c7aa1968188e1cb7d5858b08582e111fdaf386d9ef9bd8d86868660405161077a93929190611af2565b6108e9610c2c565b60015460405163079cc67960e41b8152336004820152602481018390526001600160a01b03909116906379cc6790906044015f604051808303815f87803b158015610932575f80fd5b505af1158015610944573d5f803e3d5ffd5b5050505050565b5f80516020611b9883398151915261096281610c22565b6106576110af565b5f9182525f80516020611bd8833981519152602090815260408084206001600160a01b0393909316845291905290205460ff1690565b5f6109aa81610c22565b6001600160a01b0382166109d15760405163d92e233d60e01b815260040160405180910390fd5b6002546109f5905f80516020611bb8833981519152906001600160a01b0316610e1f565b50600254610a1a905f80516020611b58833981519152906001600160a01b0316610e1f565b50610a325f80516020611bb883398151915283610d7e565b50610a4a5f80516020611b5883398151915283610d7e565b50600254604080516001600160a01b03928316815291841660208301527f33770ab682353c17917ad3e667f05905fc8dda00671ef1ed33bef9bc8db0323e910160405180910390a150600280546001600160a01b0319166001600160a01b0392909216919091179055565b610abe826105c3565b610ac781610c22565b6105ff8383610e1f565b7ff0c57e16840df040f15088dc2f81fe391c3923bec73e23a9662efc9c229c6a008054600160401b810460ff16159067ffffffffffffffff165f81158015610b165750825b90505f8267ffffffffffffffff166001148015610b325750303b155b905081158015610b40575080155b15610b5e5760405163f92ee8a960e01b815260040160405180910390fd5b845467ffffffffffffffff191660011785558315610b8857845460ff60401b1916600160401b1785555b610b94898989896110f7565b5f196003558315610be057845460ff60401b19168555604051600181527fc7f505b2f371ae2175ee4913f4499e1f2633a7b5936321eed1cdaeb6115181d2906020015b60405180910390a15b505050505050505050565b5f80516020611c18833981519152805460011901610c1c57604051633ee5aeb560e01b815260040160405180910390fd5b60029055565b6106578133611312565b5f80516020611bf88339815191525460ff1615610c5c5760405163d93c066560e01b815260040160405180910390fd5b565b60035460015f9054906101000a90046001600160a01b03166001600160a01b03166318160ddd6040518163ffffffff1660e01b8152600401602060405180830381865afa158015610cb1573d5f803e3d5ffd5b505050506040513d601f19601f82011682018060405250810190610cd59190611b0b565b610cdf9084611b22565b1115610cfe5760405163c30436e960e01b815260040160405180910390fd5b600154604051630f22c5f760e11b81526001600160a01b038581166004830152602482018590526044820184905290911690631e458bee906064015f604051808303815f87803b158015610d50575f80fd5b505af1158015610d62573d5f803e3d5ffd5b50505050505050565b60015f80516020611c1883398151915255565b5f5f80516020611bd8833981519152610d97848461096a565b610e16575f848152602082815260408083206001600160a01b03871684529091529020805460ff19166001179055610dcc3390565b6001600160a01b0316836001600160a01b0316857f2f8788117e7eff1d82e926ec794901d17c78024a50270940304540a733656f0d60405160405180910390a4600191505061052c565b5f91505061052c565b5f5f80516020611bd8833981519152610e38848461096a565b15610e16575f848152602082815260408083206001600160a01b0387168085529252808320805460ff1916905551339287917ff6391f5c32d9c69d2a47ea670b442974b53935d1edc7fd64eb21e047a839171b9190a4600191505061052c565b610ea061134b565b5f80516020611bf8833981519152805460ff191681557f5db9ee0a495bf2e6ff9c91a7834c1ba4fdd244a5e8aa4e537bd38aeae4b073aa335b6040516001600160a01b03909116815260200160405180910390a150565b306001600160a01b037f0000000000000000000000000000000000000000000000000000000000000000161480610f7d57507f00000000000000000000000000000000000000000000000000000000000000006001600160a01b0316610f715f80516020611b78833981519152546001600160a01b031690565b6001600160a01b031614155b15610c5c5760405163703e46dd60e11b815260040160405180910390fd5b5f61067581610c22565b816001600160a01b03166352d1902d6040518163ffffffff1660e01b8152600401602060405180830381865afa925050508015610fff575060408051601f3d908101601f19168201909252610ffc91810190611b0b565b60015b61102c57604051634c9c8ce360e01b81526001600160a01b03831660048201526024015b60405180910390fd5b5f80516020611b78833981519152811461105c57604051632a87526960e21b815260048101829052602401611023565b6105be838361137a565b306001600160a01b037f00000000000000000000000000000000000000000000000000000000000000001614610c5c5760405163703e46dd60e11b815260040160405180910390fd5b6110b7610c2c565b5f80516020611bf8833981519152805460ff191660011781557f62e78cea01bee320cd4e420270b5ea74000d11b0c9f74754ebdbfc544b05a25833610ed9565b7ff0c57e16840df040f15088dc2f81fe391c3923bec73e23a9662efc9c229c6a008054600160401b810460ff16159067ffffffffffffffff165f8115801561113c5750825b90505f8267ffffffffffffffff1660011480156111585750303b155b905081158015611166575080155b156111845760405163f92ee8a960e01b815260040160405180910390fd5b845467ffffffffffffffff1916600117855583156111ae57845460ff60401b1916600160401b1785555b6001600160a01b03891615806111cb57506001600160a01b038816155b806111dd57506001600160a01b038716155b806111ef57506001600160a01b038616155b1561120d5760405163d92e233d60e01b815260040160405180910390fd5b6112156113cf565b61121d6113d7565b6112256113cf565b61122d6113e7565b5f80546001600160a01b03808c166001600160a01b0319928316178355600180548c831690841617905560028054918b169190921617905561126f9087610d7e565b506112875f80516020611bb883398151915288610d7e565b5061129f5f80516020611b5883398151915288610d7e565b506112b75f80516020611b9883398151915287610d7e565b506112cf5f80516020611b9883398151915288610d7e565b508315610be057845460ff60401b19168555604051600181527fc7f505b2f371ae2175ee4913f4499e1f2633a7b5936321eed1cdaeb6115181d290602001610bd7565b61131c828261096a565b6106755760405163e2517d3f60e01b81526001600160a01b038216600482015260248101839052604401611023565b5f80516020611bf88339815191525460ff16610c5c57604051638dfc202b60e01b815260040160405180910390fd5b611383826113f7565b6040516001600160a01b038316907fbc7cd75a20ee27fd9adebab32041f755214dbc6bffa90cc0225b39da2e5c2d3b905f90a28051156113c7576105be828261145a565b6106756114cc565b610c5c6114eb565b6113df6114eb565b610c5c611534565b6113ef6114eb565b610c5c61153c565b806001600160a01b03163b5f0361142c57604051634c9c8ce360e01b81526001600160a01b0382166004820152602401611023565b5f80516020611b7883398151915280546001600160a01b0319166001600160a01b0392909216919091179055565b60605f80846001600160a01b0316846040516114769190611b41565b5f60405180830381855af49150503d805f81146114ae576040519150601f19603f3d011682016040523d82523d5f602084013e6114b3565b606091505b50915091506114c385838361155c565b95945050505050565b3415610c5c5760405163b398979f60e01b815260040160405180910390fd5b7ff0c57e16840df040f15088dc2f81fe391c3923bec73e23a9662efc9c229c6a0054600160401b900460ff16610c5c57604051631afcd79f60e31b815260040160405180910390fd5b610d6b6114eb565b6115446114eb565b5f80516020611bf8833981519152805460ff19169055565b6060826115715761156c826115bb565b6115b4565b815115801561158857506001600160a01b0384163b155b156115b157604051639996b31560e01b81526001600160a01b0385166004820152602401611023565b50805b9392505050565b8051156115cb5780518082602001fd5b604051630a12f52160e11b815260040160405180910390fd5b5f602082840312156115f4575f80fd5b81356001600160e01b0319811681146115b4575f80fd5b80356001600160a01b0381168114611621575f80fd5b919050565b5f805f60608486031215611638575f80fd5b6116418461160b565b95602085013595506040909401359392505050565b5f60208284031215611666575f80fd5b5035919050565b5f806040838503121561167e575f80fd5b8235915061168e6020840161160b565b90509250929050565b634e487b7160e01b5f52604160045260245ffd5b5f80604083850312156116bc575f80fd5b6116c58361160b565b9150602083013567ffffffffffffffff8111156116e0575f80fd5b8301601f810185136116f0575f80fd5b803567ffffffffffffffff81111561170a5761170a611697565b604051601f8201601f19908116603f0116810167ffffffffffffffff8111828210171561173957611739611697565b604052818152828201602001871015611750575f80fd5b816020840160208301375f602083830101528093505050509250929050565b5f8083601f84011261177f575f80fd5b50813567ffffffffffffffff811115611796575f80fd5b6020830191508360208285010111156117ad575f80fd5b9250929050565b5f805f805f8060a087890312156117c9575f80fd5b6117d28761160b565b955060208701359450604087013567ffffffffffffffff8111156117f4575f80fd5b61180089828a0161176f565b90955093505060608701359150608087013567ffffffffffffffff811115611826575f80fd5b87016080818a031215611837575f80fd5b809150509295509295509295565b5f805f805f8086880360a081121561185b575f80fd5b6020811215611868575f80fd5b508695506118786020880161160b565b945060408701359350606087013567ffffffffffffffff81111561189a575f80fd5b6118a689828a0161176f565b979a9699509497949695608090950135949350505050565b5f602082840312156118ce575f80fd5b6115b48261160b565b602081525f82518060208401528060208501604085015e5f604082850101526040601f19601f83011684010191505092915050565b5f805f806080858703121561191f575f80fd5b6119288561160b565b93506119366020860161160b565b92506119446040860161160b565b91506119526060860161160b565b905092959194509250565b81835281816020850137505f828201602090810191909152601f909101601f19169091010190565b6001600160a01b036119968261160b565b1682526001600160a01b036119ad6020830161160b565b166020830152604081810135908301525f606082013536839003601e190181126119d5575f80fd5b820160208101903567ffffffffffffffff8111156119f1575f80fd5b8036038213156119ff575f80fd5b608060608601526114c360808601828461195d565b6001600160a01b038781168252861660208201526040810185905260a0606082018190525f90611a47908301858761195d565b8281036080840152611a598185611985565b9998505050505050505050565b848152606060208201525f611a7f60608301858761195d565b8281036040840152611a918185611985565b979650505050505050565b6001600160a01b03611aad8861160b565b1681526001600160a01b038681166020830152851660408201526060810184905260a0608082018190525f90611ae6908301848661195d565b98975050505050505050565b838152604060208201525f6114c360408301848661195d565b5f60208284031215611b1b575f80fd5b5051919050565b8082018082111561052c57634e487b7160e01b5f52601160045260245ffd5b5f82518060208501845e5f92019182525091905056fe0da06bffcb63442de88b7f8385468eaf51e47079d4fa96875938e2c27c451deb360894a13ba1a3210667c828492db98dca3e2076cc3735a920a3ca505d382bbc65d7a28e3265b37a6474929f336521b332c1681b933f6cb9f3376673440d862a10dac8c06a04bec0b551627dad28bc00d6516b0caacd1c7b345fcdb5211334e402dd7bc7dec4dceedda775e58dd541e08a116c6c53815c0bd028192f7b626800cd5ed15c6e187e77e9aee88184c21f4f2182ab5827cb3b7e07fbedcd63f033009b779b17422d0df92223018b32b4d1fa46e071723d6817e2486d003becc55f00a2646970667358221220f3e8ab2f349dd2c4f7d2febcd3bb8b929a8516dc810fd1d93f5260793ecc94f064736f6c634300081a0033","linkReferences":{}},"methodIdentifiers":{"DEFAULT_ADMIN_ROLE()":"a217fddf","PAUSER_ROLE()":"e63ab1e9","TSS_ROLE()":"a783c789","UPGRADE_INTERFACE_VERSION()":"ad3cb1cc","WITHDRAWER_ROLE()":"85f438c1","gateway()":"116191b6","getRoleAdmin(bytes32)":"248a9ca3","grantRole(bytes32,address)":"2f2ff15d","hasRole(bytes32,address)":"91d14854","initialize(address,address,address,address)":"f8c8765e","maxSupply()":"d5abeb01","pause()":"8456cb59","paused()":"5c975abb","proxiableUUID()":"52d1902d","receiveTokens(uint256)":"743e0c9b","renounceRole(bytes32,address)":"36568abe","revokeRole(bytes32,address)":"d547741f","setMaxSupply(uint256)":"6f8b44b0","supportsInterface(bytes4)":"01ffc9a7","tssAddress()":"5b112591","unpause()":"3f4ba83a","updateTSSAddress(address)":"950837aa","upgradeToAndCall(address,bytes)":"4f1ef286","withdraw(address,uint256,bytes32)":"106e6290","withdrawAndCall((address),address,uint256,bytes,bytes32)":"6fb9a7af","withdrawAndRevert(address,uint256,bytes,bytes32,(address,address,uint256,bytes))":"6f8728ad","zetaToken()":"21e093b1"},"id":116}