{"abi":[{"type":"constructor","inputs":[{"name":"gatewayAddress","type":"address","internalType":"address payable"}],"stateMutability":"nonpayable"},{"type":"fallback","stateMutability":"payable"},{"type":"receive","stateMutability":"payable"},{"type":"function","name":"call","inputs":[{"name":"receiver","type":"address","internalType":"address"},{"name":"message","type":"bytes","internalType":"bytes"},{"name":"revertOptions","type":"tuple","internalType":"struct RevertOptions","components":[{"name":"revertAddress","type":"address","internalType":"address"},{"name":"callOnRevert","type":"bool","internalType":"bool"},{"name":"abortAddress","type":"address","internalType":"address"},{"name":"revertMessage","type":"bytes","internalType":"bytes"},{"name":"onRevertGasLimit","type":"uint256","internalType":"uint256"}]}],"outputs":[],"stateMutability":"nonpayable"},{"type":"function","name":"deposit","inputs":[{"name":"receiver","type":"address","internalType":"address"},{"name":"amount","type":"uint256","internalType":"uint256"},{"name":"asset","type":"address","internalType":"address"},{"name":"revertOptions","type":"tuple","internalType":"struct RevertOptions","components":[{"name":"revertAddress","type":"address","internalType":"address"},{"name":"callOnRevert","type":"bool","internalType":"bool"},{"name":"abortAddress","type":"address","internalType":"address"},{"name":"revertMessage","type":"bytes","internalType":"bytes"},{"name":"onRevertGasLimit","type":"uint256","internalType":"uint256"}]}],"outputs":[],"stateMutability":"nonpayable"},{"type":"function","name":"deposit","inputs":[{"name":"receiver","type":"address","internalType":"address"},{"name":"revertOptions","type":"tuple","internalType":"struct RevertOptions","components":[{"name":"revertAddress","type":"address","internalType":"address"},{"name":"callOnRevert","type":"bool","internalType":"bool"},{"name":"abortAddress","type":"address","internalType":"address"},{"name":"revertMessage","type":"bytes","internalType":"bytes"},{"name":"onRevertGasLimit","type":"uint256","internalType":"uint256"}]}],"outputs":[],"stateMutability":"payable"},{"type":"function","name":"depositAndCall","inputs":[{"name":"receiver","type":"address","internalType":"address"},{"name":"message","type":"bytes","internalType":"bytes"},{"name":"revertOptions","type":"tuple","internalType":"struct RevertOptions","components":[{"name":"revertAddress","type":"address","internalType":"address"},{"name":"callOnRevert","type":"bool","internalType":"bool"},{"name":"abortAddress","type":"address","internalType":"address"},{"name":"revertMessage","type":"bytes","internalType":"bytes"},{"name":"onRevertGasLimit","type":"uint256","internalType":"uint256"}]}],"outputs":[],"stateMutability":"payable"},{"type":"function","name":"depositAndCall","inputs":[{"name":"receiver","type":"address","internalType":"address"},{"name":"amount","type":"uint256","internalType":"uint256"},{"name":"asset","type":"address","internalType":"address"},{"name":"message","type":"bytes","internalType":"bytes"},{"name":"revertOptions","type":"tuple","internalType":"struct RevertOptions","components":[{"name":"revertAddress","type":"address","internalType":"address"},{"name":"callOnRevert","type":"bool","internalType":"bool"},{"name":"abortAddress","type":"address","internalType":"address"},{"name":"revertMessage","type":"bytes","internalType":"bytes"},{"name":"onRevertGasLimit","type":"uint256","internalType":"uint256"}]}],"outputs":[],"stateMutability":"nonpayable"},{"type":"function","name":"gateway","inputs":[],"outputs":[{"name":"","type":"address","internalType":"contract GatewayEVM"}],"stateMutability":"view"},{"type":"function","name":"hello","inputs":[{"name":"message","type":"string","internalType":"string"}],"outputs":[],"stateMutability":"payable"},{"type":"function","name":"onCall","inputs":[{"name":"context","type":"tuple","internalType":"struct MessageContext","components":[{"name":"sender","type":"address","internalType":"address"}]},{"name":"message","type":"bytes","internalType":"bytes"}],"outputs":[{"name":"","type":"bytes4","internalType":"bytes4"}],"stateMutability":"payable"},{"type":"function","name":"onRevert","inputs":[{"name":"revertContext","type":"tuple","internalType":"struct RevertContext","components":[{"name":"sender","type":"address","internalType":"address"},{"name":"asset","type":"address","internalType":"address"},{"name":"amount","type":"uint256","internalType":"uint256"},{"name":"revertMessage","type":"bytes","internalType":"bytes"}]}],"outputs":[],"stateMutability":"nonpayable"},{"type":"event","name":"HelloEvent","inputs":[{"name":"","type":"string","indexed":false,"internalType":"string"},{"name":"","type":"string","indexed":false,"internalType":"string"}],"anonymous":false},{"type":"event","name":"RevertEvent","inputs":[{"name":"","type":"string","indexed":false,"internalType":"string"},{"name":"","type":"tuple","indexed":false,"internalType":"struct RevertContext","components":[{"name":"sender","type":"address","internalType":"address"},{"name":"asset","type":"address","internalType":"address"},{"name":"amount","type":"uint256","internalType":"uint256"},{"name":"revertMessage","type":"bytes","internalType":"bytes"}]}],"anonymous":false},{"type":"error","name":"AddressEmptyCode","inputs":[{"name":"target","type":"address","internalType":"address"}]},{"type":"error","name":"AddressInsufficientBalance","inputs":[{"name":"account","type":"address","internalType":"address"}]},{"type":"error","name":"FailedInnerCall","inputs":[]},{"type":"error","name":"SafeERC20FailedOperation","inputs":[{"name":"token","type":"address","internalType":"address"}]},{"type":"error","name":"Unauthorized","inputs":[]}],"bytecode":{"object":"0x60a0604052348015600e575f80fd5b506040516110b13803806110b1833981016040819052602b91603b565b6001600160a01b03166080526066565b5f60208284031215604a575f80fd5b81516001600160a01b0381168114605f575f80fd5b9392505050565b608051610ff56100bc5f395f818160bc015281816101e90152818161027a015281816102ff01528181610346015281816103ec0152818161046e01528181610524015281816105bc015261064d0152610ff55ff3fe608060405260043610610083575f3560e01c8063726ac97c11610055578063726ac97c14610146578063744b9b8b14610159578063a777d0dc1461016c578063c9028a361461017f578063d09e3b781461019e57005b8063102614b01461008c578063116191b6146100ab5780631becceb4146100fb578063676cc0541461011a57005b3661008a57005b005b348015610097575f80fd5b5061008a6100a6366004610a02565b6101bd565b3480156100b6575f80fd5b506100de7f000000000000000000000000000000000000000000000000000000000000000081565b6040516001600160a01b0390911681526020015b60405180910390f35b348015610106575f80fd5b5061008a610115366004610aa9565b6102e8565b61012d610128366004610b09565b61033a565b6040516001600160e01b031990911681526020016100f2565b61008a610154366004610b5e565b6103d5565b61008a610167366004610aa9565b610457565b61008a61017a366004610ba8565b6104df565b34801561018a575f80fd5b5061008a610199366004610bf4565b610519565b3480156101a9575f80fd5b5061008a6101b8366004610c2a565b610590565b6101d26001600160a01b0383163330866106c1565b60405163095ea7b360e01b81526001600160a01b037f0000000000000000000000000000000000000000000000000000000000000000811660048301526024820185905283169063095ea7b3906044016020604051808303815f875af115801561023e573d5f803e3d5ffd5b505050506040513d601f19601f820116820180604052508101906102629190610cba565b50604051630102614b60e41b81526001600160a01b037f0000000000000000000000000000000000000000000000000000000000000000169063102614b0906102b5908790879087908790600401610d5b565b5f604051808303815f87803b1580156102cc575f80fd5b505af11580156102de573d5f803e3d5ffd5b5050505050505050565b6040516306fb33ad60e21b81526001600160a01b037f00000000000000000000000000000000000000000000000000000000000000001690631becceb4906102b5908790879087908790600401610db5565b5f336001600160a01b037f00000000000000000000000000000000000000000000000000000000000000001614610383576040516282b42960e81b815260040160405180910390fd5b5f61039083850185610ba8565b90507f39f8c79736fed93bca390bb3d6ff7da07482edb61cd7dafcfba496821d6ab7a3816040516103c19190610df6565b60405180910390a15f9150505b9392505050565b604051631c9ab25f60e21b81526001600160a01b037f0000000000000000000000000000000000000000000000000000000000000000169063726ac97c9034906104259086908690600401610e3c565b5f604051808303818588803b15801561043c575f80fd5b505af115801561044e573d5f803e3d5ffd5b50505050505050565b60405163744b9b8b60e01b81526001600160a01b037f0000000000000000000000000000000000000000000000000000000000000000169063744b9b8b9034906104ab908890889088908890600401610db5565b5f604051808303818588803b1580156104c2575f80fd5b505af11580156104d4573d5f803e3d5ffd5b505050505050505050565b7f39f8c79736fed93bca390bb3d6ff7da07482edb61cd7dafcfba496821d6ab7a38160405161050e9190610e5f565b60405180910390a150565b336001600160a01b037f00000000000000000000000000000000000000000000000000000000000000001614610561576040516282b42960e81b815260040160405180910390fd5b7fa7a2dd1f61a16e9be16558337ccaf27e4bb90761ccfab75065f0003f25a140378160405161050e9190610e94565b6105a56001600160a01b0385163330886106c1565b60405163095ea7b360e01b81526001600160a01b037f0000000000000000000000000000000000000000000000000000000000000000811660048301526024820187905285169063095ea7b3906044016020604051808303815f875af1158015610611573d5f803e3d5ffd5b505050506040513d601f19601f820116820180604052508101906106359190610cba565b50604051631a13c76f60e31b81526001600160a01b037f0000000000000000000000000000000000000000000000000000000000000000169063d09e3b789061068c90899089908990899089908990600401610f57565b5f604051808303815f87803b1580156106a3575f80fd5b505af11580156106b5573d5f803e3d5ffd5b50505050505050505050565b604080516001600160a01b0385811660248301528416604482015260648082018490528251808303909101815260849091019091526020810180516001600160e01b03166323b872dd60e01b17905261071b908590610721565b50505050565b5f6107356001600160a01b0384168361078c565b905080515f141580156107595750808060200190518101906107579190610cba565b155b1561078757604051635274afe760e01b81526001600160a01b03841660048201526024015b60405180910390fd5b505050565b60606103ce83835f845f80856001600160a01b031684866040516107b09190610fa9565b5f6040518083038185875af1925050503d805f81146107ea576040519150601f19603f3d011682016040523d82523d5f602084013e6107ef565b606091505b50915091506107ff868383610809565b9695505050505050565b60608261081e5761081982610865565b6103ce565b815115801561083557506001600160a01b0384163b155b1561085e57604051639996b31560e01b81526001600160a01b038516600482015260240161077e565b50806103ce565b8051156108755780518082602001fd5b604051630a12f52160e11b815260040160405180910390fd5b50565b80356001600160a01b03811681146108a7575f80fd5b919050565b634e487b7160e01b5f52604160045260245ffd5b60405160a081016001600160401b03811182821017156108e2576108e26108ac565b60405290565b801515811461088e575f80fd5b5f806001600160401b0384111561090e5761090e6108ac565b50604051601f19601f85018116603f011681018181106001600160401b038211171561093c5761093c6108ac565b604052838152905080828401851015610953575f80fd5b838360208301375f60208583010152509392505050565b5f60a0828403121561097a575f80fd5b6109826108c0565b905061098d82610891565b8152602082013561099d816108e8565b60208201526109ae60408301610891565b604082015260608201356001600160401b038111156109cb575f80fd5b8201601f810184136109db575f80fd5b6109ea848235602084016108f5565b60608301525060809182013591810191909152919050565b5f805f8060808587031215610a15575f80fd5b610a1e85610891565b935060208501359250610a3360408601610891565b915060608501356001600160401b03811115610a4d575f80fd5b610a598782880161096a565b91505092959194509250565b5f8083601f840112610a75575f80fd5b5081356001600160401b03811115610a8b575f80fd5b602083019150836020828501011115610aa2575f80fd5b9250929050565b5f805f8060608587031215610abc575f80fd5b610ac585610891565b935060208501356001600160401b03811115610adf575f80fd5b610aeb87828801610a65565b90945092505060408501356001600160401b03811115610a4d575f80fd5b5f805f8385036040811215610b1c575f80fd5b6020811215610b29575f80fd5b5083925060208401356001600160401b03811115610b45575f80fd5b610b5186828701610a65565b9497909650939450505050565b5f8060408385031215610b6f575f80fd5b610b7883610891565b915060208301356001600160401b03811115610b92575f80fd5b610b9e8582860161096a565b9150509250929050565b5f60208284031215610bb8575f80fd5b81356001600160401b03811115610bcd575f80fd5b8201601f81018413610bdd575f80fd5b610bec848235602084016108f5565b949350505050565b5f60208284031215610c04575f80fd5b81356001600160401b03811115610c19575f80fd5b8201608081850312156103ce575f80fd5b5f805f805f8060a08789031215610c3f575f80fd5b610c4887610891565b955060208701359450610c5d60408801610891565b935060608701356001600160401b03811115610c77575f80fd5b610c8389828a01610a65565b90945092505060808701356001600160401b03811115610ca1575f80fd5b610cad89828a0161096a565b9150509295509295509295565b5f60208284031215610cca575f80fd5b81516103ce816108e8565b5f81518084528060208401602086015e5f602082860101526020601f19601f83011685010191505092915050565b60018060a01b03815116825260208101511515602083015260018060a01b0360408201511660408301525f606082015160a06060850152610d4760a0850182610cd5565b608093840151949093019390935250919050565b6001600160a01b03858116825260208201859052831660408201526080606082018190525f906107ff90830184610d03565b81835281816020850137505f828201602090810191909152601f909101601f19169091010190565b6001600160a01b03851681526060602082018190525f90610dd99083018587610d8d565b8281036040840152610deb8185610d03565b979650505050505050565b60408152601a60408201527f48656c6c6f206f6e2045564d2066726f6d206f6e43616c6c28290000000000006060820152608060208201525f6103ce6080830184610cd5565b6001600160a01b03831681526040602082018190525f90610bec90830184610d03565b60408152600c60408201526b48656c6c6f206f6e2045564d60a01b6060820152608060208201525f6103ce6080830184610cd5565b6040808252600d908201526c526576657274206f6e2045564d60981b6060820152608060208201526001600160a01b03610ecd83610891565b1660808201526001600160a01b03610ee760208401610891565b1660a0820152604082013560c08201525f606083013536849003601e19018112610f0f575f80fd5b83016020810190356001600160401b03811115610f2a575f80fd5b803603821315610f38575f80fd5b608060e0850152610f4e61010085018284610d8d565b95945050505050565b6001600160a01b038781168252602082018790528516604082015260a0606082018190525f90610f8a9083018587610d8d565b8281036080840152610f9c8185610d03565b9998505050505050505050565b5f82518060208501845e5f92019182525091905056fea2646970667358221220192ef45b10027407928c63d2236d6f48d4646073d77f135174b15f9a6f1fef2c64736f6c634300081a0033","linkReferences":{}},"methodIdentifiers":{"call(address,bytes,(address,bool,address,bytes,uint256))":"1becceb4","deposit(address,(address,bool,address,bytes,uint256))":"726ac97c","deposit(address,uint256,address,(address,bool,address,bytes,uint256))":"102614b0","depositAndCall(address,bytes,(address,bool,address,bytes,uint256))":"744b9b8b","depositAndCall(address,uint256,address,bytes,(address,bool,address,bytes,uint256))":"d09e3b78","gateway()":"116191b6","hello(string)":"a777d0dc","onCall((address),bytes)":"676cc054","onRevert((address,address,uint256,bytes))":"c9028a36"},"id":16}