{"abi":[{"type":"constructor","inputs":[],"stateMutability":"nonpayable"},{"type":"function","name":"ASSET_HANDLER_ROLE","inputs":[],"outputs":[{"name":"","type":"bytes32","internalType":"bytes32"}],"stateMutability":"view"},{"type":"function","name":"DEFAULT_ADMIN_ROLE","inputs":[],"outputs":[{"name":"","type":"bytes32","internalType":"bytes32"}],"stateMutability":"view"},{"type":"function","name":"MAX_PAYLOAD_SIZE","inputs":[],"outputs":[{"name":"","type":"uint256","internalType":"uint256"}],"stateMutability":"view"},{"type":"function","name":"PAUSER_ROLE","inputs":[],"outputs":[{"name":"","type":"bytes32","internalType":"bytes32"}],"stateMutability":"view"},{"type":"function","name":"TSS_ROLE","inputs":[],"outputs":[{"name":"","type":"bytes32","internalType":"bytes32"}],"stateMutability":"view"},{"type":"function","name":"UPGRADE_INTERFACE_VERSION","inputs":[],"outputs":[{"name":"","type":"string","internalType":"string"}],"stateMutability":"view"},{"type":"function","name":"call","inputs":[{"name":"receiver","type":"address","internalType":"address"},{"name":"payload","type":"bytes","internalType":"bytes"},{"name":"revertOptions","type":"tuple","internalType":"struct RevertOptions","components":[{"name":"revertAddress","type":"address","internalType":"address"},{"name":"callOnRevert","type":"bool","internalType":"bool"},{"name":"abortAddress","type":"address","internalType":"address"},{"name":"revertMessage","type":"bytes","internalType":"bytes"},{"name":"onRevertGasLimit","type":"uint256","internalType":"uint256"}]}],"outputs":[],"stateMutability":"nonpayable"},{"type":"function","name":"custody","inputs":[],"outputs":[{"name":"","type":"address","internalType":"address"}],"stateMutability":"view"},{"type":"function","name":"deposit","inputs":[{"name":"receiver","type":"address","internalType":"address"},{"name":"amount","type":"uint256","internalType":"uint256"},{"name":"asset","type":"address","internalType":"address"},{"name":"revertOptions","type":"tuple","internalType":"struct RevertOptions","components":[{"name":"revertAddress","type":"address","internalType":"address"},{"name":"callOnRevert","type":"bool","internalType":"bool"},{"name":"abortAddress","type":"address","internalType":"address"},{"name":"revertMessage","type":"bytes","internalType":"bytes"},{"name":"onRevertGasLimit","type":"uint256","internalType":"uint256"}]}],"outputs":[],"stateMutability":"nonpayable"},{"type":"function","name":"deposit","inputs":[{"name":"receiver","type":"address","internalType":"address"},{"name":"revertOptions","type":"tuple","internalType":"struct RevertOptions","components":[{"name":"revertAddress","type":"address","internalType":"address"},{"name":"callOnRevert","type":"bool","internalType":"bool"},{"name":"abortAddress","type":"address","internalType":"address"},{"name":"revertMessage","type":"bytes","internalType":"bytes"},{"name":"onRevertGasLimit","type":"uint256","internalType":"uint256"}]}],"outputs":[],"stateMutability":"payable"},{"type":"function","name":"depositAndCall","inputs":[{"name":"receiver","type":"address","internalType":"address"},{"name":"payload","type":"bytes","internalType":"bytes"},{"name":"revertOptions","type":"tuple","internalType":"struct RevertOptions","components":[{"name":"revertAddress","type":"address","internalType":"address"},{"name":"callOnRevert","type":"bool","internalType":"bool"},{"name":"abortAddress","type":"address","internalType":"address"},{"name":"revertMessage","type":"bytes","internalType":"bytes"},{"name":"onRevertGasLimit","type":"uint256","internalType":"uint256"}]}],"outputs":[],"stateMutability":"payable"},{"type":"function","name":"depositAndCall","inputs":[{"name":"receiver","type":"address","internalType":"address"},{"name":"amount","type":"uint256","internalType":"uint256"},{"name":"asset","type":"address","internalType":"address"},{"name":"payload","type":"bytes","internalType":"bytes"},{"name":"revertOptions","type":"tuple","internalType":"struct RevertOptions","components":[{"name":"revertAddress","type":"address","internalType":"address"},{"name":"callOnRevert","type":"bool","internalType":"bool"},{"name":"abortAddress","type":"address","internalType":"address"},{"name":"revertMessage","type":"bytes","internalType":"bytes"},{"name":"onRevertGasLimit","type":"uint256","internalType":"uint256"}]}],"outputs":[],"stateMutability":"nonpayable"},{"type":"function","name":"execute","inputs":[{"name":"messageContext","type":"tuple","internalType":"struct MessageContext","components":[{"name":"sender","type":"address","internalType":"address"}]},{"name":"destination","type":"address","internalType":"address"},{"name":"data","type":"bytes","internalType":"bytes"}],"outputs":[{"name":"","type":"bytes","internalType":"bytes"}],"stateMutability":"payable"},{"type":"function","name":"executeRevert","inputs":[{"name":"destination","type":"address","internalType":"address"},{"name":"data","type":"bytes","internalType":"bytes"},{"name":"revertContext","type":"tuple","internalType":"struct RevertContext","components":[{"name":"sender","type":"address","internalType":"address"},{"name":"asset","type":"address","internalType":"address"},{"name":"amount","type":"uint256","internalType":"uint256"},{"name":"revertMessage","type":"bytes","internalType":"bytes"}]}],"outputs":[],"stateMutability":"payable"},{"type":"function","name":"executeWithERC20","inputs":[{"name":"messageContext","type":"tuple","internalType":"struct MessageContext","components":[{"name":"sender","type":"address","internalType":"address"}]},{"name":"token","type":"address","internalType":"address"},{"name":"to","type":"address","internalType":"address"},{"name":"amount","type":"uint256","internalType":"uint256"},{"name":"data","type":"bytes","internalType":"bytes"}],"outputs":[],"stateMutability":"nonpayable"},{"type":"function","name":"getRoleAdmin","inputs":[{"name":"role","type":"bytes32","internalType":"bytes32"}],"outputs":[{"name":"","type":"bytes32","internalType":"bytes32"}],"stateMutability":"view"},{"type":"function","name":"grantRole","inputs":[{"name":"role","type":"bytes32","internalType":"bytes32"},{"name":"account","type":"address","internalType":"address"}],"outputs":[],"stateMutability":"nonpayable"},{"type":"function","name":"hasRole","inputs":[{"name":"role","type":"bytes32","internalType":"bytes32"},{"name":"account","type":"address","internalType":"address"}],"outputs":[{"name":"","type":"bool","internalType":"bool"}],"stateMutability":"view"},{"type":"function","name":"initialize","inputs":[{"name":"tssAddress_","type":"address","internalType":"address"},{"name":"zetaToken_","type":"address","internalType":"address"},{"name":"admin_","type":"address","internalType":"address"}],"outputs":[],"stateMutability":"nonpayable"},{"type":"function","name":"pause","inputs":[],"outputs":[],"stateMutability":"nonpayable"},{"type":"function","name":"paused","inputs":[],"outputs":[{"name":"","type":"bool","internalType":"bool"}],"stateMutability":"view"},{"type":"function","name":"proxiableUUID","inputs":[],"outputs":[{"name":"","type":"bytes32","internalType":"bytes32"}],"stateMutability":"view"},{"type":"function","name":"renounceRole","inputs":[{"name":"role","type":"bytes32","internalType":"bytes32"},{"name":"callerConfirmation","type":"address","internalType":"address"}],"outputs":[],"stateMutability":"nonpayable"},{"type":"function","name":"revertWithERC20","inputs":[{"name":"token","type":"address","internalType":"address"},{"name":"to","type":"address","internalType":"address"},{"name":"amount","type":"uint256","internalType":"uint256"},{"name":"data","type":"bytes","internalType":"bytes"},{"name":"revertContext","type":"tuple","internalType":"struct RevertContext","components":[{"name":"sender","type":"address","internalType":"address"},{"name":"asset","type":"address","internalType":"address"},{"name":"amount","type":"uint256","internalType":"uint256"},{"name":"revertMessage","type":"bytes","internalType":"bytes"}]}],"outputs":[],"stateMutability":"nonpayable"},{"type":"function","name":"revokeRole","inputs":[{"name":"role","type":"bytes32","internalType":"bytes32"},{"name":"account","type":"address","internalType":"address"}],"outputs":[],"stateMutability":"nonpayable"},{"type":"function","name":"setConnector","inputs":[{"name":"zetaConnector_","type":"address","internalType":"address"}],"outputs":[],"stateMutability":"nonpayable"},{"type":"function","name":"setCustody","inputs":[{"name":"custody_","type":"address","internalType":"address"}],"outputs":[],"stateMutability":"nonpayable"},{"type":"function","name":"supportsInterface","inputs":[{"name":"interfaceId","type":"bytes4","internalType":"bytes4"}],"outputs":[{"name":"","type":"bool","internalType":"bool"}],"stateMutability":"view"},{"type":"function","name":"tssAddress","inputs":[],"outputs":[{"name":"","type":"address","internalType":"address"}],"stateMutability":"view"},{"type":"function","name":"unpause","inputs":[],"outputs":[],"stateMutability":"nonpayable"},{"type":"function","name":"updateTSSAddress","inputs":[{"name":"newTSSAddress","type":"address","internalType":"address"}],"outputs":[],"stateMutability":"nonpayable"},{"type":"function","name":"upgradeToAndCall","inputs":[{"name":"newImplementation","type":"address","internalType":"address"},{"name":"data","type":"bytes","internalType":"bytes"}],"outputs":[],"stateMutability":"payable"},{"type":"function","name":"zetaConnector","inputs":[],"outputs":[{"name":"","type":"address","internalType":"address"}],"stateMutability":"view"},{"type":"function","name":"zetaToken","inputs":[],"outputs":[{"name":"","type":"address","internalType":"address"}],"stateMutability":"view"},{"type":"event","name":"Called","inputs":[{"name":"sender","type":"address","indexed":true,"internalType":"address"},{"name":"receiver","type":"address","indexed":true,"internalType":"address"},{"name":"payload","type":"bytes","indexed":false,"internalType":"bytes"},{"name":"revertOptions","type":"tuple","indexed":false,"internalType":"struct RevertOptions","components":[{"name":"revertAddress","type":"address","internalType":"address"},{"name":"callOnRevert","type":"bool","internalType":"bool"},{"name":"abortAddress","type":"address","internalType":"address"},{"name":"revertMessage","type":"bytes","internalType":"bytes"},{"name":"onRevertGasLimit","type":"uint256","internalType":"uint256"}]}],"anonymous":false},{"type":"event","name":"Deposited","inputs":[{"name":"sender","type":"address","indexed":true,"internalType":"address"},{"name":"receiver","type":"address","indexed":true,"internalType":"address"},{"name":"amount","type":"uint256","indexed":false,"internalType":"uint256"},{"name":"asset","type":"address","indexed":false,"internalType":"address"},{"name":"payload","type":"bytes","indexed":false,"internalType":"bytes"},{"name":"revertOptions","type":"tuple","indexed":false,"internalType":"struct RevertOptions","components":[{"name":"revertAddress","type":"address","internalType":"address"},{"name":"callOnRevert","type":"bool","internalType":"bool"},{"name":"abortAddress","type":"address","internalType":"address"},{"name":"revertMessage","type":"bytes","internalType":"bytes"},{"name":"onRevertGasLimit","type":"uint256","internalType":"uint256"}]}],"anonymous":false},{"type":"event","name":"DepositedAndCalled","inputs":[{"name":"sender","type":"address","indexed":true,"internalType":"address"},{"name":"receiver","type":"address","indexed":true,"internalType":"address"},{"name":"amount","type":"uint256","indexed":false,"internalType":"uint256"},{"name":"asset","type":"address","indexed":false,"internalType":"address"},{"name":"payload","type":"bytes","indexed":false,"internalType":"bytes"},{"name":"revertOptions","type":"tuple","indexed":false,"internalType":"struct RevertOptions","components":[{"name":"revertAddress","type":"address","internalType":"address"},{"name":"callOnRevert","type":"bool","internalType":"bool"},{"name":"abortAddress","type":"address","internalType":"address"},{"name":"revertMessage","type":"bytes","internalType":"bytes"},{"name":"onRevertGasLimit","type":"uint256","internalType":"uint256"}]}],"anonymous":false},{"type":"event","name":"Executed","inputs":[{"name":"destination","type":"address","indexed":true,"internalType":"address"},{"name":"value","type":"uint256","indexed":false,"internalType":"uint256"},{"name":"data","type":"bytes","indexed":false,"internalType":"bytes"}],"anonymous":false},{"type":"event","name":"ExecutedWithERC20","inputs":[{"name":"token","type":"address","indexed":true,"internalType":"address"},{"name":"to","type":"address","indexed":true,"internalType":"address"},{"name":"amount","type":"uint256","indexed":false,"internalType":"uint256"},{"name":"data","type":"bytes","indexed":false,"internalType":"bytes"}],"anonymous":false},{"type":"event","name":"Initialized","inputs":[{"name":"version","type":"uint64","indexed":false,"internalType":"uint64"}],"anonymous":false},{"type":"event","name":"Paused","inputs":[{"name":"account","type":"address","indexed":false,"internalType":"address"}],"anonymous":false},{"type":"event","name":"Reverted","inputs":[{"name":"to","type":"address","indexed":true,"internalType":"address"},{"name":"token","type":"address","indexed":true,"internalType":"address"},{"name":"amount","type":"uint256","indexed":false,"internalType":"uint256"},{"name":"data","type":"bytes","indexed":false,"internalType":"bytes"},{"name":"revertContext","type":"tuple","indexed":false,"internalType":"struct RevertContext","components":[{"name":"sender","type":"address","internalType":"address"},{"name":"asset","type":"address","internalType":"address"},{"name":"amount","type":"uint256","internalType":"uint256"},{"name":"revertMessage","type":"bytes","internalType":"bytes"}]}],"anonymous":false},{"type":"event","name":"RoleAdminChanged","inputs":[{"name":"role","type":"bytes32","indexed":true,"internalType":"bytes32"},{"name":"previousAdminRole","type":"bytes32","indexed":true,"internalType":"bytes32"},{"name":"newAdminRole","type":"bytes32","indexed":true,"internalType":"bytes32"}],"anonymous":false},{"type":"event","name":"RoleGranted","inputs":[{"name":"role","type":"bytes32","indexed":true,"internalType":"bytes32"},{"name":"account","type":"address","indexed":true,"internalType":"address"},{"name":"sender","type":"address","indexed":true,"internalType":"address"}],"anonymous":false},{"type":"event","name":"RoleRevoked","inputs":[{"name":"role","type":"bytes32","indexed":true,"internalType":"bytes32"},{"name":"account","type":"address","indexed":true,"internalType":"address"},{"name":"sender","type":"address","indexed":true,"internalType":"address"}],"anonymous":false},{"type":"event","name":"Unpaused","inputs":[{"name":"account","type":"address","indexed":false,"internalType":"address"}],"anonymous":false},{"type":"event","name":"UpdatedGatewayTSSAddress","inputs":[{"name":"oldTSSAddress","type":"address","indexed":false,"internalType":"address"},{"name":"newTSSAddress","type":"address","indexed":false,"internalType":"address"}],"anonymous":false},{"type":"event","name":"Upgraded","inputs":[{"name":"implementation","type":"address","indexed":true,"internalType":"address"}],"anonymous":false},{"type":"error","name":"AccessControlBadConfirmation","inputs":[]},{"type":"error","name":"AccessControlUnauthorizedAccount","inputs":[{"name":"account","type":"address","internalType":"address"},{"name":"neededRole","type":"bytes32","internalType":"bytes32"}]},{"type":"error","name":"AddressEmptyCode","inputs":[{"name":"target","type":"address","internalType":"address"}]},{"type":"error","name":"AddressInsufficientBalance","inputs":[{"name":"account","type":"address","internalType":"address"}]},{"type":"error","name":"ApprovalFailed","inputs":[]},{"type":"error","name":"CallOnRevertNotSupported","inputs":[]},{"type":"error","name":"ConnectorInitialized","inputs":[]},{"type":"error","name":"CustodyInitialized","inputs":[]},{"type":"error","name":"DepositFailed","inputs":[]},{"type":"error","name":"ERC1967InvalidImplementation","inputs":[{"name":"implementation","type":"address","internalType":"address"}]},{"type":"error","name":"ERC1967NonPayable","inputs":[]},{"type":"error","name":"EnforcedPause","inputs":[]},{"type":"error","name":"ExecutionFailed","inputs":[]},{"type":"error","name":"ExpectedPause","inputs":[]},{"type":"error","name":"FailedInnerCall","inputs":[]},{"type":"error","name":"InsufficientERC20Amount","inputs":[]},{"type":"error","name":"InsufficientETHAmount","inputs":[]},{"type":"error","name":"InvalidInitialization","inputs":[]},{"type":"error","name":"NotAllowedToCallOnCall","inputs":[]},{"type":"error","name":"NotAllowedToCallOnRevert","inputs":[]},{"type":"error","name":"NotInitializing","inputs":[]},{"type":"error","name":"NotWhitelistedInCustody","inputs":[]},{"type":"error","name":"PayloadSizeExceeded","inputs":[]},{"type":"error","name":"ReentrancyGuardReentrantCall","inputs":[]},{"type":"error","name":"SafeERC20FailedOperation","inputs":[{"name":"token","type":"address","internalType":"address"}]},{"type":"error","name":"UUPSUnauthorizedCallContext","inputs":[]},{"type":"error","name":"UUPSUnsupportedProxiableUUID","inputs":[{"name":"slot","type":"bytes32","internalType":"bytes32"}]},{"type":"error","name":"ZETANotSupported","inputs":[]},{"type":"error","name":"ZeroAddress","inputs":[]}],"bytecode":{"object":"0x60a060405230608052348015610013575f80fd5b5061001c610021565b6100d3565b7ff0c57e16840df040f15088dc2f81fe391c3923bec73e23a9662efc9c229c6a00805468010000000000000000900460ff16156100715760405163f92ee8a960e01b815260040160405180910390fd5b80546001600160401b03908116146100d05780546001600160401b0319166001600160401b0390811782556040519081527fc7f505b2f371ae2175ee4913f4499e1f2633a7b5936321eed1cdaeb6115181d29060200160405180910390a15b50565b608051612e5d6100f95f395f8181611ac501528181611aee0152611c340152612e5d5ff3fe6080604052600436106101f1575f3560e01c8063744b9b8b11610108578063aa0c0fc11161009d578063cb7ba8e51161006d578063cb7ba8e514610572578063d09e3b7814610585578063d547741f146105a4578063dda79b75146105c3578063e63ab1e9146105e1575f80fd5b8063aa0c0fc1146104e5578063ad3cb1cc14610504578063ae7a3a6f14610534578063c0c53b8b14610553575f80fd5b8063950837aa116100d8578063950837aa1461047e578063a217fddf1461049d578063a2ba1934146104b0578063a783c789146104c5575f80fd5b8063744b9b8b146104195780637bbe9afa1461042c5780638456cb591461044b57806391d148541461045f575f80fd5b806338e225271161018957806357bec62f1161015957806357bec62f146103855780635b112591146103a45780635c975abb146103c35780635d62c860146103e6578063726ac97c14610406575f80fd5b806338e225271461032a5780633f4ba83a1461034a5780634f1ef2861461035e57806352d1902d14610371575f80fd5b806321e093b1116101c457806321e093b114610288578063248a9ca3146102bf5780632f2ff15d146102ec57806336568abe1461030b575f80fd5b806301ffc9a7146101f557806310188aef14610229578063102614b01461024a5780631becceb414610269575b5f80fd5b348015610200575f80fd5b5061021461020f36600461239b565b610601565b60405190151581526020015b60405180910390f35b348015610234575f80fd5b506102486102433660046123dd565b610637565b005b348015610255575f80fd5b5061024861026436600461240c565b6106cd565b348015610274575f80fd5b506102486102833660046124b3565b6107ad565b348015610293575f80fd5b506003546102a7906001600160a01b031681565b6040516001600160a01b039091168152602001610220565b3480156102ca575f80fd5b506102de6102d9366004612513565b61088b565b604051908152602001610220565b3480156102f7575f80fd5b5061024861030636600461252a565b6108ab565b348015610316575f80fd5b5061024861032536600461252a565b6108cd565b61033d610338366004612564565b610905565b60405161022091906125ef565b348015610355575f80fd5b506102486109fa565b61024861036c36600461266b565b610a1c565b34801561037c575f80fd5b506102de610a3b565b348015610390575f80fd5b506002546102a7906001600160a01b031681565b3480156103af575f80fd5b506001546102a7906001600160a01b031681565b3480156103ce575f80fd5b505f80516020612de88339815191525460ff16610214565b3480156103f1575f80fd5b506102de5f80516020612d6883398151915281565b6102486104143660046126f5565b610a56565b6102486104273660046124b3565b610b9b565b348015610437575f80fd5b5061024861044636600461273f565b610cef565b348015610456575f80fd5b50610248610f5c565b34801561046a575f80fd5b5061021461047936600461252a565b610f7b565b348015610489575f80fd5b506102486104983660046123dd565b610fb1565b3480156104a8575f80fd5b506102de5f81565b3480156104bb575f80fd5b506102de61040081565b3480156104d0575f80fd5b506102de5f80516020612d4883398151915281565b3480156104f0575f80fd5b506102486104ff3660046127c9565b611089565b34801561050f575f80fd5b5061033d604051806040016040528060058152602001640352e302e360dc1b81525081565b34801561053f575f80fd5b5061024861054e3660046123dd565b6111cc565b34801561055e575f80fd5b5061024861056d366004612859565b611260565b610248610580366004612899565b611449565b348015610590575f80fd5b5061024861059f366004612905565b6115c9565b3480156105af575f80fd5b506102486105be36600461252a565b6116b8565b3480156105ce575f80fd5b505f546102a7906001600160a01b031681565b3480156105ec575f80fd5b506102de5f80516020612da883398151915281565b5f6001600160e01b03198216637965db0b60e01b148061063157506301ffc9a760e01b6001600160e01b03198316145b92915050565b5f610641816116d4565b6001600160a01b0382166106685760405163d92e233d60e01b815260040160405180910390fd5b6002546001600160a01b03161561069257604051630646e00b60e11b815260040160405180910390fd5b6106a95f80516020612d68833981519152836116de565b5050600280546001600160a01b0319166001600160a01b0392909216919091179055565b6106d561177f565b825f036106f55760405163951e19ed60e01b815260040160405180910390fd5b6001600160a01b03841661071c5760405163d92e233d60e01b815260040160405180910390fd5b61040061072c6060830183612988565b9050111561074d57604051631c3348d560e11b815260040160405180910390fd5b6107583383856117b1565b836001600160a01b0316336001600160a01b03167fc6f891b65320c682b217616a62b51f218fee95d5f0ba83e758ef9ab4ee8e975c85858560405161079f93929190612abc565b60405180910390a350505050565b6107b561177f565b6107c56040820160208301612aef565b156107e357604051630cda5ff960e11b815260040160405180910390fd5b6001600160a01b03841661080a5760405163d92e233d60e01b815260040160405180910390fd5b61040061081a6060830183612988565b610825915084612b0a565b111561084457604051631c3348d560e11b815260040160405180910390fd5b836001600160a01b0316336001600160a01b03167fd34634f30f94a646fdf4ce7078f38fc5fa0d3f0b193658facea4e3e43330d97485858560405161079f93929190612b29565b5f9081525f80516020612dc8833981519152602052604090206001015490565b6108b48261088b565b6108bd816116d4565b6108c783836116de565b50505050565b6001600160a01b03811633146108f65760405163334bd91960e11b815260040160405180910390fd5b6109008282611883565b505050565b606061090f6118fc565b5f80516020612d48833981519152610926816116d4565b61092e61177f565b6001600160a01b0385166109555760405163d92e233d60e01b815260040160405180910390fd5b60605f61096560208901896123dd565b6001600160a01b0316036109855761097e868686611933565b9050610994565b610991878787876119c9565b90505b856001600160a01b03167fcaf938de11c367272220bfd1d2baa99ca46665e7bc4d85f00adb51b90fe1fa9f3487876040516109d193929190612b4e565b60405180910390a29150506109f260015f80516020612e0883398151915255565b949350505050565b5f80516020612da8833981519152610a11816116d4565b610a19611a5b565b50565b610a24611aba565b610a2d82611b5e565b610a378282611b68565b5050565b5f610a44611c29565b505f80516020612d8883398151915290565b610a5e61177f565b345f03610a7e57604051633b38932f60e11b815260040160405180910390fd5b6001600160a01b038216610aa55760405163d92e233d60e01b815260040160405180910390fd5b610400610ab56060830183612988565b90501115610ad657604051631c3348d560e11b815260040160405180910390fd5b6001546040515f916001600160a01b03169034908381818185875af1925050503d805f8114610b20576040519150601f19603f3d011682016040523d82523d5f602084013e610b25565b606091505b5050905080610b47576040516379cacff160e01b815260040160405180910390fd5b826001600160a01b0316336001600160a01b03167fc6f891b65320c682b217616a62b51f218fee95d5f0ba83e758ef9ab4ee8e975c345f86604051610b8e93929190612abc565b60405180910390a3505050565b610ba361177f565b345f03610bc357604051633b38932f60e11b815260040160405180910390fd5b6001600160a01b038416610bea5760405163d92e233d60e01b815260040160405180910390fd5b610400610bfa6060830183612988565b610c05915084612b0a565b1115610c2457604051631c3348d560e11b815260040160405180910390fd5b6001546040515f916001600160a01b03169034908381818185875af1925050503d805f8114610c6e576040519150601f19603f3d011682016040523d82523d5f602084013e610c73565b606091505b5050905080610c95576040516379cacff160e01b815260040160405180910390fd5b846001600160a01b0316336001600160a01b03167fa795d4377323e4c2d4c346b8050a7dd504c4043be8884c81b8d9690706c8388f345f888888604051610ce0959493929190612b67565b60405180910390a35050505050565b610cf76118fc565b5f80516020612d68833981519152610d0e816116d4565b610d1661177f565b835f03610d365760405163951e19ed60e01b815260040160405180910390fd5b6001600160a01b038516610d5d5760405163d92e233d60e01b815260040160405180910390fd5b610d678686611c72565b610d84576040516340b27c2160e11b815260040160405180910390fd5b60405163095ea7b360e01b81526001600160a01b0386811660048301526024820186905287169063095ea7b3906044016020604051808303815f875af1158015610dd0573d5f803e3d5ffd5b505050506040513d601f19601f82011682018060405250810190610df49190612baf565b610e11576040516340b27c2160e11b815260040160405180910390fd5b5f610e1f60208901896123dd565b6001600160a01b031603610e3e57610e38858484611933565b50610e4c565b610e4a878685856119c9565b505b610e568686611c72565b610e73576040516340b27c2160e11b815260040160405180910390fd5b6040516370a0823160e01b81523060048201525f906001600160a01b038816906370a0823190602401602060405180830381865afa158015610eb7573d5f803e3d5ffd5b505050506040513d601f19601f82011682018060405250810190610edb9190612bca565b90508015610eed57610eed8782611ce5565b856001600160a01b0316876001600160a01b03167f29c40793bffd84cb810179f15d1ceec72bc7f0785514c668ba36645cf99b7382878787604051610f3493929190612b4e565b60405180910390a35050610f5460015f80516020612e0883398151915255565b505050505050565b5f80516020612da8833981519152610f73816116d4565b610a19611e82565b5f9182525f80516020612dc8833981519152602090815260408084206001600160a01b0393909316845291905290205460ff1690565b5f610fbb816116d4565b6001600160a01b038216610fe25760405163d92e233d60e01b815260040160405180910390fd5b600154611006905f80516020612d48833981519152906001600160a01b0316611883565b5061101e5f80516020612d48833981519152836116de565b50600154604080516001600160a01b03928316815291841660208301527f3a7b8d6372645f474fe60c115a2ef21421306a3ed4664fa0023c461413c08579910160405180910390a150600180546001600160a01b0319166001600160a01b0392909216919091179055565b6110916118fc565b5f80516020612d688339815191526110a8816116d4565b6110b061177f565b845f036110d05760405163951e19ed60e01b815260040160405180910390fd5b6001600160a01b0386166110f75760405163d92e233d60e01b815260040160405180910390fd5b61110b6001600160a01b0388168787611eca565b604051636481451b60e11b81526001600160a01b0387169063c9028a3690611137908590600401612c3c565b5f604051808303815f87803b15801561114e575f80fd5b505af1158015611160573d5f803e3d5ffd5b50505050866001600160a01b0316866001600160a01b03167fde7603a6ed5d07c9f43597ccfe9043d15b66d3284f0de321f5cdf56329e6e035878787876040516111ad9493929190612c4e565b60405180910390a350610f5460015f80516020612e0883398151915255565b5f6111d6816116d4565b6001600160a01b0382166111fd5760405163d92e233d60e01b815260040160405180910390fd5b5f546001600160a01b03161561122657604051631666fe6f60e31b815260040160405180910390fd5b61123d5f80516020612d68833981519152836116de565b50505f80546001600160a01b0319166001600160a01b0392909216919091179055565b7ff0c57e16840df040f15088dc2f81fe391c3923bec73e23a9662efc9c229c6a008054600160401b810460ff1615906001600160401b03165f811580156112a45750825b90505f826001600160401b031660011480156112bf5750303b155b9050811580156112cd575080155b156112eb5760405163f92ee8a960e01b815260040160405180910390fd5b845467ffffffffffffffff19166001178555831561131557845460ff60401b1916600160401b1785555b6001600160a01b038816158061133257506001600160a01b038716155b156113505760405163d92e233d60e01b815260040160405180910390fd5b611358611f29565b611360611f31565b611368611f29565b611370611f41565b61137a5f876116de565b506113925f80516020612da8833981519152876116de565b506113aa5f80516020612da8833981519152896116de565b50600180546001600160a01b0319166001600160a01b038a161790556113dd5f80516020612d48833981519152896116de565b50600380546001600160a01b0319166001600160a01b038916179055831561143f57845460ff60401b19168555604051600181527fc7f505b2f371ae2175ee4913f4499e1f2633a7b5936321eed1cdaeb6115181d29060200160405180910390a15b5050505050505050565b6114516118fc565b5f80516020612d48833981519152611468816116d4565b61147061177f565b6001600160a01b0385166114975760405163d92e233d60e01b815260040160405180910390fd5b5f856001600160a01b0316346040515f6040518083038185875af1925050503d805f81146114e0576040519150601f19603f3d011682016040523d82523d5f602084013e6114e5565b606091505b505090508061150757604051632b3f6d1160e21b815260040160405180910390fd5b604051636481451b60e11b81526001600160a01b0387169063c9028a3690611533908690600401612c3c565b5f604051808303815f87803b15801561154a575f80fd5b505af115801561155c573d5f803e3d5ffd5b505050505f6001600160a01b0316866001600160a01b03167fde7603a6ed5d07c9f43597ccfe9043d15b66d3284f0de321f5cdf56329e6e035348888886040516115a99493929190612c4e565b60405180910390a350506108c760015f80516020612e0883398151915255565b6115d161177f565b845f036115f15760405163951e19ed60e01b815260040160405180910390fd5b6001600160a01b0386166116185760405163d92e233d60e01b815260040160405180910390fd5b6104006116286060830183612988565b611633915084612b0a565b111561165257604051631c3348d560e11b815260040160405180910390fd5b61165d3385876117b1565b856001600160a01b0316336001600160a01b03167fa795d4377323e4c2d4c346b8050a7dd504c4043be8884c81b8d9690706c8388f87878787876040516116a8959493929190612b67565b60405180910390a3505050505050565b6116c18261088b565b6116ca816116d4565b6108c78383611883565b610a198133611f51565b5f5f80516020612dc88339815191526116f78484610f7b565b611776575f848152602082815260408083206001600160a01b03871684529091529020805460ff1916600117905561172c3390565b6001600160a01b0316836001600160a01b0316857f2f8788117e7eff1d82e926ec794901d17c78024a50270940304540a733656f0d60405160405180910390a46001915050610631565b5f915050610631565b5f80516020612de88339815191525460ff16156117af5760405163d93c066560e01b815260040160405180910390fd5b565b6003546001600160a01b03908116908316036117e05760405163e4dd681d60e01b815260040160405180910390fd5b5f54604051636c9b2a3f60e11b81526001600160a01b0384811660048301529091169063d936547e90602401602060405180830381865afa158015611827573d5f803e3d5ffd5b505050506040513d601f19601f8201168201806040525081019061184b9190612baf565b6118685760405163ac2175f160e01b815260040160405180910390fd5b5f54610900906001600160a01b038481169186911684611f8a565b5f5f80516020612dc883398151915261189c8484610f7b565b15611776575f848152602082815260408083206001600160a01b0387168085529252808320805460ff1916905551339287917ff6391f5c32d9c69d2a47ea670b442974b53935d1edc7fd64eb21e047a839171b9190a46001915050610631565b5f80516020612e0883398151915280546001190161192d57604051633ee5aeb560e01b815260040160405180910390fd5b60029055565b606061193f8383611fc3565b5f80856001600160a01b031634868660405161195c929190612c84565b5f6040518083038185875af1925050503d805f8114611996576040519150601f19603f3d011682016040523d82523d5f602084013e61199b565b606091505b5091509150816119be57604051632b3f6d1160e21b815260040160405180910390fd5b9150505b9392505050565b6060836001600160a01b031663676cc054348786866040518563ffffffff1660e01b81526004016119fc93929190612c93565b5f6040518083038185885af1158015611a17573d5f803e3d5ffd5b50505050506040513d5f823e601f3d908101601f19168201604052611a3f9190810190612cbd565b95945050505050565b60015f80516020612e0883398151915255565b611a6361202f565b5f80516020612de8833981519152805460ff191681557f5db9ee0a495bf2e6ff9c91a7834c1ba4fdd244a5e8aa4e537bd38aeae4b073aa335b6040516001600160a01b03909116815260200160405180910390a150565b306001600160a01b037f0000000000000000000000000000000000000000000000000000000000000000161480611b4057507f00000000000000000000000000000000000000000000000000000000000000006001600160a01b0316611b345f80516020612d88833981519152546001600160a01b031690565b6001600160a01b031614155b156117af5760405163703e46dd60e11b815260040160405180910390fd5b5f610a37816116d4565b816001600160a01b03166352d1902d6040518163ffffffff1660e01b8152600401602060405180830381865afa925050508015611bc2575060408051601f3d908101601f19168201909252611bbf91810190612bca565b60015b611bef57604051634c9c8ce360e01b81526001600160a01b03831660048201526024015b60405180910390fd5b5f80516020612d888339815191528114611c1f57604051632a87526960e21b815260048101829052602401611be6565b610900838361205e565b306001600160a01b037f000000000000000000000000000000000000000000000000000000000000000016146117af5760405163703e46dd60e11b815260040160405180910390fd5b60405163095ea7b360e01b81526001600160a01b0382811660048301525f60248301819052919084169063095ea7b3906044016020604051808303815f875af1158015611cc1573d5f803e3d5ffd5b505050506040513d601f19601f820116820180604052508101906119c29190612baf565b6003546001600160a01b0390811690831603611de15760025460405163095ea7b360e01b81526001600160a01b039182166004820152602481018390529083169063095ea7b3906044016020604051808303815f875af1158015611d4b573d5f803e3d5ffd5b505050506040513d601f19601f82011682018060405250810190611d6f9190612baf565b611d8c576040516340b27c2160e11b815260040160405180910390fd5b60025460405163743e0c9b60e01b8152600481018390526001600160a01b039091169063743e0c9b906024015f604051808303815f87803b158015611dcf575f80fd5b505af1158015610f54573d5f803e3d5ffd5b5f54604051636c9b2a3f60e11b81526001600160a01b0384811660048301529091169063d936547e90602401602060405180830381865afa158015611e28573d5f803e3d5ffd5b505050506040513d601f19601f82011682018060405250810190611e4c9190612baf565b611e695760405163ac2175f160e01b815260040160405180910390fd5b5f54610a37906001600160a01b03848116911683611eca565b611e8a61177f565b5f80516020612de8833981519152805460ff191660011781557f62e78cea01bee320cd4e420270b5ea74000d11b0c9f74754ebdbfc544b05a25833611a9c565b6040516001600160a01b0383811660248301526044820183905261090091859182169063a9059cbb906064015b604051602081830303815290604052915060e01b6020820180516001600160e01b0383818316178352505050506120b3565b6117af612114565b611f39612114565b6117af61215d565b611f49612114565b6117af612165565b611f5b8282610f7b565b610a375760405163e2517d3f60e01b81526001600160a01b038216600482015260248101839052604401611be6565b6040516001600160a01b0384811660248301528381166044830152606482018390526108c79186918216906323b872dd90608401611ef7565b60048110610a37578135632624cfeb60e21b6001600160e01b0319821601611ffe5760405163ed69977560e01b815260040160405180910390fd5b631b7ebae560e11b6001600160e01b0319821601610900576040516379a2cd4b60e11b815260040160405180910390fd5b5f80516020612de88339815191525460ff166117af57604051638dfc202b60e01b815260040160405180910390fd5b61206782612185565b6040516001600160a01b038316907fbc7cd75a20ee27fd9adebab32041f755214dbc6bffa90cc0225b39da2e5c2d3b905f90a28051156120ab5761090082826121e8565b610a37612251565b5f6120c76001600160a01b03841683612270565b905080515f141580156120eb5750808060200190518101906120e99190612baf565b155b1561090057604051635274afe760e01b81526001600160a01b0384166004820152602401611be6565b7ff0c57e16840df040f15088dc2f81fe391c3923bec73e23a9662efc9c229c6a0054600160401b900460ff166117af57604051631afcd79f60e31b815260040160405180910390fd5b611a48612114565b61216d612114565b5f80516020612de8833981519152805460ff19169055565b806001600160a01b03163b5f036121ba57604051634c9c8ce360e01b81526001600160a01b0382166004820152602401611be6565b5f80516020612d8883398151915280546001600160a01b0319166001600160a01b0392909216919091179055565b60605f80846001600160a01b0316846040516122049190612d31565b5f60405180830381855af49150503d805f811461223c576040519150601f19603f3d011682016040523d82523d5f602084013e612241565b606091505b5091509150611a3f85838361227d565b34156117af5760405163b398979f60e01b815260040160405180910390fd5b60606119c283835f6122d9565b6060826122925761228d82612372565b6119c2565b81511580156122a957506001600160a01b0384163b155b156122d257604051639996b31560e01b81526001600160a01b0385166004820152602401611be6565b50806119c2565b6060814710156122fe5760405163cd78605960e01b8152306004820152602401611be6565b5f80856001600160a01b031684866040516123199190612d31565b5f6040518083038185875af1925050503d805f8114612353576040519150601f19603f3d011682016040523d82523d5f602084013e612358565b606091505b509150915061236886838361227d565b9695505050505050565b8051156123825780518082602001fd5b604051630a12f52160e11b815260040160405180910390fd5b5f602082840312156123ab575f80fd5b81356001600160e01b0319811681146119c2575f80fd5b80356001600160a01b03811681146123d8575f80fd5b919050565b5f602082840312156123ed575f80fd5b6119c2826123c2565b5f60a08284031215612406575f80fd5b50919050565b5f805f806080858703121561241f575f80fd5b612428856123c2565b93506020850135925061243d604086016123c2565b915060608501356001600160401b03811115612457575f80fd5b612463878288016123f6565b91505092959194509250565b5f8083601f84011261247f575f80fd5b5081356001600160401b03811115612495575f80fd5b6020830191508360208285010111156124ac575f80fd5b9250929050565b5f805f80606085870312156124c6575f80fd5b6124cf856123c2565b935060208501356001600160401b038111156124e9575f80fd5b6124f58782880161246f565b90945092505060408501356001600160401b03811115612457575f80fd5b5f60208284031215612523575f80fd5b5035919050565b5f806040838503121561253b575f80fd5b8235915061254b602084016123c2565b90509250929050565b5f60208284031215612406575f80fd5b5f805f8060608587031215612577575f80fd5b6125818686612554565b935061258f602086016123c2565b925060408501356001600160401b038111156125a9575f80fd5b6125b58782880161246f565b95989497509550505050565b5f81518084528060208401602086015e5f602082860101526020601f19601f83011685010191505092915050565b602081525f6119c260208301846125c1565b634e487b7160e01b5f52604160045260245ffd5b604051601f8201601f191681016001600160401b038111828210171561263d5761263d612601565b604052919050565b5f6001600160401b0382111561265d5761265d612601565b50601f01601f191660200190565b5f806040838503121561267c575f80fd5b612685836123c2565b915060208301356001600160401b0381111561269f575f80fd5b8301601f810185136126af575f80fd5b80356126c26126bd82612645565b612615565b8181528660208385010111156126d6575f80fd5b816020840160208301375f602083830101528093505050509250929050565b5f8060408385031215612706575f80fd5b61270f836123c2565b915060208301356001600160401b03811115612729575f80fd5b612735858286016123f6565b9150509250929050565b5f805f805f8060a08789031215612754575f80fd5b61275e8888612554565b955061276c602088016123c2565b945061277a604088016123c2565b93506060870135925060808701356001600160401b0381111561279b575f80fd5b6127a789828a0161246f565b979a9699509497509295939492505050565b5f60808284031215612406575f80fd5b5f805f805f8060a087890312156127de575f80fd5b6127e7876123c2565b95506127f5602088016123c2565b94506040870135935060608701356001600160401b03811115612816575f80fd5b61282289828a0161246f565b90945092505060808701356001600160401b03811115612840575f80fd5b61284c89828a016127b9565b9150509295509295509295565b5f805f6060848603121561286b575f80fd5b612874846123c2565b9250612882602085016123c2565b9150612890604085016123c2565b90509250925092565b5f805f80606085870312156128ac575f80fd5b6128b5856123c2565b935060208501356001600160401b038111156128cf575f80fd5b6128db8782880161246f565b90945092505060408501356001600160401b038111156128f9575f80fd5b612463878288016127b9565b5f805f805f8060a0878903121561291a575f80fd5b612923876123c2565b955060208701359450612938604088016123c2565b935060608701356001600160401b03811115612952575f80fd5b61295e89828a0161246f565b90945092505060808701356001600160401b0381111561297c575f80fd5b61284c89828a016123f6565b5f808335601e1984360301811261299d575f80fd5b8301803591506001600160401b038211156129b6575f80fd5b6020019150368190038213156124ac575f80fd5b8015158114610a19575f80fd5b5f808335601e198436030181126129ec575f80fd5b83016020810192503590506001600160401b03811115612a0a575f80fd5b8036038213156124ac575f80fd5b81835281816020850137505f828201602090810191909152601f909101601f19169091010190565b6001600160a01b03612a51826123c2565b1682525f6020820135612a63816129ca565b151560208401526001600160a01b03612a7e604084016123c2565b166040840152612a9160608301836129d7565b60a06060860152612aa660a086018284612a18565b6080948501359590940194909452509092915050565b83815260018060a01b0383166020820152608060408201525f608082015260a060608201525f611a3f60a0830184612a40565b5f60208284031215612aff575f80fd5b81356119c2816129ca565b8082018082111561063157634e487b7160e01b5f52601160045260245ffd5b604081525f612b3c604083018587612a18565b82810360208401526123688185612a40565b838152604060208201525f611a3f604083018486612a18565b8581526001600160a01b03851660208201526080604082018190525f90612b919083018587612a18565b8281036060840152612ba38185612a40565b98975050505050505050565b5f60208284031215612bbf575f80fd5b81516119c2816129ca565b5f60208284031215612bda575f80fd5b5051919050565b6001600160a01b03612bf2826123c2565b1682526001600160a01b03612c09602083016123c2565b166020830152604081810135908301525f612c2760608301836129d7565b60806060860152611a3f608086018284612a18565b602081525f6119c26020830184612be1565b848152606060208201525f612c67606083018587612a18565b8281036040840152612c798185612be1565b979650505050505050565b818382375f9101908152919050565b6001600160a01b03612ca4856123c2565b168152604060208201525f611a3f604083018486612a18565b5f60208284031215612ccd575f80fd5b81516001600160401b03811115612ce2575f80fd5b8201601f81018413612cf2575f80fd5b8051612d006126bd82612645565b818152856020838501011115612d14575f80fd5b8160208401602083015e5f91810160200191909152949350505050565b5f82518060208501845e5f92019182525091905056fe0da06bffcb63442de88b7f8385468eaf51e47079d4fa96875938e2c27c451deb584a0b16e9f616d90ccec14a0b852c19aceccfd3d60699398a57dce2b0de01b9360894a13ba1a3210667c828492db98dca3e2076cc3735a920a3ca505d382bbc65d7a28e3265b37a6474929f336521b332c1681b933f6cb9f3376673440d862a02dd7bc7dec4dceedda775e58dd541e08a116c6c53815c0bd028192f7b626800cd5ed15c6e187e77e9aee88184c21f4f2182ab5827cb3b7e07fbedcd63f033009b779b17422d0df92223018b32b4d1fa46e071723d6817e2486d003becc55f00a2646970667358221220ba68cb5bb8165248e5cc7b9dcdc9f497acf4c654c9a26ae6c88eedce4cdbcc0c64736f6c634300081a0033","linkReferences":{}},"methodIdentifiers":{"ASSET_HANDLER_ROLE()":"5d62c860","DEFAULT_ADMIN_ROLE()":"a217fddf","MAX_PAYLOAD_SIZE()":"a2ba1934","PAUSER_ROLE()":"e63ab1e9","TSS_ROLE()":"a783c789","UPGRADE_INTERFACE_VERSION()":"ad3cb1cc","call(address,bytes,(address,bool,address,bytes,uint256))":"1becceb4","custody()":"dda79b75","deposit(address,(address,bool,address,bytes,uint256))":"726ac97c","deposit(address,uint256,address,(address,bool,address,bytes,uint256))":"102614b0","depositAndCall(address,bytes,(address,bool,address,bytes,uint256))":"744b9b8b","depositAndCall(address,uint256,address,bytes,(address,bool,address,bytes,uint256))":"d09e3b78","execute((address),address,bytes)":"38e22527","executeRevert(address,bytes,(address,address,uint256,bytes))":"cb7ba8e5","executeWithERC20((address),address,address,uint256,bytes)":"7bbe9afa","getRoleAdmin(bytes32)":"248a9ca3","grantRole(bytes32,address)":"2f2ff15d","hasRole(bytes32,address)":"91d14854","initialize(address,address,address)":"c0c53b8b","pause()":"8456cb59","paused()":"5c975abb","proxiableUUID()":"52d1902d","renounceRole(bytes32,address)":"36568abe","revertWithERC20(address,address,uint256,bytes,(address,address,uint256,bytes))":"aa0c0fc1","revokeRole(bytes32,address)":"d547741f","setConnector(address)":"10188aef","setCustody(address)":"ae7a3a6f","supportsInterface(bytes4)":"01ffc9a7","tssAddress()":"5b112591","unpause()":"3f4ba83a","updateTSSAddress(address)":"950837aa","upgradeToAndCall(address,bytes)":"4f1ef286","zetaConnector()":"57bec62f","zetaToken()":"21e093b1"},"id":113}