{"abi":[{"type":"constructor","inputs":[{"name":"initialSupply","type":"uint256","internalType":"uint256"},{"name":"name","type":"string","internalType":"string"},{"name":"symbol","type":"string","internalType":"string"}],"stateMutability":"nonpayable"},{"type":"function","name":"allowance","inputs":[{"name":"owner","type":"address","internalType":"address"},{"name":"spender","type":"address","internalType":"address"}],"outputs":[{"name":"","type":"uint256","internalType":"uint256"}],"stateMutability":"view"},{"type":"function","name":"approve","inputs":[{"name":"spender","type":"address","internalType":"address"},{"name":"value","type":"uint256","internalType":"uint256"}],"outputs":[{"name":"","type":"bool","internalType":"bool"}],"stateMutability":"nonpayable"},{"type":"function","name":"balanceOf","inputs":[{"name":"account","type":"address","internalType":"address"}],"outputs":[{"name":"","type":"uint256","internalType":"uint256"}],"stateMutability":"view"},{"type":"function","name":"bytesToAddress","inputs":[{"name":"data","type":"bytes","internalType":"bytes"},{"name":"offset","type":"uint256","internalType":"uint256"},{"name":"size","type":"uint256","internalType":"uint256"}],"outputs":[{"name":"output","type":"address","internalType":"address"}],"stateMutability":"pure"},{"type":"function","name":"decimals","inputs":[],"outputs":[{"name":"","type":"uint8","internalType":"uint8"}],"stateMutability":"view"},{"type":"function","name":"deposit","inputs":[{"name":"to","type":"address","internalType":"address"},{"name":"amount","type":"uint256","internalType":"uint256"}],"outputs":[{"name":"","type":"bool","internalType":"bool"}],"stateMutability":"nonpayable"},{"type":"function","name":"gasFee","inputs":[],"outputs":[{"name":"","type":"uint256","internalType":"uint256"}],"stateMutability":"view"},{"type":"function","name":"gasFeeAddress","inputs":[],"outputs":[{"name":"","type":"address","internalType":"address"}],"stateMutability":"view"},{"type":"function","name":"name","inputs":[],"outputs":[{"name":"","type":"string","internalType":"string"}],"stateMutability":"view"},{"type":"function","name":"setGasFee","inputs":[{"name":"gasFee_","type":"uint256","internalType":"uint256"}],"outputs":[],"stateMutability":"nonpayable"},{"type":"function","name":"setGasFeeAddress","inputs":[{"name":"gasFeeAddress_","type":"address","internalType":"address"}],"outputs":[],"stateMutability":"nonpayable"},{"type":"function","name":"symbol","inputs":[],"outputs":[{"name":"","type":"string","internalType":"string"}],"stateMutability":"view"},{"type":"function","name":"totalSupply","inputs":[],"outputs":[{"name":"","type":"uint256","internalType":"uint256"}],"stateMutability":"view"},{"type":"function","name":"transfer","inputs":[{"name":"to","type":"address","internalType":"address"},{"name":"value","type":"uint256","internalType":"uint256"}],"outputs":[{"name":"","type":"bool","internalType":"bool"}],"stateMutability":"nonpayable"},{"type":"function","name":"transferFrom","inputs":[{"name":"from","type":"address","internalType":"address"},{"name":"to","type":"address","internalType":"address"},{"name":"value","type":"uint256","internalType":"uint256"}],"outputs":[{"name":"","type":"bool","internalType":"bool"}],"stateMutability":"nonpayable"},{"type":"function","name":"withdraw","inputs":[{"name":"to","type":"bytes","internalType":"bytes"},{"name":"amount","type":"uint256","internalType":"uint256"}],"outputs":[{"name":"","type":"bool","internalType":"bool"}],"stateMutability":"nonpayable"},{"type":"function","name":"withdrawGasFee","inputs":[],"outputs":[{"name":"","type":"address","internalType":"address"},{"name":"","type":"uint256","internalType":"uint256"}],"stateMutability":"view"},{"type":"event","name":"Approval","inputs":[{"name":"owner","type":"address","indexed":true,"internalType":"address"},{"name":"spender","type":"address","indexed":true,"internalType":"address"},{"name":"value","type":"uint256","indexed":false,"internalType":"uint256"}],"anonymous":false},{"type":"event","name":"Transfer","inputs":[{"name":"from","type":"address","indexed":true,"internalType":"address"},{"name":"to","type":"address","indexed":true,"internalType":"address"},{"name":"value","type":"uint256","indexed":false,"internalType":"uint256"}],"anonymous":false},{"type":"event","name":"Withdrawal","inputs":[{"name":"from","type":"address","indexed":true,"internalType":"address"},{"name":"to","type":"bytes","indexed":false,"internalType":"bytes"},{"name":"value","type":"uint256","indexed":false,"internalType":"uint256"},{"name":"gasfee","type":"uint256","indexed":false,"internalType":"uint256"},{"name":"protocolFlatFee","type":"uint256","indexed":false,"internalType":"uint256"}],"anonymous":false},{"type":"error","name":"ERC20InsufficientAllowance","inputs":[{"name":"spender","type":"address","internalType":"address"},{"name":"allowance","type":"uint256","internalType":"uint256"},{"name":"needed","type":"uint256","internalType":"uint256"}]},{"type":"error","name":"ERC20InsufficientBalance","inputs":[{"name":"sender","type":"address","internalType":"address"},{"name":"balance","type":"uint256","internalType":"uint256"},{"name":"needed","type":"uint256","internalType":"uint256"}]},{"type":"error","name":"ERC20InvalidApprover","inputs":[{"name":"approver","type":"address","internalType":"address"}]},{"type":"error","name":"ERC20InvalidReceiver","inputs":[{"name":"receiver","type":"address","internalType":"address"}]},{"type":"error","name":"ERC20InvalidSender","inputs":[{"name":"sender","type":"address","internalType":"address"}]},{"type":"error","name":"ERC20InvalidSpender","inputs":[{"name":"spender","type":"address","internalType":"address"}]}],"bytecode":{"object":"0x608060405234801561000f575f80fd5b5060405161106538038061106583398101604081905261002e9161029a565b8181600361003c838261038c565b506004610049828261038c565b50505061007b3361005e61009560201b60201c565b61006c9060ff16600a61053f565b6100769086610551565b61009a565b5050600580546001600160a01b031916301790555061057b565b601290565b6001600160a01b0382166100c85760405163ec442f0560e01b81525f60048201526024015b60405180910390fd5b6100d35f83836100d7565b5050565b6001600160a01b038316610101578060025f8282546100f69190610568565b909155506101719050565b6001600160a01b0383165f90815260208190526040902054818110156101535760405163391434e360e21b81526001600160a01b038516600482015260248101829052604481018390526064016100bf565b6001600160a01b0384165f9081526020819052604090209082900390555b6001600160a01b03821661018d576002805482900390556101ab565b6001600160a01b0382165f9081526020819052604090208054820190555b816001600160a01b0316836001600160a01b03167fddf252ad1be2c89b69c2b068fc378daa952ba7f163c4a11628f55a4df523b3ef836040516101f091815260200190565b60405180910390a3505050565b634e487b7160e01b5f52604160045260245ffd5b5f82601f830112610220575f80fd5b81516001600160401b03811115610239576102396101fd565b604051601f8201601f19908116603f011681016001600160401b0381118282101715610267576102676101fd565b60405281815283820160200185101561027e575f80fd5b8160208501602083015e5f918101602001919091529392505050565b5f805f606084860312156102ac575f80fd5b835160208501519093506001600160401b038111156102c9575f80fd5b6102d586828701610211565b604086015190935090506001600160401b038111156102f2575f80fd5b6102fe86828701610211565b9150509250925092565b600181811c9082168061031c57607f821691505b60208210810361033a57634e487b7160e01b5f52602260045260245ffd5b50919050565b601f82111561038757805f5260205f20601f840160051c810160208510156103655750805b601f840160051c820191505b81811015610384575f8155600101610371565b50505b505050565b81516001600160401b038111156103a5576103a56101fd565b6103b9816103b38454610308565b84610340565b6020601f8211600181146103eb575f83156103d45750848201515b5f19600385901b1c1916600184901b178455610384565b5f84815260208120601f198516915b8281101561041a57878501518255602094850194600190920191016103fa565b508482101561043757868401515f19600387901b60f8161c191681555b50505050600190811b01905550565b634e487b7160e01b5f52601160045260245ffd5b6001815b60018411156104955780850481111561047957610479610446565b600184161561048757908102905b60019390931c92800261045e565b935093915050565b5f826104ab57506001610539565b816104b757505f610539565b81600181146104cd57600281146104d7576104f3565b6001915050610539565b60ff8411156104e8576104e8610446565b50506001821b610539565b5060208310610133831016604e8410600b8410161715610516575081810a610539565b6105225f19848461045a565b805f190482111561053557610535610446565b0290505b92915050565b5f61054a838361049d565b9392505050565b808202811582820484141761053957610539610446565b8082018082111561053957610539610446565b610add806105885f395ff3fe608060405234801561000f575f80fd5b5060043610610106575f3560e01c8063658612e91161009e578063a9059cbb1161006e578063a9059cbb1461023e578063c701262614610251578063d9eeebed14610264578063dd62ed3e1461029a578063f7d8f616146102d2575f80fd5b8063658612e9146101f2578063678edca3146101fb57806370a082311461020e57806395d89b4114610236575f80fd5b80632c27d3ab116100d95780632c27d3ab14610170578063313ce5671461019b5780633e8a4ee1146101aa57806347e7ef24146101dc575f80fd5b806306fdde031461010a578063095ea7b31461012857806318160ddd1461014b57806323b872dd1461015d575b5f80fd5b6101126102e5565b60405161011f91906107f0565b60405180910390f35b61013b610136366004610840565b610375565b604051901515815260200161011f565b6002545b60405190815260200161011f565b61013b61016b366004610868565b61038e565b61018361017e3660046108e7565b6103b1565b6040516001600160a01b03909116815260200161011f565b6040516012815260200161011f565b6101da6101b8366004610934565b600580546001600160a01b0319166001600160a01b0392909216919091179055565b005b61013b6101ea366004610840565b600192915050565b61014f60065481565b6101da610209366004610954565b600655565b61014f61021c366004610934565b6001600160a01b03165f9081526020819052604090205490565b61011261040e565b61013b61024c366004610840565b61041d565b61013b61025f36600461096b565b61042a565b61027b6005546006546001600160a01b0390911691565b604080516001600160a01b03909316835260208301919091520161011f565b61014f6102a83660046109b3565b6001600160a01b039182165f90815260016020908152604080832093909416825291909152205490565b600554610183906001600160a01b031681565b6060600380546102f4906109e4565b80601f0160208091040260200160405190810160405280929190818152602001828054610320906109e4565b801561036b5780601f106103425761010080835404028352916020019161036b565b820191905f5260205f20905b81548152906001019060200180831161034e57829003601f168201915b5050505050905090565b5f336103828185856104ac565b60019150505b92915050565b5f3361039b8582856104be565b6103a685858561053e565b506001949350505050565b5f808584866103c08683610a1c565b926103cd93929190610a3b565b8080601f0160208091040260200160405190810160405280939291908181526020018383808284375f92019190915250505050929092015195945050505050565b6060600480546102f4906109e4565b5f3361038281858561053e565b5f8060208410156104475761044085855f61059b565b9050610456565b6104538585600c61059b565b90505b60065460405133917f9ffbffc04a397460ee1dbe8c9503e098090567d6b7f4b3c02a8617d800b6d95591610491918991899189915f90610a62565b60405180910390a26104a3818461041d565b95945050505050565b6104b983838360016105f8565b505050565b6001600160a01b038381165f908152600160209081526040808320938616835292905220545f198114610538578181101561052a57604051637dc7a0d960e11b81526001600160a01b038416600482015260248101829052604481018390526064015b60405180910390fd5b61053884848484035f6105f8565b50505050565b6001600160a01b03831661056757604051634b637e8f60e11b81525f6004820152602401610521565b6001600160a01b0382166105905760405163ec442f0560e01b81525f6004820152602401610521565b6104b98383836106ca565b5f808483856105ab826014610a1c565b926105b893929190610a3b565b8080601f0160208091040260200160405190810160405280939291908181526020018383808284375f920191909152505050506014015195945050505050565b6001600160a01b0384166106215760405163e602df0560e01b81525f6004820152602401610521565b6001600160a01b03831661064a57604051634a1406b160e11b81525f6004820152602401610521565b6001600160a01b038085165f908152600160209081526040808320938716835292905220829055801561053857826001600160a01b0316846001600160a01b03167f8c5be1e5ebec7d5bd14f71427d1e84f3dd0314c0f7b2291e5b200ac8c7c3b925846040516106bc91815260200190565b60405180910390a350505050565b6001600160a01b0383166106f4578060025f8282546106e99190610a1c565b909155506107649050565b6001600160a01b0383165f90815260208190526040902054818110156107465760405163391434e360e21b81526001600160a01b03851660048201526024810182905260448101839052606401610521565b6001600160a01b0384165f9081526020819052604090209082900390555b6001600160a01b0382166107805760028054829003905561079e565b6001600160a01b0382165f9081526020819052604090208054820190555b816001600160a01b0316836001600160a01b03167fddf252ad1be2c89b69c2b068fc378daa952ba7f163c4a11628f55a4df523b3ef836040516107e391815260200190565b60405180910390a3505050565b602081525f82518060208401528060208501604085015e5f604082850101526040601f19601f83011684010191505092915050565b80356001600160a01b038116811461083b575f80fd5b919050565b5f8060408385031215610851575f80fd5b61085a83610825565b946020939093013593505050565b5f805f6060848603121561087a575f80fd5b61088384610825565b925061089160208501610825565b929592945050506040919091013590565b5f8083601f8401126108b2575f80fd5b50813567ffffffffffffffff8111156108c9575f80fd5b6020830191508360208285010111156108e0575f80fd5b9250929050565b5f805f80606085870312156108fa575f80fd5b843567ffffffffffffffff811115610910575f80fd5b61091c878288016108a2565b90989097506020870135966040013595509350505050565b5f60208284031215610944575f80fd5b61094d82610825565b9392505050565b5f60208284031215610964575f80fd5b5035919050565b5f805f6040848603121561097d575f80fd5b833567ffffffffffffffff811115610993575f80fd5b61099f868287016108a2565b909790965060209590950135949350505050565b5f80604083850312156109c4575f80fd5b6109cd83610825565b91506109db60208401610825565b90509250929050565b600181811c908216806109f857607f821691505b602082108103610a1657634e487b7160e01b5f52602260045260245ffd5b50919050565b8082018082111561038857634e487b7160e01b5f52601160045260245ffd5b5f8085851115610a49575f80fd5b83861115610a55575f80fd5b5050820193919092039150565b60808152846080820152848660a08301375f60a086830101525f60a0601f19601f8801168301019050846020830152836040830152826060830152969550505050505056fea2646970667358221220fe4c90b1af294e0274a5f24403295aa815bcb85dd596e7630c0ade7e0989eb0d64736f6c634300081a0033","linkReferences":{}},"methodIdentifiers":{"allowance(address,address)":"dd62ed3e","approve(address,uint256)":"095ea7b3","balanceOf(address)":"70a08231","bytesToAddress(bytes,uint256,uint256)":"2c27d3ab","decimals()":"313ce567","deposit(address,uint256)":"47e7ef24","gasFee()":"658612e9","gasFeeAddress()":"f7d8f616","name()":"06fdde03","setGasFee(uint256)":"678edca3","setGasFeeAddress(address)":"3e8a4ee1","symbol()":"95d89b41","totalSupply()":"18160ddd","transfer(address,uint256)":"a9059cbb","transferFrom(address,address,uint256)":"23b872dd","withdraw(bytes,uint256)":"c7012626","withdrawGasFee()":"d9eeebed"},"id":35}