{"abi":[{"type":"constructor","inputs":[{"name":"gatewayAddress","type":"address","internalType":"address payable"}],"stateMutability":"nonpayable"},{"type":"fallback","stateMutability":"payable"},{"type":"receive","stateMutability":"payable"},{"type":"function","name":"gateway","inputs":[],"outputs":[{"name":"","type":"address","internalType":"contract GatewayEVM"}],"stateMutability":"view"},{"type":"function","name":"swapERC20","inputs":[{"name":"universalSwapContract","type":"address","internalType":"address"},{"name":"targetToken","type":"address","internalType":"address"},{"name":"recipient","type":"bytes","internalType":"bytes"},{"name":"amount","type":"uint256","internalType":"uint256"},{"name":"asset","type":"address","internalType":"address"},{"name":"withdraw","type":"bool","internalType":"bool"}],"outputs":[],"stateMutability":"nonpayable"},{"type":"function","name":"swapNativeGas","inputs":[{"name":"universalSwapContract","type":"address","internalType":"address"},{"name":"targetToken","type":"address","internalType":"address"},{"name":"recipient","type":"bytes","internalType":"bytes"},{"name":"withdraw","type":"bool","internalType":"bool"}],"outputs":[],"stateMutability":"payable"},{"type":"error","name":"AddressEmptyCode","inputs":[{"name":"target","type":"address","internalType":"address"}]},{"type":"error","name":"AddressInsufficientBalance","inputs":[{"name":"account","type":"address","internalType":"address"}]},{"type":"error","name":"ApprovalFailed","inputs":[]},{"type":"error","name":"FailedInnerCall","inputs":[]},{"type":"error","name":"SafeERC20FailedOperation","inputs":[{"name":"token","type":"address","internalType":"address"}]}],"bytecode":{"object":"0x60a0604052348015600e575f80fd5b5060405161091f38038061091f833981016040819052602b91603b565b6001600160a01b03166080526066565b5f60208284031215604a575f80fd5b81516001600160a01b0381168114605f575f80fd5b9392505050565b60805161088e6100915f395f8181604e0152818160c0015281816101be0152610256015261088e5ff3fe608060405260043610610034575f3560e01c8063116191b61461003d578063352ce3121461008c57806396ff53831461009f57005b3661003b57005b005b348015610048575f80fd5b506100707f000000000000000000000000000000000000000000000000000000000000000081565b6040516001600160a01b03909116815260200160405180910390f35b61003b61009a3660046105f3565b6100be565b3480156100aa575f80fd5b5061003b6100b9366004610660565b610192565b7f00000000000000000000000000000000000000000000000000000000000000006001600160a01b031663744b9b8b348686868660405160200161010493929190610715565b60408051601f1981840301815260a0830182523383525f6020848101829052848401829052835190810184528181526060850152608084015290516001600160e01b031960e087901b16815261015e9392906004016107a2565b5f604051808303818588803b158015610175575f80fd5b505af1158015610187573d5f803e3d5ffd5b505050505050505050565b6101a76001600160a01b03831633308661032c565b60405163095ea7b360e01b81526001600160a01b037f0000000000000000000000000000000000000000000000000000000000000000811660048301526024820185905283169063095ea7b3906044016020604051808303815f875af1158015610213573d5f803e3d5ffd5b505050506040513d601f19601f8201168201806040525081019061023791906107d7565b610254576040516340b27c2160e11b815260040160405180910390fd5b7f00000000000000000000000000000000000000000000000000000000000000006001600160a01b031663d09e3b7887858589898760405160200161029b93929190610715565b60408051601f1981840301815260a0830182523383525f6020848101829052848401829052835190810184528181526060850152608084015290516001600160e01b031960e088901b1681526102f795949392906004016107f2565b5f604051808303815f87803b15801561030e575f80fd5b505af1158015610320573d5f803e3d5ffd5b50505050505050505050565b604080516001600160a01b0385811660248301528416604482015260648082018490528251808303909101815260849091019091526020810180516001600160e01b03166323b872dd60e01b17905261038690859061038c565b50505050565b5f6103a06001600160a01b038416836103f7565b905080515f141580156103c45750808060200190518101906103c291906107d7565b155b156103f257604051635274afe760e01b81526001600160a01b03841660048201526024015b60405180910390fd5b505050565b606061040483835f61040b565b9392505050565b6060814710156104305760405163cd78605960e01b81523060048201526024016103e9565b5f80856001600160a01b0316848660405161044b9190610842565b5f6040518083038185875af1925050503d805f8114610485576040519150601f19603f3d011682016040523d82523d5f602084013e61048a565b606091505b509150915061049a8683836104a4565b9695505050505050565b6060826104b9576104b482610500565b610404565b81511580156104d057506001600160a01b0384163b155b156104f957604051639996b31560e01b81526001600160a01b03851660048201526024016103e9565b5080610404565b8051156105105780518082602001fd5b604051630a12f52160e11b815260040160405180910390fd5b50565b80356001600160a01b0381168114610542575f80fd5b919050565b634e487b7160e01b5f52604160045260245ffd5b5f82601f83011261056a575f80fd5b813567ffffffffffffffff81111561058457610584610547565b604051601f8201601f19908116603f0116810167ffffffffffffffff811182821017156105b3576105b3610547565b6040528181528382016020018510156105ca575f80fd5b816020850160208301375f918101602001919091529392505050565b8015158114610529575f80fd5b5f805f8060808587031215610606575f80fd5b61060f8561052c565b935061061d6020860161052c565b9250604085013567ffffffffffffffff811115610638575f80fd5b6106448782880161055b565b9250506060850135610655816105e6565b939692955090935050565b5f805f805f8060c08789031215610675575f80fd5b61067e8761052c565b955061068c6020880161052c565b9450604087013567ffffffffffffffff8111156106a7575f80fd5b6106b389828a0161055b565b945050606087013592506106c96080880161052c565b915060a08701356106d9816105e6565b809150509295509295509295565b5f81518084528060208401602086015e5f602082860101526020601f19601f83011685010191505092915050565b6001600160a01b03841681526060602082018190525f90610738908301856106e7565b90508215156040830152949350505050565b60018060a01b03815116825260208101511515602083015260018060a01b0360408201511660408301525f606082015160a0606085015261078e60a08501826106e7565b608093840151949093019390935250919050565b6001600160a01b03841681526060602082018190525f906107c5908301856106e7565b828103604084015261049a818561074a565b5f602082840312156107e7575f80fd5b8151610404816105e6565b6001600160a01b038681168252602082018690528416604082015260a0606082018190525f90610824908301856106e7565b8281036080840152610836818561074a565b98975050505050505050565b5f82518060208501845e5f92019182525091905056fea26469706673582212203fc1adfb061d72035a458d4c8a03193b9f4463f39004b88e40cc9a991c569fd664736f6c634300081a0033","linkReferences":{}},"methodIdentifiers":{"gateway()":"116191b6","swapERC20(address,address,bytes,uint256,address,bool)":"96ff5383","swapNativeGas(address,address,bytes,bool)":"352ce312"},"id":25}