{"abi":[{"type":"constructor","inputs":[],"stateMutability":"nonpayable"},{"type":"function","name":"UPGRADE_INTERFACE_VERSION","inputs":[],"outputs":[{"name":"","type":"string","internalType":"string"}],"stateMutability":"view"},{"type":"function","name":"gasLimit","inputs":[],"outputs":[{"name":"","type":"uint256","internalType":"uint256"}],"stateMutability":"view"},{"type":"function","name":"gateway","inputs":[],"outputs":[{"name":"","type":"address","internalType":"contract GatewayZEVM"}],"stateMutability":"view"},{"type":"function","name":"initialize","inputs":[{"name":"gatewayAddress","type":"address","internalType":"address payable"},{"name":"uniswapRouterAddress","type":"address","internalType":"address"},{"name":"gasLimitAmount","type":"uint256","internalType":"uint256"},{"name":"owner","type":"address","internalType":"address"}],"outputs":[],"stateMutability":"nonpayable"},{"type":"function","name":"onCall","inputs":[{"name":"context","type":"tuple","internalType":"struct MessageContext","components":[{"name":"origin","type":"bytes","internalType":"bytes"},{"name":"sender","type":"address","internalType":"address"},{"name":"chainID","type":"uint256","internalType":"uint256"}]},{"name":"zrc20","type":"address","internalType":"address"},{"name":"amount","type":"uint256","internalType":"uint256"},{"name":"message","type":"bytes","internalType":"bytes"}],"outputs":[],"stateMutability":"nonpayable"},{"type":"function","name":"onRevert","inputs":[{"name":"context","type":"tuple","internalType":"struct RevertContext","components":[{"name":"sender","type":"address","internalType":"address"},{"name":"asset","type":"address","internalType":"address"},{"name":"amount","type":"uint256","internalType":"uint256"},{"name":"revertMessage","type":"bytes","internalType":"bytes"}]}],"outputs":[],"stateMutability":"nonpayable"},{"type":"function","name":"owner","inputs":[],"outputs":[{"name":"","type":"address","internalType":"address"}],"stateMutability":"view"},{"type":"function","name":"proxiableUUID","inputs":[],"outputs":[{"name":"","type":"bytes32","internalType":"bytes32"}],"stateMutability":"view"},{"type":"function","name":"quoteMinInput","inputs":[{"name":"inputToken","type":"address","internalType":"address"},{"name":"targetToken","type":"address","internalType":"address"}],"outputs":[{"name":"","type":"uint256","internalType":"uint256"}],"stateMutability":"view"},{"type":"function","name":"renounceOwnership","inputs":[],"outputs":[],"stateMutability":"nonpayable"},{"type":"function","name":"swap","inputs":[{"name":"inputToken","type":"address","internalType":"address"},{"name":"amount","type":"uint256","internalType":"uint256"},{"name":"targetToken","type":"address","internalType":"address"},{"name":"recipient","type":"bytes","internalType":"bytes"},{"name":"withdrawFlag","type":"bool","internalType":"bool"}],"outputs":[],"stateMutability":"nonpayable"},{"type":"function","name":"transferOwnership","inputs":[{"name":"newOwner","type":"address","internalType":"address"}],"outputs":[],"stateMutability":"nonpayable"},{"type":"function","name":"uniswapRouter","inputs":[],"outputs":[{"name":"","type":"address","internalType":"address"}],"stateMutability":"view"},{"type":"function","name":"upgradeToAndCall","inputs":[{"name":"newImplementation","type":"address","internalType":"address"},{"name":"data","type":"bytes","internalType":"bytes"}],"outputs":[],"stateMutability":"payable"},{"type":"event","name":"Initialized","inputs":[{"name":"version","type":"uint64","indexed":false,"internalType":"uint64"}],"anonymous":false},{"type":"event","name":"OwnershipTransferred","inputs":[{"name":"previousOwner","type":"address","indexed":true,"internalType":"address"},{"name":"newOwner","type":"address","indexed":true,"internalType":"address"}],"anonymous":false},{"type":"event","name":"TokenSwap","inputs":[{"name":"sender","type":"bytes","indexed":false,"internalType":"bytes"},{"name":"recipient","type":"bytes","indexed":true,"internalType":"bytes"},{"name":"inputToken","type":"address","indexed":true,"internalType":"address"},{"name":"targetToken","type":"address","indexed":true,"internalType":"address"},{"name":"inputAmount","type":"uint256","indexed":false,"internalType":"uint256"},{"name":"outputAmount","type":"uint256","indexed":false,"internalType":"uint256"}],"anonymous":false},{"type":"event","name":"Upgraded","inputs":[{"name":"implementation","type":"address","indexed":true,"internalType":"address"}],"anonymous":false},{"type":"error","name":"AdditionsOverflow","inputs":[]},{"type":"error","name":"AddressEmptyCode","inputs":[{"name":"target","type":"address","internalType":"address"}]},{"type":"error","name":"ApprovalFailed","inputs":[]},{"type":"error","name":"CantBeIdenticalAddresses","inputs":[]},{"type":"error","name":"CantBeZeroAddress","inputs":[]},{"type":"error","name":"ERC1967InvalidImplementation","inputs":[{"name":"implementation","type":"address","internalType":"address"}]},{"type":"error","name":"ERC1967NonPayable","inputs":[]},{"type":"error","name":"FailedInnerCall","inputs":[]},{"type":"error","name":"IdenticalAddresses","inputs":[]},{"type":"error","name":"InsufficientAmount","inputs":[{"name":"","type":"string","internalType":"string"}]},{"type":"error","name":"InsufficientInputAmount","inputs":[]},{"type":"error","name":"InsufficientLiquidity","inputs":[]},{"type":"error","name":"InvalidAddress","inputs":[]},{"type":"error","name":"InvalidInitialization","inputs":[]},{"type":"error","name":"InvalidMessageLength","inputs":[]},{"type":"error","name":"InvalidPath","inputs":[]},{"type":"error","name":"InvalidPathLength","inputs":[]},{"type":"error","name":"MultiplicationsOverflow","inputs":[]},{"type":"error","name":"NotInitializing","inputs":[]},{"type":"error","name":"OffsetOutOfBounds","inputs":[]},{"type":"error","name":"OwnableInvalidOwner","inputs":[{"name":"owner","type":"address","internalType":"address"}]},{"type":"error","name":"OwnableUnauthorizedAccount","inputs":[{"name":"account","type":"address","internalType":"address"}]},{"type":"error","name":"TransferFailed","inputs":[{"name":"","type":"string","internalType":"string"}]},{"type":"error","name":"UUPSUnauthorizedCallContext","inputs":[]},{"type":"error","name":"UUPSUnsupportedProxiableUUID","inputs":[{"name":"slot","type":"bytes32","internalType":"bytes32"}]},{"type":"error","name":"Unauthorized","inputs":[]},{"type":"error","name":"ZeroAddress","inputs":[]}],"bytecode":{"object":"0x60a060405230608052348015610013575f80fd5b5061001c610021565b6100d3565b7ff0c57e16840df040f15088dc2f81fe391c3923bec73e23a9662efc9c229c6a00805468010000000000000000900460ff16156100715760405163f92ee8a960e01b815260040160405180910390fd5b80546001600160401b03908116146100d05780546001600160401b0319166001600160401b0390811782556040519081527fc7f505b2f371ae2175ee4913f4499e1f2633a7b5936321eed1cdaeb6115181d29060200160405180910390a15b50565b608051612f026100f95f395f8181610dbe01528181610de70152610f2b0152612f025ff3fe6080604052600436106100d9575f3560e01c806374718c581161007c578063be20309411610057578063be20309414610258578063c9028a3614610277578063f2fde38b14610296578063f68016b7146102b5575f80fd5b806374718c58146101c05780638da5cb5b146101df578063ad3cb1cc1461021b575f80fd5b806352d1902d116100b757806352d1902d1461015b5780635bcfd6161461016f578063715018a61461018e578063735de9f7146101a2575f80fd5b8063116191b6146100dd5780631b3614b8146101195780634f1ef28614610146575b5f80fd5b3480156100e8575f80fd5b506001546100fc906001600160a01b031681565b6040516001600160a01b0390911681526020015b60405180910390f35b348015610124575f80fd5b50610138610133366004612675565b6102ca565b604051908152602001610110565b61015961015436600461275b565b6105e6565b005b348015610166575f80fd5b50610138610605565b34801561017a575f80fd5b506101596101893660046127a7565b610620565b348015610199575f80fd5b506101596108cf565b3480156101ad575f80fd5b505f546100fc906001600160a01b031681565b3480156101cb575f80fd5b506101596101da366004612866565b6108e2565b3480156101ea575f80fd5b507f9016d09d72d40fdae2fd8ceac6b6234c7706214fd39c1cd1e609a0528c199300546001600160a01b03166100fc565b348015610226575f80fd5b5061024b604051806040016040528060058152602001640352e302e360dc1b81525081565b604051610110919061290f565b348015610263575f80fd5b50610159610272366004612921565b610abe565b348015610282575f80fd5b50610159610291366004612971565b610c43565b3480156102a1575f80fd5b506101596102b03660046129a7565b610d76565b3480156102c0575f80fd5b5061013860025481565b5f805f836001600160a01b031663d9eeebed6040518163ffffffff1660e01b81526004016040805180830381865afa158015610308573d5f803e3d5ffd5b505050506040513d601f19601f8201168201806040525081019061032c91906129c2565b91509150816001600160a01b0316856001600160a01b0316036103525791506105e09050565b5f805f9054906101000a90046001600160a01b03166001600160a01b031663ad5c46486040518163ffffffff1660e01b8152600401602060405180830381865afa1580156103a2573d5f803e3d5ffd5b505050506040513d601f19601f820116820180604052508101906103c691906129ee565b90506060816001600160a01b0316876001600160a01b031614806103fb5750816001600160a01b0316846001600160a01b0316145b1561048c57604080516002808252606082018352909160208301908036833701905050905086815f8151811061043357610433612a09565b60200260200101906001600160a01b031690816001600160a01b031681525050838160018151811061046757610467612a09565b60200260200101906001600160a01b031690816001600160a01b031681525050610549565b60408051600380825260808201909252906020820160608036833701905050905086815f815181106104c0576104c0612a09565b60200260200101906001600160a01b031690816001600160a01b03168152505081816001815181106104f4576104f4612a09565b60200260200101906001600160a01b031690816001600160a01b031681525050838160028151811061052857610528612a09565b60200260200101906001600160a01b031690816001600160a01b0316815250505b5f80546040516307c0329d60e21b81526001600160a01b0390911690631f00ca749061057b9087908690600401612a60565b5f60405180830381865afa158015610595573d5f803e3d5ffd5b505050506040513d5f823e601f3d908101601f191682016040526105bc9190810190612a78565b9050805f815181106105d0576105d0612a09565b6020026020010151955050505050505b92915050565b6105ee610db3565b6105f782610e57565b6106018282610e5f565b5050565b5f61060e610f20565b505f80516020612ead83398151915290565b6001546001600160a01b0316331461064a576040516282b42960e81b815260040160405180910390fd5b604080516060810182525f808252825160208181018552918152908201526001818301529086013561479e1480610686575061208c8660400135145b156107a55760298210156106ad57604051638d0242c960e01b815260040160405180910390fd5b6106b883835f610f69565b6001600160a01b031681526106ce601583612b2b565b6001600160401b038111156106e5576106e56126ac565b6040519080825280601f01601f19166020018201604052801561070f576020820181803683370190505b5060208201525f5b610722601584612b2b565b811015610783578383610736836014612b3e565b81811061074557610745612a09565b9050013560f81c60f81b8260200151828151811061076557610765612a09565b60200101906001600160f81b03191690815f1a905350600101610717565b506107998383610794600182612b2b565b610fc6565b151560408201526107d1565b5f80806107b485870187612b51565b6001600160a01b0390921686526020860152151560408501525050505b5f805f6107e78888865f0151876040015161100e565b925092509250835f01516001600160a01b0316886001600160a01b031685602001516040516108169190612bb0565b60405180910390207fba7f8a6dcaea3774fd68f47a5ea12be87b507cbf0cc4569120e316e7c86e85798c602001602081019061085291906129a7565b6040516020016108629190612bc6565b60408051601f1981840301815290829052610880918d908a90612bde565b60405180910390a46108c48461089c60408c0160208d016129a7565b6040516020016108ac9190612bc6565b6040516020818303038152906040528385878d61119e565b505050505050505050565b6108d761158c565b6108e05f6115e7565b565b6040516323b872dd60e01b8152336004820152306024820152604481018590525f906001600160a01b038716906323b872dd906064016020604051808303815f875af1158015610934573d5f803e3d5ffd5b505050506040513d601f19601f820116820180604052508101906109589190612c02565b9050806109d557604080516312dfddb360e01b81526020600482015260248101919091527f4661696c656420746f207472616e73666572205a52432d323020746f6b656e7360448201527f2066726f6d207468652073656e64657220746f2074686520636f6e747261637460648201526084015b60405180910390fd5b5f805f6109e48989898861100e565b925092509250866001600160a01b0316896001600160a01b031687604051610a0c9190612bb0565b60405180910390207fba7f8a6dcaea3774fd68f47a5ea12be87b507cbf0cc4569120e316e7c86e857933604051602001610a469190612bc6565b60408051601f1981840301815290829052610a64918e908a90612bde565b60405180910390a46108c46040518060600160405280896001600160a01b0316815260200188815260200187151581525033604051602001610aa69190612bc6565b6040516020818303038152906040528385878e61119e565b7ff0c57e16840df040f15088dc2f81fe391c3923bec73e23a9662efc9c229c6a008054600160401b810460ff1615906001600160401b03165f81158015610b025750825b90505f826001600160401b03166001148015610b1d5750303b155b905081158015610b2b575080155b15610b495760405163f92ee8a960e01b815260040160405180910390fd5b845467ffffffffffffffff191660011785558315610b7357845460ff60401b1916600160401b1785555b6001600160a01b0389161580610b9057506001600160a01b038816155b15610bae5760405163e6c4247b60e01b815260040160405180910390fd5b610bb6611657565b610bbf8661165f565b5f80546001600160a01b03808b166001600160a01b03199283161790925560018054928c1692909116919091179055600287905583156108c457845460ff60401b19168555604051600181527fc7f505b2f371ae2175ee4913f4499e1f2633a7b5936321eed1cdaeb6115181d29060200160405180910390a1505050505050505050565b6001546001600160a01b03163314610c6d576040516282b42960e81b815260040160405180910390fd5b5f80610c7c6060840184612c1d565b810190610c899190612c5f565b90925090505f610caf610ca260408601602087016129a7565b856040013584600161100e565b50506001546040805160a081019091529192506001600160a01b031690637c0dcb5f9085908490869080610ce285612ca2565b60601c6001600160a01b031681526020015f151581526020015f6001600160a01b0316815260200160405180602001604052805f81525081526020016002548152506040518563ffffffff1660e01b8152600401610d439493929190612cf0565b5f604051808303815f87803b158015610d5a575f80fd5b505af1158015610d6c573d5f803e3d5ffd5b5050505050505050565b610d7e61158c565b6001600160a01b038116610da757604051631e4fbdf760e01b81525f60048201526024016109cc565b610db0816115e7565b50565b306001600160a01b037f0000000000000000000000000000000000000000000000000000000000000000161480610e3957507f00000000000000000000000000000000000000000000000000000000000000006001600160a01b0316610e2d5f80516020612ead833981519152546001600160a01b031690565b6001600160a01b031614155b156108e05760405163703e46dd60e11b815260040160405180910390fd5b610db061158c565b816001600160a01b03166352d1902d6040518163ffffffff1660e01b8152600401602060405180830381865afa925050508015610eb9575060408051601f3d908101601f19168201909252610eb691810190612d7b565b60015b610ee157604051634c9c8ce360e01b81526001600160a01b03831660048201526024016109cc565b5f80516020612ead8339815191528114610f1157604051632a87526960e21b8152600481018290526024016109cc565b610f1b8383611670565b505050565b306001600160a01b037f000000000000000000000000000000000000000000000000000000000000000016146108e05760405163703e46dd60e11b815260040160405180910390fd5b5f80848385610f79826014612b3e565b92610f8693929190612d92565b8080601f0160208091040260200160405190810160405280939291908181526020018383808284375f920191909152505050506014015195945050505050565b5f828210610fe7576040516309605a0160e41b815260040160405180910390fd5b838383818110610ff957610ff9612a09565b919091013560f81c15159150505b9392505050565b5f808080808088871561117257886001600160a01b031663d9eeebed6040518163ffffffff1660e01b81526004016040805180830381865afa158015611056573d5f803e3d5ffd5b505050506040513d601f19601f8201168201806040525081019061107a91906129c2565b90935091505f61108a8c8b6102ca565b9050808b101561111f5760405163240bf61760e11b815260206004820152605360248201527f54686520696e70757420616d6f756e74206973206c657373207468616e20746860448201527f65206d696e20616d6f756e7420726571756972656420746f20636f76657220746064820152726865207769746864726177206761732066656560681b608482015260a4016109cc565b8b6001600160a01b0316846001600160a01b03160361114957611142838c612b2b565b9150611170565b5f54611161906001600160a01b03168d85878f6116c5565b945061116d858c612b2b565b91505b505b5f805461118b906001600160a01b03168d848d85611a09565b9c939b5091995091975050505050505050565b85604001511561148257855f01516001600160a01b0316836001600160a01b031603611272576001546001600160a01b038085169163095ea7b391166111e48786612b3e565b6040516001600160e01b031960e085901b1681526001600160a01b03909216600483015260248201526044016020604051808303815f875af115801561122c573d5f803e3d5ffd5b505050506040513d601f19601f820116820180604052508101906112509190612c02565b61126d576040516340b27c2160e11b815260040160405180910390fd5b611395565b60015460405163095ea7b360e01b81526001600160a01b039182166004820152602481018690529084169063095ea7b3906044016020604051808303815f875af11580156112c2573d5f803e3d5ffd5b505050506040513d601f19601f820116820180604052508101906112e69190612c02565b611303576040516340b27c2160e11b815260040160405180910390fd5b855160015460405163095ea7b360e01b81526001600160a01b0391821660048201526024810185905291169063095ea7b3906044016020604051808303815f875af1158015611354573d5f803e3d5ffd5b505050506040513d601f19601f820116820180604052508101906113789190612c02565b611395576040516340b27c2160e11b815260040160405180910390fd5b6001546020808801516040516001600160a01b0390931692637c0dcb5f926113be929101612bb0565b60405160208183030381529060405284895f01516040518060a00160405280306001600160a01b031681526020016001151581526020015f6001600160a01b031681526020018b88604051602001611417929190612db9565b60405160208183030381529060405281526020016002548152506040518563ffffffff1660e01b81526004016114509493929190612cf0565b5f604051808303815f87803b158015611467575f80fd5b505af1158015611479573d5f803e3d5ffd5b50505050611584565b5f865f01516001600160a01b031663a9059cbb88602001516114a390612ca2565b6040516001600160e01b031960e084901b16815260609190911c6004820152602481018690526044016020604051808303815f875af11580156114e8573d5f803e3d5ffd5b505050506040513d601f19601f8201168201806040525081019061150c9190612c02565b905080611582576040516312dfddb360e01b815260206004820152603e60248201527f4661696c656420746f207472616e736665722074617267657420746f6b656e7360448201527f20746f2074686520726563697069656e74206f6e205a657461436861696e000060648201526084016109cc565b505b505050505050565b336115be7f9016d09d72d40fdae2fd8ceac6b6234c7706214fd39c1cd1e609a0528c199300546001600160a01b031690565b6001600160a01b0316146108e05760405163118cdaa760e01b81523360048201526024016109cc565b7f9016d09d72d40fdae2fd8ceac6b6234c7706214fd39c1cd1e609a0528c19930080546001600160a01b031981166001600160a01b03848116918217845560405192169182907f8be0079c531659141344cd1fd0a4f28419497f9722a3daafe3b4186f6b6457e0905f90a3505050565b6108e0611d96565b611667611d96565b610db081611ddf565b61167982611de7565b6040516001600160a01b038316907fbc7cd75a20ee27fd9adebab32041f755214dbc6bffa90cc0225b39da2e5c2d3b905f90a28051156116bd57610f1b8282611e4a565b610601611ebc565b5f80866001600160a01b031663c45a01556040518163ffffffff1660e01b8152600401602060405180830381865afa158015611703573d5f803e3d5ffd5b505050506040513d601f19601f8201168201806040525081019061172791906129ee565b90505f876001600160a01b031663ad5c46486040518163ffffffff1660e01b8152600401602060405180830381865afa158015611766573d5f803e3d5ffd5b505050506040513d601f19601f8201168201806040525081019061178a91906129ee565b90505f611798838988611edb565b90506060811561182e57604080516002808252606082018352909160208301908036833701905050905088815f815181106117d5576117d5612a09565b60200260200101906001600160a01b031690816001600160a01b031681525050868160018151811061180957611809612a09565b60200260200101906001600160a01b031690816001600160a01b0316815250506118eb565b60408051600380825260808201909252906020820160608036833701905050905088815f8151811061186257611862612a09565b60200260200101906001600160a01b031690816001600160a01b031681525050828160018151811061189657611896612a09565b60200260200101906001600160a01b031690816001600160a01b03168152505086816002815181106118ca576118ca612a09565b60200260200101906001600160a01b031690816001600160a01b0316815250505b60405163095ea7b360e01b81526001600160a01b038b81166004830152602482018890528a169063095ea7b3906044016020604051808303815f875af1158015611937573d5f803e3d5ffd5b505050506040513d601f19601f8201168201806040525081019061195b9190612c02565b505f6001600160a01b038b16638803dbee8a89853061197b60c842612b3e565b6040518663ffffffff1660e01b815260040161199b959493929190612de2565b5f604051808303815f875af11580156119b6573d5f803e3d5ffd5b505050506040513d5f823e601f3d908101601f191682016040526119dd9190810190612a78565b9050805f815181106119f1576119f1612a09565b60200260200101519550505050505095945050505050565b5f80866001600160a01b031663c45a01556040518163ffffffff1660e01b8152600401602060405180830381865afa158015611a47573d5f803e3d5ffd5b505050506040513d601f19601f82011682018060405250810190611a6b91906129ee565b90505f876001600160a01b031663ad5c46486040518163ffffffff1660e01b8152600401602060405180830381865afa158015611aaa573d5f803e3d5ffd5b505050506040513d601f19601f82011682018060405250810190611ace91906129ee565b60408051600280825260608083018452939450909160208301908036833701905050905087815f81518110611b0557611b05612a09565b60200260200101906001600160a01b031690816001600160a01b0316815250508581600181518110611b3957611b39612a09565b60200260200101906001600160a01b031690816001600160a01b0316815250505f611b6684898885611fd2565b90505f836001600160a01b0316886001600160a01b03161480611b9a5750836001600160a01b03168a6001600160a01b0316145b905081158015611ba8575080155b15611c6a5760408051600380825260808201909252906020820160608036833701905050925089835f81518110611be157611be1612a09565b60200260200101906001600160a01b031690816001600160a01b0316815250508383600181518110611c1557611c15612a09565b60200260200101906001600160a01b031690816001600160a01b0316815250508783600281518110611c4957611c49612a09565b60200260200101906001600160a01b031690816001600160a01b0316815250505b60405163095ea7b360e01b81526001600160a01b038c81166004830152602482018b90528b169063095ea7b3906044016020604051808303815f875af1158015611cb6573d5f803e3d5ffd5b505050506040513d601f19601f82011682018060405250810190611cda9190612c02565b505f6001600160a01b038c166338ed17398b8a8730611cfa60c842612b3e565b6040518663ffffffff1660e01b8152600401611d1a959493929190612de2565b5f604051808303815f875af1158015611d35573d5f803e3d5ffd5b505050506040513d5f823e601f3d908101601f19168201604052611d5c9190810190612a78565b90508060018551611d6d9190612b2b565b81518110611d7d57611d7d612a09565b6020026020010151965050505050505095945050505050565b7ff0c57e16840df040f15088dc2f81fe391c3923bec73e23a9662efc9c229c6a0054600160401b900460ff166108e057604051631afcd79f60e31b815260040160405180910390fd5b610d7e611d96565b806001600160a01b03163b5f03611e1c57604051634c9c8ce360e01b81526001600160a01b03821660048201526024016109cc565b5f80516020612ead83398151915280546001600160a01b0319166001600160a01b0392909216919091179055565b60605f80846001600160a01b031684604051611e669190612bb0565b5f60405180830381855af49150503d805f8114611e9e576040519150601f19603f3d011682016040523d82523d5f602084013e611ea3565b606091505b5091509150611eb3858383612089565b95945050505050565b34156108e05760405163b398979f60e01b815260040160405180910390fd5b5f80611ee88585856120e5565b6040516370a0823160e01b81526001600160a01b0380831660048301529192505f918616906370a0823190602401602060405180830381865afa158015611f31573d5f803e3d5ffd5b505050506040513d601f19601f82011682018060405250810190611f559190612d7b565b118015611eb357506040516370a0823160e01b81526001600160a01b0382811660048301525f91908516906370a0823190602401602060405180830381865afa158015611fa4573d5f803e3d5ffd5b505050506040513d601f19601f82011682018060405250810190611fc89190612d7b565b1195945050505050565b5f8151600214611ff5576040516366b045ff60e11b815260040160405180910390fd5b5f61203486845f8151811061200c5761200c612a09565b60200260200101518560018151811061202757612027612a09565b6020026020010151611edb565b905080612044575f915050612081565b5f6120508787866121b2565b90508481600183516120629190612b2b565b8151811061207257612072612a09565b60200260200101511015925050505b949350505050565b60608261209e57612099826122fe565b611007565b81511580156120b557506001600160a01b0384163b155b156120de57604051639996b31560e01b81526001600160a01b03851660048201526024016109cc565b5080611007565b5f805f6120f28585612327565b6040516001600160601b0319606084811b8216602084015283901b16603482015291935091508690604801604051602081830303815290604052805190602001206040516020016121909291906001600160f81b0319815260609290921b6001600160601b031916600183015260158201527f96e8ac4277198ff8b6f785478aa9a39f403cb768dd02cbee326c3e7da348845f603582015260550190565b60408051601f1981840301815291905280516020909101209695505050505050565b60606002825110156121d7576040516320db826760e01b815260040160405180910390fd5b81516001600160401b038111156121f0576121f06126ac565b604051908082528060200260200182016040528015612219578160200160208202803683370190505b50905082815f8151811061222f5761222f612a09565b6020026020010181815250505f5b6001835161224b9190612b2b565b8110156122f6575f8061229d8786858151811061226a5761226a612a09565b6020026020010151878660016122809190612b3e565b8151811061229057612290612a09565b60200260200101516123b1565b915091506122c58484815181106122b6576122b6612a09565b60200260200101518383612476565b846122d1856001612b3e565b815181106122e1576122e1612a09565b6020908102919091010152505060010161223d565b509392505050565b80511561230e5780518082602001fd5b604051630a12f52160e11b815260040160405180910390fd5b5f80826001600160a01b0316846001600160a01b03160361235b5760405163658f3e7f60e11b815260040160405180910390fd5b826001600160a01b0316846001600160a01b03161061237b57828461237e565b83835b90925090506001600160a01b0382166123aa57604051633c5a83ed60e11b815260040160405180910390fd5b9250929050565b5f805f6123be858561250a565b5090505f806123ce88888861258d565b6001600160a01b0316630902f1ac6040518163ffffffff1660e01b8152600401606060405180830381865afa158015612409573d5f803e3d5ffd5b505050506040513d601f19601f8201168201806040525081019061242d9190612e38565b506001600160701b031691506001600160701b03169150826001600160a01b0316876001600160a01b031614612464578082612467565b81815b90999098509650505050505050565b5f835f036124975760405163098fb56160e01b815260040160405180910390fd5b8215806124a2575081155b156124c05760405163bb55fd2760e01b815260040160405180910390fd5b5f6124cd856103e5612600565b90505f6124da8285612600565b90505f6124f3836124ed886103e8612600565b9061263d565b90506124ff8183612e8d565b979650505050505050565b5f80826001600160a01b0316846001600160a01b03160361253e57604051630bd969eb60e41b815260040160405180910390fd5b826001600160a01b0316846001600160a01b03161061255e578284612561565b83835b90925090506001600160a01b0382166123aa5760405163d92e233d60e01b815260040160405180910390fd5b60405163e6a4390560e01b81526001600160a01b03838116600483015282811660248301525f919085169063e6a4390590604401602060405180830381865afa1580156125dc573d5f803e3d5ffd5b505050506040513d601f19601f8201168201806040525081019061208191906129ee565b5f8215806126205750508181028183828161261d5761261d612e79565b04145b6105e057604051632bcb93b560e11b815260040160405180910390fd5b818101828110156105e05760405163a259879560e01b815260040160405180910390fd5b6001600160a01b0381168114610db0575f80fd5b5f8060408385031215612686575f80fd5b823561269181612661565b915060208301356126a181612661565b809150509250929050565b634e487b7160e01b5f52604160045260245ffd5b604051601f8201601f191681016001600160401b03811182821017156126e8576126e86126ac565b604052919050565b5f82601f8301126126ff575f80fd5b81356001600160401b03811115612718576127186126ac565b61272b601f8201601f19166020016126c0565b81815284602083860101111561273f575f80fd5b816020850160208301375f918101602001919091529392505050565b5f806040838503121561276c575f80fd5b823561277781612661565b915060208301356001600160401b03811115612791575f80fd5b61279d858286016126f0565b9150509250929050565b5f805f805f608086880312156127bb575f80fd5b85356001600160401b038111156127d0575f80fd5b8601606081890312156127e1575f80fd5b945060208601356127f181612661565b93506040860135925060608601356001600160401b03811115612812575f80fd5b8601601f81018813612822575f80fd5b80356001600160401b03811115612837575f80fd5b886020828401011115612848575f80fd5b959894975092955050506020019190565b8015158114610db0575f80fd5b5f805f805f60a0868803121561287a575f80fd5b853561288581612661565b945060208601359350604086013561289c81612661565b925060608601356001600160401b038111156128b6575f80fd5b6128c2888289016126f0565b92505060808601356128d381612859565b809150509295509295909350565b5f81518084528060208401602086015e5f602082860101526020601f19601f83011685010191505092915050565b602081525f61100760208301846128e1565b5f805f8060808587031215612934575f80fd5b843561293f81612661565b9350602085013561294f81612661565b925060408501359150606085013561296681612661565b939692955090935050565b5f60208284031215612981575f80fd5b81356001600160401b03811115612996575f80fd5b820160808185031215611007575f80fd5b5f602082840312156129b7575f80fd5b813561100781612661565b5f80604083850312156129d3575f80fd5b82516129de81612661565b6020939093015192949293505050565b5f602082840312156129fe575f80fd5b815161100781612661565b634e487b7160e01b5f52603260045260245ffd5b5f8151808452602084019350602083015f5b82811015612a565781516001600160a01b0316865260209586019590910190600101612a2f565b5093949350505050565b828152604060208201525f6120816040830184612a1d565b5f60208284031215612a88575f80fd5b81516001600160401b03811115612a9d575f80fd5b8201601f81018413612aad575f80fd5b80516001600160401b03811115612ac657612ac66126ac565b8060051b612ad6602082016126c0565b91825260208184018101929081019087841115612af1575f80fd5b6020850194505b838510156124ff57845180835260209586019590935090910190612af8565b634e487b7160e01b5f52601160045260245ffd5b818103818111156105e0576105e0612b17565b808201808211156105e0576105e0612b17565b5f805f60608486031215612b63575f80fd5b8335612b6e81612661565b925060208401356001600160401b03811115612b88575f80fd5b612b94868287016126f0565b9250506040840135612ba581612859565b809150509250925092565b5f82518060208501845e5f920191825250919050565b60609190911b6001600160601b031916815260140190565b606081525f612bf060608301866128e1565b60208301949094525060400152919050565b5f60208284031215612c12575f80fd5b815161100781612859565b5f808335601e19843603018112612c32575f80fd5b8301803591506001600160401b03821115612c4b575f80fd5b6020019150368190038213156123aa575f80fd5b5f8060408385031215612c70575f80fd5b82356001600160401b03811115612c85575f80fd5b612c91858286016126f0565b92505060208301356126a181612661565b805160208201516001600160601b0319811691906014821015612ce9576bffffffffffffffffffffffff196bffffffffffffffffffffffff198360140360031b1b82161692505b5050919050565b608081525f612d0260808301876128e1565b85602084015260018060a01b0385166040840152828103606084015260018060a01b03845116815260208401511515602082015260018060a01b036040850151166040820152606084015160a06060830152612d6160a08301826128e1565b905060808501516080830152809250505095945050505050565b5f60208284031215612d8b575f80fd5b5051919050565b5f8085851115612da0575f80fd5b83861115612dac575f80fd5b5050820193919092039150565b604081525f612dcb60408301856128e1565b905060018060a01b03831660208301529392505050565b85815284602082015260a060408201525f612e0060a0830186612a1d565b6001600160a01b0394909416606083015250608001529392505050565b80516001600160701b0381168114612e33575f80fd5b919050565b5f805f60608486031215612e4a575f80fd5b612e5384612e1d565b9250612e6160208501612e1d565b9150604084015163ffffffff81168114612ba5575f80fd5b634e487b7160e01b5f52601260045260245ffd5b5f82612ea757634e487b7160e01b5f52601260045260245ffd5b50049056fe360894a13ba1a3210667c828492db98dca3e2076cc3735a920a3ca505d382bbca264697066735822122078260aca92b54db8a013650becd7440ef7ef4f7a5c1e7b2f89df487aff483d1864736f6c634300081a0033","linkReferences":{}},"methodIdentifiers":{"UPGRADE_INTERFACE_VERSION()":"ad3cb1cc","gasLimit()":"f68016b7","gateway()":"116191b6","initialize(address,address,uint256,address)":"be203094","onCall((bytes,address,uint256),address,uint256,bytes)":"5bcfd616","onRevert((address,address,uint256,bytes))":"c9028a36","owner()":"8da5cb5b","proxiableUUID()":"52d1902d","quoteMinInput(address,address)":"1b3614b8","renounceOwnership()":"715018a6","swap(address,uint256,address,bytes,bool)":"74718c58","transferOwnership(address)":"f2fde38b","uniswapRouter()":"735de9f7","upgradeToAndCall(address,bytes)":"4f1ef286"},"id":24}