{
  "abi": [
    {
      "type": "constructor",
      "inputs": [
        {
          "name": "name_",
          "type": "string",
          "internalType": "string"
        },
        {
          "name": "symbol_",
          "type": "string",
          "internalType": "string"
        },
        {
          "name": "decimals_",
          "type": "uint8",
          "internalType": "uint8"
        },
        {
          "name": "chainid_",
          "type": "uint256",
          "internalType": "uint256"
        },
        {
          "name": "coinType_",
          "type": "uint8",
          "internalType": "enum CoinType"
        },
        {
          "name": "gasLimit_",
          "type": "uint256",
          "internalType": "uint256"
        },
        {
          "name": "systemContractAddress_",
          "type": "address",
          "internalType": "address"
        },
        {
          "name": "gatewayAddress_",
          "type": "address",
          "internalType": "address"
        }
      ],
      "stateMutability": "nonpayable"
    },
    {
      "type": "function",
      "name": "CHAIN_ID",
      "inputs": [],
      "outputs": [
        {
          "name": "",
          "type": "uint256",
          "internalType": "uint256"
        }
      ],
      "stateMutability": "view"
    },
    {
      "type": "function",
      "name": "COIN_TYPE",
      "inputs": [],
      "outputs": [
        {
          "name": "",
          "type": "uint8",
          "internalType": "enum CoinType"
        }
      ],
      "stateMutability": "view"
    },
    {
      "type": "function",
      "name": "FUNGIBLE_MODULE_ADDRESS",
      "inputs": [],
      "outputs": [
        {
          "name": "",
          "type": "address",
          "internalType": "address"
        }
      ],
      "stateMutability": "view"
    },
    {
      "type": "function",
      "name": "GAS_LIMIT",
      "inputs": [],
      "outputs": [
        {
          "name": "",
          "type": "uint256",
          "internalType": "uint256"
        }
      ],
      "stateMutability": "view"
    },
    {
      "type": "function",
      "name": "PROTOCOL_FLAT_FEE",
      "inputs": [],
      "outputs": [
        {
          "name": "",
          "type": "uint256",
          "internalType": "uint256"
        }
      ],
      "stateMutability": "view"
    },
    {
      "type": "function",
      "name": "SYSTEM_CONTRACT_ADDRESS",
      "inputs": [],
      "outputs": [
        {
          "name": "",
          "type": "address",
          "internalType": "address"
        }
      ],
      "stateMutability": "view"
    },
    {
      "type": "function",
      "name": "allowance",
      "inputs": [
        {
          "name": "owner",
          "type": "address",
          "internalType": "address"
        },
        {
          "name": "spender",
          "type": "address",
          "internalType": "address"
        }
      ],
      "outputs": [
        {
          "name": "",
          "type": "uint256",
          "internalType": "uint256"
        }
      ],
      "stateMutability": "view"
    },
    {
      "type": "function",
      "name": "approve",
      "inputs": [
        {
          "name": "spender",
          "type": "address",
          "internalType": "address"
        },
        {
          "name": "amount",
          "type": "uint256",
          "internalType": "uint256"
        }
      ],
      "outputs": [
        {
          "name": "",
          "type": "bool",
          "internalType": "bool"
        }
      ],
      "stateMutability": "nonpayable"
    },
    {
      "type": "function",
      "name": "balanceOf",
      "inputs": [
        {
          "name": "account",
          "type": "address",
          "internalType": "address"
        }
      ],
      "outputs": [
        {
          "name": "",
          "type": "uint256",
          "internalType": "uint256"
        }
      ],
      "stateMutability": "view"
    },
    {
      "type": "function",
      "name": "burn",
      "inputs": [
        {
          "name": "amount",
          "type": "uint256",
          "internalType": "uint256"
        }
      ],
      "outputs": [
        {
          "name": "",
          "type": "bool",
          "internalType": "bool"
        }
      ],
      "stateMutability": "nonpayable"
    },
    {
      "type": "function",
      "name": "decimals",
      "inputs": [],
      "outputs": [
        {
          "name": "",
          "type": "uint8",
          "internalType": "uint8"
        }
      ],
      "stateMutability": "view"
    },
    {
      "type": "function",
      "name": "deposit",
      "inputs": [
        {
          "name": "to",
          "type": "address",
          "internalType": "address"
        },
        {
          "name": "amount",
          "type": "uint256",
          "internalType": "uint256"
        }
      ],
      "outputs": [
        {
          "name": "",
          "type": "bool",
          "internalType": "bool"
        }
      ],
      "stateMutability": "nonpayable"
    },
    {
      "type": "function",
      "name": "gatewayAddress",
      "inputs": [],
      "outputs": [
        {
          "name": "",
          "type": "address",
          "internalType": "address"
        }
      ],
      "stateMutability": "view"
    },
    {
      "type": "function",
      "name": "name",
      "inputs": [],
      "outputs": [
        {
          "name": "",
          "type": "string",
          "internalType": "string"
        }
      ],
      "stateMutability": "view"
    },
    {
      "type": "function",
      "name": "setName",
      "inputs": [
        {
          "name": "newName",
          "type": "string",
          "internalType": "string"
        }
      ],
      "outputs": [],
      "stateMutability": "nonpayable"
    },
    {
      "type": "function",
      "name": "setSymbol",
      "inputs": [
        {
          "name": "newSymbol",
          "type": "string",
          "internalType": "string"
        }
      ],
      "outputs": [],
      "stateMutability": "nonpayable"
    },
    {
      "type": "function",
      "name": "symbol",
      "inputs": [],
      "outputs": [
        {
          "name": "",
          "type": "string",
          "internalType": "string"
        }
      ],
      "stateMutability": "view"
    },
    {
      "type": "function",
      "name": "totalSupply",
      "inputs": [],
      "outputs": [
        {
          "name": "",
          "type": "uint256",
          "internalType": "uint256"
        }
      ],
      "stateMutability": "view"
    },
    {
      "type": "function",
      "name": "transfer",
      "inputs": [
        {
          "name": "recipient",
          "type": "address",
          "internalType": "address"
        },
        {
          "name": "amount",
          "type": "uint256",
          "internalType": "uint256"
        }
      ],
      "outputs": [
        {
          "name": "",
          "type": "bool",
          "internalType": "bool"
        }
      ],
      "stateMutability": "nonpayable"
    },
    {
      "type": "function",
      "name": "transferFrom",
      "inputs": [
        {
          "name": "sender",
          "type": "address",
          "internalType": "address"
        },
        {
          "name": "recipient",
          "type": "address",
          "internalType": "address"
        },
        {
          "name": "amount",
          "type": "uint256",
          "internalType": "uint256"
        }
      ],
      "outputs": [
        {
          "name": "",
          "type": "bool",
          "internalType": "bool"
        }
      ],
      "stateMutability": "nonpayable"
    },
    {
      "type": "function",
      "name": "updateGasLimit",
      "inputs": [
        {
          "name": "gasLimit_",
          "type": "uint256",
          "internalType": "uint256"
        }
      ],
      "outputs": [],
      "stateMutability": "nonpayable"
    },
    {
      "type": "function",
      "name": "updateGatewayAddress",
      "inputs": [
        {
          "name": "addr",
          "type": "address",
          "internalType": "address"
        }
      ],
      "outputs": [],
      "stateMutability": "nonpayable"
    },
    {
      "type": "function",
      "name": "updateProtocolFlatFee",
      "inputs": [
        {
          "name": "protocolFlatFee_",
          "type": "uint256",
          "internalType": "uint256"
        }
      ],
      "outputs": [],
      "stateMutability": "nonpayable"
    },
    {
      "type": "function",
      "name": "updateSystemContractAddress",
      "inputs": [
        {
          "name": "addr",
          "type": "address",
          "internalType": "address"
        }
      ],
      "outputs": [],
      "stateMutability": "nonpayable"
    },
    {
      "type": "function",
      "name": "withdraw",
      "inputs": [
        {
          "name": "to",
          "type": "bytes",
          "internalType": "bytes"
        },
        {
          "name": "amount",
          "type": "uint256",
          "internalType": "uint256"
        }
      ],
      "outputs": [
        {
          "name": "",
          "type": "bool",
          "internalType": "bool"
        }
      ],
      "stateMutability": "nonpayable"
    },
    {
      "type": "function",
      "name": "withdrawGasFee",
      "inputs": [],
      "outputs": [
        {
          "name": "",
          "type": "address",
          "internalType": "address"
        },
        {
          "name": "",
          "type": "uint256",
          "internalType": "uint256"
        }
      ],
      "stateMutability": "view"
    },
    {
      "type": "function",
      "name": "withdrawGasFeeWithGasLimit",
      "inputs": [
        {
          "name": "gasLimit",
          "type": "uint256",
          "internalType": "uint256"
        }
      ],
      "outputs": [
        {
          "name": "",
          "type": "address",
          "internalType": "address"
        },
        {
          "name": "",
          "type": "uint256",
          "internalType": "uint256"
        }
      ],
      "stateMutability": "view"
    },
    {
      "type": "event",
      "name": "Approval",
      "inputs": [
        {
          "name": "owner",
          "type": "address",
          "indexed": true,
          "internalType": "address"
        },
        {
          "name": "spender",
          "type": "address",
          "indexed": true,
          "internalType": "address"
        },
        {
          "name": "value",
          "type": "uint256",
          "indexed": false,
          "internalType": "uint256"
        }
      ],
      "anonymous": false
    },
    {
      "type": "event",
      "name": "Deposit",
      "inputs": [
        {
          "name": "from",
          "type": "bytes",
          "indexed": false,
          "internalType": "bytes"
        },
        {
          "name": "to",
          "type": "address",
          "indexed": true,
          "internalType": "address"
        },
        {
          "name": "value",
          "type": "uint256",
          "indexed": false,
          "internalType": "uint256"
        }
      ],
      "anonymous": false
    },
    {
      "type": "event",
      "name": "Transfer",
      "inputs": [
        {
          "name": "from",
          "type": "address",
          "indexed": true,
          "internalType": "address"
        },
        {
          "name": "to",
          "type": "address",
          "indexed": true,
          "internalType": "address"
        },
        {
          "name": "value",
          "type": "uint256",
          "indexed": false,
          "internalType": "uint256"
        }
      ],
      "anonymous": false
    },
    {
      "type": "event",
      "name": "UpdatedGasLimit",
      "inputs": [
        {
          "name": "gasLimit",
          "type": "uint256",
          "indexed": false,
          "internalType": "uint256"
        }
      ],
      "anonymous": false
    },
    {
      "type": "event",
      "name": "UpdatedGateway",
      "inputs": [
        {
          "name": "gateway",
          "type": "address",
          "indexed": false,
          "internalType": "address"
        }
      ],
      "anonymous": false
    },
    {
      "type": "event",
      "name": "UpdatedProtocolFlatFee",
      "inputs": [
        {
          "name": "protocolFlatFee",
          "type": "uint256",
          "indexed": false,
          "internalType": "uint256"
        }
      ],
      "anonymous": false
    },
    {
      "type": "event",
      "name": "UpdatedSystemContract",
      "inputs": [
        {
          "name": "systemContract",
          "type": "address",
          "indexed": false,
          "internalType": "address"
        }
      ],
      "anonymous": false
    },
    {
      "type": "event",
      "name": "Withdrawal",
      "inputs": [
        {
          "name": "from",
          "type": "address",
          "indexed": true,
          "internalType": "address"
        },
        {
          "name": "to",
          "type": "bytes",
          "indexed": false,
          "internalType": "bytes"
        },
        {
          "name": "value",
          "type": "uint256",
          "indexed": false,
          "internalType": "uint256"
        },
        {
          "name": "gasFee",
          "type": "uint256",
          "indexed": false,
          "internalType": "uint256"
        },
        {
          "name": "protocolFlatFee",
          "type": "uint256",
          "indexed": false,
          "internalType": "uint256"
        }
      ],
      "anonymous": false
    },
    {
      "type": "error",
      "name": "CallerIsNotFungibleModule",
      "inputs": []
    },
    {
      "type": "error",
      "name": "GasFeeTransferFailed",
      "inputs": []
    },
    {
      "type": "error",
      "name": "InvalidSender",
      "inputs": []
    },
    {
      "type": "error",
      "name": "LowAllowance",
      "inputs": []
    },
    {
      "type": "error",
      "name": "LowBalance",
      "inputs": []
    },
    {
      "type": "error",
      "name": "ZeroAddress",
      "inputs": []
    },
    {
      "type": "error",
      "name": "ZeroGasCoin",
      "inputs": []
    },
    {
      "type": "error",
      "name": "ZeroGasPrice",
      "inputs": []
    }
  ],
  "bytecode": {
    "object": "0x60c060405234801561001057600080fd5b5060405161207238038061207283398101604081905261002f916101f0565b6001600160a01b038216158061004c57506001600160a01b038116155b1561006a5760405163d92e233d60e01b815260040160405180910390fd5b60066100768982610342565b5060076100838882610342565b506008805460ff191660ff881617905560808590528360028111156100aa576100aa610400565b60a08160028111156100be576100be610400565b905250600192909255600080546001600160a01b039283166001600160a01b0319909116179055600880549190921661010002610100600160a81b0319909116179055506104169350505050565b634e487b7160e01b600052604160045260246000fd5b600082601f83011261013357600080fd5b81516001600160401b0381111561014c5761014c61010c565b604051601f8201601f19908116603f011681016001600160401b038111828210171561017a5761017a61010c565b60405281815283820160200185101561019257600080fd5b60005b828110156101b157602081860181015183830182015201610195565b506000918101602001919091529392505050565b8051600381106101d457600080fd5b919050565b80516001600160a01b03811681146101d457600080fd5b600080600080600080600080610100898b03121561020d57600080fd5b88516001600160401b0381111561022357600080fd5b61022f8b828c01610122565b60208b015190995090506001600160401b0381111561024d57600080fd5b6102598b828c01610122565b975050604089015160ff8116811461027057600080fd5b60608a0151909650945061028660808a016101c5565b60a08a0151909450925061029c60c08a016101d9565b91506102aa60e08a016101d9565b90509295985092959890939650565b600181811c908216806102cd57607f821691505b6020821081036102ed57634e487b7160e01b600052602260045260246000fd5b50919050565b601f82111561033d57806000526020600020601f840160051c8101602085101561031a5750805b601f840160051c820191505b8181101561033a5760008155600101610326565b50505b505050565b81516001600160401b0381111561035b5761035b61010c565b61036f8161036984546102b9565b846102f3565b6020601f8211600181146103a3576000831561038b5750848201515b600019600385901b1c1916600184901b17845561033a565b600084815260208120601f198516915b828110156103d357878501518255602094850194600190920191016103b3565b50848210156103f15786840151600019600387901b60f8161c191681555b50505050600190811b01905550565b634e487b7160e01b600052602160045260246000fd5b60805160a051611c1b61045760003960006103440152600081816102f001528181610bdc01528181610ce201528181610efe01526110040152611c1b6000f3fe608060405234801561001057600080fd5b50600436106101b95760003560e01c806395d89b41116100f9578063ccc7759911610097578063eddeb12311610071578063eddeb12314610461578063f2441b3214610474578063f687d12a14610494578063fc5fecd5146104a757600080fd5b8063ccc77599146103d4578063d9eeebed146103e7578063dd62ed3e1461041b57600080fd5b8063b84c8246116100d3578063b84c824614610386578063c47f00271461039b578063c7012626146103ae578063c835d7cc146103c157600080fd5b806395d89b4114610337578063a3413d031461033f578063a9059cbb1461037357600080fd5b80633ce4a5bc116101665780634d8943bb116101405780634d8943bb146102ac57806370a08231146102b557806385e1f4d0146102eb5780638b851b951461031257600080fd5b80633ce4a5bc1461024657806342966c681461028657806347e7ef241461029957600080fd5b806318160ddd1161019757806318160ddd1461021657806323b872dd1461021e578063313ce5671461023157600080fd5b806306fdde03146101be578063091d2788146101dc578063095ea7b3146101f3575b600080fd5b6101c66104ba565b6040516101d39190611648565b60405180910390f35b6101e560015481565b6040519081526020016101d3565b610206610201366004611687565b61054c565b60405190151581526020016101d3565b6005546101e5565b61020661022c3660046116b3565b610563565b60085460405160ff90911681526020016101d3565b61026173735b14bb79463307aacbed86daf3322b1e6226ab81565b60405173ffffffffffffffffffffffffffffffffffffffff90911681526020016101d3565b6102066102943660046116f4565b6105fa565b6102066102a7366004611687565b61060e565b6101e560025481565b6101e56102c336600461170d565b73ffffffffffffffffffffffffffffffffffffffff1660009081526003602052604090205490565b6101e57f000000000000000000000000000000000000000000000000000000000000000081565b60085461026190610100900473ffffffffffffffffffffffffffffffffffffffff1681565b6101c6610767565b6103667f000000000000000000000000000000000000000000000000000000000000000081565b6040516101d3919061172a565b610206610381366004611687565b610776565b610399610394366004611832565b610783565b005b6103996103a9366004611832565b6107e0565b6102066103bc366004611883565b610839565b6103996103cf36600461170d565b610988565b6103996103e236600461170d565b610a9c565b6103ef610bb0565b6040805173ffffffffffffffffffffffffffffffffffffffff90931683526020830191909152016101d3565b6101e56104293660046118dc565b73ffffffffffffffffffffffffffffffffffffffff918216600090815260046020908152604080832093909416825291909152205490565b61039961046f3660046116f4565b610dce565b6000546102619073ffffffffffffffffffffffffffffffffffffffff1681565b6103996104a23660046116f4565b610e50565b6103ef6104b53660046116f4565b610ed2565b6060600680546104c990611915565b80601f01602080910402602001604051908101604052809291908181526020018280546104f590611915565b80156105425780601f1061051757610100808354040283529160200191610542565b820191906000526020600020905b81548152906001019060200180831161052557829003601f168201915b5050505050905090565b60006105593384846110ee565b5060015b92915050565b60006105708484846111f7565b73ffffffffffffffffffffffffffffffffffffffff84166000908152600460209081526040808320338452909152902054828110156105db576040517f10bad14700000000000000000000000000000000000000000000000000000000815260040160405180910390fd5b6105ef85336105ea8685611997565b6110ee565b506001949350505050565b600061060633836113b2565b506001919050565b60003373735b14bb79463307aacbed86daf3322b1e6226ab1480159061064c575060005473ffffffffffffffffffffffffffffffffffffffff163314155b80156106755750600854610100900473ffffffffffffffffffffffffffffffffffffffff163314155b156106ac576040517fddb5de5e00000000000000000000000000000000000000000000000000000000815260040160405180910390fd5b6106b683836114f4565b6040517f735b14bb79463307aacbed86daf3322b1e6226ab000000000000000000000000602082015273ffffffffffffffffffffffffffffffffffffffff8416907f67fc7bdaed5b0ec550d8706b87d60568ab70c6b781263c70101d54cd1564aab390603401604080517fffffffffffffffffffffffffffffffffffffffffffffffffffffffffffffffe0818403018152908290526107569186906119aa565b60405180910390a250600192915050565b6060600780546104c990611915565b60006105593384846111f7565b3373735b14bb79463307aacbed86daf3322b1e6226ab146107d0576040517f2b2add3d00000000000000000000000000000000000000000000000000000000815260040160405180910390fd5b60076107dc8282611a1b565b5050565b3373735b14bb79463307aacbed86daf3322b1e6226ab1461082d576040517f2b2add3d00000000000000000000000000000000000000000000000000000000815260040160405180910390fd5b60066107dc8282611a1b565b6000806000610846610bb0565b6040517f23b872dd00000000000000000000000000000000000000000000000000000000815233600482015273735b14bb79463307aacbed86daf3322b1e6226ab602482015260448101829052919350915073ffffffffffffffffffffffffffffffffffffffff8316906323b872dd906064016020604051808303816000875af11580156108d8573d6000803e3d6000fd5b505050506040513d601f19601f820116820180604052508101906108fc9190611b34565b610932576040517f0a7cd6d600000000000000000000000000000000000000000000000000000000815260040160405180910390fd5b61093c33856113b2565b60025460405133917f9ffbffc04a397460ee1dbe8c9503e098090567d6b7f4b3c02a8617d800b6d9559161097591899189918791611b56565b60405180910390a2506001949350505050565b3373735b14bb79463307aacbed86daf3322b1e6226ab146109d5576040517f2b2add3d00000000000000000000000000000000000000000000000000000000815260040160405180910390fd5b73ffffffffffffffffffffffffffffffffffffffff8116610a22576040517fd92e233d00000000000000000000000000000000000000000000000000000000815260040160405180910390fd5b600080547fffffffffffffffffffffffff00000000000000000000000000000000000000001673ffffffffffffffffffffffffffffffffffffffff83169081179091556040519081527fd55614e962c5fd6ece71614f6348d702468a997a394dd5e5c1677950226d97ae906020015b60405180910390a150565b3373735b14bb79463307aacbed86daf3322b1e6226ab14610ae9576040517f2b2add3d00000000000000000000000000000000000000000000000000000000815260040160405180910390fd5b73ffffffffffffffffffffffffffffffffffffffff8116610b36576040517fd92e233d00000000000000000000000000000000000000000000000000000000815260040160405180910390fd5b600880547fffffffffffffffffffffff0000000000000000000000000000000000000000ff1661010073ffffffffffffffffffffffffffffffffffffffff8416908102919091179091556040519081527f88815d964e380677e86d817e7d65dea59cb7b4c3b5b7a0c8ec7ea4a74f90a38790602001610a91565b600080546040517f0be155470000000000000000000000000000000000000000000000000000000081527f000000000000000000000000000000000000000000000000000000000000000060048201528291829173ffffffffffffffffffffffffffffffffffffffff90911690630be1554790602401602060405180830381865afa158015610c43573d6000803e3d6000fd5b505050506040513d601f19601f82011682018060405250810190610c679190611b85565b905073ffffffffffffffffffffffffffffffffffffffff8116610cb6576040517f78fff39600000000000000000000000000000000000000000000000000000000815260040160405180910390fd5b600080546040517fd7fd7afb0000000000000000000000000000000000000000000000000000000081527f0000000000000000000000000000000000000000000000000000000000000000600482015273ffffffffffffffffffffffffffffffffffffffff9091169063d7fd7afb90602401602060405180830381865afa158015610d45573d6000803e3d6000fd5b505050506040513d601f19601f82011682018060405250810190610d699190611ba2565b905080600003610da5576040517fe661aed000000000000000000000000000000000000000000000000000000000815260040160405180910390fd5b600060025460015483610db89190611bbb565b610dc29190611bd2565b92959294509192505050565b3373735b14bb79463307aacbed86daf3322b1e6226ab14610e1b576040517f2b2add3d00000000000000000000000000000000000000000000000000000000815260040160405180910390fd5b60028190556040518181527fef13af88e424b5d15f49c77758542c1938b08b8b95b91ed0751f98ba99000d8f90602001610a91565b3373735b14bb79463307aacbed86daf3322b1e6226ab14610e9d576040517f2b2add3d00000000000000000000000000000000000000000000000000000000815260040160405180910390fd5b60018190556040518181527fff5788270f43bfc1ca41c503606d2594aa3023a1a7547de403a3e2f146a4a80a90602001610a91565b600080546040517f0be155470000000000000000000000000000000000000000000000000000000081527f000000000000000000000000000000000000000000000000000000000000000060048201528291829173ffffffffffffffffffffffffffffffffffffffff90911690630be1554790602401602060405180830381865afa158015610f65573d6000803e3d6000fd5b505050506040513d601f19601f82011682018060405250810190610f899190611b85565b905073ffffffffffffffffffffffffffffffffffffffff8116610fd8576040517f78fff39600000000000000000000000000000000000000000000000000000000815260040160405180910390fd5b600080546040517fd7fd7afb0000000000000000000000000000000000000000000000000000000081527f0000000000000000000000000000000000000000000000000000000000000000600482015273ffffffffffffffffffffffffffffffffffffffff9091169063d7fd7afb90602401602060405180830381865afa158015611067573d6000803e3d6000fd5b505050506040513d601f19601f8201168201806040525081019061108b9190611ba2565b9050806000036110c7576040517fe661aed000000000000000000000000000000000000000000000000000000000815260040160405180910390fd5b6002546000906110d78784611bbb565b6110e19190611bd2565b9296929550919350505050565b73ffffffffffffffffffffffffffffffffffffffff831661113b576040517fd92e233d00000000000000000000000000000000000000000000000000000000815260040160405180910390fd5b73ffffffffffffffffffffffffffffffffffffffff8216611188576040517fd92e233d00000000000000000000000000000000000000000000000000000000815260040160405180910390fd5b73ffffffffffffffffffffffffffffffffffffffff83811660008181526004602090815260408083209487168084529482529182902085905590518481527f8c5be1e5ebec7d5bd14f71427d1e84f3dd0314c0f7b2291e5b200ac8c7c3b92591015b60405180910390a3505050565b73ffffffffffffffffffffffffffffffffffffffff8316611244576040517fd92e233d00000000000000000000000000000000000000000000000000000000815260040160405180910390fd5b73ffffffffffffffffffffffffffffffffffffffff8216611291576040517fd92e233d00000000000000000000000000000000000000000000000000000000815260040160405180910390fd5b73ffffffffffffffffffffffffffffffffffffffff8316600090815260036020526040902054818110156112f1576040517ffe382aa700000000000000000000000000000000000000000000000000000000815260040160405180910390fd5b6112fb8282611997565b73ffffffffffffffffffffffffffffffffffffffff808616600090815260036020526040808220939093559085168152908120805484929061133e908490611bd2565b925050819055508273ffffffffffffffffffffffffffffffffffffffff168473ffffffffffffffffffffffffffffffffffffffff167fddf252ad1be2c89b69c2b068fc378daa952ba7f163c4a11628f55a4df523b3ef846040516113a491815260200190565b60405180910390a350505050565b73ffffffffffffffffffffffffffffffffffffffff82166113ff576040517fd92e233d00000000000000000000000000000000000000000000000000000000815260040160405180910390fd5b73ffffffffffffffffffffffffffffffffffffffff82166000908152600360205260409020548181101561145f576040517ffe382aa700000000000000000000000000000000000000000000000000000000815260040160405180910390fd5b6114698282611997565b73ffffffffffffffffffffffffffffffffffffffff8416600090815260036020526040812091909155600580548492906114a4908490611997565b909155505060405182815260009073ffffffffffffffffffffffffffffffffffffffff8516907fddf252ad1be2c89b69c2b068fc378daa952ba7f163c4a11628f55a4df523b3ef906020016111ea565b73ffffffffffffffffffffffffffffffffffffffff8216611541576040517fd92e233d00000000000000000000000000000000000000000000000000000000815260040160405180910390fd5b80600560008282546115539190611bd2565b909155505073ffffffffffffffffffffffffffffffffffffffff82166000908152600360205260408120805483929061158d908490611bd2565b909155505060405181815273ffffffffffffffffffffffffffffffffffffffff8316906000907fddf252ad1be2c89b69c2b068fc378daa952ba7f163c4a11628f55a4df523b3ef9060200160405180910390a35050565b6000815180845260005b8181101561160a576020818501810151868301820152016115ee565b5060006020828601015260207fffffffffffffffffffffffffffffffffffffffffffffffffffffffffffffffe0601f83011685010191505092915050565b60208152600061165b60208301846115e4565b9392505050565b73ffffffffffffffffffffffffffffffffffffffff8116811461168457600080fd5b50565b6000806040838503121561169a57600080fd5b82356116a581611662565b946020939093013593505050565b6000806000606084860312156116c857600080fd5b83356116d381611662565b925060208401356116e381611662565b929592945050506040919091013590565b60006020828403121561170657600080fd5b5035919050565b60006020828403121561171f57600080fd5b813561165b81611662565b6020810160038310611765577f4e487b7100000000000000000000000000000000000000000000000000000000600052602160045260246000fd5b91905290565b7f4e487b7100000000000000000000000000000000000000000000000000000000600052604160045260246000fd5b60008067ffffffffffffffff8411156117b5576117b561176b565b506040517fffffffffffffffffffffffffffffffffffffffffffffffffffffffffffffffe0601f85018116603f0116810181811067ffffffffffffffff821117156118025761180261176b565b60405283815290508082840185101561181a57600080fd5b83836020830137600060208583010152509392505050565b60006020828403121561184457600080fd5b813567ffffffffffffffff81111561185b57600080fd5b8201601f8101841361186c57600080fd5b61187b8482356020840161179a565b949350505050565b6000806040838503121561189657600080fd5b823567ffffffffffffffff8111156118ad57600080fd5b8301601f810185136118be57600080fd5b6118cd8582356020840161179a565b95602094909401359450505050565b600080604083850312156118ef57600080fd5b82356118fa81611662565b9150602083013561190a81611662565b809150509250929050565b600181811c9082168061192957607f821691505b602082108103611962577f4e487b7100000000000000000000000000000000000000000000000000000000600052602260045260246000fd5b50919050565b7f4e487b7100000000000000000000000000000000000000000000000000000000600052601160045260246000fd5b8181038181111561055d5761055d611968565b6040815260006119bd60408301856115e4565b90508260208301529392505050565b601f821115611a1657806000526020600020601f840160051c810160208510156119f35750805b601f840160051c820191505b81811015611a1357600081556001016119ff565b50505b505050565b815167ffffffffffffffff811115611a3557611a3561176b565b611a4981611a438454611915565b846119cc565b6020601f821160018114611a9b5760008315611a655750848201515b7fffffffffffffffffffffffffffffffffffffffffffffffffffffffffffffffff600385901b1c1916600184901b178455611a13565b6000848152602081207fffffffffffffffffffffffffffffffffffffffffffffffffffffffffffffffe08516915b82811015611ae95787850151825560209485019460019092019101611ac9565b5084821015611b2557868401517fffffffffffffffffffffffffffffffffffffffffffffffffffffffffffffffff600387901b60f8161c191681555b50505050600190811b01905550565b600060208284031215611b4657600080fd5b8151801515811461165b57600080fd5b608081526000611b6960808301876115e4565b6020830195909552506040810192909252606090910152919050565b600060208284031215611b9757600080fd5b815161165b81611662565b600060208284031215611bb457600080fd5b5051919050565b808202811582820484141761055d5761055d611968565b8082018082111561055d5761055d61196856fea26469706673582212208307d60e253f5034856b93df00e3e2f46b06f9765d906dbd93ee947935fc608764736f6c634300081a0033",
    "linkReferences": {}
  },
  "methodIdentifiers": {
    "CHAIN_ID()": "85e1f4d0",
    "COIN_TYPE()": "a3413d03",
    "FUNGIBLE_MODULE_ADDRESS()": "3ce4a5bc",
    "GAS_LIMIT()": "091d2788",
    "PROTOCOL_FLAT_FEE()": "4d8943bb",
    "SYSTEM_CONTRACT_ADDRESS()": "f2441b32",
    "allowance(address,address)": "dd62ed3e",
    "approve(address,uint256)": "095ea7b3",
    "balanceOf(address)": "70a08231",
    "burn(uint256)": "42966c68",
    "decimals()": "313ce567",
    "deposit(address,uint256)": "47e7ef24",
    "gatewayAddress()": "8b851b95",
    "name()": "06fdde03",
    "setName(string)": "c47f0027",
    "setSymbol(string)": "b84c8246",
    "symbol()": "95d89b41",
    "totalSupply()": "18160ddd",
    "transfer(address,uint256)": "a9059cbb",
    "transferFrom(address,address,uint256)": "23b872dd",
    "updateGasLimit(uint256)": "f687d12a",
    "updateGatewayAddress(address)": "ccc77599",
    "updateProtocolFlatFee(uint256)": "eddeb123",
    "updateSystemContractAddress(address)": "c835d7cc",
    "withdraw(bytes,uint256)": "c7012626",
    "withdrawGasFee()": "d9eeebed",
    "withdrawGasFeeWithGasLimit(uint256)": "fc5fecd5"
  },
  "storageLayout": {
    "storage": [
      {
        "astId": 6066,
        "contract": "contracts/zevm/ZRC20.sol:ZRC20",
        "label": "SYSTEM_CONTRACT_ADDRESS",
        "offset": 0,
        "slot": "0",
        "type": "t_address"
      },
      {
        "astId": 6069,
        "contract": "contracts/zevm/ZRC20.sol:ZRC20",
        "label": "GAS_LIMIT",
        "offset": 0,
        "slot": "1",
        "type": "t_uint256"
      },
      {
        "astId": 6073,
        "contract": "contracts/zevm/ZRC20.sol:ZRC20",
        "label": "PROTOCOL_FLAT_FEE",
        "offset": 0,
        "slot": "2",
        "type": "t_uint256"
      },
      {
        "astId": 6077,
        "contract": "contracts/zevm/ZRC20.sol:ZRC20",
        "label": "_balances",
        "offset": 0,
        "slot": "3",
        "type": "t_mapping(t_address,t_uint256)"
      },
      {
        "astId": 6083,
        "contract": "contracts/zevm/ZRC20.sol:ZRC20",
        "label": "_allowances",
        "offset": 0,
        "slot": "4",
        "type": "t_mapping(t_address,t_mapping(t_address,t_uint256))"
      },
      {
        "astId": 6085,
        "contract": "contracts/zevm/ZRC20.sol:ZRC20",
        "label": "_totalSupply",
        "offset": 0,
        "slot": "5",
        "type": "t_uint256"
      },
      {
        "astId": 6087,
        "contract": "contracts/zevm/ZRC20.sol:ZRC20",
        "label": "_name",
        "offset": 0,
        "slot": "6",
        "type": "t_string_storage"
      },
      {
        "astId": 6089,
        "contract": "contracts/zevm/ZRC20.sol:ZRC20",
        "label": "_symbol",
        "offset": 0,
        "slot": "7",
        "type": "t_string_storage"
      },
      {
        "astId": 6091,
        "contract": "contracts/zevm/ZRC20.sol:ZRC20",
        "label": "_decimals",
        "offset": 0,
        "slot": "8",
        "type": "t_uint8"
      },
      {
        "astId": 6094,
        "contract": "contracts/zevm/ZRC20.sol:ZRC20",
        "label": "gatewayAddress",
        "offset": 1,
        "slot": "8",
        "type": "t_address"
      }
    ],
    "types": {
      "t_address": {
        "encoding": "inplace",
        "label": "address",
        "numberOfBytes": "20"
      },
      "t_mapping(t_address,t_mapping(t_address,t_uint256))": {
        "encoding": "mapping",
        "key": "t_address",
        "label": "mapping(address => mapping(address => uint256))",
        "numberOfBytes": "32",
        "value": "t_mapping(t_address,t_uint256)"
      },
      "t_mapping(t_address,t_uint256)": {
        "encoding": "mapping",
        "key": "t_address",
        "label": "mapping(address => uint256)",
        "numberOfBytes": "32",
        "value": "t_uint256"
      },
      "t_string_storage": {
        "encoding": "bytes",
        "label": "string",
        "numberOfBytes": "32"
      },
      "t_uint256": {
        "encoding": "inplace",
        "label": "uint256",
        "numberOfBytes": "32"
      },
      "t_uint8": {
        "encoding": "inplace",
        "label": "uint8",
        "numberOfBytes": "1"
      }
    }
  },
  "id": 23
}