{"abi":[{"type":"constructor","inputs":[],"stateMutability":"nonpayable"},{"type":"receive","stateMutability":"payable"},{"type":"function","name":"UPGRADE_INTERFACE_VERSION","inputs":[],"outputs":[{"name":"","type":"string","internalType":"string"}],"stateMutability":"view"},{"type":"function","name":"allowance","inputs":[{"name":"owner","type":"address","internalType":"address"},{"name":"spender","type":"address","internalType":"address"}],"outputs":[{"name":"","type":"uint256","internalType":"uint256"}],"stateMutability":"view"},{"type":"function","name":"approve","inputs":[{"name":"spender","type":"address","internalType":"address"},{"name":"value","type":"uint256","internalType":"uint256"}],"outputs":[{"name":"","type":"bool","internalType":"bool"}],"stateMutability":"nonpayable"},{"type":"function","name":"balanceOf","inputs":[{"name":"account","type":"address","internalType":"address"}],"outputs":[{"name":"","type":"uint256","internalType":"uint256"}],"stateMutability":"view"},{"type":"function","name":"burn","inputs":[{"name":"value","type":"uint256","internalType":"uint256"}],"outputs":[],"stateMutability":"nonpayable"},{"type":"function","name":"burnFrom","inputs":[{"name":"account","type":"address","internalType":"address"},{"name":"value","type":"uint256","internalType":"uint256"}],"outputs":[],"stateMutability":"nonpayable"},{"type":"function","name":"decimals","inputs":[],"outputs":[{"name":"","type":"uint8","internalType":"uint8"}],"stateMutability":"view"},{"type":"function","name":"gasLimitAmount","inputs":[],"outputs":[{"name":"","type":"uint256","internalType":"uint256"}],"stateMutability":"view"},{"type":"function","name":"gateway","inputs":[],"outputs":[{"name":"","type":"address","internalType":"contract GatewayEVM"}],"stateMutability":"view"},{"type":"function","name":"initialize","inputs":[{"name":"initialOwner","type":"address","internalType":"address"},{"name":"name","type":"string","internalType":"string"},{"name":"symbol","type":"string","internalType":"string"},{"name":"gatewayAddress","type":"address","internalType":"address payable"},{"name":"gas","type":"uint256","internalType":"uint256"}],"outputs":[],"stateMutability":"nonpayable"},{"type":"function","name":"mint","inputs":[{"name":"to","type":"address","internalType":"address"},{"name":"amount","type":"uint256","internalType":"uint256"}],"outputs":[],"stateMutability":"nonpayable"},{"type":"function","name":"name","inputs":[],"outputs":[{"name":"","type":"string","internalType":"string"}],"stateMutability":"view"},{"type":"function","name":"onCall","inputs":[{"name":"context","type":"tuple","internalType":"struct MessageContext","components":[{"name":"sender","type":"address","internalType":"address"}]},{"name":"message","type":"bytes","internalType":"bytes"}],"outputs":[{"name":"","type":"bytes4","internalType":"bytes4"}],"stateMutability":"payable"},{"type":"function","name":"onRevert","inputs":[{"name":"context","type":"tuple","internalType":"struct RevertContext","components":[{"name":"sender","type":"address","internalType":"address"},{"name":"asset","type":"address","internalType":"address"},{"name":"amount","type":"uint256","internalType":"uint256"},{"name":"revertMessage","type":"bytes","internalType":"bytes"}]}],"outputs":[],"stateMutability":"nonpayable"},{"type":"function","name":"owner","inputs":[],"outputs":[{"name":"","type":"address","internalType":"address"}],"stateMutability":"view"},{"type":"function","name":"pause","inputs":[],"outputs":[],"stateMutability":"nonpayable"},{"type":"function","name":"paused","inputs":[],"outputs":[{"name":"","type":"bool","internalType":"bool"}],"stateMutability":"view"},{"type":"function","name":"proxiableUUID","inputs":[],"outputs":[{"name":"","type":"bytes32","internalType":"bytes32"}],"stateMutability":"view"},{"type":"function","name":"renounceOwnership","inputs":[],"outputs":[],"stateMutability":"nonpayable"},{"type":"function","name":"setGasLimit","inputs":[{"name":"gas","type":"uint256","internalType":"uint256"}],"outputs":[],"stateMutability":"nonpayable"},{"type":"function","name":"setGateway","inputs":[{"name":"gatewayAddress","type":"address","internalType":"address"}],"outputs":[],"stateMutability":"nonpayable"},{"type":"function","name":"setUniversal","inputs":[{"name":"contractAddress","type":"address","internalType":"address"}],"outputs":[],"stateMutability":"nonpayable"},{"type":"function","name":"symbol","inputs":[],"outputs":[{"name":"","type":"string","internalType":"string"}],"stateMutability":"view"},{"type":"function","name":"totalSupply","inputs":[],"outputs":[{"name":"","type":"uint256","internalType":"uint256"}],"stateMutability":"view"},{"type":"function","name":"transfer","inputs":[{"name":"to","type":"address","internalType":"address"},{"name":"value","type":"uint256","internalType":"uint256"}],"outputs":[{"name":"","type":"bool","internalType":"bool"}],"stateMutability":"nonpayable"},{"type":"function","name":"transferCrossChain","inputs":[{"name":"destination","type":"address","internalType":"address"},{"name":"receiver","type":"address","internalType":"address"},{"name":"amount","type":"uint256","internalType":"uint256"}],"outputs":[],"stateMutability":"payable"},{"type":"function","name":"transferFrom","inputs":[{"name":"from","type":"address","internalType":"address"},{"name":"to","type":"address","internalType":"address"},{"name":"value","type":"uint256","internalType":"uint256"}],"outputs":[{"name":"","type":"bool","internalType":"bool"}],"stateMutability":"nonpayable"},{"type":"function","name":"transferOwnership","inputs":[{"name":"newOwner","type":"address","internalType":"address"}],"outputs":[],"stateMutability":"nonpayable"},{"type":"function","name":"universal","inputs":[],"outputs":[{"name":"","type":"address","internalType":"address"}],"stateMutability":"view"},{"type":"function","name":"unpause","inputs":[],"outputs":[],"stateMutability":"nonpayable"},{"type":"function","name":"upgradeToAndCall","inputs":[{"name":"newImplementation","type":"address","internalType":"address"},{"name":"data","type":"bytes","internalType":"bytes"}],"outputs":[],"stateMutability":"payable"},{"type":"event","name":"Approval","inputs":[{"name":"owner","type":"address","indexed":true,"internalType":"address"},{"name":"spender","type":"address","indexed":true,"internalType":"address"},{"name":"value","type":"uint256","indexed":false,"internalType":"uint256"}],"anonymous":false},{"type":"event","name":"Initialized","inputs":[{"name":"version","type":"uint64","indexed":false,"internalType":"uint64"}],"anonymous":false},{"type":"event","name":"OwnershipTransferred","inputs":[{"name":"previousOwner","type":"address","indexed":true,"internalType":"address"},{"name":"newOwner","type":"address","indexed":true,"internalType":"address"}],"anonymous":false},{"type":"event","name":"Paused","inputs":[{"name":"account","type":"address","indexed":false,"internalType":"address"}],"anonymous":false},{"type":"event","name":"SetConnected","inputs":[{"name":"zrc20","type":"address","indexed":true,"internalType":"address"},{"name":"contractAddress","type":"bytes","indexed":false,"internalType":"bytes"}],"anonymous":false},{"type":"event","name":"SetUniversal","inputs":[{"name":"universalAddress","type":"address","indexed":true,"internalType":"address"}],"anonymous":false},{"type":"event","name":"TokenMinted","inputs":[{"name":"to","type":"address","indexed":true,"internalType":"address"},{"name":"amount","type":"uint256","indexed":false,"internalType":"uint256"}],"anonymous":false},{"type":"event","name":"TokenTransfer","inputs":[{"name":"destination","type":"address","indexed":true,"internalType":"address"},{"name":"receiver","type":"address","indexed":true,"internalType":"address"},{"name":"amount","type":"uint256","indexed":false,"internalType":"uint256"}],"anonymous":false},{"type":"event","name":"TokenTransferAborted","inputs":[{"name":"sender","type":"address","indexed":true,"internalType":"address"},{"name":"amount","type":"uint256","indexed":false,"internalType":"uint256"},{"name":"refundAsset","type":"address","indexed":false,"internalType":"address"},{"name":"refundAmount","type":"uint256","indexed":false,"internalType":"uint256"}],"anonymous":false},{"type":"event","name":"TokenTransferReceived","inputs":[{"name":"receiver","type":"address","indexed":true,"internalType":"address"},{"name":"amount","type":"uint256","indexed":false,"internalType":"uint256"}],"anonymous":false},{"type":"event","name":"TokenTransferReverted","inputs":[{"name":"sender","type":"address","indexed":true,"internalType":"address"},{"name":"amount","type":"uint256","indexed":false,"internalType":"uint256"},{"name":"refundAsset","type":"address","indexed":false,"internalType":"address"},{"name":"refundAmount","type":"uint256","indexed":false,"internalType":"uint256"}],"anonymous":false},{"type":"event","name":"TokenTransferToDestination","inputs":[{"name":"destination","type":"address","indexed":true,"internalType":"address"},{"name":"sender","type":"address","indexed":true,"internalType":"address"},{"name":"amount","type":"uint256","indexed":false,"internalType":"uint256"}],"anonymous":false},{"type":"event","name":"Transfer","inputs":[{"name":"from","type":"address","indexed":true,"internalType":"address"},{"name":"to","type":"address","indexed":true,"internalType":"address"},{"name":"value","type":"uint256","indexed":false,"internalType":"uint256"}],"anonymous":false},{"type":"event","name":"Unpaused","inputs":[{"name":"account","type":"address","indexed":false,"internalType":"address"}],"anonymous":false},{"type":"event","name":"Upgraded","inputs":[{"name":"implementation","type":"address","indexed":true,"internalType":"address"}],"anonymous":false},{"type":"error","name":"AddressEmptyCode","inputs":[{"name":"target","type":"address","internalType":"address"}]},{"type":"error","name":"ERC1967InvalidImplementation","inputs":[{"name":"implementation","type":"address","internalType":"address"}]},{"type":"error","name":"ERC1967NonPayable","inputs":[]},{"type":"error","name":"ERC20InsufficientAllowance","inputs":[{"name":"spender","type":"address","internalType":"address"},{"name":"allowance","type":"uint256","internalType":"uint256"},{"name":"needed","type":"uint256","internalType":"uint256"}]},{"type":"error","name":"ERC20InsufficientBalance","inputs":[{"name":"sender","type":"address","internalType":"address"},{"name":"balance","type":"uint256","internalType":"uint256"},{"name":"needed","type":"uint256","internalType":"uint256"}]},{"type":"error","name":"ERC20InvalidApprover","inputs":[{"name":"approver","type":"address","internalType":"address"}]},{"type":"error","name":"ERC20InvalidReceiver","inputs":[{"name":"receiver","type":"address","internalType":"address"}]},{"type":"error","name":"ERC20InvalidSender","inputs":[{"name":"sender","type":"address","internalType":"address"}]},{"type":"error","name":"ERC20InvalidSpender","inputs":[{"name":"spender","type":"address","internalType":"address"}]},{"type":"error","name":"EnforcedPause","inputs":[]},{"type":"error","name":"ExpectedPause","inputs":[]},{"type":"error","name":"FailedInnerCall","inputs":[]},{"type":"error","name":"GasTokenRefundFailed","inputs":[]},{"type":"error","name":"GasTokenTransferFailed","inputs":[]},{"type":"error","name":"InvalidAddress","inputs":[]},{"type":"error","name":"InvalidGasLimit","inputs":[]},{"type":"error","name":"InvalidInitialization","inputs":[]},{"type":"error","name":"NotInitializing","inputs":[]},{"type":"error","name":"OwnableInvalidOwner","inputs":[{"name":"owner","type":"address","internalType":"address"}]},{"type":"error","name":"OwnableUnauthorizedAccount","inputs":[{"name":"account","type":"address","internalType":"address"}]},{"type":"error","name":"ReentrancyGuardReentrantCall","inputs":[]},{"type":"error","name":"TransferToZetaChainRequiresNoGas","inputs":[]},{"type":"error","name":"UUPSUnauthorizedCallContext","inputs":[]},{"type":"error","name":"UUPSUnsupportedProxiableUUID","inputs":[{"name":"slot","type":"bytes32","internalType":"bytes32"}]},{"type":"error","name":"Unauthorized","inputs":[]}],"bytecode":{"object":"0x60a060405230608052348015610013575f80fd5b5061001c610021565b6100d3565b7ff0c57e16840df040f15088dc2f81fe391c3923bec73e23a9662efc9c229c6a00805468010000000000000000900460ff16156100715760405163f92ee8a960e01b815260040160405180910390fd5b80546001600160401b03908116146100d05780546001600160401b0319166001600160401b0390811782556040519081527fc7f505b2f371ae2175ee4913f4499e1f2633a7b5936321eed1cdaeb6115181d29060200160405180910390a15b50565b6080516121786100f95f395f8181610f4301528181610f6c01526110ab01526121785ff3fe6080604052600436106101d3575f3560e01c8063715018a6116100fd578063a9059cbb11610092578063dd62ed3e11610062578063dd62ed3e14610584578063e08aef18146105a3578063ee7d72b4146105b6578063f2fde38b146105d5575f80fd5b8063a9059cbb14610501578063ad3cb1cc14610520578063c9028a3614610550578063d0f239701461056f575f80fd5b80638456cb59116100cd5780638456cb591461047e5780638da5cb5b1461049257806390646b4a146104ce57806395d89b41146104ed575f80fd5b8063715018a61461040d57806375b30be614610421578063784ec91f1461044057806379cc67901461045f575f80fd5b806340c10f191161017357806352d1902d1161014357806352d1902d1461036a5780635c975abb1461037e578063676cc054146103a157806370a08231146103cd575f80fd5b806340c10f19146102fa57806342966c68146103195780634ee628a3146103385780634f1ef28614610357575f80fd5b806318160ddd116101ae57806318160ddd1461026d57806323b872dd146102aa578063313ce567146102c95780633f4ba83a146102e4575f80fd5b806306fdde03146101de578063095ea7b314610208578063116191b614610237575f80fd5b366101da57005b5f80fd5b3480156101e9575f80fd5b506101f26105f4565b6040516101ff9190611ad8565b60405180910390f35b348015610213575f80fd5b50610227610222366004611afe565b6106b4565b60405190151581526020016101ff565b348015610242575f80fd5b505f54610255906001600160a01b031681565b6040516001600160a01b0390911681526020016101ff565b348015610278575f80fd5b507f52c63247e1f47db19d5ce0460030c497f067ca4cebf71ba98eeadabe20bace02545b6040519081526020016101ff565b3480156102b5575f80fd5b506102276102c4366004611b28565b6106cd565b3480156102d4575f80fd5b50604051601281526020016101ff565b3480156102ef575f80fd5b506102f86106f2565b005b348015610305575f80fd5b506102f8610314366004611afe565b610704565b348015610324575f80fd5b506102f8610333366004611b66565b61071a565b348015610343575f80fd5b50600154610255906001600160a01b031681565b6102f8610365366004611c08565b610727565b348015610375575f80fd5b5061029c610742565b348015610389575f80fd5b505f805160206121238339815191525460ff16610227565b6103b46103af366004611c68565b61075d565b6040516001600160e01b031990911681526020016101ff565b3480156103d8575f80fd5b5061029c6103e7366004611ced565b6001600160a01b03165f9081525f805160206120e3833981519152602052604090205490565b348015610418575f80fd5b506102f86108d7565b34801561042c575f80fd5b506102f861043b366004611d26565b6108e8565b34801561044b575f80fd5b506102f861045a366004611ced565b610a27565b34801561046a575f80fd5b506102f8610479366004611afe565b610a9f565b348015610489575f80fd5b506102f8610ab4565b34801561049d575f80fd5b507f9016d09d72d40fdae2fd8ceac6b6234c7706214fd39c1cd1e609a0528c199300546001600160a01b0316610255565b3480156104d9575f80fd5b506102f86104e8366004611ced565b610ac4565b3480156104f8575f80fd5b506101f2610b14565b34801561050c575f80fd5b5061022761051b366004611afe565b610b52565b34801561052b575f80fd5b506101f2604051806040016040528060058152602001640352e302e360dc1b81525081565b34801561055b575f80fd5b506102f861056a366004611db6565b610b5f565b34801561057a575f80fd5b5061029c60025481565b34801561058f575f80fd5b5061029c61059e366004611ded565b610c84565b6102f86105b1366004611b28565b610ccd565b3480156105c1575f80fd5b506102f86105d0366004611b66565b610cdd565b3480156105e0575f80fd5b506102f86105ef366004611ced565b610d0a565b7f52c63247e1f47db19d5ce0460030c497f067ca4cebf71ba98eeadabe20bace0380546060915f805160206120e38339815191529161063290611e24565b80601f016020809104026020016040519081016040528092919081815260200182805461065e90611e24565b80156106a95780601f10610680576101008083540402835291602001916106a9565b820191905f5260205f20905b81548152906001019060200180831161068c57829003601f168201915b505050505091505090565b5f336106c1818585610d49565b60019150505b92915050565b5f336106da858285610d56565b6106e5858585610db9565b60019150505b9392505050565b6106fa610e16565b610702610e71565b565b61070c610e16565b6107168282610ed0565b5050565b6107243382610f04565b50565b61072f610f38565b61073882610fdc565b6107168282610fe4565b5f61074b6110a0565b505f8051602061210383398151915290565b5f80546001600160a01b03163314610787576040516282b42960e81b815260040160405180910390fd5b6001546001600160a01b03166107a06020860186611ced565b6001600160a01b0316146107c6576040516282b42960e81b815260040160405180910390fd5b5f8080806107d686880188611e5c565b93509350935093506107e88484610ed0565b8115610887576001600160a01b0381166108155760405163e6c4247b60e01b815260040160405180910390fd5b5f816001600160a01b0316836040515f6040518083038185875af1925050503d805f811461085e576040519150601f19603f3d011682016040523d82523d5f602084013e610863565b606091505b5050905080610885576040516302bf2c1960e61b815260040160405180910390fd5b505b836001600160a01b03167f880d282bb510204715036b03cfd2b2dd3edb2b970b399c5207a8e4619e196f35846040516108c291815260200190565b60405180910390a2505f979650505050505050565b6108df610e16565b6107025f6110e9565b7ff0c57e16840df040f15088dc2f81fe391c3923bec73e23a9662efc9c229c6a008054600160401b810460ff16159067ffffffffffffffff165f8115801561092d5750825b90505f8267ffffffffffffffff1660011480156109495750303b155b905081158015610957575080155b156109755760405163f92ee8a960e01b815260040160405180910390fd5b845467ffffffffffffffff19166001178555831561099f57845460ff60401b1916600160401b1785555b6109a98989611159565b6109b161116b565b6109b9611173565b6109c28a611183565b6109ca61116b565b6109d5873088611194565b8315610a1b57845460ff60401b19168555604051600181527fc7f505b2f371ae2175ee4913f4499e1f2633a7b5936321eed1cdaeb6115181d29060200160405180910390a15b50505050505050505050565b610a2f610e16565b6001600160a01b038116610a565760405163e6c4247b60e01b815260040160405180910390fd5b600180546001600160a01b0319166001600160a01b0383169081179091556040517f7c2aceab9e5ea924ba2f3285455133a28166ee3fcd968f0124dd61a77c4ba41d905f90a250565b610aaa823383610d56565b6107168282610f04565b610abc610e16565b61070261123e565b610acc610e16565b6001600160a01b038116610af35760405163e6c4247b60e01b815260040160405180910390fd5b5f80546001600160a01b0319166001600160a01b0392909216919091179055565b7f52c63247e1f47db19d5ce0460030c497f067ca4cebf71ba98eeadabe20bace0480546060915f805160206120e38339815191529161063290611e24565b5f336106c1818585610db9565b5f546001600160a01b03163314610b88576040516282b42960e81b815260040160405180910390fd5b5f80610b976060840184611ea3565b810190610ba49190611eed565b91509150610bb28183610ed0565b604083013515610c32575f816001600160a01b031684604001356040515f6040518083038185875af1925050503d805f8114610c09576040519150601f19603f3d011682016040523d82523d5f602084013e610c0e565b606091505b5050905080610c30576040516308d0ddfd60e21b815260040160405180910390fd5b505b604080518381525f6020820152848201358183015290516001600160a01b038316917f7044df973de6f58a143064a1edcaf43233e15a98f1c7bd9ac5eba40d130dd900919081900360600190a2505050565b6001600160a01b039182165f9081527f52c63247e1f47db19d5ce0460030c497f067ca4cebf71ba98eeadabe20bace016020908152604080832093909416825291909152205490565b610cd8838383611286565b505050565b610ce5610e16565b805f03610d05576040516304c5ed9760e51b815260040160405180910390fd5b600255565b610d12610e16565b6001600160a01b038116610d4057604051631e4fbdf760e01b81525f60048201526024015b60405180910390fd5b610724816110e9565b610cd883838360016114f9565b5f610d618484610c84565b90505f198114610db35781811015610da557604051637dc7a0d960e11b81526001600160a01b03841660048201526024810182905260448101839052606401610d37565b610db384848484035f6114f9565b50505050565b6001600160a01b038316610de257604051634b637e8f60e11b81525f6004820152602401610d37565b6001600160a01b038216610e0b5760405163ec442f0560e01b81525f6004820152602401610d37565b610cd88383836115dd565b33610e487f9016d09d72d40fdae2fd8ceac6b6234c7706214fd39c1cd1e609a0528c199300546001600160a01b031690565b6001600160a01b0316146107025760405163118cdaa760e01b8152336004820152602401610d37565b610e796115e8565b5f80516020612123833981519152805460ff191681557f5db9ee0a495bf2e6ff9c91a7834c1ba4fdd244a5e8aa4e537bd38aeae4b073aa335b6040516001600160a01b03909116815260200160405180910390a150565b6001600160a01b038216610ef95760405163ec442f0560e01b81525f6004820152602401610d37565b6107165f83836115dd565b6001600160a01b038216610f2d57604051634b637e8f60e11b81525f6004820152602401610d37565b610716825f836115dd565b306001600160a01b037f0000000000000000000000000000000000000000000000000000000000000000161480610fbe57507f00000000000000000000000000000000000000000000000000000000000000006001600160a01b0316610fb25f80516020612103833981519152546001600160a01b031690565b6001600160a01b031614155b156107025760405163703e46dd60e11b815260040160405180910390fd5b610724610e16565b816001600160a01b03166352d1902d6040518163ffffffff1660e01b8152600401602060405180830381865afa92505050801561103e575060408051601f3d908101601f1916820190925261103b91810190611f10565b60015b61106657604051634c9c8ce360e01b81526001600160a01b0383166004820152602401610d37565b5f80516020612103833981519152811461109657604051632a87526960e21b815260048101829052602401610d37565b610cd88383611617565b306001600160a01b037f000000000000000000000000000000000000000000000000000000000000000016146107025760405163703e46dd60e11b815260040160405180910390fd5b7f9016d09d72d40fdae2fd8ceac6b6234c7706214fd39c1cd1e609a0528c19930080546001600160a01b031981166001600160a01b03848116918217845560405192169182907f8be0079c531659141344cd1fd0a4f28419497f9722a3daafe3b4186f6b6457e0905f90a3505050565b61116161166c565b61071682826116b5565b61070261166c565b61117b61166c565b610702611705565b61118b61166c565b61072481611725565b61119c61172d565b6001600160a01b0383166111c35760405163e6c4247b60e01b815260040160405180910390fd5b6001600160a01b0382166111ea5760405163e6c4247b60e01b815260040160405180910390fd5b805f0361120a576040516304c5ed9760e51b815260040160405180910390fd5b5f80546001600160a01b039485166001600160a01b0319918216179091556001805493909416921691909117909155600255565b61124661173d565b5f80516020612123833981519152805460ff191660011781557f62e78cea01bee320cd4e420270b5ea74000d11b0c9f74754ebdbfc544b05a25833610eb2565b61128e61176d565b6001600160a01b0382166112b55760405163e6c4247b60e01b815260040160405180910390fd5b6001600160a01b0383161580156112cb57505f34115b156112e95760405163313781bb60e11b815260040160405180910390fd5b604080516001600160a01b038086166020830152841691810191909152606081018290523360808201525f9060a00160405160208183030381529060405290506113333383610f04565b826001600160a01b0316846001600160a01b03167fd0ed88a3f042c6bbb1e3ea406079b5f2b4b198afccaa535d837f4c63abbc4de68460405161137891815260200190565b60405180910390a36001600160a01b038416611420575f80546001546040805160a081018252308152602081018590526001600160a01b0392831681830181905260608201879052608082019590955290516306fb33ad60e21b81529190921692631becceb4926113ee92869190600401611f27565b5f604051808303815f87803b158015611405575f80fd5b505af1158015611417573d5f803e3d5ffd5b505050506114cf565b5f54600180546040805160a0810182523081526020808201949094526001600160a01b039283168183018190528251948501889052338584015282518086038401815260609586018452948201949094526002546080820152905163744b9b8b60e01b8152919093169263744b9b8b9234926114a0928791600401611f27565b5f604051808303818588803b1580156114b7575f80fd5b505af11580156114c9573d5f803e3d5ffd5b50505050505b50610cd860017f9b779b17422d0df92223018b32b4d1fa46e071723d6817e2486d003becc55f0055565b5f805160206120e38339815191526001600160a01b0385166115305760405163e602df0560e01b81525f6004820152602401610d37565b6001600160a01b03841661155957604051634a1406b160e11b81525f6004820152602401610d37565b6001600160a01b038086165f908152600183016020908152604080832093881683529290522083905581156115d657836001600160a01b0316856001600160a01b03167f8c5be1e5ebec7d5bd14f71427d1e84f3dd0314c0f7b2291e5b200ac8c7c3b925856040516115cd91815260200190565b60405180910390a35b5050505050565b610cd88383836117dd565b5f805160206121238339815191525460ff1661070257604051638dfc202b60e01b815260040160405180910390fd5b611620826117f0565b6040516001600160a01b038316907fbc7cd75a20ee27fd9adebab32041f755214dbc6bffa90cc0225b39da2e5c2d3b905f90a280511561166457610cd88282611853565b6107166118c5565b7ff0c57e16840df040f15088dc2f81fe391c3923bec73e23a9662efc9c229c6a0054600160401b900460ff1661070257604051631afcd79f60e31b815260040160405180910390fd5b6116bd61166c565b5f805160206120e38339815191527f52c63247e1f47db19d5ce0460030c497f067ca4cebf71ba98eeadabe20bace036116f68482611ff2565b5060048101610db38382611ff2565b61170d61166c565b5f80516020612123833981519152805460ff19169055565b610d1261166c565b61173561166c565b6107026118e4565b5f805160206121238339815191525460ff16156107025760405163d93c066560e01b815260040160405180910390fd5b7f9b779b17422d0df92223018b32b4d1fa46e071723d6817e2486d003becc55f008054600119016117b157604051633ee5aeb560e01b815260040160405180910390fd5b60029055565b60017f9b779b17422d0df92223018b32b4d1fa46e071723d6817e2486d003becc55f0055565b6117e561173d565b610cd88383836118ec565b806001600160a01b03163b5f0361182557604051634c9c8ce360e01b81526001600160a01b0382166004820152602401610d37565b5f8051602061210383398151915280546001600160a01b0319166001600160a01b0392909216919091179055565b60605f80846001600160a01b03168460405161186f91906120ad565b5f60405180830381855af49150503d805f81146118a7576040519150601f19603f3d011682016040523d82523d5f602084013e6118ac565b606091505b50915091506118bc858383611a25565b95945050505050565b34156107025760405163b398979f60e01b815260040160405180910390fd5b6117b761166c565b5f805160206120e38339815191526001600160a01b0384166119265781816002015f82825461191b91906120c3565b909155506119969050565b6001600160a01b0384165f90815260208290526040902054828110156119785760405163391434e360e21b81526001600160a01b03861660048201526024810182905260448101849052606401610d37565b6001600160a01b0385165f9081526020839052604090209083900390555b6001600160a01b0383166119b45760028101805483900390556119d2565b6001600160a01b0383165f9081526020829052604090208054830190555b826001600160a01b0316846001600160a01b03167fddf252ad1be2c89b69c2b068fc378daa952ba7f163c4a11628f55a4df523b3ef84604051611a1791815260200190565b60405180910390a350505050565b606082611a3a57611a3582611a81565b6106eb565b8151158015611a5157506001600160a01b0384163b155b15611a7a57604051639996b31560e01b81526001600160a01b0385166004820152602401610d37565b50806106eb565b805115611a915780518082602001fd5b604051630a12f52160e11b815260040160405180910390fd5b5f81518084528060208401602086015e5f602082860101526020601f19601f83011685010191505092915050565b602081525f6106eb6020830184611aaa565b6001600160a01b0381168114610724575f80fd5b5f8060408385031215611b0f575f80fd5b8235611b1a81611aea565b946020939093013593505050565b5f805f60608486031215611b3a575f80fd5b8335611b4581611aea565b92506020840135611b5581611aea565b929592945050506040919091013590565b5f60208284031215611b76575f80fd5b5035919050565b634e487b7160e01b5f52604160045260245ffd5b5f8067ffffffffffffffff841115611bab57611bab611b7d565b50604051601f19601f85018116603f0116810181811067ffffffffffffffff82111715611bda57611bda611b7d565b604052838152905080828401851015611bf1575f80fd5b838360208301375f60208583010152509392505050565b5f8060408385031215611c19575f80fd5b8235611c2481611aea565b9150602083013567ffffffffffffffff811115611c3f575f80fd5b8301601f81018513611c4f575f80fd5b611c5e85823560208401611b91565b9150509250929050565b5f805f8385036040811215611c7b575f80fd5b6020811215611c88575f80fd5b50839250602084013567ffffffffffffffff811115611ca5575f80fd5b8401601f81018613611cb5575f80fd5b803567ffffffffffffffff811115611ccb575f80fd5b866020828401011115611cdc575f80fd5b939660209190910195509293505050565b5f60208284031215611cfd575f80fd5b81356106eb81611aea565b5f82601f830112611d17575f80fd5b6106eb83833560208501611b91565b5f805f805f60a08688031215611d3a575f80fd5b8535611d4581611aea565b9450602086013567ffffffffffffffff811115611d60575f80fd5b611d6c88828901611d08565b945050604086013567ffffffffffffffff811115611d88575f80fd5b611d9488828901611d08565b9350506060860135611da581611aea565b949793965091946080013592915050565b5f60208284031215611dc6575f80fd5b813567ffffffffffffffff811115611ddc575f80fd5b8201608081850312156106eb575f80fd5b5f8060408385031215611dfe575f80fd5b8235611e0981611aea565b91506020830135611e1981611aea565b809150509250929050565b600181811c90821680611e3857607f821691505b602082108103611e5657634e487b7160e01b5f52602260045260245ffd5b50919050565b5f805f8060808587031215611e6f575f80fd5b8435611e7a81611aea565b935060208501359250604085013591506060850135611e9881611aea565b939692955090935050565b5f808335601e19843603018112611eb8575f80fd5b83018035915067ffffffffffffffff821115611ed2575f80fd5b602001915036819003821315611ee6575f80fd5b9250929050565b5f8060408385031215611efe575f80fd5b823591506020830135611e1981611aea565b5f60208284031215611f20575f80fd5b5051919050565b6001600160a01b03841681526060602082018190525f90611f4a90830185611aaa565b828103604084015260018060a01b03845116815260208401511515602082015260018060a01b036040850151166040820152606084015160a06060830152611f9560a0830182611aaa565b9050608085015160808301528092505050949350505050565b601f821115610cd857805f5260205f20601f840160051c81016020851015611fd35750805b601f840160051c820191505b818110156115d6575f8155600101611fdf565b815167ffffffffffffffff81111561200c5761200c611b7d565b6120208161201a8454611e24565b84611fae565b6020601f821160018114612052575f831561203b5750848201515b5f19600385901b1c1916600184901b1784556115d6565b5f84815260208120601f198516915b828110156120815787850151825560209485019460019092019101612061565b508482101561209e57868401515f19600387901b60f8161c191681555b50505050600190811b01905550565b5f82518060208501845e5f920191825250919050565b808201808211156106c757634e487b7160e01b5f52601160045260245ffdfe52c63247e1f47db19d5ce0460030c497f067ca4cebf71ba98eeadabe20bace00360894a13ba1a3210667c828492db98dca3e2076cc3735a920a3ca505d382bbccd5ed15c6e187e77e9aee88184c21f4f2182ab5827cb3b7e07fbedcd63f03300a2646970667358221220a4326724bfa2aeb7dc648cf122a3ea77ea8a29a402c924d0b5625ff3935b087264736f6c634300081a0033","linkReferences":{}},"methodIdentifiers":{"UPGRADE_INTERFACE_VERSION()":"ad3cb1cc","allowance(address,address)":"dd62ed3e","approve(address,uint256)":"095ea7b3","balanceOf(address)":"70a08231","burn(uint256)":"42966c68","burnFrom(address,uint256)":"79cc6790","decimals()":"313ce567","gasLimitAmount()":"d0f23970","gateway()":"116191b6","initialize(address,string,string,address,uint256)":"75b30be6","mint(address,uint256)":"40c10f19","name()":"06fdde03","onCall((address),bytes)":"676cc054","onRevert((address,address,uint256,bytes))":"c9028a36","owner()":"8da5cb5b","pause()":"8456cb59","paused()":"5c975abb","proxiableUUID()":"52d1902d","renounceOwnership()":"715018a6","setGasLimit(uint256)":"ee7d72b4","setGateway(address)":"90646b4a","setUniversal(address)":"784ec91f","symbol()":"95d89b41","totalSupply()":"18160ddd","transfer(address,uint256)":"a9059cbb","transferCrossChain(address,address,uint256)":"e08aef18","transferFrom(address,address,uint256)":"23b872dd","transferOwnership(address)":"f2fde38b","universal()":"4ee628a3","unpause()":"3f4ba83a","upgradeToAndCall(address,bytes)":"4f1ef286"},"id":27}