{"abi":[{"type":"constructor","inputs":[],"stateMutability":"nonpayable"},{"type":"receive","stateMutability":"payable"},{"type":"function","name":"UPGRADE_INTERFACE_VERSION","inputs":[],"outputs":[{"name":"","type":"string","internalType":"string"}],"stateMutability":"view"},{"type":"function","name":"allowance","inputs":[{"name":"owner","type":"address","internalType":"address"},{"name":"spender","type":"address","internalType":"address"}],"outputs":[{"name":"","type":"uint256","internalType":"uint256"}],"stateMutability":"view"},{"type":"function","name":"approve","inputs":[{"name":"spender","type":"address","internalType":"address"},{"name":"value","type":"uint256","internalType":"uint256"}],"outputs":[{"name":"","type":"bool","internalType":"bool"}],"stateMutability":"nonpayable"},{"type":"function","name":"balanceOf","inputs":[{"name":"account","type":"address","internalType":"address"}],"outputs":[{"name":"","type":"uint256","internalType":"uint256"}],"stateMutability":"view"},{"type":"function","name":"burn","inputs":[{"name":"value","type":"uint256","internalType":"uint256"}],"outputs":[],"stateMutability":"nonpayable"},{"type":"function","name":"burnFrom","inputs":[{"name":"account","type":"address","internalType":"address"},{"name":"value","type":"uint256","internalType":"uint256"}],"outputs":[],"stateMutability":"nonpayable"},{"type":"function","name":"connected","inputs":[{"name":"","type":"address","internalType":"address"}],"outputs":[{"name":"","type":"bytes","internalType":"bytes"}],"stateMutability":"view"},{"type":"function","name":"decimals","inputs":[],"outputs":[{"name":"","type":"uint8","internalType":"uint8"}],"stateMutability":"view"},{"type":"function","name":"gasLimitAmount","inputs":[],"outputs":[{"name":"","type":"uint256","internalType":"uint256"}],"stateMutability":"view"},{"type":"function","name":"gateway","inputs":[],"outputs":[{"name":"","type":"address","internalType":"contract GatewayZEVM"}],"stateMutability":"view"},{"type":"function","name":"initialize","inputs":[{"name":"initialOwner","type":"address","internalType":"address"},{"name":"name","type":"string","internalType":"string"},{"name":"symbol","type":"string","internalType":"string"},{"name":"gatewayAddress","type":"address","internalType":"address payable"},{"name":"gas","type":"uint256","internalType":"uint256"},{"name":"uniswapRouterAddress","type":"address","internalType":"address"}],"outputs":[],"stateMutability":"nonpayable"},{"type":"function","name":"isUniversal","inputs":[],"outputs":[{"name":"","type":"bool","internalType":"bool"}],"stateMutability":"view"},{"type":"function","name":"mint","inputs":[{"name":"to","type":"address","internalType":"address"},{"name":"amount","type":"uint256","internalType":"uint256"}],"outputs":[],"stateMutability":"nonpayable"},{"type":"function","name":"name","inputs":[],"outputs":[{"name":"","type":"string","internalType":"string"}],"stateMutability":"view"},{"type":"function","name":"onAbort","inputs":[{"name":"context","type":"tuple","internalType":"struct AbortContext","components":[{"name":"sender","type":"bytes","internalType":"bytes"},{"name":"asset","type":"address","internalType":"address"},{"name":"amount","type":"uint256","internalType":"uint256"},{"name":"outgoing","type":"bool","internalType":"bool"},{"name":"chainID","type":"uint256","internalType":"uint256"},{"name":"revertMessage","type":"bytes","internalType":"bytes"}]}],"outputs":[],"stateMutability":"nonpayable"},{"type":"function","name":"onCall","inputs":[{"name":"context","type":"tuple","internalType":"struct MessageContext","components":[{"name":"origin","type":"bytes","internalType":"bytes"},{"name":"sender","type":"address","internalType":"address"},{"name":"chainID","type":"uint256","internalType":"uint256"}]},{"name":"zrc20","type":"address","internalType":"address"},{"name":"amount","type":"uint256","internalType":"uint256"},{"name":"message","type":"bytes","internalType":"bytes"}],"outputs":[],"stateMutability":"nonpayable"},{"type":"function","name":"onRevert","inputs":[{"name":"context","type":"tuple","internalType":"struct RevertContext","components":[{"name":"sender","type":"address","internalType":"address"},{"name":"asset","type":"address","internalType":"address"},{"name":"amount","type":"uint256","internalType":"uint256"},{"name":"revertMessage","type":"bytes","internalType":"bytes"}]}],"outputs":[],"stateMutability":"nonpayable"},{"type":"function","name":"owner","inputs":[],"outputs":[{"name":"","type":"address","internalType":"address"}],"stateMutability":"view"},{"type":"function","name":"pause","inputs":[],"outputs":[],"stateMutability":"nonpayable"},{"type":"function","name":"paused","inputs":[],"outputs":[{"name":"","type":"bool","internalType":"bool"}],"stateMutability":"view"},{"type":"function","name":"proxiableUUID","inputs":[],"outputs":[{"name":"","type":"bytes32","internalType":"bytes32"}],"stateMutability":"view"},{"type":"function","name":"renounceOwnership","inputs":[],"outputs":[],"stateMutability":"nonpayable"},{"type":"function","name":"setConnected","inputs":[{"name":"zrc20","type":"address","internalType":"address"},{"name":"contractAddress","type":"bytes","internalType":"bytes"}],"outputs":[],"stateMutability":"nonpayable"},{"type":"function","name":"setGasLimit","inputs":[{"name":"gas","type":"uint256","internalType":"uint256"}],"outputs":[],"stateMutability":"nonpayable"},{"type":"function","name":"setGateway","inputs":[{"name":"gatewayAddress","type":"address","internalType":"address"}],"outputs":[],"stateMutability":"nonpayable"},{"type":"function","name":"symbol","inputs":[],"outputs":[{"name":"","type":"string","internalType":"string"}],"stateMutability":"view"},{"type":"function","name":"totalSupply","inputs":[],"outputs":[{"name":"","type":"uint256","internalType":"uint256"}],"stateMutability":"view"},{"type":"function","name":"transfer","inputs":[{"name":"to","type":"address","internalType":"address"},{"name":"value","type":"uint256","internalType":"uint256"}],"outputs":[{"name":"","type":"bool","internalType":"bool"}],"stateMutability":"nonpayable"},{"type":"function","name":"transferCrossChain","inputs":[{"name":"destination","type":"address","internalType":"address"},{"name":"receiver","type":"address","internalType":"address"},{"name":"amount","type":"uint256","internalType":"uint256"}],"outputs":[],"stateMutability":"payable"},{"type":"function","name":"transferFrom","inputs":[{"name":"from","type":"address","internalType":"address"},{"name":"to","type":"address","internalType":"address"},{"name":"value","type":"uint256","internalType":"uint256"}],"outputs":[{"name":"","type":"bool","internalType":"bool"}],"stateMutability":"nonpayable"},{"type":"function","name":"transferOwnership","inputs":[{"name":"newOwner","type":"address","internalType":"address"}],"outputs":[],"stateMutability":"nonpayable"},{"type":"function","name":"uniswapRouter","inputs":[],"outputs":[{"name":"","type":"address","internalType":"address"}],"stateMutability":"view"},{"type":"function","name":"unpause","inputs":[],"outputs":[],"stateMutability":"nonpayable"},{"type":"function","name":"upgradeToAndCall","inputs":[{"name":"newImplementation","type":"address","internalType":"address"},{"name":"data","type":"bytes","internalType":"bytes"}],"outputs":[],"stateMutability":"payable"},{"type":"event","name":"Approval","inputs":[{"name":"owner","type":"address","indexed":true,"internalType":"address"},{"name":"spender","type":"address","indexed":true,"internalType":"address"},{"name":"value","type":"uint256","indexed":false,"internalType":"uint256"}],"anonymous":false},{"type":"event","name":"Initialized","inputs":[{"name":"version","type":"uint64","indexed":false,"internalType":"uint64"}],"anonymous":false},{"type":"event","name":"OwnershipTransferred","inputs":[{"name":"previousOwner","type":"address","indexed":true,"internalType":"address"},{"name":"newOwner","type":"address","indexed":true,"internalType":"address"}],"anonymous":false},{"type":"event","name":"Paused","inputs":[{"name":"account","type":"address","indexed":false,"internalType":"address"}],"anonymous":false},{"type":"event","name":"SetConnected","inputs":[{"name":"zrc20","type":"address","indexed":true,"internalType":"address"},{"name":"contractAddress","type":"bytes","indexed":false,"internalType":"bytes"}],"anonymous":false},{"type":"event","name":"SetUniversal","inputs":[{"name":"universalAddress","type":"address","indexed":true,"internalType":"address"}],"anonymous":false},{"type":"event","name":"TokenMinted","inputs":[{"name":"to","type":"address","indexed":true,"internalType":"address"},{"name":"amount","type":"uint256","indexed":false,"internalType":"uint256"}],"anonymous":false},{"type":"event","name":"TokenTransfer","inputs":[{"name":"destination","type":"address","indexed":true,"internalType":"address"},{"name":"receiver","type":"address","indexed":true,"internalType":"address"},{"name":"amount","type":"uint256","indexed":false,"internalType":"uint256"}],"anonymous":false},{"type":"event","name":"TokenTransferAborted","inputs":[{"name":"sender","type":"address","indexed":true,"internalType":"address"},{"name":"amount","type":"uint256","indexed":false,"internalType":"uint256"},{"name":"refundAsset","type":"address","indexed":false,"internalType":"address"},{"name":"refundAmount","type":"uint256","indexed":false,"internalType":"uint256"}],"anonymous":false},{"type":"event","name":"TokenTransferReceived","inputs":[{"name":"receiver","type":"address","indexed":true,"internalType":"address"},{"name":"amount","type":"uint256","indexed":false,"internalType":"uint256"}],"anonymous":false},{"type":"event","name":"TokenTransferReverted","inputs":[{"name":"sender","type":"address","indexed":true,"internalType":"address"},{"name":"amount","type":"uint256","indexed":false,"internalType":"uint256"},{"name":"refundAsset","type":"address","indexed":false,"internalType":"address"},{"name":"refundAmount","type":"uint256","indexed":false,"internalType":"uint256"}],"anonymous":false},{"type":"event","name":"TokenTransferToDestination","inputs":[{"name":"destination","type":"address","indexed":true,"internalType":"address"},{"name":"sender","type":"address","indexed":true,"internalType":"address"},{"name":"amount","type":"uint256","indexed":false,"internalType":"uint256"}],"anonymous":false},{"type":"event","name":"Transfer","inputs":[{"name":"from","type":"address","indexed":true,"internalType":"address"},{"name":"to","type":"address","indexed":true,"internalType":"address"},{"name":"value","type":"uint256","indexed":false,"internalType":"uint256"}],"anonymous":false},{"type":"event","name":"Unpaused","inputs":[{"name":"account","type":"address","indexed":false,"internalType":"address"}],"anonymous":false},{"type":"event","name":"Upgraded","inputs":[{"name":"implementation","type":"address","indexed":true,"internalType":"address"}],"anonymous":false},{"type":"error","name":"AdditionsOverflow","inputs":[]},{"type":"error","name":"AddressEmptyCode","inputs":[{"name":"target","type":"address","internalType":"address"}]},{"type":"error","name":"ApproveFailed","inputs":[]},{"type":"error","name":"CantBeIdenticalAddresses","inputs":[]},{"type":"error","name":"CantBeZeroAddress","inputs":[]},{"type":"error","name":"ERC1967InvalidImplementation","inputs":[{"name":"implementation","type":"address","internalType":"address"}]},{"type":"error","name":"ERC1967NonPayable","inputs":[]},{"type":"error","name":"ERC20InsufficientAllowance","inputs":[{"name":"spender","type":"address","internalType":"address"},{"name":"allowance","type":"uint256","internalType":"uint256"},{"name":"needed","type":"uint256","internalType":"uint256"}]},{"type":"error","name":"ERC20InsufficientBalance","inputs":[{"name":"sender","type":"address","internalType":"address"},{"name":"balance","type":"uint256","internalType":"uint256"},{"name":"needed","type":"uint256","internalType":"uint256"}]},{"type":"error","name":"ERC20InvalidApprover","inputs":[{"name":"approver","type":"address","internalType":"address"}]},{"type":"error","name":"ERC20InvalidReceiver","inputs":[{"name":"receiver","type":"address","internalType":"address"}]},{"type":"error","name":"ERC20InvalidSender","inputs":[{"name":"sender","type":"address","internalType":"address"}]},{"type":"error","name":"ERC20InvalidSpender","inputs":[{"name":"spender","type":"address","internalType":"address"}]},{"type":"error","name":"EnforcedPause","inputs":[]},{"type":"error","name":"ExpectedPause","inputs":[]},{"type":"error","name":"FailedInnerCall","inputs":[]},{"type":"error","name":"IdenticalAddresses","inputs":[]},{"type":"error","name":"InsufficientInputAmount","inputs":[]},{"type":"error","name":"InsufficientLiquidity","inputs":[]},{"type":"error","name":"InvalidAddress","inputs":[]},{"type":"error","name":"InvalidGasLimit","inputs":[]},{"type":"error","name":"InvalidInitialization","inputs":[]},{"type":"error","name":"InvalidPath","inputs":[]},{"type":"error","name":"InvalidPathLength","inputs":[]},{"type":"error","name":"MultiplicationsOverflow","inputs":[]},{"type":"error","name":"NotInitializing","inputs":[]},{"type":"error","name":"OwnableInvalidOwner","inputs":[{"name":"owner","type":"address","internalType":"address"}]},{"type":"error","name":"OwnableUnauthorizedAccount","inputs":[{"name":"account","type":"address","internalType":"address"}]},{"type":"error","name":"ReentrancyGuardReentrantCall","inputs":[]},{"type":"error","name":"TokenRefundFailed","inputs":[]},{"type":"error","name":"TransferFailed","inputs":[]},{"type":"error","name":"UUPSUnauthorizedCallContext","inputs":[]},{"type":"error","name":"UUPSUnsupportedProxiableUUID","inputs":[{"name":"slot","type":"bytes32","internalType":"bytes32"}]},{"type":"error","name":"Unauthorized","inputs":[]},{"type":"error","name":"ZeroAddress","inputs":[]},{"type":"error","name":"ZeroMsgValue","inputs":[]}],"bytecode":{"object":"0x60a060405230608052348015610013575f80fd5b5061001c610021565b6100d3565b7ff0c57e16840df040f15088dc2f81fe391c3923bec73e23a9662efc9c229c6a00805468010000000000000000900460ff16156100715760405163f92ee8a960e01b815260040160405180910390fd5b80546001600160401b03908116146100d05780546001600160401b0319166001600160401b0390811782556040519081527fc7f505b2f371ae2175ee4913f4499e1f2633a7b5936321eed1cdaeb6115181d29060200160405180910390a15b50565b608051613cb26100f95f395f818161142c0152818161145501526115940152613cb25ff3fe6080604052600436106101f4575f3560e01c8063650b4f8b1161010857806395d89b411161009d578063d0f239701161006d578063d0f23970146105d5578063dd62ed3e146105ea578063e08aef1814610609578063ee7d72b41461061c578063f2fde38b1461063b575f80fd5b806395d89b4114610553578063a9059cbb14610567578063ad3cb1cc14610586578063c9028a36146105b6575f80fd5b806379cc6790116100d857806379cc6790146104c55780638456cb59146104e45780638da5cb5b146104f857806390646b4a14610534575f80fd5b8063650b4f8b1461043357806370a0823114610452578063715018a614610492578063735de9f7146104a6575f80fd5b8063313ce5671161018957806342966c681161015957806342966c68146103ab5780634f1ef286146103ca57806352d1902d146103dd5780635bcfd616146103f15780635c975abb14610410575f80fd5b8063313ce5671461033e5780633332dfa9146103595780633f4ba83a1461037857806340c10f191461038c575f80fd5b806318160ddd116101c457806318160ddd146102ad57806323b872dd146102ea5780632d4cfb7e14610309578063305725e51461032a575f80fd5b806306fdde03146101ff578063095ea7b3146102295780630e76754b14610258578063116191b614610277575f80fd5b366101fb57005b5f80fd5b34801561020a575f80fd5b5061021361065a565b6040516102209190613071565b60405180910390f35b348015610234575f80fd5b50610248610243366004613097565b61071a565b6040519015158152602001610220565b348015610263575f80fd5b506102136102723660046130c1565b610733565b348015610282575f80fd5b505f54610295906001600160a01b031681565b6040516001600160a01b039091168152602001610220565b3480156102b8575f80fd5b507f52c63247e1f47db19d5ce0460030c497f067ca4cebf71ba98eeadabe20bace02545b604051908152602001610220565b3480156102f5575f80fd5b506102486103043660046130dc565b6107ca565b348015610314575f80fd5b5061032861032336600461311a565b6107ef565b005b348015610335575f80fd5b50610248600181565b348015610349575f80fd5b5060405160128152602001610220565b348015610364575f80fd5b5061032861037336600461318d565b61097e565b348015610383575f80fd5b50610328610a39565b348015610397575f80fd5b506103286103a6366004613097565b610a4b565b3480156103b6575f80fd5b506103286103c53660046131dd565b610a61565b6103286103d8366004613290565b610a6e565b3480156103e8575f80fd5b506102dc610a89565b3480156103fc575f80fd5b5061032861040b3660046132ef565b610aa4565b34801561041b575f80fd5b505f80516020613c5d8339815191525460ff16610248565b34801561043e575f80fd5b5061032861044d366004613395565b610ed3565b34801561045d575f80fd5b506102dc61046c3660046130c1565b6001600160a01b03165f9081525f80516020613c1d833981519152602052604090205490565b34801561049d575f80fd5b50610328611011565b3480156104b1575f80fd5b50600154610295906001600160a01b031681565b3480156104d0575f80fd5b506103286104df366004613097565b611022565b3480156104ef575f80fd5b50610328611037565b348015610503575f80fd5b507f9016d09d72d40fdae2fd8ceac6b6234c7706214fd39c1cd1e609a0528c199300546001600160a01b0316610295565b34801561053f575f80fd5b5061032861054e3660046130c1565b611047565b34801561055e575f80fd5b50610213611097565b348015610572575f80fd5b50610248610581366004613097565b6110d5565b348015610591575f80fd5b50610213604051806040016040528060058152602001640352e302e360dc1b81525081565b3480156105c1575f80fd5b506103286105d0366004613438565b6110e2565b3480156105e0575f80fd5b506102dc60025481565b3480156105f5575f80fd5b506102dc61060436600461346e565b611172565b6103286106173660046130dc565b6111bb565b348015610627575f80fd5b506103286106363660046131dd565b6111c6565b348015610646575f80fd5b506103286106553660046130c1565b6111f3565b7f52c63247e1f47db19d5ce0460030c497f067ca4cebf71ba98eeadabe20bace0380546060915f80516020613c1d83398151915291610698906134a5565b80601f01602080910402602001604051908101604052809291908181526020018280546106c4906134a5565b801561070f5780601f106106e65761010080835404028352916020019161070f565b820191905f5260205f20905b8154815290600101906020018083116106f257829003601f168201915b505050505091505090565b5f33610727818585611232565b60019150505b92915050565b60036020525f90815260409020805461074b906134a5565b80601f0160208091040260200160405190810160405280929190818152602001828054610777906134a5565b80156107c25780601f10610799576101008083540402835291602001916107c2565b820191905f5260205f20905b8154815290600101906020018083116107a557829003601f168201915b505050505081565b5f336107d785828561123f565b6107e28585856112a2565b60019150505b9392505050565b5f546001600160a01b03163314610818576040516282b42960e81b815260040160405180910390fd5b5f8061082760a08401846134dd565b810190610834919061351f565b925092505061084381836112ff565b6001600160a01b0381167fa5fc86fc345a24878e4b42618f66d472bf70e1796adaa47bc4cdf03068c0eddd8361087f60408701602088016130c1565b604080519283526001600160a01b039091166020830152808701359082015260600160405180910390a25f83604001351180156108d457505f6108c860408501602086016130c1565b6001600160a01b031614155b15610979576108e960408401602085016130c1565b6040805163a9059cbb60e01b81526001600160a01b03848116600483015291860135602482015291169063a9059cbb906044016020604051808303815f875af1158015610938573d5f803e3d5ffd5b505050506040513d601f19601f8201168201806040525081019061095c919061355e565b610979576040516373dd95d760e01b815260040160405180910390fd5b505050565b610986611333565b6001600160a01b0383166109ad5760405163e6c4247b60e01b815260040160405180910390fd5b5f8190036109ce5760405163e6c4247b60e01b815260040160405180910390fd5b6001600160a01b0383165f9081526003602052604090206109f08284836135c1565b50826001600160a01b03167fc07f1b52f505af7b3341e91bf6c59a9d16dec4b846199595944456981d88d7ae8383604051610a2c92919061367a565b60405180910390a2505050565b610a41611333565b610a4961138e565b565b610a53611333565b610a5d82826112ff565b5050565b610a6b33826113ed565b50565b610a76611421565b610a7f826114c5565b610a5d82826114cd565b5f610a92611589565b505f80516020613c3d83398151915290565b5f546001600160a01b03163314610acd576040516282b42960e81b815260040160405180910390fd5b6001600160a01b0384165f908152600360209081526040918290209151610af59291016136a8565b60405160208183030381529060405280519060200120856020016020810190610b1e91906130c1565b604051602001610b41919060609190911b6001600160601b031916815260140190565b6040516020818303038152906040528051906020012014610b74576040516282b42960e81b815260040160405180910390fd5b5f808080610b8485870187613719565b929650909450925090506001600160a01b038416610bab57610ba683836112ff565b610e7b565b5f80856001600160a01b031663fc5fecd56002546040518263ffffffff1660e01b8152600401610bdd91815260200190565b6040805180830381865afa158015610bf7573d5f803e3d5ffd5b505050506040513d601f19601f82011682018060405250810190610c1b9190613769565b91509150816001600160a01b0316866001600160a01b031614610c515760405163e6c4247b60e01b815260040160405180910390fd5b6001545f90610c6c906001600160a01b03168c8c8a856115d2565b5f5460405163095ea7b360e01b81526001600160a01b0391821660048201526024810183905291925088169063095ea7b3906044016020604051808303815f875af1158015610cbd573d5f803e3d5ffd5b505050506040513d601f19601f82011682018060405250810190610ce1919061355e565b610cfe57604051633e3f8f7360e01b815260040160405180910390fd5b5f80546001600160a01b0389811683526003602090815260409384902093519190921692637b15118b92610d3292016136a8565b60408051601f19818403018152919052610d4c85856137a9565b8a8a8a610d5989896137a9565b604080516001600160a01b039485166020820152908101929092526060820152908a16608082015260a001604051602081830303815290604052604051806040016040528060025481526020015f15158152506040518060a00160405280306001600160a01b031681526020016001151581526020015f6001600160a01b031681526020018e8e8e604051602001610e11939291906001600160a01b0393841681526020810192909252909116604082015260600190565b60405160208183030381529060405281526020015f8152506040518763ffffffff1660e01b8152600401610e4a96959493929190613814565b5f604051808303815f87803b158015610e61575f80fd5b505af1158015610e73573d5f803e3d5ffd5b505050505050505b826001600160a01b0316846001600160a01b03167f2ec02087da688ada2091424c95a4eaf24aa33c699dea84809cbe005a8e7f813389604051610ec091815260200190565b60405180910390a3505050505050505050565b7ff0c57e16840df040f15088dc2f81fe391c3923bec73e23a9662efc9c229c6a008054600160401b810460ff1615906001600160401b03165f81158015610f175750825b90505f826001600160401b03166001148015610f325750303b155b905081158015610f40575080155b15610f5e5760405163f92ee8a960e01b815260040160405180910390fd5b845467ffffffffffffffff191660011785558315610f8857845460ff60401b1916600160401b1785555b610f928a8a61195f565b610f9a611971565b610fa2611979565b610fab8b611989565b610fb3611971565b610fbe88888861199a565b831561100457845460ff60401b19168555604051600181527fc7f505b2f371ae2175ee4913f4499e1f2633a7b5936321eed1cdaeb6115181d29060200160405180910390a15b5050505050505050505050565b611019611333565b610a495f611a2e565b61102d82338361123f565b610a5d82826113ed565b61103f611333565b610a49611a9e565b61104f611333565b6001600160a01b0381166110765760405163e6c4247b60e01b815260040160405180910390fd5b5f80546001600160a01b0319166001600160a01b0392909216919091179055565b7f52c63247e1f47db19d5ce0460030c497f067ca4cebf71ba98eeadabe20bace0480546060915f80516020613c1d83398151915291610698906134a5565b5f336107278185856112a2565b5f546001600160a01b0316331461110b576040516282b42960e81b815260040160405180910390fd5b5f8061111a60608401846134dd565b810190611127919061351f565b925092505061113681836112ff565b6001600160a01b0381167f7044df973de6f58a143064a1edcaf43233e15a98f1c7bd9ac5eba40d130dd9008361087f60408701602088016130c1565b6001600160a01b039182165f9081527f52c63247e1f47db19d5ce0460030c497f067ca4cebf71ba98eeadabe20bace016020908152604080832093909416825291909152205490565b610979838383611ae6565b6111ce611333565b805f036111ee576040516304c5ed9760e51b815260040160405180910390fd5b600255565b6111fb611333565b6001600160a01b03811661122957604051631e4fbdf760e01b81525f60048201526024015b60405180910390fd5b610a6b81611a2e565b610979838383600161204d565b5f61124a8484611172565b90505f19811461129c578181101561128e57604051637dc7a0d960e11b81526001600160a01b03841660048201526024810182905260448101839052606401611220565b61129c84848484035f61204d565b50505050565b6001600160a01b0383166112cb57604051634b637e8f60e11b81525f6004820152602401611220565b6001600160a01b0382166112f45760405163ec442f0560e01b81525f6004820152602401611220565b610979838383612131565b6001600160a01b0382166113285760405163ec442f0560e01b81525f6004820152602401611220565b610a5d5f8383612131565b336113657f9016d09d72d40fdae2fd8ceac6b6234c7706214fd39c1cd1e609a0528c199300546001600160a01b031690565b6001600160a01b031614610a495760405163118cdaa760e01b8152336004820152602401611220565b61139661213c565b5f80516020613c5d833981519152805460ff191681557f5db9ee0a495bf2e6ff9c91a7834c1ba4fdd244a5e8aa4e537bd38aeae4b073aa335b6040516001600160a01b03909116815260200160405180910390a150565b6001600160a01b03821661141657604051634b637e8f60e11b81525f6004820152602401611220565b610a5d825f83612131565b306001600160a01b037f00000000000000000000000000000000000000000000000000000000000000001614806114a757507f00000000000000000000000000000000000000000000000000000000000000006001600160a01b031661149b5f80516020613c3d833981519152546001600160a01b031690565b6001600160a01b031614155b15610a495760405163703e46dd60e11b815260040160405180910390fd5b610a6b611333565b816001600160a01b03166352d1902d6040518163ffffffff1660e01b8152600401602060405180830381865afa925050508015611527575060408051601f3d908101601f1916820190925261152491810190613882565b60015b61154f57604051634c9c8ce360e01b81526001600160a01b0383166004820152602401611220565b5f80516020613c3d833981519152811461157f57604051632a87526960e21b815260048101829052602401611220565b610979838361216b565b306001600160a01b037f00000000000000000000000000000000000000000000000000000000000000001614610a495760405163703e46dd60e11b815260040160405180910390fd5b5f80866001600160a01b031663c45a01556040518163ffffffff1660e01b8152600401602060405180830381865afa158015611610573d5f803e3d5ffd5b505050506040513d601f19601f820116820180604052508101906116349190613899565b90505f876001600160a01b031663ad5c46486040518163ffffffff1660e01b8152600401602060405180830381865afa158015611673573d5f803e3d5ffd5b505050506040513d601f19601f820116820180604052508101906116979190613899565b60408051600280825260608083018452939450909160208301908036833701905050905087815f815181106116ce576116ce6138b4565b60200260200101906001600160a01b031690816001600160a01b0316815250508581600181518110611702576117026138b4565b60200260200101906001600160a01b031690816001600160a01b0316815250505f61172f848988856121c0565b90505f836001600160a01b0316886001600160a01b031614806117635750836001600160a01b03168a6001600160a01b0316145b905081158015611771575080155b156118335760408051600380825260808201909252906020820160608036833701905050925089835f815181106117aa576117aa6138b4565b60200260200101906001600160a01b031690816001600160a01b03168152505083836001815181106117de576117de6138b4565b60200260200101906001600160a01b031690816001600160a01b0316815250508783600281518110611812576118126138b4565b60200260200101906001600160a01b031690816001600160a01b0316815250505b60405163095ea7b360e01b81526001600160a01b038c81166004830152602482018b90528b169063095ea7b3906044016020604051808303815f875af115801561187f573d5f803e3d5ffd5b505050506040513d601f19601f820116820180604052508101906118a3919061355e565b505f6001600160a01b038c166338ed17398b8a87306118c360c8426138c8565b6040518663ffffffff1660e01b81526004016118e39594939291906138db565b5f604051808303815f875af11580156118fe573d5f803e3d5ffd5b505050506040513d5f823e601f3d908101601f19168201604052611925919081019061394b565b9050806001855161193691906137a9565b81518110611946576119466138b4565b6020026020010151965050505050505095945050505050565b611967612277565b610a5d82826122c0565b610a49612277565b611981612277565b610a49612310565b611991612277565b610a6b81612330565b6119a2612338565b6001600160a01b03831615806119bf57506001600160a01b038116155b156119dd5760405163e6c4247b60e01b815260040160405180910390fd5b815f036119fd576040516304c5ed9760e51b815260040160405180910390fd5b5f80546001600160a01b039485166001600160a01b0319918216179091556001805492909416911617909155600255565b7f9016d09d72d40fdae2fd8ceac6b6234c7706214fd39c1cd1e609a0528c19930080546001600160a01b031981166001600160a01b03848116918217845560405192169182907f8be0079c531659141344cd1fd0a4f28419497f9722a3daafe3b4186f6b6457e0905f90a3505050565b611aa6612348565b5f80516020613c5d833981519152805460ff191660011781557f62e78cea01bee320cd4e420270b5ea74000d11b0c9f74754ebdbfc544b05a258336113cf565b611aee612378565b345f03611b0e5760405163790c8b3960e01b815260040160405180910390fd5b6001600160a01b038216611b355760405163e6c4247b60e01b815260040160405180910390fd5b604080516001600160a01b03841660208201529081018290525f606082018190523360808301529060a0016040516020818303038152906040529050611b7b33836113ed565b826001600160a01b0316846001600160a01b03167fd0ed88a3f042c6bbb1e3ea406079b5f2b4b198afccaa535d837f4c63abbc4de684604051611bc091815260200190565b60405180910390a35f80856001600160a01b031663fc5fecd56002546040518263ffffffff1660e01b8152600401611bfa91815260200190565b6040805180830381865afa158015611c14573d5f803e3d5ffd5b505050506040513d601f19601f82011682018060405250810190611c389190613769565b91509150816001600160a01b0316866001600160a01b031614611c6e5760405163e6c4247b60e01b815260040160405180910390fd5b5f805f9054906101000a90046001600160a01b03166001600160a01b03166321e093b16040518163ffffffff1660e01b8152600401602060405180830381865afa158015611cbe573d5f803e3d5ffd5b505050506040513d601f19601f82011682018060405250810190611ce29190613899565b9050806001600160a01b031663d0e30db0346040518263ffffffff1660e01b81526004015f604051808303818588803b158015611d1d575f80fd5b505af1158015611d2f573d5f803e3d5ffd5b505060015460405163095ea7b360e01b81526001600160a01b039182166004820152346024820152908516935063095ea7b3925060440190506020604051808303815f875af1158015611d84573d5f803e3d5ffd5b505050506040513d601f19601f82011682018060405250810190611da8919061355e565b611dc557604051633e3f8f7360e01b815260040160405180910390fd5b6001545f90611de0906001600160a01b0316838587346123c2565b90505f611ded82346137a9565b90508015611eb257604051632e1a7d4d60e01b8152600481018290526001600160a01b03841690632e1a7d4d906024015f604051808303815f87803b158015611e34575f80fd5b505af1158015611e46573d5f803e3d5ffd5b50506040515f925033915083908381818185875af1925050503d805f8114611e89576040519150601f19603f3d011682016040523d82523d5f602084013e611e8e565b606091505b5050905080611eb0576040516312171d8360e31b815260040160405180910390fd5b505b6040805180820182526002548082525f6020808401829052845160a081018652308082526001828401528187015285516001600160a01b038f8116828501528188018f90523360608084019190915288518084038201815260809384018a5290840152908201949094528254865163095ea7b360e01b81529085166004820152602481018b9052955194959094938b169363095ea7b3936044808401949383900301908290875af1158015611f69573d5f803e3d5ffd5b505050506040513d601f19601f82011682018060405250810190611f8d919061355e565b611faa57604051633e3f8f7360e01b815260040160405180910390fd5b5f80546001600160a01b038d81168352600360205260409283902092516306cb898360e01b81529116916306cb898391611fef91908f908d90889088906004016139ea565b5f604051808303815f87803b158015612006575f80fd5b505af1158015612018573d5f803e3d5ffd5b50505050505050505050505061097960017f9b779b17422d0df92223018b32b4d1fa46e071723d6817e2486d003becc55f0055565b5f80516020613c1d8339815191526001600160a01b0385166120845760405163e602df0560e01b81525f6004820152602401611220565b6001600160a01b0384166120ad57604051634a1406b160e11b81525f6004820152602401611220565b6001600160a01b038086165f9081526001830160209081526040808320938816835292905220839055811561212a57836001600160a01b0316856001600160a01b03167f8c5be1e5ebec7d5bd14f71427d1e84f3dd0314c0f7b2291e5b200ac8c7c3b9258560405161212191815260200190565b60405180910390a35b5050505050565b61097983838361272c565b5f80516020613c5d8339815191525460ff16610a4957604051638dfc202b60e01b815260040160405180910390fd5b6121748261273f565b6040516001600160a01b038316907fbc7cd75a20ee27fd9adebab32041f755214dbc6bffa90cc0225b39da2e5c2d3b905f90a28051156121b85761097982826127a2565b610a5d612814565b5f81516002146121e3576040516366b045ff60e11b815260040160405180910390fd5b5f61222286845f815181106121fa576121fa6138b4565b602002602001015185600181518110612215576122156138b4565b6020026020010151612833565b905080612232575f91505061226f565b5f61223e87878661292a565b905084816001835161225091906137a9565b81518110612260576122606138b4565b60200260200101511015925050505b949350505050565b7ff0c57e16840df040f15088dc2f81fe391c3923bec73e23a9662efc9c229c6a0054600160401b900460ff16610a4957604051631afcd79f60e31b815260040160405180910390fd5b6122c8612277565b5f80516020613c1d8339815191527f52c63247e1f47db19d5ce0460030c497f067ca4cebf71ba98eeadabe20bace036123018482613abd565b506004810161129c8382613abd565b612318612277565b5f80516020613c5d833981519152805460ff19169055565b6111fb612277565b612340612277565b610a49612a76565b5f80516020613c5d8339815191525460ff1615610a495760405163d93c066560e01b815260040160405180910390fd5b7f9b779b17422d0df92223018b32b4d1fa46e071723d6817e2486d003becc55f008054600119016123bc57604051633ee5aeb560e01b815260040160405180910390fd5b60029055565b5f80866001600160a01b031663c45a01556040518163ffffffff1660e01b8152600401602060405180830381865afa158015612400573d5f803e3d5ffd5b505050506040513d601f19601f820116820180604052508101906124249190613899565b90505f876001600160a01b031663ad5c46486040518163ffffffff1660e01b8152600401602060405180830381865afa158015612463573d5f803e3d5ffd5b505050506040513d601f19601f820116820180604052508101906124879190613899565b90505f612495838988612833565b90506060811561252b57604080516002808252606082018352909160208301908036833701905050905088815f815181106124d2576124d26138b4565b60200260200101906001600160a01b031690816001600160a01b0316815250508681600181518110612506576125066138b4565b60200260200101906001600160a01b031690816001600160a01b0316815250506125e8565b60408051600380825260808201909252906020820160608036833701905050905088815f8151811061255f5761255f6138b4565b60200260200101906001600160a01b031690816001600160a01b0316815250508281600181518110612593576125936138b4565b60200260200101906001600160a01b031690816001600160a01b03168152505086816002815181106125c7576125c76138b4565b60200260200101906001600160a01b031690816001600160a01b0316815250505b60405163095ea7b360e01b81526001600160a01b038b81166004830152602482018890528a169063095ea7b3906044016020604051808303815f875af1158015612634573d5f803e3d5ffd5b505050506040513d601f19601f82011682018060405250810190612658919061355e565b505f6001600160a01b038b16638803dbee8a89853061267860c8426138c8565b6040518663ffffffff1660e01b81526004016126989594939291906138db565b5f604051808303815f875af11580156126b3573d5f803e3d5ffd5b505050506040513d5f823e601f3d908101601f191682016040526126da919081019061394b565b9050805f815181106126ee576126ee6138b4565b60200260200101519550505050505095945050505050565b60017f9b779b17422d0df92223018b32b4d1fa46e071723d6817e2486d003becc55f0055565b612734612348565b610979838383612a7e565b806001600160a01b03163b5f0361277457604051634c9c8ce360e01b81526001600160a01b0382166004820152602401611220565b5f80516020613c3d83398151915280546001600160a01b0319166001600160a01b0392909216919091179055565b60605f80846001600160a01b0316846040516127be9190613b77565b5f60405180830381855af49150503d805f81146127f6576040519150601f19603f3d011682016040523d82523d5f602084013e6127fb565b606091505b509150915061280b858383612bb7565b95945050505050565b3415610a495760405163b398979f60e01b815260040160405180910390fd5b5f80612840858585612c13565b6040516370a0823160e01b81526001600160a01b0380831660048301529192505f918616906370a0823190602401602060405180830381865afa158015612889573d5f803e3d5ffd5b505050506040513d601f19601f820116820180604052508101906128ad9190613882565b11801561280b57506040516370a0823160e01b81526001600160a01b0382811660048301525f91908516906370a0823190602401602060405180830381865afa1580156128fc573d5f803e3d5ffd5b505050506040513d601f19601f820116820180604052508101906129209190613882565b1195945050505050565b606060028251101561294f576040516320db826760e01b815260040160405180910390fd5b81516001600160401b03811115612968576129686131f4565b604051908082528060200260200182016040528015612991578160200160208202803683370190505b50905082815f815181106129a7576129a76138b4565b6020026020010181815250505f5b600183516129c391906137a9565b811015612a6e575f80612a15878685815181106129e2576129e26138b4565b6020026020010151878660016129f891906138c8565b81518110612a0857612a086138b4565b6020026020010151612ce0565b91509150612a3d848481518110612a2e57612a2e6138b4565b60200260200101518383612da5565b84612a498560016138c8565b81518110612a5957612a596138b4565b602090810291909101015250506001016129b5565b509392505050565b612706612277565b5f80516020613c1d8339815191526001600160a01b038416612ab85781816002015f828254612aad91906138c8565b90915550612b289050565b6001600160a01b0384165f9081526020829052604090205482811015612b0a5760405163391434e360e21b81526001600160a01b03861660048201526024810182905260448101849052606401611220565b6001600160a01b0385165f9081526020839052604090209083900390555b6001600160a01b038316612b46576002810180548390039055612b64565b6001600160a01b0383165f9081526020829052604090208054830190555b826001600160a01b0316846001600160a01b03167fddf252ad1be2c89b69c2b068fc378daa952ba7f163c4a11628f55a4df523b3ef84604051612ba991815260200190565b60405180910390a350505050565b606082612bcc57612bc782612e39565b6107e8565b8151158015612be357506001600160a01b0384163b155b15612c0c57604051639996b31560e01b81526001600160a01b0385166004820152602401611220565b50806107e8565b5f805f612c208585612e62565b6040516001600160601b0319606084811b8216602084015283901b1660348201529193509150869060480160405160208183030381529060405280519060200120604051602001612cbe9291906001600160f81b0319815260609290921b6001600160601b031916600183015260158201527f96e8ac4277198ff8b6f785478aa9a39f403cb768dd02cbee326c3e7da348845f603582015260550190565b60408051601f1981840301815291905280516020909101209695505050505050565b5f805f612ced8585612eec565b5090505f80612cfd888888612f6f565b6001600160a01b0316630902f1ac6040518163ffffffff1660e01b8152600401606060405180830381865afa158015612d38573d5f803e3d5ffd5b505050506040513d601f19601f82011682018060405250810190612d5c9190613ba8565b506001600160701b031691506001600160701b03169150826001600160a01b0316876001600160a01b031614612d93578082612d96565b81815b90999098509650505050505050565b5f835f03612dc65760405163098fb56160e01b815260040160405180910390fd5b821580612dd1575081155b15612def5760405163bb55fd2760e01b815260040160405180910390fd5b5f612dfc856103e5612fe2565b90505f612e098285612fe2565b90505f612e2283612e1c886103e8612fe2565b9061301f565b9050612e2e8183613bfd565b979650505050505050565b805115612e495780518082602001fd5b604051630a12f52160e11b815260040160405180910390fd5b5f80826001600160a01b0316846001600160a01b031603612e965760405163658f3e7f60e11b815260040160405180910390fd5b826001600160a01b0316846001600160a01b031610612eb6578284612eb9565b83835b90925090506001600160a01b038216612ee557604051633c5a83ed60e11b815260040160405180910390fd5b9250929050565b5f80826001600160a01b0316846001600160a01b031603612f2057604051630bd969eb60e41b815260040160405180910390fd5b826001600160a01b0316846001600160a01b031610612f40578284612f43565b83835b90925090506001600160a01b038216612ee55760405163d92e233d60e01b815260040160405180910390fd5b60405163e6a4390560e01b81526001600160a01b03838116600483015282811660248301525f919085169063e6a4390590604401602060405180830381865afa158015612fbe573d5f803e3d5ffd5b505050506040513d601f19601f8201168201806040525081019061226f9190613899565b5f82158061300257505081810281838281612fff57612fff613be9565b04145b61072d57604051632bcb93b560e11b815260040160405180910390fd5b8181018281101561072d5760405163a259879560e01b815260040160405180910390fd5b5f81518084528060208401602086015e5f602082860101526020601f19601f83011685010191505092915050565b602081525f6107e86020830184613043565b6001600160a01b0381168114610a6b575f80fd5b5f80604083850312156130a8575f80fd5b82356130b381613083565b946020939093013593505050565b5f602082840312156130d1575f80fd5b81356107e881613083565b5f805f606084860312156130ee575f80fd5b83356130f981613083565b9250602084013561310981613083565b929592945050506040919091013590565b5f6020828403121561312a575f80fd5b81356001600160401b0381111561313f575f80fd5b820160c081850312156107e8575f80fd5b5f8083601f840112613160575f80fd5b5081356001600160401b03811115613176575f80fd5b602083019150836020828501011115612ee5575f80fd5b5f805f6040848603121561319f575f80fd5b83356131aa81613083565b925060208401356001600160401b038111156131c4575f80fd5b6131d086828701613150565b9497909650939450505050565b5f602082840312156131ed575f80fd5b5035919050565b634e487b7160e01b5f52604160045260245ffd5b604051601f8201601f191681016001600160401b0381118282101715613230576132306131f4565b604052919050565b5f806001600160401b03841115613251576132516131f4565b50601f8301601f191660200161326681613208565b91505082815283838301111561327a575f80fd5b828260208301375f602084830101529392505050565b5f80604083850312156132a1575f80fd5b82356132ac81613083565b915060208301356001600160401b038111156132c6575f80fd5b8301601f810185136132d6575f80fd5b6132e585823560208401613238565b9150509250929050565b5f805f805f60808688031215613303575f80fd5b85356001600160401b03811115613318575f80fd5b860160608189031215613329575f80fd5b9450602086013561333981613083565b93506040860135925060608601356001600160401b0381111561335a575f80fd5b61336688828901613150565b969995985093965092949392505050565b5f82601f830112613386575f80fd5b6107e883833560208501613238565b5f805f805f8060c087890312156133aa575f80fd5b86356133b581613083565b955060208701356001600160401b038111156133cf575f80fd5b6133db89828a01613377565b95505060408701356001600160401b038111156133f6575f80fd5b61340289828a01613377565b945050606087013561341381613083565b92506080870135915060a087013561342a81613083565b809150509295509295509295565b5f60208284031215613448575f80fd5b81356001600160401b0381111561345d575f80fd5b8201608081850312156107e8575f80fd5b5f806040838503121561347f575f80fd5b823561348a81613083565b9150602083013561349a81613083565b809150509250929050565b600181811c908216806134b957607f821691505b6020821081036134d757634e487b7160e01b5f52602260045260245ffd5b50919050565b5f808335601e198436030181126134f2575f80fd5b8301803591506001600160401b0382111561350b575f80fd5b602001915036819003821315612ee5575f80fd5b5f805f60608486031215613531575f80fd5b833561353c81613083565b925060208401359150604084013561355381613083565b809150509250925092565b5f6020828403121561356e575f80fd5b815180151581146107e8575f80fd5b601f82111561097957805f5260205f20601f840160051c810160208510156135a25750805b601f840160051c820191505b8181101561212a575f81556001016135ae565b6001600160401b038311156135d8576135d86131f4565b6135ec836135e683546134a5565b8361357d565b5f601f84116001811461361d575f85156136065750838201355b5f19600387901b1c1916600186901b17835561212a565b5f83815260208120601f198716915b8281101561364c578685013582556020948501946001909201910161362c565b5086821015613668575f1960f88860031b161c19848701351681555b505060018560011b0183555050505050565b60208152816020820152818360408301375f818301604090810191909152601f909201601f19160101919050565b5f8083546136b5816134a5565b6001821680156136cc57600181146136e15761370e565b60ff198316865281151582028601935061370e565b865f5260205f205f5b83811015613706578154888201526001909101906020016136ea565b505081860193505b509195945050505050565b5f805f806080858703121561372c575f80fd5b843561373781613083565b9350602085013561374781613083565b925060408501359150606085013561375e81613083565b939692955090935050565b5f806040838503121561377a575f80fd5b825161378581613083565b6020939093015192949293505050565b634e487b7160e01b5f52601160045260245ffd5b8181038181111561072d5761072d613795565b60018060a01b03815116825260208101511515602083015260018060a01b0360408201511660408301525f606082015160a0606085015261380060a0850182613043565b608093840151949093019390935250919050565b60e081525f61382660e0830189613043565b602083018890526001600160a01b0387166040840152828103606084015261384e8187613043565b855160808501526020860151151560a0850152905082810360c084015261387581856137bc565b9998505050505050505050565b5f60208284031215613892575f80fd5b5051919050565b5f602082840312156138a9575f80fd5b81516107e881613083565b634e487b7160e01b5f52603260045260245ffd5b8082018082111561072d5761072d613795565b5f60a0820187835286602084015260a0604084015280865180835260c0850191506020880192505f5b8181101561392b5783516001600160a01b0316835260209384019390920191600101613904565b50506001600160a01b039590951660608401525050608001529392505050565b5f6020828403121561395b575f80fd5b81516001600160401b03811115613970575f80fd5b8201601f81018413613980575f80fd5b80516001600160401b03811115613999576139996131f4565b8060051b6139a960208201613208565b918252602081840181019290810190878411156139c4575f80fd5b6020850194505b83851015612e2e578451808352602095860195909350909101906139cb565b60c081525f8087546139fb816134a5565b8060c0860152600182165f8114613a195760018114613a3557613a66565b60ff19831660e087015260e082151560051b8701019350613a66565b8a5f5260205f205f5b83811015613a5d57815488820160e00152600190910190602001613a3e565b870160e0019450505b5050506001600160a01b03871660208401528281036040840152613a8a8187613043565b85516060850152602086015115156080850152905082810360a0840152613ab181856137bc565b98975050505050505050565b81516001600160401b03811115613ad657613ad66131f4565b613aea81613ae484546134a5565b8461357d565b6020601f821160018114613b1c575f8315613b055750848201515b5f19600385901b1c1916600184901b17845561212a565b5f84815260208120601f198516915b82811015613b4b5787850151825560209485019460019092019101613b2b565b5084821015613b6857868401515f19600387901b60f8161c191681555b50505050600190811b01905550565b5f82518060208501845e5f920191825250919050565b80516001600160701b0381168114613ba3575f80fd5b919050565b5f805f60608486031215613bba575f80fd5b613bc384613b8d565b9250613bd160208501613b8d565b9150604084015163ffffffff81168114613553575f80fd5b634e487b7160e01b5f52601260045260245ffd5b5f82613c1757634e487b7160e01b5f52601260045260245ffd5b50049056fe52c63247e1f47db19d5ce0460030c497f067ca4cebf71ba98eeadabe20bace00360894a13ba1a3210667c828492db98dca3e2076cc3735a920a3ca505d382bbccd5ed15c6e187e77e9aee88184c21f4f2182ab5827cb3b7e07fbedcd63f03300a2646970667358221220137c46488247c0c6a09c72649da051fd1189b82eff92c18c5013e99f9f09bfe164736f6c634300081a0033","linkReferences":{}},"methodIdentifiers":{"UPGRADE_INTERFACE_VERSION()":"ad3cb1cc","allowance(address,address)":"dd62ed3e","approve(address,uint256)":"095ea7b3","balanceOf(address)":"70a08231","burn(uint256)":"42966c68","burnFrom(address,uint256)":"79cc6790","connected(address)":"0e76754b","decimals()":"313ce567","gasLimitAmount()":"d0f23970","gateway()":"116191b6","initialize(address,string,string,address,uint256,address)":"650b4f8b","isUniversal()":"305725e5","mint(address,uint256)":"40c10f19","name()":"06fdde03","onAbort((bytes,address,uint256,bool,uint256,bytes))":"2d4cfb7e","onCall((bytes,address,uint256),address,uint256,bytes)":"5bcfd616","onRevert((address,address,uint256,bytes))":"c9028a36","owner()":"8da5cb5b","pause()":"8456cb59","paused()":"5c975abb","proxiableUUID()":"52d1902d","renounceOwnership()":"715018a6","setConnected(address,bytes)":"3332dfa9","setGasLimit(uint256)":"ee7d72b4","setGateway(address)":"90646b4a","symbol()":"95d89b41","totalSupply()":"18160ddd","transfer(address,uint256)":"a9059cbb","transferCrossChain(address,address,uint256)":"e08aef18","transferFrom(address,address,uint256)":"23b872dd","transferOwnership(address)":"f2fde38b","uniswapRouter()":"735de9f7","unpause()":"3f4ba83a","upgradeToAndCall(address,bytes)":"4f1ef286"},"id":28}