{"abi":[{"type":"constructor","inputs":[{"name":"_factory","type":"address","internalType":"address"},{"name":"_WETH","type":"address","internalType":"address"}],"stateMutability":"nonpayable"},{"type":"receive","stateMutability":"payable"},{"type":"function","name":"WETH","inputs":[],"outputs":[{"name":"","type":"address","internalType":"address"}],"stateMutability":"view"},{"type":"function","name":"addLiquidity","inputs":[{"name":"tokenA","type":"address","internalType":"address"},{"name":"tokenB","type":"address","internalType":"address"},{"name":"amountADesired","type":"uint256","internalType":"uint256"},{"name":"amountBDesired","type":"uint256","internalType":"uint256"},{"name":"amountAMin","type":"uint256","internalType":"uint256"},{"name":"amountBMin","type":"uint256","internalType":"uint256"},{"name":"to","type":"address","internalType":"address"},{"name":"deadline","type":"uint256","internalType":"uint256"}],"outputs":[{"name":"amountA","type":"uint256","internalType":"uint256"},{"name":"amountB","type":"uint256","internalType":"uint256"},{"name":"liquidity","type":"uint256","internalType":"uint256"}],"stateMutability":"nonpayable"},{"type":"function","name":"addLiquidityETH","inputs":[{"name":"token","type":"address","internalType":"address"},{"name":"amountTokenDesired","type":"uint256","internalType":"uint256"},{"name":"amountTokenMin","type":"uint256","internalType":"uint256"},{"name":"amountETHMin","type":"uint256","internalType":"uint256"},{"name":"to","type":"address","internalType":"address"},{"name":"deadline","type":"uint256","internalType":"uint256"}],"outputs":[{"name":"amountToken","type":"uint256","internalType":"uint256"},{"name":"amountETH","type":"uint256","internalType":"uint256"},{"name":"liquidity","type":"uint256","internalType":"uint256"}],"stateMutability":"payable"},{"type":"function","name":"factory","inputs":[],"outputs":[{"name":"","type":"address","internalType":"address"}],"stateMutability":"view"},{"type":"function","name":"getAmountIn","inputs":[{"name":"amountOut","type":"uint256","internalType":"uint256"},{"name":"reserveIn","type":"uint256","internalType":"uint256"},{"name":"reserveOut","type":"uint256","internalType":"uint256"}],"outputs":[{"name":"amountIn","type":"uint256","internalType":"uint256"}],"stateMutability":"pure"},{"type":"function","name":"getAmountOut","inputs":[{"name":"amountIn","type":"uint256","internalType":"uint256"},{"name":"reserveIn","type":"uint256","internalType":"uint256"},{"name":"reserveOut","type":"uint256","internalType":"uint256"}],"outputs":[{"name":"amountOut","type":"uint256","internalType":"uint256"}],"stateMutability":"pure"},{"type":"function","name":"getAmountsIn","inputs":[{"name":"amountOut","type":"uint256","internalType":"uint256"},{"name":"path","type":"address[]","internalType":"address[]"}],"outputs":[{"name":"amounts","type":"uint256[]","internalType":"uint256[]"}],"stateMutability":"view"},{"type":"function","name":"getAmountsOut","inputs":[{"name":"amountIn","type":"uint256","internalType":"uint256"},{"name":"path","type":"address[]","internalType":"address[]"}],"outputs":[{"name":"amounts","type":"uint256[]","internalType":"uint256[]"}],"stateMutability":"view"},{"type":"function","name":"quote","inputs":[{"name":"amountA","type":"uint256","internalType":"uint256"},{"name":"reserveA","type":"uint256","internalType":"uint256"},{"name":"reserveB","type":"uint256","internalType":"uint256"}],"outputs":[{"name":"amountB","type":"uint256","internalType":"uint256"}],"stateMutability":"pure"},{"type":"function","name":"removeLiquidity","inputs":[{"name":"tokenA","type":"address","internalType":"address"},{"name":"tokenB","type":"address","internalType":"address"},{"name":"liquidity","type":"uint256","internalType":"uint256"},{"name":"amountAMin","type":"uint256","internalType":"uint256"},{"name":"amountBMin","type":"uint256","internalType":"uint256"},{"name":"to","type":"address","internalType":"address"},{"name":"deadline","type":"uint256","internalType":"uint256"}],"outputs":[{"name":"amountA","type":"uint256","internalType":"uint256"},{"name":"amountB","type":"uint256","internalType":"uint256"}],"stateMutability":"nonpayable"},{"type":"function","name":"removeLiquidityETH","inputs":[{"name":"token","type":"address","internalType":"address"},{"name":"liquidity","type":"uint256","internalType":"uint256"},{"name":"amountTokenMin","type":"uint256","internalType":"uint256"},{"name":"amountETHMin","type":"uint256","internalType":"uint256"},{"name":"to","type":"address","internalType":"address"},{"name":"deadline","type":"uint256","internalType":"uint256"}],"outputs":[{"name":"amountToken","type":"uint256","internalType":"uint256"},{"name":"amountETH","type":"uint256","internalType":"uint256"}],"stateMutability":"nonpayable"},{"type":"function","name":"swapExactTokensForTokens","inputs":[{"name":"amountIn","type":"uint256","internalType":"uint256"},{"name":"amountOutMin","type":"uint256","internalType":"uint256"},{"name":"path","type":"address[]","internalType":"address[]"},{"name":"to","type":"address","internalType":"address"},{"name":"deadline","type":"uint256","internalType":"uint256"}],"outputs":[{"name":"amounts","type":"uint256[]","internalType":"uint256[]"}],"stateMutability":"nonpayable"},{"type":"function","name":"swapTokensForExactTokens","inputs":[{"name":"amountOut","type":"uint256","internalType":"uint256"},{"name":"amountInMax","type":"uint256","internalType":"uint256"},{"name":"path","type":"address[]","internalType":"address[]"},{"name":"to","type":"address","internalType":"address"},{"name":"deadline","type":"uint256","internalType":"uint256"}],"outputs":[{"name":"amounts","type":"uint256[]","internalType":"uint256[]"}],"stateMutability":"nonpayable"},{"type":"error","name":"AdditionsOverflow","inputs":[]},{"type":"error","name":"Expired","inputs":[]},{"type":"error","name":"IdenticalAddresses","inputs":[]},{"type":"error","name":"InsufficientAAmount","inputs":[]},{"type":"error","name":"InsufficientAmount","inputs":[]},{"type":"error","name":"InsufficientBAmount","inputs":[]},{"type":"error","name":"InsufficientInputAmount","inputs":[]},{"type":"error","name":"InsufficientLiquidity","inputs":[]},{"type":"error","name":"InsufficientOutputAmount","inputs":[]},{"type":"error","name":"InvalidPath","inputs":[]},{"type":"error","name":"MultiplicationsOverflow","inputs":[]},{"type":"error","name":"SubtractionsUnderflow","inputs":[]},{"type":"error","name":"ZeroAddress","inputs":[]}],"bytecode":{"object":"0x60c0604052348015600e575f80fd5b50604051612092380380612092833981016040819052602b91605b565b6001600160a01b039182166080521660a0526087565b80516001600160a01b03811681146056575f80fd5b919050565b5f8060408385031215606b575f80fd5b6072836041565b9150607e602084016041565b90509250929050565b60805160a051611f5f6101335f395f818160d201528181610205015281816103460152818161039501528181610a1001528181610a6501528181610a990152610b2a01525f818161028e015281816104250152818161047d0152818161054e0152818161065e01528181610728015281816108c60152818161092a01528181610a43015281816113c7015281816114170152818161168401528181611726015261179c0152611f5f5ff3fe6080604052600436106100c2575f3560e01c8063ad5c46481161007c578063c45a015511610057578063c45a01551461027d578063d06ca61f146102b0578063e8e33700146102cf578063f305d71914610309575f80fd5b8063ad5c4648146101f4578063ad615dec1461023f578063baa2abde1461025e575f80fd5b806302751cec14610105578063054d50d41461013e5780631f00ca741461016b57806338ed17391461019757806385f8c259146101b65780638803dbee146101d5575f80fd5b3661010157336001600160a01b037f000000000000000000000000000000000000000000000000000000000000000016146100ff576100ff6119c6565b005b5f80fd5b348015610110575f80fd5b5061012461011f366004611a01565b61031c565b604080519283526020830191909152015b60405180910390f35b348015610149575f80fd5b5061015d610158366004611a5b565b61040a565b604051908152602001610135565b348015610176575f80fd5b5061018a610185366004611a98565b61041e565b6040516101359190611b6f565b3480156101a2575f80fd5b5061018a6101b1366004611bb1565b610454565b3480156101c1575f80fd5b5061015d6101d0366004611a5b565b610629565b3480156101e0575f80fd5b5061018a6101ef366004611bb1565b610635565b3480156101ff575f80fd5b506102277f000000000000000000000000000000000000000000000000000000000000000081565b6040516001600160a01b039091168152602001610135565b34801561024a575f80fd5b5061015d610259366004611a5b565b6106f2565b348015610269575f80fd5b50610124610278366004611c4f565b6106fe565b348015610288575f80fd5b506102277f000000000000000000000000000000000000000000000000000000000000000081565b3480156102bb575f80fd5b5061018a6102ca366004611a98565b6108bf565b3480156102da575f80fd5b506102ee6102e9366004611cbd565b6108ec565b60408051938452602084019290925290820152606001610135565b6102ee610317366004611a01565b6109e5565b5f80824281101561034057604051630407b05b60e31b815260040160405180910390fd5b61036f897f00000000000000000000000000000000000000000000000000000000000000008a8a8a308a6106fe565b909350915061037f898685610c38565b604051632e1a7d4d60e01b8152600481018390527f00000000000000000000000000000000000000000000000000000000000000006001600160a01b031690632e1a7d4d906024015f604051808303815f87803b1580156103de575f80fd5b505af11580156103f0573d5f803e3d5ffd5b505050506103fe8583610d53565b50965096945050505050565b5f610416848484610e1d565b949350505050565b606061044b7f00000000000000000000000000000000000000000000000000000000000000008484610eb1565b90505b92915050565b6060814281101561047857604051630407b05b60e31b815260040160405180910390fd5b6104d57f0000000000000000000000000000000000000000000000000000000000000000898888808060200260200160405190810160405280939291908181526020018383602002808284375f9201919091525061101692505050565b91508682600184516104e79190611d48565b815181106104f7576104f7611d5b565b6020026020010151101561051e576040516342301c2360e01b815260040160405180910390fd5b6105e086865f81811061053357610533611d5b565b90506020020160208101906105489190611d6f565b336105c17f00000000000000000000000000000000000000000000000000000000000000008a8a5f81811061057f5761057f611d5b565b90506020020160208101906105949190611d6f565b8b8b60018181106105a7576105a7611d5b565b90506020020160208101906105bc9190611d6f565b61114e565b855f815181106105d3576105d3611d5b565b60200260200101516111c1565b61061e828787808060200260200160405190810160405280939291908181526020018383602002808284375f920191909152508992506112ec915050565b509695505050505050565b5f6104168484846114df565b6060814281101561065957604051630407b05b60e31b815260040160405180910390fd5b6106b67f0000000000000000000000000000000000000000000000000000000000000000898888808060200260200160405190810160405280939291908181526020018383602002808284375f92019190915250610eb192505050565b915086825f815181106106cb576106cb611d5b565b6020026020010151111561051e5760405163098fb56160e01b815260040160405180910390fd5b5f61041684848461156e565b5f80824281101561072257604051630407b05b60e31b815260040160405180910390fd5b5f61074e7f00000000000000000000000000000000000000000000000000000000000000008c8c61114e565b6040516323b872dd60e01b81523360048201526001600160a01b03821660248201819052604482018c90529192506323b872dd906064016020604051808303815f875af11580156107a1573d5f803e3d5ffd5b505050506040513d601f19601f820116820180604052508101906107c59190611d91565b5060405163226bf2d160e21b81526001600160a01b0387811660048301525f9182918416906389afcb449060240160408051808303815f875af115801561080e573d5f803e3d5ffd5b505050506040513d601f19601f820116820180604052508101906108329190611db0565b915091505f6108418e8e6115cd565b509050806001600160a01b03168e6001600160a01b031614610864578183610867565b82825b90975095508a87101561088d57604051638dc525d160e01b815260040160405180910390fd5b898610156108ae5760405163ef71d09160e01b815260040160405180910390fd5b505050505097509795505050505050565b606061044b7f00000000000000000000000000000000000000000000000000000000000000008484611016565b5f805f834281101561091157604051630407b05b60e31b815260040160405180910390fd5b61091f8c8c8c8c8c8c611657565b90945092505f6109507f00000000000000000000000000000000000000000000000000000000000000008e8e61114e565b905061095e8d3383886111c1565b61096a8c3383876111c1565b6040516335313c2160e11b81526001600160a01b038881166004830152821690636a627842906024016020604051808303815f875af11580156109af573d5f803e3d5ffd5b505050506040513d601f19601f820116820180604052508101906109d39190611dd2565b92505050985098509895505050505050565b5f805f8342811015610a0a57604051630407b05b60e31b815260040160405180910390fd5b610a388a7f00000000000000000000000000000000000000000000000000000000000000008b348c8c611657565b90945092505f610a897f00000000000000000000000000000000000000000000000000000000000000008c7f000000000000000000000000000000000000000000000000000000000000000061114e565b9050610a978b3383886111c1565b7f00000000000000000000000000000000000000000000000000000000000000006001600160a01b031663d0e30db0856040518263ffffffff1660e01b81526004015f604051808303818588803b158015610af0575f80fd5b505af1158015610b02573d5f803e3d5ffd5b505060405163a9059cbb60e01b81526001600160a01b038581166004830152602482018990527f000000000000000000000000000000000000000000000000000000000000000016935063a9059cbb925060440190506020604051808303815f875af1158015610b74573d5f803e3d5ffd5b505050506040513d601f19601f82011682018060405250810190610b989190611d91565b610ba457610ba46119c6565b6040516335313c2160e11b81526001600160a01b038881166004830152821690636a627842906024016020604051808303815f875af1158015610be9573d5f803e3d5ffd5b505050506040513d601f19601f82011682018060405250810190610c0d9190611dd2565b925083341115610c2a57610c2a33610c258634611d48565b610d53565b505096509650969350505050565b604080516001600160a01b038481166024830152604480830185905283518084039091018152606490920183526020820180516001600160e01b031663a9059cbb60e01b17905291515f92839290871691610c939190611de9565b5f604051808303815f865af19150503d805f8114610ccc576040519150601f19603f3d011682016040523d82523d5f602084013e610cd1565b606091505b5091509150818015610cfb575080511580610cfb575080806020019051810190610cfb9190611d91565b610d4c5760405162461bcd60e51b815260206004820152601f60248201527f5472616e7366657248656c7065723a205452414e534645525f4641494c45440060448201526064015b60405180910390fd5b5050505050565b604080515f808252602082019092526001600160a01b038416908390604051610d7c9190611de9565b5f6040518083038185875af1925050503d805f8114610db6576040519150601f19603f3d011682016040523d82523d5f602084013e610dbb565b606091505b5050905080610e185760405162461bcd60e51b815260206004820152602360248201527f5472616e7366657248656c7065723a204554485f5452414e534645525f46414960448201526213115160ea1b6064820152608401610d43565b505050565b5f835f03610e3e5760405163098fb56160e01b815260040160405180910390fd5b821580610e49575081155b15610e675760405163bb55fd2760e01b815260040160405180910390fd5b5f610e74856103e5611878565b90505f610e818285611878565b90505f610e9a83610e94886103e8611878565b906118b5565b9050610ea68183611e13565b979650505050505050565b6060600282511015610ed6576040516320db826760e01b815260040160405180910390fd5b815167ffffffffffffffff811115610ef057610ef0611a84565b604051908082528060200260200182016040528015610f19578160200160208202803683370190505b509050828160018351610f2c9190611d48565b81518110610f3c57610f3c611d5b565b6020026020010181815250505f60018351610f579190611d48565b90505b801561100e575f80610fa98786610f72600187611d48565b81518110610f8257610f82611d5b565b6020026020010151878681518110610f9c57610f9c611d5b565b60200260200101516118d9565b91509150610fd1848481518110610fc257610fc2611d5b565b602002602001015183836114df565b84610fdd600186611d48565b81518110610fed57610fed611d5b565b6020026020010181815250505050808061100690611e32565b915050610f5a565b509392505050565b606060028251101561103b576040516320db826760e01b815260040160405180910390fd5b815167ffffffffffffffff81111561105557611055611a84565b60405190808252806020026020018201604052801561107e578160200160208202803683370190505b50905082815f8151811061109457611094611d5b565b6020026020010181815250505f5b600183516110b09190611d48565b81101561100e575f806110f5878685815181106110cf576110cf611d5b565b6020026020010151878660016110e59190611e47565b81518110610f9c57610f9c611d5b565b9150915061111d84848151811061110e5761110e611d5b565b60200260200101518383610e1d565b84611129856001611e47565b8151811061113957611139611d5b565b602090810291909101015250506001016110a2565b60405163e6a4390560e01b81526001600160a01b03838116600483015282811660248301525f919085169063e6a4390590604401602060405180830381865afa15801561119d573d5f803e3d5ffd5b505050506040513d601f19601f820116820180604052508101906104169190611e5a565b604080516001600160a01b0385811660248301528481166044830152606480830185905283518084039091018152608490920183526020820180516001600160e01b03166323b872dd60e01b17905291515f928392908816916112249190611de9565b5f604051808303815f865af19150503d805f811461125d576040519150601f19603f3d011682016040523d82523d5f602084013e611262565b606091505b509150915081801561128c57508051158061128c57508080602001905181019061128c9190611d91565b6112e45760405162461bcd60e51b8152602060048201526024808201527f5472616e7366657248656c7065723a205452414e534645525f46524f4d5f46416044820152631253115160e21b6064820152608401610d43565b505050505050565b5f5b600183516112fc9190611d48565b8110156114d9575f8084838151811061131757611317611d5b565b60200260200101518584600161132d9190611e47565b8151811061133d5761133d611d5b565b6020026020010151915091505f61135483836115cd565b5090505f87611364866001611e47565b8151811061137457611374611d5b565b602002602001015190505f80836001600160a01b0316866001600160a01b0316146113a057825f6113a3565b5f835b915091505f60028a516113b69190611d48565b88106113c25788611410565b6114107f0000000000000000000000000000000000000000000000000000000000000000878c6113f38c6002611e47565b8151811061140357611403611d5b565b602002602001015161114e565b905061143d7f0000000000000000000000000000000000000000000000000000000000000000888861114e565b6001600160a01b031663022c0d9f8484845f6040519080825280601f01601f191660200182016040528015611479576020820181803683370190505b506040518563ffffffff1660e01b81526004016114999493929190611e75565b5f604051808303815f87803b1580156114b0575f80fd5b505af11580156114c2573d5f803e3d5ffd5b5050600190990198506112ee975050505050505050565b50505050565b5f835f03611500576040516342301c2360e01b815260040160405180910390fd5b82158061150b575081155b156115295760405163bb55fd2760e01b815260040160405180910390fd5b5f6115406103e861153a8688611878565b90611878565b90505f6115536103e561153a868961199e565b90506115646001610e948385611e13565b9695505050505050565b5f835f0361158f57604051632ca2f52b60e11b815260040160405180910390fd5b82158061159a575081155b156115b85760405163bb55fd2760e01b815260040160405180910390fd5b826115c38584611878565b6104169190611e13565b5f80826001600160a01b0316846001600160a01b03160361160157604051630bd969eb60e41b815260040160405180910390fd5b826001600160a01b0316846001600160a01b031610611621578284611624565b83835b90925090506001600160a01b0382166116505760405163d92e233d60e01b815260040160405180910390fd5b9250929050565b60405163e6a4390560e01b81526001600160a01b03878116600483015286811660248301525f91829182917f00000000000000000000000000000000000000000000000000000000000000009091169063e6a4390590604401602060405180830381865afa1580156116cb573d5f803e3d5ffd5b505050506040513d601f19601f820116820180604052508101906116ef9190611e5a565b6001600160a01b031603611795576040516364e329cb60e11b81526001600160a01b03898116600483015288811660248301525f917f00000000000000000000000000000000000000000000000000000000000000009091169063c9c65396906044016020604051808303815f875af115801561176e573d5f803e3d5ffd5b505050506040513d601f19601f820116820180604052508101906117929190611e5a565b50505b5f806117c27f00000000000000000000000000000000000000000000000000000000000000008b8b6118d9565b91509150815f1480156117d3575080155b156117e35787935086925061186b565b5f6117ef89848461156e565b905087811161182457858110156118195760405163ef71d09160e01b815260040160405180910390fd5b889450925082611869565b5f61183089848661156e565b905089811115611842576118426119c6565b8781101561186357604051638dc525d160e01b815260040160405180910390fd5b94508793505b505b5050965096945050505050565b5f8215806118985750508181028183828161189557611895611dff565b04145b61044e57604051632bcb93b560e11b815260040160405180910390fd5b8181018281101561044e5760405163a259879560e01b815260040160405180910390fd5b5f805f6118e685856115cd565b5090505f806118f688888861114e565b6001600160a01b0316630902f1ac6040518163ffffffff1660e01b8152600401606060405180830381865afa158015611931573d5f803e3d5ffd5b505050506040513d601f19601f820116820180604052508101906119559190611edd565b506001600160701b031691506001600160701b03169150826001600160a01b0316876001600160a01b03161461198c57808261198f565b81815b90999098509650505050505050565b5f828211156119c057604051631a0b9f1f60e21b815260040160405180910390fd5b50900390565b634e487b7160e01b5f52600160045260245ffd5b6001600160a01b03811681146119ee575f80fd5b50565b80356119fc816119da565b919050565b5f805f805f8060c08789031215611a16575f80fd5b8635611a21816119da565b95506020870135945060408701359350606087013592506080870135611a46816119da565b9598949750929591949360a090920135925050565b5f805f60608486031215611a6d575f80fd5b505081359360208301359350604090920135919050565b634e487b7160e01b5f52604160045260245ffd5b5f8060408385031215611aa9575f80fd5b82359150602083013567ffffffffffffffff811115611ac6575f80fd5b8301601f81018513611ad6575f80fd5b803567ffffffffffffffff811115611af057611af0611a84565b8060051b604051601f19603f830116810181811067ffffffffffffffff82111715611b1d57611b1d611a84565b604052918252602081840181019290810188841115611b3a575f80fd5b6020850194505b83851015611b6057611b52856119f1565b815260209485019401611b41565b50809450505050509250929050565b602080825282518282018190525f918401906040840190835b81811015611ba6578351835260209384019390920191600101611b88565b509095945050505050565b5f805f805f8060a08789031215611bc6575f80fd5b8635955060208701359450604087013567ffffffffffffffff811115611bea575f80fd5b8701601f81018913611bfa575f80fd5b803567ffffffffffffffff811115611c10575f80fd5b8960208260051b8401011115611c24575f80fd5b60209190910194509250611c3a606088016119f1565b95989497509295919493608090920135925050565b5f805f805f805f60e0888a031215611c65575f80fd5b8735611c70816119da565b96506020880135611c80816119da565b955060408801359450606088013593506080880135925060a0880135611ca5816119da565b96999598509396929591949193505060c09091013590565b5f805f805f805f80610100898b031215611cd5575f80fd5b8835611ce0816119da565b97506020890135611cf0816119da565b965060408901359550606089013594506080890135935060a0890135925060c0890135611d1c816119da565b979a969950949793969295919450919260e001359150565b634e487b7160e01b5f52601160045260245ffd5b8181038181111561044e5761044e611d34565b634e487b7160e01b5f52603260045260245ffd5b5f60208284031215611d7f575f80fd5b8135611d8a816119da565b9392505050565b5f60208284031215611da1575f80fd5b81518015158114611d8a575f80fd5b5f8060408385031215611dc1575f80fd5b505080516020909101519092909150565b5f60208284031215611de2575f80fd5b5051919050565b5f82518060208501845e5f920191825250919050565b634e487b7160e01b5f52601260045260245ffd5b5f82611e2d57634e487b7160e01b5f52601260045260245ffd5b500490565b5f81611e4057611e40611d34565b505f190190565b8082018082111561044e5761044e611d34565b5f60208284031215611e6a575f80fd5b8151611d8a816119da565b84815283602082015260018060a01b0383166040820152608060608201525f8251806080840152806020850160a085015e5f60a0828501015260a0601f19601f83011684010191505095945050505050565b80516001600160701b03811681146119fc575f80fd5b5f805f60608486031215611eef575f80fd5b611ef884611ec7565b9250611f0660208501611ec7565b9150604084015163ffffffff81168114611f1e575f80fd5b80915050925092509256fea2646970667358221220063faa723069601bcfb6e1252a2feb369c7f227e974e2d78189b5895143e5cf064736f6c634300081a0033","linkReferences":{}},"methodIdentifiers":{"WETH()":"ad5c4648","addLiquidity(address,address,uint256,uint256,uint256,uint256,address,uint256)":"e8e33700","addLiquidityETH(address,uint256,uint256,uint256,address,uint256)":"f305d719","factory()":"c45a0155","getAmountIn(uint256,uint256,uint256)":"85f8c259","getAmountOut(uint256,uint256,uint256)":"054d50d4","getAmountsIn(uint256,address[])":"1f00ca74","getAmountsOut(uint256,address[])":"d06ca61f","quote(uint256,uint256,uint256)":"ad615dec","removeLiquidity(address,address,uint256,uint256,uint256,address,uint256)":"baa2abde","removeLiquidityETH(address,uint256,uint256,uint256,address,uint256)":"02751cec","swapExactTokensForTokens(uint256,uint256,address[],address,uint256)":"38ed1739","swapTokensForExactTokens(uint256,uint256,address[],address,uint256)":"8803dbee"},"id":36}