{"abi":[{"type":"constructor","inputs":[{"name":"initialSupply","type":"uint256","internalType":"uint256"},{"name":"name","type":"string","internalType":"string"},{"name":"symbol","type":"string","internalType":"string"}],"stateMutability":"nonpayable"},{"type":"function","name":"allowance","inputs":[{"name":"owner","type":"address","internalType":"address"},{"name":"spender","type":"address","internalType":"address"}],"outputs":[{"name":"","type":"uint256","internalType":"uint256"}],"stateMutability":"view"},{"type":"function","name":"approve","inputs":[{"name":"spender","type":"address","internalType":"address"},{"name":"value","type":"uint256","internalType":"uint256"}],"outputs":[{"name":"","type":"bool","internalType":"bool"}],"stateMutability":"nonpayable"},{"type":"function","name":"balanceOf","inputs":[{"name":"account","type":"address","internalType":"address"}],"outputs":[{"name":"","type":"uint256","internalType":"uint256"}],"stateMutability":"view"},{"type":"function","name":"bytesToAddress","inputs":[{"name":"data","type":"bytes","internalType":"bytes"},{"name":"offset","type":"uint256","internalType":"uint256"},{"name":"size","type":"uint256","internalType":"uint256"}],"outputs":[{"name":"output","type":"address","internalType":"address"}],"stateMutability":"pure"},{"type":"function","name":"decimals","inputs":[],"outputs":[{"name":"","type":"uint8","internalType":"uint8"}],"stateMutability":"view"},{"type":"function","name":"deposit","inputs":[{"name":"to","type":"address","internalType":"address"},{"name":"amount","type":"uint256","internalType":"uint256"}],"outputs":[{"name":"","type":"bool","internalType":"bool"}],"stateMutability":"nonpayable"},{"type":"function","name":"name","inputs":[],"outputs":[{"name":"","type":"string","internalType":"string"}],"stateMutability":"view"},{"type":"function","name":"symbol","inputs":[],"outputs":[{"name":"","type":"string","internalType":"string"}],"stateMutability":"view"},{"type":"function","name":"totalSupply","inputs":[],"outputs":[{"name":"","type":"uint256","internalType":"uint256"}],"stateMutability":"view"},{"type":"function","name":"transfer","inputs":[{"name":"to","type":"address","internalType":"address"},{"name":"value","type":"uint256","internalType":"uint256"}],"outputs":[{"name":"","type":"bool","internalType":"bool"}],"stateMutability":"nonpayable"},{"type":"function","name":"transferFrom","inputs":[{"name":"from","type":"address","internalType":"address"},{"name":"to","type":"address","internalType":"address"},{"name":"value","type":"uint256","internalType":"uint256"}],"outputs":[{"name":"","type":"bool","internalType":"bool"}],"stateMutability":"nonpayable"},{"type":"function","name":"withdraw","inputs":[{"name":"to","type":"bytes","internalType":"bytes"},{"name":"amount","type":"uint256","internalType":"uint256"}],"outputs":[{"name":"","type":"bool","internalType":"bool"}],"stateMutability":"nonpayable"},{"type":"function","name":"withdrawGasFee","inputs":[],"outputs":[{"name":"","type":"address","internalType":"address"},{"name":"","type":"uint256","internalType":"uint256"}],"stateMutability":"view"},{"type":"event","name":"Approval","inputs":[{"name":"owner","type":"address","indexed":true,"internalType":"address"},{"name":"spender","type":"address","indexed":true,"internalType":"address"},{"name":"value","type":"uint256","indexed":false,"internalType":"uint256"}],"anonymous":false},{"type":"event","name":"Transfer","inputs":[{"name":"from","type":"address","indexed":true,"internalType":"address"},{"name":"to","type":"address","indexed":true,"internalType":"address"},{"name":"value","type":"uint256","indexed":false,"internalType":"uint256"}],"anonymous":false},{"type":"error","name":"ERC20InsufficientAllowance","inputs":[{"name":"spender","type":"address","internalType":"address"},{"name":"allowance","type":"uint256","internalType":"uint256"},{"name":"needed","type":"uint256","internalType":"uint256"}]},{"type":"error","name":"ERC20InsufficientBalance","inputs":[{"name":"sender","type":"address","internalType":"address"},{"name":"balance","type":"uint256","internalType":"uint256"},{"name":"needed","type":"uint256","internalType":"uint256"}]},{"type":"error","name":"ERC20InvalidApprover","inputs":[{"name":"approver","type":"address","internalType":"address"}]},{"type":"error","name":"ERC20InvalidReceiver","inputs":[{"name":"receiver","type":"address","internalType":"address"}]},{"type":"error","name":"ERC20InvalidSender","inputs":[{"name":"sender","type":"address","internalType":"address"}]},{"type":"error","name":"ERC20InvalidSpender","inputs":[{"name":"spender","type":"address","internalType":"address"}]}],"bytecode":{"object":"0x608060405234801561000f575f80fd5b50604051610ed9380380610ed983398101604081905261002e91610288565b8181600361003c838261037a565b506004610049828261037a565b50505061007b3361005e61008360201b60201c565b61006c9060ff16600a61052d565b610076908661053f565b610088565b505050610569565b601290565b6001600160a01b0382166100b65760405163ec442f0560e01b81525f60048201526024015b60405180910390fd5b6100c15f83836100c5565b5050565b6001600160a01b0383166100ef578060025f8282546100e49190610556565b9091555061015f9050565b6001600160a01b0383165f90815260208190526040902054818110156101415760405163391434e360e21b81526001600160a01b038516600482015260248101829052604481018390526064016100ad565b6001600160a01b0384165f9081526020819052604090209082900390555b6001600160a01b03821661017b57600280548290039055610199565b6001600160a01b0382165f9081526020819052604090208054820190555b816001600160a01b0316836001600160a01b03167fddf252ad1be2c89b69c2b068fc378daa952ba7f163c4a11628f55a4df523b3ef836040516101de91815260200190565b60405180910390a3505050565b634e487b7160e01b5f52604160045260245ffd5b5f82601f83011261020e575f80fd5b81516001600160401b03811115610227576102276101eb565b604051601f8201601f19908116603f011681016001600160401b0381118282101715610255576102556101eb565b60405281815283820160200185101561026c575f80fd5b8160208501602083015e5f918101602001919091529392505050565b5f805f6060848603121561029a575f80fd5b835160208501519093506001600160401b038111156102b7575f80fd5b6102c3868287016101ff565b604086015190935090506001600160401b038111156102e0575f80fd5b6102ec868287016101ff565b9150509250925092565b600181811c9082168061030a57607f821691505b60208210810361032857634e487b7160e01b5f52602260045260245ffd5b50919050565b601f82111561037557805f5260205f20601f840160051c810160208510156103535750805b601f840160051c820191505b81811015610372575f815560010161035f565b50505b505050565b81516001600160401b03811115610393576103936101eb565b6103a7816103a184546102f6565b8461032e565b6020601f8211600181146103d9575f83156103c25750848201515b5f19600385901b1c1916600184901b178455610372565b5f84815260208120601f198516915b8281101561040857878501518255602094850194600190920191016103e8565b508482101561042557868401515f19600387901b60f8161c191681555b50505050600190811b01905550565b634e487b7160e01b5f52601160045260245ffd5b6001815b60018411156104835780850481111561046757610467610434565b600184161561047557908102905b60019390931c92800261044c565b935093915050565b5f8261049957506001610527565b816104a557505f610527565b81600181146104bb57600281146104c5576104e1565b6001915050610527565b60ff8411156104d6576104d6610434565b50506001821b610527565b5060208310610133831016604e8410600b8410161715610504575081810a610527565b6105105f198484610448565b805f190482111561052357610523610434565b0290505b92915050565b5f610538838361048b565b9392505050565b808202811582820484141761052757610527610434565b8082018082111561052757610527610434565b610963806105765f395ff3fe608060405234801561000f575f80fd5b50600436106100cb575f3560e01c806347e7ef2411610088578063a9059cbb11610063578063a9059cbb146101b5578063c7012626146101c8578063d9eeebed146101db578063dd62ed3e146101ee575f80fd5b806347e7ef241461016f57806370a082311461018557806395d89b41146101ad575f80fd5b806306fdde03146100cf578063095ea7b3146100ed57806318160ddd1461011057806323b872dd146101225780632c27d3ab14610135578063313ce56714610160575b5f80fd5b6100d7610226565b6040516100e491906106d2565b60405180910390f35b6101006100fb366004610722565b6102b6565b60405190151581526020016100e4565b6002545b6040519081526020016100e4565b61010061013036600461074a565b6102cf565b6101486101433660046107c9565b6102f2565b6040516001600160a01b0390911681526020016100e4565b604051601281526020016100e4565b61010061017d366004610722565b600192915050565b610114610193366004610816565b6001600160a01b03165f9081526020819052604090205490565b6100d761034f565b6101006101c3366004610722565b61035e565b6101006101d6366004610836565b61036b565b604080513081525f6020820152016100e4565b6101146101fc36600461087e565b6001600160a01b039182165f90815260016020908152604080832093909416825291909152205490565b606060038054610235906108af565b80601f0160208091040260200160405190810160405280929190818152602001828054610261906108af565b80156102ac5780601f10610283576101008083540402835291602001916102ac565b820191905f5260205f20905b81548152906001019060200180831161028f57829003601f168201915b5050505050905090565b5f336102c381858561038e565b60019150505b92915050565b5f336102dc8582856103a0565b6102e7858585610420565b506001949350505050565b5f8085848661030186836108e7565b9261030e93929190610906565b8080601f0160208091040260200160405190810160405280939291908181526020018383808284375f92019190915250505050929092015195945050505050565b606060048054610235906108af565b5f336102c3818585610420565b5f806103798585600c61047d565b9050610385818461035e565b95945050505050565b61039b83838360016104da565b505050565b6001600160a01b038381165f908152600160209081526040808320938616835292905220545f19811461041a578181101561040c57604051637dc7a0d960e11b81526001600160a01b038416600482015260248101829052604481018390526064015b60405180910390fd5b61041a84848484035f6104da565b50505050565b6001600160a01b03831661044957604051634b637e8f60e11b81525f6004820152602401610403565b6001600160a01b0382166104725760405163ec442f0560e01b81525f6004820152602401610403565b61039b8383836105ac565b5f8084838561048d8260146108e7565b9261049a93929190610906565b8080601f0160208091040260200160405190810160405280939291908181526020018383808284375f920191909152505050506014015195945050505050565b6001600160a01b0384166105035760405163e602df0560e01b81525f6004820152602401610403565b6001600160a01b03831661052c57604051634a1406b160e11b81525f6004820152602401610403565b6001600160a01b038085165f908152600160209081526040808320938716835292905220829055801561041a57826001600160a01b0316846001600160a01b03167f8c5be1e5ebec7d5bd14f71427d1e84f3dd0314c0f7b2291e5b200ac8c7c3b9258460405161059e91815260200190565b60405180910390a350505050565b6001600160a01b0383166105d6578060025f8282546105cb91906108e7565b909155506106469050565b6001600160a01b0383165f90815260208190526040902054818110156106285760405163391434e360e21b81526001600160a01b03851660048201526024810182905260448101839052606401610403565b6001600160a01b0384165f9081526020819052604090209082900390555b6001600160a01b03821661066257600280548290039055610680565b6001600160a01b0382165f9081526020819052604090208054820190555b816001600160a01b0316836001600160a01b03167fddf252ad1be2c89b69c2b068fc378daa952ba7f163c4a11628f55a4df523b3ef836040516106c591815260200190565b60405180910390a3505050565b602081525f82518060208401528060208501604085015e5f604082850101526040601f19601f83011684010191505092915050565b80356001600160a01b038116811461071d575f80fd5b919050565b5f8060408385031215610733575f80fd5b61073c83610707565b946020939093013593505050565b5f805f6060848603121561075c575f80fd5b61076584610707565b925061077360208501610707565b929592945050506040919091013590565b5f8083601f840112610794575f80fd5b50813567ffffffffffffffff8111156107ab575f80fd5b6020830191508360208285010111156107c2575f80fd5b9250929050565b5f805f80606085870312156107dc575f80fd5b843567ffffffffffffffff8111156107f2575f80fd5b6107fe87828801610784565b90989097506020870135966040013595509350505050565b5f60208284031215610826575f80fd5b61082f82610707565b9392505050565b5f805f60408486031215610848575f80fd5b833567ffffffffffffffff81111561085e575f80fd5b61086a86828701610784565b909790965060209590950135949350505050565b5f806040838503121561088f575f80fd5b61089883610707565b91506108a660208401610707565b90509250929050565b600181811c908216806108c357607f821691505b6020821081036108e157634e487b7160e01b5f52602260045260245ffd5b50919050565b808201808211156102c957634e487b7160e01b5f52601160045260245ffd5b5f8085851115610914575f80fd5b83861115610920575f80fd5b505082019391909203915056fea2646970667358221220a3e8ff8278bee6f07c0bf51ed7649105ac905cc82b79fc0f2d0392ca9ba14c3964736f6c634300081a0033","linkReferences":{}},"methodIdentifiers":{"allowance(address,address)":"dd62ed3e","approve(address,uint256)":"095ea7b3","balanceOf(address)":"70a08231","bytesToAddress(bytes,uint256,uint256)":"2c27d3ab","decimals()":"313ce567","deposit(address,uint256)":"47e7ef24","name()":"06fdde03","symbol()":"95d89b41","totalSupply()":"18160ddd","transfer(address,uint256)":"a9059cbb","transferFrom(address,address,uint256)":"23b872dd","withdraw(bytes,uint256)":"c7012626","withdrawGasFee()":"d9eeebed"},"id":10}