{"abi":[{"type":"constructor","inputs":[],"stateMutability":"nonpayable"},{"type":"receive","stateMutability":"payable"},{"type":"function","name":"UPGRADE_INTERFACE_VERSION","inputs":[],"outputs":[{"name":"","type":"string","internalType":"string"}],"stateMutability":"view"},{"type":"function","name":"approve","inputs":[{"name":"to","type":"address","internalType":"address"},{"name":"tokenId","type":"uint256","internalType":"uint256"}],"outputs":[],"stateMutability":"nonpayable"},{"type":"function","name":"balanceOf","inputs":[{"name":"owner","type":"address","internalType":"address"}],"outputs":[{"name":"","type":"uint256","internalType":"uint256"}],"stateMutability":"view"},{"type":"function","name":"burn","inputs":[{"name":"tokenId","type":"uint256","internalType":"uint256"}],"outputs":[],"stateMutability":"nonpayable"},{"type":"function","name":"connected","inputs":[{"name":"","type":"address","internalType":"address"}],"outputs":[{"name":"","type":"bytes","internalType":"bytes"}],"stateMutability":"view"},{"type":"function","name":"gasLimitAmount","inputs":[],"outputs":[{"name":"","type":"uint256","internalType":"uint256"}],"stateMutability":"view"},{"type":"function","name":"gateway","inputs":[],"outputs":[{"name":"","type":"address","internalType":"contract GatewayZEVM"}],"stateMutability":"view"},{"type":"function","name":"getApproved","inputs":[{"name":"tokenId","type":"uint256","internalType":"uint256"}],"outputs":[{"name":"","type":"address","internalType":"address"}],"stateMutability":"view"},{"type":"function","name":"initialize","inputs":[{"name":"initialOwner","type":"address","internalType":"address"},{"name":"name","type":"string","internalType":"string"},{"name":"symbol","type":"string","internalType":"string"},{"name":"gatewayAddress","type":"address","internalType":"address payable"},{"name":"gas","type":"uint256","internalType":"uint256"},{"name":"uniswapRouterAddress","type":"address","internalType":"address"}],"outputs":[],"stateMutability":"nonpayable"},{"type":"function","name":"isApprovedForAll","inputs":[{"name":"owner","type":"address","internalType":"address"},{"name":"operator","type":"address","internalType":"address"}],"outputs":[{"name":"","type":"bool","internalType":"bool"}],"stateMutability":"view"},{"type":"function","name":"isUniversal","inputs":[],"outputs":[{"name":"","type":"bool","internalType":"bool"}],"stateMutability":"view"},{"type":"function","name":"name","inputs":[],"outputs":[{"name":"","type":"string","internalType":"string"}],"stateMutability":"view"},{"type":"function","name":"onAbort","inputs":[{"name":"context","type":"tuple","internalType":"struct AbortContext","components":[{"name":"sender","type":"bytes","internalType":"bytes"},{"name":"asset","type":"address","internalType":"address"},{"name":"amount","type":"uint256","internalType":"uint256"},{"name":"outgoing","type":"bool","internalType":"bool"},{"name":"chainID","type":"uint256","internalType":"uint256"},{"name":"revertMessage","type":"bytes","internalType":"bytes"}]}],"outputs":[],"stateMutability":"nonpayable"},{"type":"function","name":"onCall","inputs":[{"name":"context","type":"tuple","internalType":"struct MessageContext","components":[{"name":"origin","type":"bytes","internalType":"bytes"},{"name":"sender","type":"address","internalType":"address"},{"name":"chainID","type":"uint256","internalType":"uint256"}]},{"name":"zrc20","type":"address","internalType":"address"},{"name":"amount","type":"uint256","internalType":"uint256"},{"name":"message","type":"bytes","internalType":"bytes"}],"outputs":[],"stateMutability":"nonpayable"},{"type":"function","name":"onRevert","inputs":[{"name":"context","type":"tuple","internalType":"struct RevertContext","components":[{"name":"sender","type":"address","internalType":"address"},{"name":"asset","type":"address","internalType":"address"},{"name":"amount","type":"uint256","internalType":"uint256"},{"name":"revertMessage","type":"bytes","internalType":"bytes"}]}],"outputs":[],"stateMutability":"nonpayable"},{"type":"function","name":"owner","inputs":[],"outputs":[{"name":"","type":"address","internalType":"address"}],"stateMutability":"view"},{"type":"function","name":"ownerOf","inputs":[{"name":"tokenId","type":"uint256","internalType":"uint256"}],"outputs":[{"name":"","type":"address","internalType":"address"}],"stateMutability":"view"},{"type":"function","name":"pause","inputs":[],"outputs":[],"stateMutability":"nonpayable"},{"type":"function","name":"paused","inputs":[],"outputs":[{"name":"","type":"bool","internalType":"bool"}],"stateMutability":"view"},{"type":"function","name":"proxiableUUID","inputs":[],"outputs":[{"name":"","type":"bytes32","internalType":"bytes32"}],"stateMutability":"view"},{"type":"function","name":"renounceOwnership","inputs":[],"outputs":[],"stateMutability":"nonpayable"},{"type":"function","name":"safeMint","inputs":[{"name":"to","type":"address","internalType":"address"},{"name":"uri","type":"string","internalType":"string"}],"outputs":[{"name":"","type":"uint256","internalType":"uint256"}],"stateMutability":"nonpayable"},{"type":"function","name":"safeTransferFrom","inputs":[{"name":"from","type":"address","internalType":"address"},{"name":"to","type":"address","internalType":"address"},{"name":"tokenId","type":"uint256","internalType":"uint256"}],"outputs":[],"stateMutability":"nonpayable"},{"type":"function","name":"safeTransferFrom","inputs":[{"name":"from","type":"address","internalType":"address"},{"name":"to","type":"address","internalType":"address"},{"name":"tokenId","type":"uint256","internalType":"uint256"},{"name":"data","type":"bytes","internalType":"bytes"}],"outputs":[],"stateMutability":"nonpayable"},{"type":"function","name":"setApprovalForAll","inputs":[{"name":"operator","type":"address","internalType":"address"},{"name":"approved","type":"bool","internalType":"bool"}],"outputs":[],"stateMutability":"nonpayable"},{"type":"function","name":"setConnected","inputs":[{"name":"zrc20","type":"address","internalType":"address"},{"name":"contractAddress","type":"bytes","internalType":"bytes"}],"outputs":[],"stateMutability":"nonpayable"},{"type":"function","name":"setGasLimit","inputs":[{"name":"gas","type":"uint256","internalType":"uint256"}],"outputs":[],"stateMutability":"nonpayable"},{"type":"function","name":"setGateway","inputs":[{"name":"gatewayAddress","type":"address","internalType":"address"}],"outputs":[],"stateMutability":"nonpayable"},{"type":"function","name":"supportsInterface","inputs":[{"name":"interfaceId","type":"bytes4","internalType":"bytes4"}],"outputs":[{"name":"","type":"bool","internalType":"bool"}],"stateMutability":"view"},{"type":"function","name":"symbol","inputs":[],"outputs":[{"name":"","type":"string","internalType":"string"}],"stateMutability":"view"},{"type":"function","name":"tokenByIndex","inputs":[{"name":"index","type":"uint256","internalType":"uint256"}],"outputs":[{"name":"","type":"uint256","internalType":"uint256"}],"stateMutability":"view"},{"type":"function","name":"tokenOfOwnerByIndex","inputs":[{"name":"owner","type":"address","internalType":"address"},{"name":"index","type":"uint256","internalType":"uint256"}],"outputs":[{"name":"","type":"uint256","internalType":"uint256"}],"stateMutability":"view"},{"type":"function","name":"tokenURI","inputs":[{"name":"tokenId","type":"uint256","internalType":"uint256"}],"outputs":[{"name":"","type":"string","internalType":"string"}],"stateMutability":"view"},{"type":"function","name":"totalSupply","inputs":[],"outputs":[{"name":"","type":"uint256","internalType":"uint256"}],"stateMutability":"view"},{"type":"function","name":"transferCrossChain","inputs":[{"name":"tokenId","type":"uint256","internalType":"uint256"},{"name":"receiver","type":"address","internalType":"address"},{"name":"destination","type":"address","internalType":"address"}],"outputs":[],"stateMutability":"payable"},{"type":"function","name":"transferFrom","inputs":[{"name":"from","type":"address","internalType":"address"},{"name":"to","type":"address","internalType":"address"},{"name":"tokenId","type":"uint256","internalType":"uint256"}],"outputs":[],"stateMutability":"nonpayable"},{"type":"function","name":"transferOwnership","inputs":[{"name":"newOwner","type":"address","internalType":"address"}],"outputs":[],"stateMutability":"nonpayable"},{"type":"function","name":"uniswapRouter","inputs":[],"outputs":[{"name":"","type":"address","internalType":"address"}],"stateMutability":"view"},{"type":"function","name":"unpause","inputs":[],"outputs":[],"stateMutability":"nonpayable"},{"type":"function","name":"upgradeToAndCall","inputs":[{"name":"newImplementation","type":"address","internalType":"address"},{"name":"data","type":"bytes","internalType":"bytes"}],"outputs":[],"stateMutability":"payable"},{"type":"event","name":"Approval","inputs":[{"name":"owner","type":"address","indexed":true,"internalType":"address"},{"name":"approved","type":"address","indexed":true,"internalType":"address"},{"name":"tokenId","type":"uint256","indexed":true,"internalType":"uint256"}],"anonymous":false},{"type":"event","name":"ApprovalForAll","inputs":[{"name":"owner","type":"address","indexed":true,"internalType":"address"},{"name":"operator","type":"address","indexed":true,"internalType":"address"},{"name":"approved","type":"bool","indexed":false,"internalType":"bool"}],"anonymous":false},{"type":"event","name":"BatchMetadataUpdate","inputs":[{"name":"_fromTokenId","type":"uint256","indexed":false,"internalType":"uint256"},{"name":"_toTokenId","type":"uint256","indexed":false,"internalType":"uint256"}],"anonymous":false},{"type":"event","name":"Initialized","inputs":[{"name":"version","type":"uint64","indexed":false,"internalType":"uint64"}],"anonymous":false},{"type":"event","name":"MetadataUpdate","inputs":[{"name":"_tokenId","type":"uint256","indexed":false,"internalType":"uint256"}],"anonymous":false},{"type":"event","name":"OwnershipTransferred","inputs":[{"name":"previousOwner","type":"address","indexed":true,"internalType":"address"},{"name":"newOwner","type":"address","indexed":true,"internalType":"address"}],"anonymous":false},{"type":"event","name":"Paused","inputs":[{"name":"account","type":"address","indexed":false,"internalType":"address"}],"anonymous":false},{"type":"event","name":"SetConnected","inputs":[{"name":"zrc20","type":"address","indexed":true,"internalType":"address"},{"name":"contractAddress","type":"bytes","indexed":false,"internalType":"bytes"}],"anonymous":false},{"type":"event","name":"SetUniversal","inputs":[{"name":"universalAddress","type":"address","indexed":true,"internalType":"address"}],"anonymous":false},{"type":"event","name":"TokenMinted","inputs":[{"name":"to","type":"address","indexed":true,"internalType":"address"},{"name":"tokenId","type":"uint256","indexed":true,"internalType":"uint256"},{"name":"uri","type":"string","indexed":false,"internalType":"string"}],"anonymous":false},{"type":"event","name":"TokenTransfer","inputs":[{"name":"destination","type":"address","indexed":true,"internalType":"address"},{"name":"receiver","type":"address","indexed":true,"internalType":"address"},{"name":"tokenId","type":"uint256","indexed":true,"internalType":"uint256"},{"name":"uri","type":"string","indexed":false,"internalType":"string"}],"anonymous":false},{"type":"event","name":"TokenTransferAborted","inputs":[{"name":"sender","type":"address","indexed":true,"internalType":"address"},{"name":"tokenId","type":"uint256","indexed":true,"internalType":"uint256"},{"name":"uri","type":"string","indexed":false,"internalType":"string"},{"name":"outgoing","type":"bool","indexed":false,"internalType":"bool"},{"name":"refundAsset","type":"address","indexed":false,"internalType":"address"},{"name":"refundAmount","type":"uint256","indexed":false,"internalType":"uint256"}],"anonymous":false},{"type":"event","name":"TokenTransferReceived","inputs":[{"name":"receiver","type":"address","indexed":true,"internalType":"address"},{"name":"tokenId","type":"uint256","indexed":true,"internalType":"uint256"},{"name":"uri","type":"string","indexed":false,"internalType":"string"}],"anonymous":false},{"type":"event","name":"TokenTransferReverted","inputs":[{"name":"sender","type":"address","indexed":true,"internalType":"address"},{"name":"tokenId","type":"uint256","indexed":true,"internalType":"uint256"},{"name":"uri","type":"string","indexed":false,"internalType":"string"},{"name":"refundAsset","type":"address","indexed":false,"internalType":"address"},{"name":"refundAmount","type":"uint256","indexed":false,"internalType":"uint256"}],"anonymous":false},{"type":"event","name":"TokenTransferToDestination","inputs":[{"name":"destination","type":"address","indexed":true,"internalType":"address"},{"name":"sender","type":"address","indexed":true,"internalType":"address"},{"name":"tokenId","type":"uint256","indexed":true,"internalType":"uint256"},{"name":"uri","type":"string","indexed":false,"internalType":"string"}],"anonymous":false},{"type":"event","name":"Transfer","inputs":[{"name":"from","type":"address","indexed":true,"internalType":"address"},{"name":"to","type":"address","indexed":true,"internalType":"address"},{"name":"tokenId","type":"uint256","indexed":true,"internalType":"uint256"}],"anonymous":false},{"type":"event","name":"Unpaused","inputs":[{"name":"account","type":"address","indexed":false,"internalType":"address"}],"anonymous":false},{"type":"event","name":"Upgraded","inputs":[{"name":"implementation","type":"address","indexed":true,"internalType":"address"}],"anonymous":false},{"type":"error","name":"AdditionsOverflow","inputs":[]},{"type":"error","name":"AddressEmptyCode","inputs":[{"name":"target","type":"address","internalType":"address"}]},{"type":"error","name":"ApproveFailed","inputs":[]},{"type":"error","name":"CantBeIdenticalAddresses","inputs":[]},{"type":"error","name":"CantBeZeroAddress","inputs":[]},{"type":"error","name":"ERC1967InvalidImplementation","inputs":[{"name":"implementation","type":"address","internalType":"address"}]},{"type":"error","name":"ERC1967NonPayable","inputs":[]},{"type":"error","name":"ERC721EnumerableForbiddenBatchMint","inputs":[]},{"type":"error","name":"ERC721IncorrectOwner","inputs":[{"name":"sender","type":"address","internalType":"address"},{"name":"tokenId","type":"uint256","internalType":"uint256"},{"name":"owner","type":"address","internalType":"address"}]},{"type":"error","name":"ERC721InsufficientApproval","inputs":[{"name":"operator","type":"address","internalType":"address"},{"name":"tokenId","type":"uint256","internalType":"uint256"}]},{"type":"error","name":"ERC721InvalidApprover","inputs":[{"name":"approver","type":"address","internalType":"address"}]},{"type":"error","name":"ERC721InvalidOperator","inputs":[{"name":"operator","type":"address","internalType":"address"}]},{"type":"error","name":"ERC721InvalidOwner","inputs":[{"name":"owner","type":"address","internalType":"address"}]},{"type":"error","name":"ERC721InvalidReceiver","inputs":[{"name":"receiver","type":"address","internalType":"address"}]},{"type":"error","name":"ERC721InvalidSender","inputs":[{"name":"sender","type":"address","internalType":"address"}]},{"type":"error","name":"ERC721NonexistentToken","inputs":[{"name":"tokenId","type":"uint256","internalType":"uint256"}]},{"type":"error","name":"ERC721OutOfBoundsIndex","inputs":[{"name":"owner","type":"address","internalType":"address"},{"name":"index","type":"uint256","internalType":"uint256"}]},{"type":"error","name":"EnforcedPause","inputs":[]},{"type":"error","name":"ExpectedPause","inputs":[]},{"type":"error","name":"FailedInnerCall","inputs":[]},{"type":"error","name":"IdenticalAddresses","inputs":[]},{"type":"error","name":"InsufficientInputAmount","inputs":[]},{"type":"error","name":"InsufficientLiquidity","inputs":[]},{"type":"error","name":"InvalidAddress","inputs":[]},{"type":"error","name":"InvalidGasLimit","inputs":[]},{"type":"error","name":"InvalidInitialization","inputs":[]},{"type":"error","name":"InvalidPath","inputs":[]},{"type":"error","name":"InvalidPathLength","inputs":[]},{"type":"error","name":"MultiplicationsOverflow","inputs":[]},{"type":"error","name":"NotInitializing","inputs":[]},{"type":"error","name":"OwnableInvalidOwner","inputs":[{"name":"owner","type":"address","internalType":"address"}]},{"type":"error","name":"OwnableUnauthorizedAccount","inputs":[{"name":"account","type":"address","internalType":"address"}]},{"type":"error","name":"ReentrancyGuardReentrantCall","inputs":[]},{"type":"error","name":"TokenRefundFailed","inputs":[]},{"type":"error","name":"TransferFailed","inputs":[]},{"type":"error","name":"UUPSUnauthorizedCallContext","inputs":[]},{"type":"error","name":"UUPSUnsupportedProxiableUUID","inputs":[{"name":"slot","type":"bytes32","internalType":"bytes32"}]},{"type":"error","name":"Unauthorized","inputs":[]},{"type":"error","name":"ZeroAddress","inputs":[]},{"type":"error","name":"ZeroMsgValue","inputs":[]}],"bytecode":{"object":"0x60a060405230608052348015610013575f80fd5b5061001c610021565b6100d3565b7ff0c57e16840df040f15088dc2f81fe391c3923bec73e23a9662efc9c229c6a00805468010000000000000000900460ff16156100715760405163f92ee8a960e01b815260040160405180910390fd5b80546001600160401b03908116146100d05780546001600160401b0319166001600160401b0390811782556040519081527fc7f505b2f371ae2175ee4913f4499e1f2633a7b5936321eed1cdaeb6115181d29060200160405180910390a15b50565b608051614d436100f95f395f818161176f0152818161179801526118d70152614d435ff3fe608060405260043610610236575f3560e01c80636352211e11610129578063a22cb465116100a8578063d0f239701161006d578063d0f2397014610691578063d204c45e146106a6578063e985e9c5146106c5578063ee7d72b4146106e4578063f2fde38b14610703575f80fd5b8063a22cb465146105e5578063ad3cb1cc14610604578063b88d4fde14610634578063c87b56dd14610653578063c9028a3614610672575f80fd5b80638456cb59116100ee5780638456cb591461054f5780638da5cb5b1461056357806390646b4a1461059f57806395d89b41146105be5780639b7a4aa4146105d2575f80fd5b80636352211e146104bf578063650b4f8b146104de57806370a08231146104fd578063715018a61461051c578063735de9f714610530575f80fd5b8063305725e5116101b55780634f1ef2861161017a5780634f1ef286146104375780634f6ccce71461044a57806352d1902d146104695780635bcfd6161461047d5780635c975abb1461049c575f80fd5b8063305725e5146103b25780633332dfa9146103c65780633f4ba83a146103e557806342842e0e146103f957806342966c6814610418575f80fd5b8063116191b6116101fb578063116191b61461030d57806318160ddd1461032b57806323b872dd146103555780632d4cfb7e146103745780632f745c5914610393575f80fd5b806301ffc9a71461024157806306fdde0314610275578063081812fc14610296578063095ea7b3146102cd5780630e76754b146102ee575f80fd5b3661023d57005b5f80fd5b34801561024c575f80fd5b5061026061025b366004613d5d565b610722565b60405190151581526020015b60405180910390f35b348015610280575f80fd5b50610289610732565b60405161026c9190613da6565b3480156102a1575f80fd5b506102b56102b0366004613db8565b6107d3565b6040516001600160a01b03909116815260200161026c565b3480156102d8575f80fd5b506102ec6102e7366004613de3565b6107e7565b005b3480156102f9575f80fd5b50610289610308366004613e0d565b6107f6565b348015610318575f80fd5b505f546102b5906001600160a01b031681565b348015610336575f80fd5b505f80516020614cce833981519152545b60405190815260200161026c565b348015610360575f80fd5b506102ec61036f366004613e28565b61088d565b34801561037f575f80fd5b506102ec61038e366004613e66565b61091b565b34801561039e575f80fd5b506103476103ad366004613de3565b610ab6565b3480156103bd575f80fd5b50610260600181565b3480156103d1575f80fd5b506102ec6103e0366004613ed9565b610b27565b3480156103f0575f80fd5b506102ec610be2565b348015610404575f80fd5b506102ec610413366004613e28565b610bf4565b348015610423575f80fd5b506102ec610432366004613db8565b610c13565b6102ec610445366004613fde565b610c1e565b348015610455575f80fd5b50610347610464366004613db8565b610c39565b348015610474575f80fd5b50610347610cab565b348015610488575f80fd5b506102ec61049736600461402a565b610cc6565b3480156104a7575f80fd5b505f80516020614cee8339815191525460ff16610260565b3480156104ca575f80fd5b506102b56104d9366004613db8565b6110f2565b3480156104e9575f80fd5b506102ec6104f83660046140b2565b6110fc565b348015610508575f80fd5b50610347610517366004613e0d565b61124a565b348015610527575f80fd5b506102ec6112a2565b34801561053b575f80fd5b506001546102b5906001600160a01b031681565b34801561055a575f80fd5b506102ec6112b3565b34801561056e575f80fd5b507f9016d09d72d40fdae2fd8ceac6b6234c7706214fd39c1cd1e609a0528c199300546001600160a01b03166102b5565b3480156105aa575f80fd5b506102ec6105b9366004613e0d565b6112c3565b3480156105c9575f80fd5b50610289611313565b6102ec6105e0366004614155565b611351565b3480156105f0575f80fd5b506102ec6105ff3660046141a1565b61135c565b34801561060f575f80fd5b50610289604051806040016040528060058152602001640352e302e360dc1b81525081565b34801561063f575f80fd5b506102ec61064e3660046141d8565b611367565b34801561065e575f80fd5b5061028961066d366004613db8565b61137e565b34801561067d575f80fd5b506102ec61068c36600461423f565b611389565b34801561069c575f80fd5b5061034760025481565b3480156106b1575f80fd5b506103476106c0366004613fde565b61143b565b3480156106d0575f80fd5b506102606106df366004614275565b6114cc565b3480156106ef575f80fd5b506102ec6106fe366004613db8565b611518565b34801561070e575f80fd5b506102ec61071d366004613e0d565b611545565b5f61072c82611582565b92915050565b5f80516020614c8e8339815191528054606091908190610751906142a1565b80601f016020809104026020016040519081016040528092919081815260200182805461077d906142a1565b80156107c85780601f1061079f576101008083540402835291602001916107c8565b820191905f5260205f20905b8154815290600101906020018083116107ab57829003601f168201915b505050505091505090565b5f6107dd8261158c565b5061072c826115c3565b6107f28282336115fc565b5050565b60036020525f90815260409020805461080e906142a1565b80601f016020809104026020016040519081016040528092919081815260200182805461083a906142a1565b80156108855780601f1061085c57610100808354040283529160200191610885565b820191905f5260205f20905b81548152906001019060200180831161086857829003601f168201915b505050505081565b6001600160a01b0382166108bb57604051633250574960e11b81525f60048201526024015b60405180910390fd5b5f6108c7838333611609565b9050836001600160a01b0316816001600160a01b031614610915576040516364283d7b60e01b81526001600160a01b03808616600483015260248201849052821660448201526064016108b2565b50505050565b5f546001600160a01b03163314610944576040516282b42960e81b815260040160405180910390fd5b5f808061095460a08501856142d9565b810190610961919061431b565b93509350935050610972818461161f565b61097c8383611638565b826001600160a01b0382167fedc268fc99dd25ea9e6c719a848a33b910cd596649c4ddcf30cb675be2bb20ed846109b96080890160608a01614382565b6109c960408a0160208b01613e0d565b89604001356040516109de949392919061439d565b60405180910390a35f8460400135118015610a1157505f610a056040860160208701613e0d565b6001600160a01b031614155b1561091557610a266040850160208601613e0d565b6040805163a9059cbb60e01b81526001600160a01b03848116600483015291870135602482015291169063a9059cbb906044016020604051808303815f875af1158015610a75573d5f803e3d5ffd5b505050506040513d601f19601f82011682018060405250810190610a9991906143d4565b610915576040516373dd95d760e01b815260040160405180910390fd5b5f5f80516020614c6e833981519152610ace8461124a565b8310610aff5760405163295f44f760e21b81526001600160a01b0385166004820152602481018490526044016108b2565b6001600160a01b0384165f908152602091825260408082208583529092522054905092915050565b610b2f6116aa565b6001600160a01b038316610b565760405163e6c4247b60e01b815260040160405180910390fd5b5f819003610b775760405163e6c4247b60e01b815260040160405180910390fd5b6001600160a01b0383165f908152600360205260409020610b99828483614433565b50826001600160a01b03167fc07f1b52f505af7b3341e91bf6c59a9d16dec4b846199595944456981d88d7ae8383604051610bd59291906144ec565b60405180910390a2505050565b610bea6116aa565b610bf2611705565b565b610c0e83838360405180602001604052805f815250611367565b505050565b6107f25f8233611609565b610c26611764565b610c2f82611808565b6107f28282611810565b5f5f80516020614c6e833981519152610c5d5f80516020614cce8339815191525490565b8310610c855760405163295f44f760e21b81525f6004820152602481018490526044016108b2565b806002018381548110610c9a57610c9a61451a565b905f5260205f200154915050919050565b5f610cb46118cc565b505f80516020614cae83398151915290565b5f546001600160a01b03163314610cef576040516282b42960e81b815260040160405180910390fd5b6001600160a01b0384165f908152600360209081526040918290209151610d1792910161452e565b60405160208183030381529060405280519060200120856020016020810190610d409190613e0d565b604051602001610d63919060609190911b6001600160601b031916815260140190565b6040516020818303038152906040528051906020012014610d96576040516282b42960e81b815260040160405180910390fd5b5f80808080610da78688018861459f565b9398509196509450925090506001600160a01b038516610e1c57610dcb848461161f565b610dd58383611638565b82846001600160a01b03167fbee679df3878e8de7e4adc255af441c447fa2b8767417d4d05a091f2614c22d484604051610e0f9190613da6565b60405180910390a361109a565b5f80866001600160a01b031663fc5fecd56002546040518263ffffffff1660e01b8152600401610e4e91815260200190565b6040805180830381865afa158015610e68573d5f803e3d5ffd5b505050506040513d601f19601f82011682018060405250810190610e8c919061461a565b91509150816001600160a01b0316876001600160a01b031614610ec25760405163e6c4247b60e01b815260040160405180910390fd5b6001545f90610edd906001600160a01b03168d8d8b85611915565b5f5460405163095ea7b360e01b81526001600160a01b0391821660048201526024810183905291925089169063095ea7b3906044016020604051808303815f875af1158015610f2e573d5f803e3d5ffd5b505050506040513d601f19601f82011682018060405250810190610f5291906143d4565b610f6f57604051633e3f8f7360e01b815260040160405180910390fd5b5f80546001600160a01b038a8116835260036020526040909220911690637b15118b90610f9c858561465a565b8b8b8b8b610faa8a8a61465a565b8c604051602001610fbf95949392919061466d565b604051602081830303815290604052604051806040016040528060025481526020015f15158152506040518060a00160405280306001600160a01b031681526020016001151581526020015f6001600160a01b031681526020018f8f8f8f60405160200161103094939291906146b5565b60405160208183030381529060405281526020015f8152506040518763ffffffff1660e01b8152600401611069969594939291906147cb565b5f604051808303815f87803b158015611080575f80fd5b505af1158015611092573d5f803e3d5ffd5b505050505050505b82856001600160a01b0316856001600160a01b03167f3e2072bf13c50143b572a35e4cb33f3cc2f94cb9ba50cfa23c8eff3cc5464773856040516110de9190613da6565b60405180910390a450505050505050505050565b5f61072c8261158c565b7ff0c57e16840df040f15088dc2f81fe391c3923bec73e23a9662efc9c229c6a008054600160401b810460ff1615906001600160401b03165f811580156111405750825b90505f826001600160401b0316600114801561115b5750303b155b905081158015611169575080155b156111875760405163f92ee8a960e01b815260040160405180910390fd5b845467ffffffffffffffff1916600117855583156111b157845460ff60401b1916600160401b1785555b6111bb8a8a611ca2565b6111c3611cb4565b6111cb611cb4565b6111d3611cbc565b6111dc8b611ccc565b6111e4611cb4565b6111ec611cb4565b6111f7888888611cdd565b831561123d57845460ff60401b19168555604051600181527fc7f505b2f371ae2175ee4913f4499e1f2633a7b5936321eed1cdaeb6115181d29060200160405180910390a15b5050505050505050505050565b5f5f80516020614c8e8339815191526001600160a01b038316611282576040516322718ad960e21b81525f60048201526024016108b2565b6001600160a01b039092165f908152600390920160205250604090205490565b6112aa6116aa565b610bf25f611d71565b6112bb6116aa565b610bf2611de1565b6112cb6116aa565b6001600160a01b0381166112f25760405163e6c4247b60e01b815260040160405180910390fd5b5f80546001600160a01b0319166001600160a01b0392909216919091179055565b7f80bb2b638cc20bc4d0a60d66940f3ab4a00c1d7b313497ca82fb0b4ab007930180546060915f80516020614c8e83398151915291610751906142a1565b610c0e838383611e29565b6107f23383836123a8565b61137284848461088d565b61091584848484612457565b606061072c8261257d565b5f546001600160a01b031633146113b2576040516282b42960e81b815260040160405180910390fd5b5f80806113c260608501856142d9565b8101906113cf919061431b565b935093509350506113e0818461161f565b6113ea8383611638565b826001600160a01b0382167f50a463f0b2254e45ba19aaa2b3b02b83232d660d938c1af19c5e6088cec16b93846114276040890160208a01613e0d565b88604001356040516109de93929190614839565b5f6114446116aa565b61144c612588565b600480545f91309143918461146083614866565b9091555060405160609390931b6001600160601b03191660208401526034830191909152605482015260740160408051601f19818403018152919052805160209091012090506001600160a01b0381166114ba858261161f565b6114c48185611638565b949350505050565b6001600160a01b039182165f9081527f80bb2b638cc20bc4d0a60d66940f3ab4a00c1d7b313497ca82fb0b4ab00793056020908152604080832093909416825291909152205460ff1690565b6115206116aa565b805f03611540576040516304c5ed9760e51b815260040160405180910390fd5b600255565b61154d6116aa565b6001600160a01b03811661157657604051631e4fbdf760e01b81525f60048201526024016108b2565b61157f81611d71565b50565b5f61072c826125b8565b5f80611597836125dc565b90506001600160a01b03811661072c57604051637e27328960e01b8152600481018490526024016108b2565b5f9081527f80bb2b638cc20bc4d0a60d66940f3ab4a00c1d7b313497ca82fb0b4ab007930460205260409020546001600160a01b031690565b610c0e8383836001612615565b5f611615848484612728565b90505b9392505050565b6107f2828260405180602001604052805f81525061273c565b5f8281527f0542a41881ee128a365a727b282c86fa859579490b9bb45aab8503648c8e790060208190526040909120611671838261487e565b506040518381527ff8e1a15aba9398e019f0b49df1a4fde98ee17ae345cb5f6b5e2c27f5033e8ce79060200160405180910390a1505050565b336116dc7f9016d09d72d40fdae2fd8ceac6b6234c7706214fd39c1cd1e609a0528c199300546001600160a01b031690565b6001600160a01b031614610bf25760405163118cdaa760e01b81523360048201526024016108b2565b61170d612752565b5f80516020614cee833981519152805460ff191681557f5db9ee0a495bf2e6ff9c91a7834c1ba4fdd244a5e8aa4e537bd38aeae4b073aa335b6040516001600160a01b03909116815260200160405180910390a150565b306001600160a01b037f00000000000000000000000000000000000000000000000000000000000000001614806117ea57507f00000000000000000000000000000000000000000000000000000000000000006001600160a01b03166117de5f80516020614cae833981519152546001600160a01b031690565b6001600160a01b031614155b15610bf25760405163703e46dd60e11b815260040160405180910390fd5b61157f6116aa565b816001600160a01b03166352d1902d6040518163ffffffff1660e01b8152600401602060405180830381865afa92505050801561186a575060408051601f3d908101601f1916820190925261186791810190614938565b60015b61189257604051634c9c8ce360e01b81526001600160a01b03831660048201526024016108b2565b5f80516020614cae83398151915281146118c257604051632a87526960e21b8152600481018290526024016108b2565b610c0e8383612781565b306001600160a01b037f00000000000000000000000000000000000000000000000000000000000000001614610bf25760405163703e46dd60e11b815260040160405180910390fd5b5f80866001600160a01b031663c45a01556040518163ffffffff1660e01b8152600401602060405180830381865afa158015611953573d5f803e3d5ffd5b505050506040513d601f19601f82011682018060405250810190611977919061494f565b90505f876001600160a01b031663ad5c46486040518163ffffffff1660e01b8152600401602060405180830381865afa1580156119b6573d5f803e3d5ffd5b505050506040513d601f19601f820116820180604052508101906119da919061494f565b60408051600280825260608083018452939450909160208301908036833701905050905087815f81518110611a1157611a1161451a565b60200260200101906001600160a01b031690816001600160a01b0316815250508581600181518110611a4557611a4561451a565b60200260200101906001600160a01b031690816001600160a01b0316815250505f611a72848988856127d6565b90505f836001600160a01b0316886001600160a01b03161480611aa65750836001600160a01b03168a6001600160a01b0316145b905081158015611ab4575080155b15611b765760408051600380825260808201909252906020820160608036833701905050925089835f81518110611aed57611aed61451a565b60200260200101906001600160a01b031690816001600160a01b0316815250508383600181518110611b2157611b2161451a565b60200260200101906001600160a01b031690816001600160a01b0316815250508783600281518110611b5557611b5561451a565b60200260200101906001600160a01b031690816001600160a01b0316815250505b60405163095ea7b360e01b81526001600160a01b038c81166004830152602482018b90528b169063095ea7b3906044016020604051808303815f875af1158015611bc2573d5f803e3d5ffd5b505050506040513d601f19601f82011682018060405250810190611be691906143d4565b505f6001600160a01b038c166338ed17398b8a8730611c0660c84261496a565b6040518663ffffffff1660e01b8152600401611c2695949392919061497d565b5f604051808303815f875af1158015611c41573d5f803e3d5ffd5b505050506040513d5f823e601f3d908101601f19168201604052611c6891908101906149ed565b90508060018551611c79919061465a565b81518110611c8957611c8961451a565b6020026020010151965050505050505095945050505050565b611caa61288c565b6107f282826128d5565b610bf261288c565b611cc461288c565b610bf2612905565b611cd461288c565b61157f81612925565b611ce561292d565b6001600160a01b0383161580611d0257506001600160a01b038116155b15611d205760405163e6c4247b60e01b815260040160405180910390fd5b815f03611d40576040516304c5ed9760e51b815260040160405180910390fd5b5f80546001600160a01b039485166001600160a01b0319918216179091556001805492909416911617909155600255565b7f9016d09d72d40fdae2fd8ceac6b6234c7706214fd39c1cd1e609a0528c19930080546001600160a01b031981166001600160a01b03848116918217845560405192169182907f8be0079c531659141344cd1fd0a4f28419497f9722a3daafe3b4186f6b6457e0905f90a3505050565b611de9612588565b5f80516020614cee833981519152805460ff191660011781557f62e78cea01bee320cd4e420270b5ea74000d11b0c9f74754ebdbfc544b05a25833611746565b611e3161293d565b345f03611e515760405163790c8b3960e01b815260040160405180910390fd5b6001600160a01b038216611e785760405163e6c4247b60e01b815260040160405180910390fd5b5f611e828461137e565b90505f8385835f33604051602001611e9e959493929190614a8c565b6040516020818303038152906040529050611eb885612987565b84836001600160a01b0316856001600160a01b03167fb2a551a9926bd21f96129ef51e372361101766600883a668bbfb7d425e837e2985604051611efc9190613da6565b60405180910390a45f80846001600160a01b031663fc5fecd56002546040518263ffffffff1660e01b8152600401611f3691815260200190565b6040805180830381865afa158015611f50573d5f803e3d5ffd5b505050506040513d601f19601f82011682018060405250810190611f74919061461a565b91509150816001600160a01b0316856001600160a01b031614611faa5760405163e6c4247b60e01b815260040160405180910390fd5b5f805f9054906101000a90046001600160a01b03166001600160a01b03166321e093b16040518163ffffffff1660e01b8152600401602060405180830381865afa158015611ffa573d5f803e3d5ffd5b505050506040513d601f19601f8201168201806040525081019061201e919061494f565b9050806001600160a01b031663d0e30db0346040518263ffffffff1660e01b81526004015f604051808303818588803b158015612059575f80fd5b505af115801561206b573d5f803e3d5ffd5b505060015460405163095ea7b360e01b81526001600160a01b039182166004820152346024820152908516935063095ea7b3925060440190506020604051808303815f875af11580156120c0573d5f803e3d5ffd5b505050506040513d601f19601f820116820180604052508101906120e491906143d4565b61210157604051633e3f8f7360e01b815260040160405180910390fd5b6001545f9061211c906001600160a01b0316838587346129bf565b90505f612129823461465a565b905080156121ee57604051632e1a7d4d60e01b8152600481018290526001600160a01b03841690632e1a7d4d906024015f604051808303815f87803b158015612170575f80fd5b505af1158015612182573d5f803e3d5ffd5b50506040515f925033915083908381818185875af1925050503d805f81146121c5576040519150601f19603f3d011682016040523d82523d5f602084013e6121ca565b606091505b50509050806121ec576040516312171d8360e31b815260040160405180910390fd5b505b5f604051806040016040528060025481526020015f151581525090505f6040518060a00160405280306001600160a01b03168152602001600115158152602001306001600160a01b031681526020018c8e8c3360405160200161225494939291906146b5565b60408051601f198184030181529181529082526002546020909201919091525f54905163095ea7b360e01b81526001600160a01b0391821660048201526024810189905291925088169063095ea7b3906044016020604051808303815f875af11580156122c3573d5f803e3d5ffd5b505050506040513d601f19601f820116820180604052508101906122e791906143d4565b61230457604051633e3f8f7360e01b815260040160405180910390fd5b5f80546001600160a01b038c81168352600360205260409283902092516306cb898360e01b81529116916306cb89839161234991908e908d9088908890600401614ad7565b5f604051808303815f87803b158015612360575f80fd5b505af1158015612372573d5f803e3d5ffd5b50505050505050505050505050610c0e60017f9b779b17422d0df92223018b32b4d1fa46e071723d6817e2486d003becc55f0055565b5f80516020614c8e8339815191526001600160a01b0383166123e857604051630b61174360e31b81526001600160a01b03841660048201526024016108b2565b6001600160a01b038481165f818152600584016020908152604080832094881680845294825291829020805460ff191687151590811790915591519182527f17307eab39ab6107e8899845ad3d59bd9653f200f220920489ca2b5937696c31910160405180910390a350505050565b6001600160a01b0383163b1561091557604051630a85bd0160e11b81526001600160a01b0384169063150b7a0290612499903390889087908790600401614b3d565b6020604051808303815f875af19250505080156124d3575060408051601f3d908101601f191682019092526124d091810190614b79565b60015b61253a573d808015612500576040519150601f19603f3d011682016040523d82523d5f602084013e612505565b606091505b5080515f0361253257604051633250574960e11b81526001600160a01b03851660048201526024016108b2565b805181602001fd5b6001600160e01b03198116630a85bd0160e11b1461257657604051633250574960e11b81526001600160a01b03851660048201526024016108b2565b5050505050565b606061072c82612d29565b5f80516020614cee8339815191525460ff1615610bf25760405163d93c066560e01b815260040160405180910390fd5b5f6001600160e01b0319821663780e9d6360e01b148061072c575061072c82612e58565b5f9081527f80bb2b638cc20bc4d0a60d66940f3ab4a00c1d7b313497ca82fb0b4ab007930260205260409020546001600160a01b031690565b5f80516020614c8e833981519152818061263757506001600160a01b03831615155b156126f8575f6126468561158c565b90506001600160a01b038416158015906126725750836001600160a01b0316816001600160a01b031614155b8015612685575061268381856114cc565b155b156126ae5760405163a9fbf51f60e01b81526001600160a01b03851660048201526024016108b2565b82156126f65784866001600160a01b0316826001600160a01b03167f8c5be1e5ebec7d5bd14f71427d1e84f3dd0314c0f7b2291e5b200ac8c7c3b92560405160405180910390a45b505b5f93845260040160205250506040902080546001600160a01b0319166001600160a01b0392909216919091179055565b5f612731612588565b611615848484612e7c565b6127468383612f72565b610c0e5f848484612457565b5f80516020614cee8339815191525460ff16610bf257604051638dfc202b60e01b815260040160405180910390fd5b61278a82612fd3565b6040516001600160a01b038316907fbc7cd75a20ee27fd9adebab32041f755214dbc6bffa90cc0225b39da2e5c2d3b905f90a28051156127ce57610c0e8282613036565b6107f261309f565b5f81516002146127f9576040516366b045ff60e11b815260040160405180910390fd5b5f61283886845f815181106128105761281061451a565b60200260200101518560018151811061282b5761282b61451a565b60200260200101516130be565b905080612848575f9150506114c4565b5f6128548787866131b5565b9050848160018351612866919061465a565b815181106128765761287661451a565b6020026020010151101592505050949350505050565b7ff0c57e16840df040f15088dc2f81fe391c3923bec73e23a9662efc9c229c6a0054600160401b900460ff16610bf257604051631afcd79f60e31b815260040160405180910390fd5b6128dd61288c565b5f80516020614c8e833981519152806128f6848261487e565b5060018101610915838261487e565b61290d61288c565b5f80516020614cee833981519152805460ff19169055565b61154d61288c565b61293561288c565b610bf2613301565b7f9b779b17422d0df92223018b32b4d1fa46e071723d6817e2486d003becc55f0080546001190161298157604051633ee5aeb560e01b815260040160405180910390fd5b60029055565b5f6129935f835f611609565b90506001600160a01b0381166107f257604051637e27328960e01b8152600481018390526024016108b2565b5f80866001600160a01b031663c45a01556040518163ffffffff1660e01b8152600401602060405180830381865afa1580156129fd573d5f803e3d5ffd5b505050506040513d601f19601f82011682018060405250810190612a21919061494f565b90505f876001600160a01b031663ad5c46486040518163ffffffff1660e01b8152600401602060405180830381865afa158015612a60573d5f803e3d5ffd5b505050506040513d601f19601f82011682018060405250810190612a84919061494f565b90505f612a928389886130be565b905060608115612b2857604080516002808252606082018352909160208301908036833701905050905088815f81518110612acf57612acf61451a565b60200260200101906001600160a01b031690816001600160a01b0316815250508681600181518110612b0357612b0361451a565b60200260200101906001600160a01b031690816001600160a01b031681525050612be5565b60408051600380825260808201909252906020820160608036833701905050905088815f81518110612b5c57612b5c61451a565b60200260200101906001600160a01b031690816001600160a01b0316815250508281600181518110612b9057612b9061451a565b60200260200101906001600160a01b031690816001600160a01b0316815250508681600281518110612bc457612bc461451a565b60200260200101906001600160a01b031690816001600160a01b0316815250505b60405163095ea7b360e01b81526001600160a01b038b81166004830152602482018890528a169063095ea7b3906044016020604051808303815f875af1158015612c31573d5f803e3d5ffd5b505050506040513d601f19601f82011682018060405250810190612c5591906143d4565b505f6001600160a01b038b16638803dbee8a898530612c7560c84261496a565b6040518663ffffffff1660e01b8152600401612c9595949392919061497d565b5f604051808303815f875af1158015612cb0573d5f803e3d5ffd5b505050506040513d5f823e601f3d908101601f19168201604052612cd791908101906149ed565b9050805f81518110612ceb57612ceb61451a565b60200260200101519550505050505095945050505050565b60017f9b779b17422d0df92223018b32b4d1fa46e071723d6817e2486d003becc55f0055565b60607f0542a41881ee128a365a727b282c86fa859579490b9bb45aab8503648c8e7900612d558361158c565b505f8381526020829052604081208054612d6e906142a1565b80601f0160208091040260200160405190810160405280929190818152602001828054612d9a906142a1565b8015612de55780601f10612dbc57610100808354040283529160200191612de5565b820191905f5260205f20905b815481529060010190602001808311612dc857829003601f168201915b505050505090505f612e0160408051602081019091525f815290565b905080515f03612e1357509392505050565b815115612e46578082604051602001612e2d929190614bab565b6040516020818303038152906040529350505050919050565b612e4f85613309565b95945050505050565b5f6001600160e01b03198216632483248360e11b148061072c575061072c82613379565b5f80612e898585856133c8565b90506001600160a01b038116612f1057612f0b845f80516020614cce83398151915280545f8381527f645e039705490088daad89bae25049a34f4a9072d398537b1ab2425f24cbed0360205260408120829055600182018355919091527fa42f15e5d656f8155fd7419d740a6073999f19cd6e061449ce4a257150545bf20155565b612f33565b846001600160a01b0316816001600160a01b031614612f3357612f3381856134ca565b6001600160a01b038516612f4f57612f4a84613569565b611615565b846001600160a01b0316816001600160a01b031614611615576116158585613636565b6001600160a01b038216612f9b57604051633250574960e11b81525f60048201526024016108b2565b5f612fa783835f611609565b90506001600160a01b03811615610c0e576040516339e3563760e11b81525f60048201526024016108b2565b806001600160a01b03163b5f0361300857604051634c9c8ce360e01b81526001600160a01b03821660048201526024016108b2565b5f80516020614cae83398151915280546001600160a01b0319166001600160a01b0392909216919091179055565b60605f80846001600160a01b0316846040516130529190614bbf565b5f60405180830381855af49150503d805f811461308a576040519150601f19603f3d011682016040523d82523d5f602084013e61308f565b606091505b5091509150612e4f85838361368e565b3415610bf25760405163b398979f60e01b815260040160405180910390fd5b5f806130cb8585856136ea565b6040516370a0823160e01b81526001600160a01b0380831660048301529192505f918616906370a0823190602401602060405180830381865afa158015613114573d5f803e3d5ffd5b505050506040513d601f19601f820116820180604052508101906131389190614938565b118015612e4f57506040516370a0823160e01b81526001600160a01b0382811660048301525f91908516906370a0823190602401602060405180830381865afa158015613187573d5f803e3d5ffd5b505050506040513d601f19601f820116820180604052508101906131ab9190614938565b1195945050505050565b60606002825110156131da576040516320db826760e01b815260040160405180910390fd5b81516001600160401b038111156131f3576131f3613f29565b60405190808252806020026020018201604052801561321c578160200160208202803683370190505b50905082815f815181106132325761323261451a565b6020026020010181815250505f5b6001835161324e919061465a565b8110156132f9575f806132a08786858151811061326d5761326d61451a565b602002602001015187866001613283919061496a565b815181106132935761329361451a565b60200260200101516137b7565b915091506132c88484815181106132b9576132b961451a565b6020026020010151838361387c565b846132d485600161496a565b815181106132e4576132e461451a565b60209081029190910101525050600101613240565b509392505050565b612d0361288c565b60606133148261158c565b505f61332a60408051602081019091525f815290565b90505f8151116133485760405180602001604052805f815250611618565b8061335284613910565b604051602001613363929190614bab565b6040516020818303038152906040529392505050565b5f6001600160e01b031982166380ac58cd60e01b14806133a957506001600160e01b03198216635b5e139f60e01b145b8061072c57506301ffc9a760e01b6001600160e01b031983161461072c565b5f5f80516020614c8e833981519152816133e1856125dc565b90506001600160a01b038416156133fd576133fd81858761399f565b6001600160a01b03811615613439576134185f865f80612615565b6001600160a01b0381165f908152600383016020526040902080545f190190555b6001600160a01b03861615613469576001600160a01b0386165f9081526003830160205260409020805460010190555b5f85815260028301602052604080822080546001600160a01b0319166001600160a01b038a811691821790925591518893918516917fddf252ad1be2c89b69c2b068fc378daa952ba7f163c4a11628f55a4df523b3ef91a495945050505050565b5f80516020614c6e8339815191525f6134e28461124a565b5f848152600184016020526040902054909150808214613535576001600160a01b0385165f9081526020848152604080832085845282528083205484845281842081905583526001860190915290208190555b505f92835260018201602090815260408085208590556001600160a01b039095168452918252838320908352905290812055565b5f80516020614cce833981519152545f80516020614c6e833981519152905f906135959060019061465a565b5f8481526003840160205260408120546002850180549394509092849081106135c0576135c061451a565b905f5260205f2001549050808460020183815481106135e1576135e161451a565b5f9182526020808320909101929092558281526003860190915260408082208490558682528120556002840180548061361c5761361c614bca565b600190038181905f5260205f20015f905590555050505050565b5f80516020614c6e8339815191525f60016136508561124a565b61365a919061465a565b6001600160a01b039094165f9081526020838152604080832087845282528083208690559482526001909301909252502055565b6060826136a35761369e82613a03565b611618565b81511580156136ba57506001600160a01b0384163b155b156136e357604051639996b31560e01b81526001600160a01b03851660048201526024016108b2565b5080611618565b5f805f6136f78585613a2c565b6040516001600160601b0319606084811b8216602084015283901b16603482015291935091508690604801604051602081830303815290604052805190602001206040516020016137959291906001600160f81b0319815260609290921b6001600160601b031916600183015260158201527f96e8ac4277198ff8b6f785478aa9a39f403cb768dd02cbee326c3e7da348845f603582015260550190565b60408051601f1981840301815291905280516020909101209695505050505050565b5f805f6137c48585613ab6565b5090505f806137d4888888613b39565b6001600160a01b0316630902f1ac6040518163ffffffff1660e01b8152600401606060405180830381865afa15801561380f573d5f803e3d5ffd5b505050506040513d601f19601f820116820180604052508101906138339190614bf9565b506001600160701b031691506001600160701b03169150826001600160a01b0316876001600160a01b03161461386a57808261386d565b81815b90999098509650505050505050565b5f835f0361389d5760405163098fb56160e01b815260040160405180910390fd5b8215806138a8575081155b156138c65760405163bb55fd2760e01b815260040160405180910390fd5b5f6138d3856103e5613bac565b90505f6138e08285613bac565b90505f6138f9836138f3886103e8613bac565b90613be9565b90506139058183614c4e565b979650505050505050565b60605f61391c83613c0d565b60010190505f816001600160401b0381111561393a5761393a613f29565b6040519080825280601f01601f191660200182016040528015613964576020820181803683370190505b5090508181016020015b5f19016f181899199a1a9b1b9c1cb0b131b232b360811b600a86061a8153600a850494508461396e57509392505050565b6139aa838383613ce4565b610c0e576001600160a01b0383166139d857604051637e27328960e01b8152600481018290526024016108b2565b60405163177e802f60e01b81526001600160a01b0383166004820152602481018290526044016108b2565b805115613a135780518082602001fd5b604051630a12f52160e11b815260040160405180910390fd5b5f80826001600160a01b0316846001600160a01b031603613a605760405163658f3e7f60e11b815260040160405180910390fd5b826001600160a01b0316846001600160a01b031610613a80578284613a83565b83835b90925090506001600160a01b038216613aaf57604051633c5a83ed60e11b815260040160405180910390fd5b9250929050565b5f80826001600160a01b0316846001600160a01b031603613aea57604051630bd969eb60e41b815260040160405180910390fd5b826001600160a01b0316846001600160a01b031610613b0a578284613b0d565b83835b90925090506001600160a01b038216613aaf5760405163d92e233d60e01b815260040160405180910390fd5b60405163e6a4390560e01b81526001600160a01b03838116600483015282811660248301525f919085169063e6a4390590604401602060405180830381865afa158015613b88573d5f803e3d5ffd5b505050506040513d601f19601f82011682018060405250810190611615919061494f565b5f821580613bcc57505081810281838281613bc957613bc9614c3a565b04145b61072c57604051632bcb93b560e11b815260040160405180910390fd5b8181018281101561072c5760405163a259879560e01b815260040160405180910390fd5b5f8072184f03e93ff9f4daa797ed6e38ed64bf6a1f0160401b8310613c4b5772184f03e93ff9f4daa797ed6e38ed64bf6a1f0160401b830492506040015b6d04ee2d6d415b85acef81000000008310613c77576d04ee2d6d415b85acef8100000000830492506020015b662386f26fc100008310613c9557662386f26fc10000830492506010015b6305f5e1008310613cad576305f5e100830492506008015b6127108310613cc157612710830492506004015b60648310613cd3576064830492506002015b600a831061072c5760010192915050565b5f6001600160a01b038316158015906116155750826001600160a01b0316846001600160a01b03161480613d1d5750613d1d84846114cc565b806116155750826001600160a01b0316613d36836115c3565b6001600160a01b031614949350505050565b6001600160e01b03198116811461157f575f80fd5b5f60208284031215613d6d575f80fd5b813561161881613d48565b5f81518084528060208401602086015e5f602082860101526020601f19601f83011685010191505092915050565b602081525f6116186020830184613d78565b5f60208284031215613dc8575f80fd5b5035919050565b6001600160a01b038116811461157f575f80fd5b5f8060408385031215613df4575f80fd5b8235613dff81613dcf565b946020939093013593505050565b5f60208284031215613e1d575f80fd5b813561161881613dcf565b5f805f60608486031215613e3a575f80fd5b8335613e4581613dcf565b92506020840135613e5581613dcf565b929592945050506040919091013590565b5f60208284031215613e76575f80fd5b81356001600160401b03811115613e8b575f80fd5b820160c08185031215611618575f80fd5b5f8083601f840112613eac575f80fd5b5081356001600160401b03811115613ec2575f80fd5b602083019150836020828501011115613aaf575f80fd5b5f805f60408486031215613eeb575f80fd5b8335613ef681613dcf565b925060208401356001600160401b03811115613f10575f80fd5b613f1c86828701613e9c565b9497909650939450505050565b634e487b7160e01b5f52604160045260245ffd5b604051601f8201601f191681016001600160401b0381118282101715613f6557613f65613f29565b604052919050565b5f82601f830112613f7c575f80fd5b8135602083015f806001600160401b03841115613f9b57613f9b613f29565b50601f8301601f1916602001613fb081613f3d565b915050828152858383011115613fc4575f80fd5b828260208301375f92810160200192909252509392505050565b5f8060408385031215613fef575f80fd5b8235613ffa81613dcf565b915060208301356001600160401b03811115614014575f80fd5b61402085828601613f6d565b9150509250929050565b5f805f805f6080868803121561403e575f80fd5b85356001600160401b03811115614053575f80fd5b860160608189031215614064575f80fd5b9450602086013561407481613dcf565b93506040860135925060608601356001600160401b03811115614095575f80fd5b6140a188828901613e9c565b969995985093965092949392505050565b5f805f805f8060c087890312156140c7575f80fd5b86356140d281613dcf565b955060208701356001600160401b038111156140ec575f80fd5b6140f889828a01613f6d565b95505060408701356001600160401b03811115614113575f80fd5b61411f89828a01613f6d565b945050606087013561413081613dcf565b92506080870135915060a087013561414781613dcf565b809150509295509295509295565b5f805f60608486031215614167575f80fd5b83359250602084013561417981613dcf565b9150604084013561418981613dcf565b809150509250925092565b801515811461157f575f80fd5b5f80604083850312156141b2575f80fd5b82356141bd81613dcf565b915060208301356141cd81614194565b809150509250929050565b5f805f80608085870312156141eb575f80fd5b84356141f681613dcf565b9350602085013561420681613dcf565b92506040850135915060608501356001600160401b03811115614227575f80fd5b61423387828801613f6d565b91505092959194509250565b5f6020828403121561424f575f80fd5b81356001600160401b03811115614264575f80fd5b820160808185031215611618575f80fd5b5f8060408385031215614286575f80fd5b823561429181613dcf565b915060208301356141cd81613dcf565b600181811c908216806142b557607f821691505b6020821081036142d357634e487b7160e01b5f52602260045260245ffd5b50919050565b5f808335601e198436030181126142ee575f80fd5b8301803591506001600160401b03821115614307575f80fd5b602001915036819003821315613aaf575f80fd5b5f805f806080858703121561432e575f80fd5b843561433981613dcf565b93506020850135925060408501356001600160401b0381111561435a575f80fd5b61436687828801613f6d565b925050606085013561437781613dcf565b939692955090935050565b5f60208284031215614392575f80fd5b813561161881614194565b608081525f6143af6080830187613d78565b9415156020830152506001600160a01b03929092166040830152606090910152919050565b5f602082840312156143e4575f80fd5b815161161881614194565b601f821115610c0e57805f5260205f20601f840160051c810160208510156144145750805b601f840160051c820191505b81811015612576575f8155600101614420565b6001600160401b0383111561444a5761444a613f29565b61445e8361445883546142a1565b836143ef565b5f601f84116001811461448f575f85156144785750838201355b5f19600387901b1c1916600186901b178355612576565b5f83815260208120601f198716915b828110156144be578685013582556020948501946001909201910161449e565b50868210156144da575f1960f88860031b161c19848701351681555b505060018560011b0183555050505050565b60208152816020820152818360408301375f818301604090810191909152601f909201601f19160101919050565b634e487b7160e01b5f52603260045260245ffd5b5f80835461453b816142a1565b600182168015614552576001811461456757614594565b60ff1983168652811515820286019350614594565b865f5260205f205f5b8381101561458c57815488820152600190910190602001614570565b505081860193505b509195945050505050565b5f805f805f60a086880312156145b3575f80fd5b85356145be81613dcf565b945060208601356145ce81613dcf565b93506040860135925060608601356001600160401b038111156145ef575f80fd5b6145fb88828901613f6d565b925050608086013561460c81613dcf565b809150509295509295909350565b5f806040838503121561462b575f80fd5b825161463681613dcf565b6020939093015192949293505050565b634e487b7160e01b5f52601160045260245ffd5b8181038181111561072c5761072c614646565b60018060a01b038616815284602082015260a060408201525f61469360a0830186613d78565b6060830194909452506001600160a01b03919091166080909101529392505050565b60018060a01b0385168152836020820152608060408201525f6146db6080830185613d78565b905060018060a01b038316606083015295945050505050565b5f8154614700816142a1565b80855260018216801561471a57600181146147365761476a565b60ff1983166020870152602082151560051b870101935061476a565b845f5260205f205f5b838110156147615781546020828a01015260018201915060208101905061473f565b87016020019450505b50505092915050565b60018060a01b03815116825260208101511515602083015260018060a01b0360408201511660408301525f606082015160a060608501526147b760a0850182613d78565b608093840151949093019390935250919050565b60e081525f6147dd60e08301896146f4565b602083018890526001600160a01b038716604084015282810360608401526148058187613d78565b855160808501526020860151151560a0850152905082810360c084015261482c8185614773565b9998505050505050505050565b606081525f61484b6060830186613d78565b6001600160a01b039490941660208301525060400152919050565b5f6001820161487757614877614646565b5060010190565b81516001600160401b0381111561489757614897613f29565b6148ab816148a584546142a1565b846143ef565b6020601f8211600181146148dd575f83156148c65750848201515b5f19600385901b1c1916600184901b178455612576565b5f84815260208120601f198516915b8281101561490c57878501518255602094850194600190920191016148ec565b508482101561492957868401515f19600387901b60f8161c191681555b50505050600190811b01905550565b5f60208284031215614948575f80fd5b5051919050565b5f6020828403121561495f575f80fd5b815161161881613dcf565b8082018082111561072c5761072c614646565b5f60a0820187835286602084015260a0604084015280865180835260c0850191506020880192505f5b818110156149cd5783516001600160a01b03168352602093840193909201916001016149a6565b50506001600160a01b039590951660608401525050608001529392505050565b5f602082840312156149fd575f80fd5b81516001600160401b03811115614a12575f80fd5b8201601f81018413614a22575f80fd5b80516001600160401b03811115614a3b57614a3b613f29565b8060051b614a4b60208201613f3d565b91825260208184018101929081019087841115614a66575f80fd5b6020850194505b8385101561390557845180835260209586019590935090910190614a6d565b60018060a01b038616815284602082015260a060408201525f614ab260a0830186613d78565b60ff949094166060830152506001600160a01b03919091166080909101529392505050565b60c081525f614ae960c08301886146f4565b6001600160a01b03871660208401528281036040840152614b0a8187613d78565b85516060850152602086015115156080850152905082810360a0840152614b318185614773565b98975050505050505050565b6001600160a01b03858116825284166020820152604081018390526080606082018190525f90614b6f90830184613d78565b9695505050505050565b5f60208284031215614b89575f80fd5b815161161881613d48565b5f81518060208401855e5f93019283525090919050565b5f611615614bb98386614b94565b84614b94565b5f6116188284614b94565b634e487b7160e01b5f52603160045260245ffd5b80516001600160701b0381168114614bf4575f80fd5b919050565b5f805f60608486031215614c0b575f80fd5b614c1484614bde565b9250614c2260208501614bde565b9150604084015163ffffffff81168114614189575f80fd5b634e487b7160e01b5f52601260045260245ffd5b5f82614c6857634e487b7160e01b5f52601260045260245ffd5b50049056fe645e039705490088daad89bae25049a34f4a9072d398537b1ab2425f24cbed0080bb2b638cc20bc4d0a60d66940f3ab4a00c1d7b313497ca82fb0b4ab0079300360894a13ba1a3210667c828492db98dca3e2076cc3735a920a3ca505d382bbc645e039705490088daad89bae25049a34f4a9072d398537b1ab2425f24cbed02cd5ed15c6e187e77e9aee88184c21f4f2182ab5827cb3b7e07fbedcd63f03300a2646970667358221220142c433922ee0823b494cb993235f3c7a82ac6dec6b8dc942f009406f7130fef64736f6c634300081a0033","linkReferences":{}},"methodIdentifiers":{"UPGRADE_INTERFACE_VERSION()":"ad3cb1cc","approve(address,uint256)":"095ea7b3","balanceOf(address)":"70a08231","burn(uint256)":"42966c68","connected(address)":"0e76754b","gasLimitAmount()":"d0f23970","gateway()":"116191b6","getApproved(uint256)":"081812fc","initialize(address,string,string,address,uint256,address)":"650b4f8b","isApprovedForAll(address,address)":"e985e9c5","isUniversal()":"305725e5","name()":"06fdde03","onAbort((bytes,address,uint256,bool,uint256,bytes))":"2d4cfb7e","onCall((bytes,address,uint256),address,uint256,bytes)":"5bcfd616","onRevert((address,address,uint256,bytes))":"c9028a36","owner()":"8da5cb5b","ownerOf(uint256)":"6352211e","pause()":"8456cb59","paused()":"5c975abb","proxiableUUID()":"52d1902d","renounceOwnership()":"715018a6","safeMint(address,string)":"d204c45e","safeTransferFrom(address,address,uint256)":"42842e0e","safeTransferFrom(address,address,uint256,bytes)":"b88d4fde","setApprovalForAll(address,bool)":"a22cb465","setConnected(address,bytes)":"3332dfa9","setGasLimit(uint256)":"ee7d72b4","setGateway(address)":"90646b4a","supportsInterface(bytes4)":"01ffc9a7","symbol()":"95d89b41","tokenByIndex(uint256)":"4f6ccce7","tokenOfOwnerByIndex(address,uint256)":"2f745c59","tokenURI(uint256)":"c87b56dd","totalSupply()":"18160ddd","transferCrossChain(uint256,address,address)":"9b7a4aa4","transferFrom(address,address,uint256)":"23b872dd","transferOwnership(address)":"f2fde38b","uniswapRouter()":"735de9f7","unpause()":"3f4ba83a","upgradeToAndCall(address,bytes)":"4f1ef286"},"id":22}