{"abi":[{"type":"constructor","inputs":[],"stateMutability":"nonpayable"},{"type":"receive","stateMutability":"payable"},{"type":"function","name":"DEFAULT_ADMIN_ROLE","inputs":[],"outputs":[{"name":"","type":"bytes32","internalType":"bytes32"}],"stateMutability":"view"},{"type":"function","name":"MAX_MESSAGE_SIZE","inputs":[],"outputs":[{"name":"","type":"uint256","internalType":"uint256"}],"stateMutability":"view"},{"type":"function","name":"PAUSER_ROLE","inputs":[],"outputs":[{"name":"","type":"bytes32","internalType":"bytes32"}],"stateMutability":"view"},{"type":"function","name":"PROTOCOL_ADDRESS","inputs":[],"outputs":[{"name":"","type":"address","internalType":"address"}],"stateMutability":"view"},{"type":"function","name":"UPGRADE_INTERFACE_VERSION","inputs":[],"outputs":[{"name":"","type":"string","internalType":"string"}],"stateMutability":"view"},{"type":"function","name":"call","inputs":[{"name":"receiver","type":"bytes","internalType":"bytes"},{"name":"zrc20","type":"address","internalType":"address"},{"name":"message","type":"bytes","internalType":"bytes"},{"name":"callOptions","type":"tuple","internalType":"struct CallOptions","components":[{"name":"gasLimit","type":"uint256","internalType":"uint256"},{"name":"isArbitraryCall","type":"bool","internalType":"bool"}]},{"name":"revertOptions","type":"tuple","internalType":"struct RevertOptions","components":[{"name":"revertAddress","type":"address","internalType":"address"},{"name":"callOnRevert","type":"bool","internalType":"bool"},{"name":"abortAddress","type":"address","internalType":"address"},{"name":"revertMessage","type":"bytes","internalType":"bytes"},{"name":"onRevertGasLimit","type":"uint256","internalType":"uint256"}]}],"outputs":[],"stateMutability":"nonpayable"},{"type":"function","name":"deposit","inputs":[{"name":"zrc20","type":"address","internalType":"address"},{"name":"amount","type":"uint256","internalType":"uint256"},{"name":"target","type":"address","internalType":"address"}],"outputs":[],"stateMutability":"nonpayable"},{"type":"function","name":"depositAndCall","inputs":[{"name":"context","type":"tuple","internalType":"struct MessageContext","components":[{"name":"origin","type":"bytes","internalType":"bytes"},{"name":"sender","type":"address","internalType":"address"},{"name":"chainID","type":"uint256","internalType":"uint256"}]},{"name":"amount","type":"uint256","internalType":"uint256"},{"name":"target","type":"address","internalType":"address"},{"name":"message","type":"bytes","internalType":"bytes"}],"outputs":[],"stateMutability":"nonpayable"},{"type":"function","name":"depositAndCall","inputs":[{"name":"context","type":"tuple","internalType":"struct MessageContext","components":[{"name":"origin","type":"bytes","internalType":"bytes"},{"name":"sender","type":"address","internalType":"address"},{"name":"chainID","type":"uint256","internalType":"uint256"}]},{"name":"zrc20","type":"address","internalType":"address"},{"name":"amount","type":"uint256","internalType":"uint256"},{"name":"target","type":"address","internalType":"address"},{"name":"message","type":"bytes","internalType":"bytes"}],"outputs":[],"stateMutability":"nonpayable"},{"type":"function","name":"depositAndRevert","inputs":[{"name":"zrc20","type":"address","internalType":"address"},{"name":"amount","type":"uint256","internalType":"uint256"},{"name":"target","type":"address","internalType":"address"},{"name":"revertContext","type":"tuple","internalType":"struct RevertContext","components":[{"name":"sender","type":"address","internalType":"address"},{"name":"asset","type":"address","internalType":"address"},{"name":"amount","type":"uint256","internalType":"uint256"},{"name":"revertMessage","type":"bytes","internalType":"bytes"}]}],"outputs":[],"stateMutability":"nonpayable"},{"type":"function","name":"execute","inputs":[{"name":"context","type":"tuple","internalType":"struct MessageContext","components":[{"name":"origin","type":"bytes","internalType":"bytes"},{"name":"sender","type":"address","internalType":"address"},{"name":"chainID","type":"uint256","internalType":"uint256"}]},{"name":"zrc20","type":"address","internalType":"address"},{"name":"amount","type":"uint256","internalType":"uint256"},{"name":"target","type":"address","internalType":"address"},{"name":"message","type":"bytes","internalType":"bytes"}],"outputs":[],"stateMutability":"nonpayable"},{"type":"function","name":"executeAbort","inputs":[{"name":"target","type":"address","internalType":"address"},{"name":"abortContext","type":"tuple","internalType":"struct AbortContext","components":[{"name":"sender","type":"bytes","internalType":"bytes"},{"name":"asset","type":"address","internalType":"address"},{"name":"amount","type":"uint256","internalType":"uint256"},{"name":"outgoing","type":"bool","internalType":"bool"},{"name":"chainID","type":"uint256","internalType":"uint256"},{"name":"revertMessage","type":"bytes","internalType":"bytes"}]}],"outputs":[],"stateMutability":"nonpayable"},{"type":"function","name":"executeRevert","inputs":[{"name":"target","type":"address","internalType":"address"},{"name":"revertContext","type":"tuple","internalType":"struct RevertContext","components":[{"name":"sender","type":"address","internalType":"address"},{"name":"asset","type":"address","internalType":"address"},{"name":"amount","type":"uint256","internalType":"uint256"},{"name":"revertMessage","type":"bytes","internalType":"bytes"}]}],"outputs":[],"stateMutability":"nonpayable"},{"type":"function","name":"getRoleAdmin","inputs":[{"name":"role","type":"bytes32","internalType":"bytes32"}],"outputs":[{"name":"","type":"bytes32","internalType":"bytes32"}],"stateMutability":"view"},{"type":"function","name":"grantRole","inputs":[{"name":"role","type":"bytes32","internalType":"bytes32"},{"name":"account","type":"address","internalType":"address"}],"outputs":[],"stateMutability":"nonpayable"},{"type":"function","name":"hasRole","inputs":[{"name":"role","type":"bytes32","internalType":"bytes32"},{"name":"account","type":"address","internalType":"address"}],"outputs":[{"name":"","type":"bool","internalType":"bool"}],"stateMutability":"view"},{"type":"function","name":"initialize","inputs":[{"name":"zetaToken_","type":"address","internalType":"address"},{"name":"admin_","type":"address","internalType":"address"}],"outputs":[],"stateMutability":"nonpayable"},{"type":"function","name":"pause","inputs":[],"outputs":[],"stateMutability":"nonpayable"},{"type":"function","name":"paused","inputs":[],"outputs":[{"name":"","type":"bool","internalType":"bool"}],"stateMutability":"view"},{"type":"function","name":"proxiableUUID","inputs":[],"outputs":[{"name":"","type":"bytes32","internalType":"bytes32"}],"stateMutability":"view"},{"type":"function","name":"renounceRole","inputs":[{"name":"role","type":"bytes32","internalType":"bytes32"},{"name":"callerConfirmation","type":"address","internalType":"address"}],"outputs":[],"stateMutability":"nonpayable"},{"type":"function","name":"revokeRole","inputs":[{"name":"role","type":"bytes32","internalType":"bytes32"},{"name":"account","type":"address","internalType":"address"}],"outputs":[],"stateMutability":"nonpayable"},{"type":"function","name":"supportsInterface","inputs":[{"name":"interfaceId","type":"bytes4","internalType":"bytes4"}],"outputs":[{"name":"","type":"bool","internalType":"bool"}],"stateMutability":"view"},{"type":"function","name":"unpause","inputs":[],"outputs":[],"stateMutability":"nonpayable"},{"type":"function","name":"upgradeToAndCall","inputs":[{"name":"newImplementation","type":"address","internalType":"address"},{"name":"data","type":"bytes","internalType":"bytes"}],"outputs":[],"stateMutability":"payable"},{"type":"function","name":"withdraw","inputs":[{"name":"receiver","type":"bytes","internalType":"bytes"},{"name":"amount","type":"uint256","internalType":"uint256"},{"name":"zrc20","type":"address","internalType":"address"},{"name":"revertOptions","type":"tuple","internalType":"struct RevertOptions","components":[{"name":"revertAddress","type":"address","internalType":"address"},{"name":"callOnRevert","type":"bool","internalType":"bool"},{"name":"abortAddress","type":"address","internalType":"address"},{"name":"revertMessage","type":"bytes","internalType":"bytes"},{"name":"onRevertGasLimit","type":"uint256","internalType":"uint256"}]}],"outputs":[],"stateMutability":"nonpayable"},{"type":"function","name":"withdraw","inputs":[{"name":"","type":"bytes","internalType":"bytes"},{"name":"","type":"uint256","internalType":"uint256"},{"name":"","type":"uint256","internalType":"uint256"},{"name":"","type":"tuple","internalType":"struct RevertOptions","components":[{"name":"revertAddress","type":"address","internalType":"address"},{"name":"callOnRevert","type":"bool","internalType":"bool"},{"name":"abortAddress","type":"address","internalType":"address"},{"name":"revertMessage","type":"bytes","internalType":"bytes"},{"name":"onRevertGasLimit","type":"uint256","internalType":"uint256"}]}],"outputs":[],"stateMutability":"view"},{"type":"function","name":"withdrawAndCall","inputs":[{"name":"","type":"bytes","internalType":"bytes"},{"name":"","type":"uint256","internalType":"uint256"},{"name":"","type":"uint256","internalType":"uint256"},{"name":"","type":"bytes","internalType":"bytes"},{"name":"","type":"tuple","internalType":"struct CallOptions","components":[{"name":"gasLimit","type":"uint256","internalType":"uint256"},{"name":"isArbitraryCall","type":"bool","internalType":"bool"}]},{"name":"","type":"tuple","internalType":"struct RevertOptions","components":[{"name":"revertAddress","type":"address","internalType":"address"},{"name":"callOnRevert","type":"bool","internalType":"bool"},{"name":"abortAddress","type":"address","internalType":"address"},{"name":"revertMessage","type":"bytes","internalType":"bytes"},{"name":"onRevertGasLimit","type":"uint256","internalType":"uint256"}]}],"outputs":[],"stateMutability":"view"},{"type":"function","name":"withdrawAndCall","inputs":[{"name":"receiver","type":"bytes","internalType":"bytes"},{"name":"amount","type":"uint256","internalType":"uint256"},{"name":"zrc20","type":"address","internalType":"address"},{"name":"message","type":"bytes","internalType":"bytes"},{"name":"callOptions","type":"tuple","internalType":"struct CallOptions","components":[{"name":"gasLimit","type":"uint256","internalType":"uint256"},{"name":"isArbitraryCall","type":"bool","internalType":"bool"}]},{"name":"revertOptions","type":"tuple","internalType":"struct RevertOptions","components":[{"name":"revertAddress","type":"address","internalType":"address"},{"name":"callOnRevert","type":"bool","internalType":"bool"},{"name":"abortAddress","type":"address","internalType":"address"},{"name":"revertMessage","type":"bytes","internalType":"bytes"},{"name":"onRevertGasLimit","type":"uint256","internalType":"uint256"}]}],"outputs":[],"stateMutability":"nonpayable"},{"type":"function","name":"zetaToken","inputs":[],"outputs":[{"name":"","type":"address","internalType":"address"}],"stateMutability":"view"},{"type":"event","name":"Called","inputs":[{"name":"sender","type":"address","indexed":true,"internalType":"address"},{"name":"zrc20","type":"address","indexed":true,"internalType":"address"},{"name":"receiver","type":"bytes","indexed":false,"internalType":"bytes"},{"name":"message","type":"bytes","indexed":false,"internalType":"bytes"},{"name":"callOptions","type":"tuple","indexed":false,"internalType":"struct CallOptions","components":[{"name":"gasLimit","type":"uint256","internalType":"uint256"},{"name":"isArbitraryCall","type":"bool","internalType":"bool"}]},{"name":"revertOptions","type":"tuple","indexed":false,"internalType":"struct RevertOptions","components":[{"name":"revertAddress","type":"address","internalType":"address"},{"name":"callOnRevert","type":"bool","internalType":"bool"},{"name":"abortAddress","type":"address","internalType":"address"},{"name":"revertMessage","type":"bytes","internalType":"bytes"},{"name":"onRevertGasLimit","type":"uint256","internalType":"uint256"}]}],"anonymous":false},{"type":"event","name":"Initialized","inputs":[{"name":"version","type":"uint64","indexed":false,"internalType":"uint64"}],"anonymous":false},{"type":"event","name":"Paused","inputs":[{"name":"account","type":"address","indexed":false,"internalType":"address"}],"anonymous":false},{"type":"event","name":"RoleAdminChanged","inputs":[{"name":"role","type":"bytes32","indexed":true,"internalType":"bytes32"},{"name":"previousAdminRole","type":"bytes32","indexed":true,"internalType":"bytes32"},{"name":"newAdminRole","type":"bytes32","indexed":true,"internalType":"bytes32"}],"anonymous":false},{"type":"event","name":"RoleGranted","inputs":[{"name":"role","type":"bytes32","indexed":true,"internalType":"bytes32"},{"name":"account","type":"address","indexed":true,"internalType":"address"},{"name":"sender","type":"address","indexed":true,"internalType":"address"}],"anonymous":false},{"type":"event","name":"RoleRevoked","inputs":[{"name":"role","type":"bytes32","indexed":true,"internalType":"bytes32"},{"name":"account","type":"address","indexed":true,"internalType":"address"},{"name":"sender","type":"address","indexed":true,"internalType":"address"}],"anonymous":false},{"type":"event","name":"Unpaused","inputs":[{"name":"account","type":"address","indexed":false,"internalType":"address"}],"anonymous":false},{"type":"event","name":"Upgraded","inputs":[{"name":"implementation","type":"address","indexed":true,"internalType":"address"}],"anonymous":false},{"type":"event","name":"Withdrawn","inputs":[{"name":"sender","type":"address","indexed":true,"internalType":"address"},{"name":"chainId","type":"uint256","indexed":true,"internalType":"uint256"},{"name":"receiver","type":"bytes","indexed":false,"internalType":"bytes"},{"name":"zrc20","type":"address","indexed":false,"internalType":"address"},{"name":"value","type":"uint256","indexed":false,"internalType":"uint256"},{"name":"gasfee","type":"uint256","indexed":false,"internalType":"uint256"},{"name":"protocolFlatFee","type":"uint256","indexed":false,"internalType":"uint256"},{"name":"message","type":"bytes","indexed":false,"internalType":"bytes"},{"name":"callOptions","type":"tuple","indexed":false,"internalType":"struct CallOptions","components":[{"name":"gasLimit","type":"uint256","internalType":"uint256"},{"name":"isArbitraryCall","type":"bool","internalType":"bool"}]},{"name":"revertOptions","type":"tuple","indexed":false,"internalType":"struct RevertOptions","components":[{"name":"revertAddress","type":"address","internalType":"address"},{"name":"callOnRevert","type":"bool","internalType":"bool"},{"name":"abortAddress","type":"address","internalType":"address"},{"name":"revertMessage","type":"bytes","internalType":"bytes"},{"name":"onRevertGasLimit","type":"uint256","internalType":"uint256"}]}],"anonymous":false},{"type":"event","name":"WithdrawnAndCalled","inputs":[{"name":"sender","type":"address","indexed":true,"internalType":"address"},{"name":"chainId","type":"uint256","indexed":true,"internalType":"uint256"},{"name":"receiver","type":"bytes","indexed":false,"internalType":"bytes"},{"name":"zrc20","type":"address","indexed":false,"internalType":"address"},{"name":"value","type":"uint256","indexed":false,"internalType":"uint256"},{"name":"gasfee","type":"uint256","indexed":false,"internalType":"uint256"},{"name":"protocolFlatFee","type":"uint256","indexed":false,"internalType":"uint256"},{"name":"message","type":"bytes","indexed":false,"internalType":"bytes"},{"name":"callOptions","type":"tuple","indexed":false,"internalType":"struct CallOptions","components":[{"name":"gasLimit","type":"uint256","internalType":"uint256"},{"name":"isArbitraryCall","type":"bool","internalType":"bool"}]},{"name":"revertOptions","type":"tuple","indexed":false,"internalType":"struct RevertOptions","components":[{"name":"revertAddress","type":"address","internalType":"address"},{"name":"callOnRevert","type":"bool","internalType":"bool"},{"name":"abortAddress","type":"address","internalType":"address"},{"name":"revertMessage","type":"bytes","internalType":"bytes"},{"name":"onRevertGasLimit","type":"uint256","internalType":"uint256"}]}],"anonymous":false},{"type":"error","name":"AccessControlBadConfirmation","inputs":[]},{"type":"error","name":"AccessControlUnauthorizedAccount","inputs":[{"name":"account","type":"address","internalType":"address"},{"name":"neededRole","type":"bytes32","internalType":"bytes32"}]},{"type":"error","name":"AddressEmptyCode","inputs":[{"name":"target","type":"address","internalType":"address"}]},{"type":"error","name":"CallOnRevertNotSupported","inputs":[]},{"type":"error","name":"CallerIsNotProtocol","inputs":[]},{"type":"error","name":"ERC1967InvalidImplementation","inputs":[{"name":"implementation","type":"address","internalType":"address"}]},{"type":"error","name":"ERC1967NonPayable","inputs":[]},{"type":"error","name":"EnforcedPause","inputs":[]},{"type":"error","name":"ExpectedPause","inputs":[]},{"type":"error","name":"FailedInnerCall","inputs":[]},{"type":"error","name":"FailedZetaSent","inputs":[]},{"type":"error","name":"GasFeeTransferFailed","inputs":[]},{"type":"error","name":"InsufficientGasLimit","inputs":[]},{"type":"error","name":"InsufficientZRC20Amount","inputs":[]},{"type":"error","name":"InsufficientZetaAmount","inputs":[]},{"type":"error","name":"InvalidInitialization","inputs":[]},{"type":"error","name":"InvalidTarget","inputs":[]},{"type":"error","name":"MessageSizeExceeded","inputs":[]},{"type":"error","name":"NotInitializing","inputs":[]},{"type":"error","name":"OnlyWZETAOrProtocol","inputs":[]},{"type":"error","name":"ReentrancyGuardReentrantCall","inputs":[]},{"type":"error","name":"UUPSUnauthorizedCallContext","inputs":[]},{"type":"error","name":"UUPSUnsupportedProxiableUUID","inputs":[{"name":"slot","type":"bytes32","internalType":"bytes32"}]},{"type":"error","name":"WithdrawalFailed","inputs":[]},{"type":"error","name":"ZETANotSupported","inputs":[]},{"type":"error","name":"ZRC20BurnFailed","inputs":[]},{"type":"error","name":"ZRC20DepositFailed","inputs":[]},{"type":"error","name":"ZRC20TransferFailed","inputs":[]},{"type":"error","name":"ZeroAddress","inputs":[]}],"bytecode":{"object":"0x60a060405230608052348015610013575f80fd5b5061001c610021565b6100d3565b7ff0c57e16840df040f15088dc2f81fe391c3923bec73e23a9662efc9c229c6a00805468010000000000000000900460ff16156100715760405163f92ee8a960e01b815260040160405180910390fd5b80546001600160401b03908116146100d05780546001600160401b0319166001600160401b0390811782556040519081527fc7f505b2f371ae2175ee4913f4499e1f2633a7b5936321eed1cdaeb6115181d29060200160405180910390a15b50565b608051612faf6100f95f395f8181611a1f01528181611a480152611b8e0152612faf5ff3fe6080604052600436106101c8575f3560e01c80635c975abb116100f25780639d4ba46511610092578063c39aca3711610062578063c39aca371461055b578063d547741f1461057a578063e63ab1e914610599578063f45346dc146105b9575f80fd5b80639d4ba465146104cd578063a217fddf146104ec578063ad3cb1cc146104ff578063bcf7f32b1461053c575f80fd5b80638456cb59116100cd5780638456cb591461046b57806391d148541461047f57806397a1cef11461049e57806397d340f5146104b8575f80fd5b80635c975abb1461040a5780637b15118b1461042d5780637c0dcb5f1461044c575f80fd5b80632722feee116101685780633f4ba83a116101385780633f4ba83a146103b0578063485cc955146103c45780634f1ef286146103e357806352d1902d146103f6575f80fd5b80632722feee146103335780632810ae63146103535780632f2ff15d1461037257806336568abe14610391575f80fd5b80632095dedb116101a35780632095dedb1461029257806321501a95146102b157806321e093b1146102d0578063248a9ca314610306575f80fd5b806301ffc9a71461022057806306cb898314610254578063184b079314610273575f80fd5b3661021c576101d56105d8565b5f546001600160a01b031633148015906101fc5750335f80516020612eba83398151915214155b1561021a5760405163b3af013760e01b815260040160405180910390fd5b005b5f80fd5b34801561022b575f80fd5b5061023f61023a366004612151565b61060a565b60405190151581526020015b60405180910390f35b34801561025f575f80fd5b5061021a61026e366004612293565b610640565b34801561027e575f80fd5b5061021a61028d366004612357565b6106cf565b34801561029d575f80fd5b5061021a6102ac3660046123a3565b6107a6565b3480156102bc575f80fd5b5061021a6102cb366004612405565b610836565b3480156102db575f80fd5b505f546102ee906001600160a01b031681565b6040516001600160a01b03909116815260200161024b565b348015610311575f80fd5b50610325610320366004612489565b61098f565b60405190815260200161024b565b34801561033e575f80fd5b506102ee5f80516020612eba83398151915281565b34801561035e575f80fd5b5061021a61036d3660046124a0565b6109af565b34801561037d575f80fd5b5061021a61038c366004612555565b6109d0565b34801561039c575f80fd5b5061021a6103ab366004612555565b6109f2565b3480156103bb575f80fd5b5061021a610a2a565b3480156103cf575f80fd5b5061021a6103de366004612578565b610a4c565b61021a6103f13660046125a4565b610be8565b348015610401575f80fd5b50610325610c03565b348015610415575f80fd5b505f80516020612f3a8339815191525460ff1661023f565b348015610438575f80fd5b5061021a6104473660046125e6565b610c1e565b348015610457575f80fd5b5061021a61046636600461264f565b610d8c565b348015610476575f80fd5b5061021a610f3b565b34801561048a575f80fd5b5061023f610499366004612555565b610f5a565b3480156104a9575f80fd5b5061021a61036d3660046126cd565b3480156104c3575f80fd5b5061032561040081565b3480156104d8575f80fd5b5061021a6104e736600461272a565b610f90565b3480156104f7575f80fd5b506103255f81565b34801561050a575f80fd5b5061052f604051806040016040528060058152602001640352e302e360dc1b81525081565b60405161024b91906127b3565b348015610547575f80fd5b5061021a6105563660046127c5565b61116e565b348015610566575f80fd5b5061021a6105753660046127c5565b61125d565b348015610585575f80fd5b5061021a610594366004612555565b6113cc565b3480156105a4575f80fd5b506103255f80516020612efa83398151915281565b3480156105c4575f80fd5b5061021a6105d336600461285b565b6113e8565b5f80516020612f3a8339815191525460ff16156106085760405163d93c066560e01b815260040160405180910390fd5b565b5f6001600160e01b03198216637965db0b60e01b148061063a57506301ffc9a760e01b6001600160e01b03198316145b92915050565b6106486105d8565b81355f03610669576040516360ee124760e01b815260040160405180910390fd5b610400610679606083018361289a565b6106849150856128dc565b11156106a357604051639507fb3d60e01b815260040160405180910390fd5b6106c7868686866106b936889003880188612908565b6106c28761295d565b61154f565b505050505050565b6106d76116c7565b335f80516020612eba8339815191521461070457604051632160203f60e11b815260040160405180910390fd5b61070c6105d8565b6001600160a01b0382166107335760405163d92e233d60e01b815260040160405180910390fd5b604051636481451b60e11b81526001600160a01b0383169063c9028a369061075f908490600401612a69565b5f604051808303815f87803b158015610776575f80fd5b505af1158015610788573d5f803e3d5ffd5b505050506107a260015f80516020612f5a83398151915255565b5050565b6107ae6116c7565b335f80516020612eba833981519152146107db57604051632160203f60e11b815260040160405180910390fd5b6107e36105d8565b6001600160a01b03821661080a5760405163d92e233d60e01b815260040160405180910390fd5b6040516316a67dbf60e11b81526001600160a01b03831690632d4cfb7e9061075f908490600401612ad5565b61083e6116c7565b335f80516020612eba8339815191521461086b57604051632160203f60e11b815260040160405180910390fd5b6108736105d8565b6001600160a01b03831661089a5760405163d92e233d60e01b815260040160405180910390fd5b835f036108ba576040516319c08f4960e01b815260040160405180910390fd5b6001600160a01b0383165f80516020612eba83398151915214806108e657506001600160a01b03831630145b156109045760405163416aebb560e11b815260040160405180910390fd5b61090e8484611711565b5f54604051632de7eb0b60e11b81526001600160a01b0380861692635bcfd61692610945928a921690899088908890600401612b7a565b5f604051808303815f87803b15801561095c575f80fd5b505af115801561096e573d5f803e3d5ffd5b5050505061098860015f80516020612f5a83398151915255565b5050505050565b5f9081525f80516020612f1a833981519152602052604090206001015490565b6109b76105d8565b60405163e4dd681d60e01b815260040160405180910390fd5b6109d98261098f565b6109e281611869565b6109ec8383611873565b50505050565b6001600160a01b0381163314610a1b5760405163334bd91960e11b815260040160405180910390fd5b610a258282611914565b505050565b5f80516020612efa833981519152610a4181611869565b610a4961198d565b50565b7ff0c57e16840df040f15088dc2f81fe391c3923bec73e23a9662efc9c229c6a008054600160401b810460ff1615906001600160401b03165f81158015610a905750825b90505f826001600160401b03166001148015610aab5750303b155b905081158015610ab9575080155b15610ad75760405163f92ee8a960e01b815260040160405180910390fd5b845467ffffffffffffffff191660011785558315610b0157845460ff60401b1916600160401b1785555b6001600160a01b0387161580610b1e57506001600160a01b038616155b15610b3c5760405163d92e233d60e01b815260040160405180910390fd5b610b446119ec565b610b4c6119ec565b610b546119f4565b610b5c611a04565b610b665f87611873565b50610b7e5f80516020612efa83398151915287611873565b505f80546001600160a01b0319166001600160a01b0389161790558315610bdf57845460ff60401b19168555604051600181527fc7f505b2f371ae2175ee4913f4499e1f2633a7b5936321eed1cdaeb6115181d29060200160405180910390a15b50505050505050565b610bf0611a14565b610bf982611ab8565b6107a28282611ac2565b5f610c0c611b83565b505f80516020612eda83398151915290565b610c266105d8565b86515f03610c475760405163d92e233d60e01b815260040160405180910390fd5b855f03610c6757604051635d67094f60e01b815260040160405180910390fd5b81355f03610c88576040516360ee124760e01b815260040160405180910390fd5b610400610c98606083018361289a565b610ca39150856128dc565b1115610cc257604051639507fb3d60e01b815260040160405180910390fd5b5f610ccf87878535611bcc565b90505f336001600160a01b03167fd90f94752d2b12f364f4a2237ebe1aff24ba6127585376bf4935f6a7be17dd2a8a898b868c6001600160a01b0316634d8943bb6040518163ffffffff1660e01b8152600401602060405180830381865afa158015610d3d573d5f803e3d5ffd5b505050506040513d601f19601f82011682018060405250810190610d619190612bf6565b8c8c8c8c604051610d7a99989796959493929190612c8d565b60405180910390a35050505050505050565b610d946105d8565b83515f03610db55760405163d92e233d60e01b815260040160405180910390fd5b825f03610dd557604051635d67094f60e01b815260040160405180910390fd5b610400610de5606083018361289a565b90501115610e0657604051639507fb3d60e01b815260040160405180910390fd5b5f610e118484611df7565b90505f336001600160a01b03167f07bf64173efd8f3dfb9e4eb3834bab9d5b85a3d89a1c6425797329de0668502c87868886896001600160a01b0316634d8943bb6040518163ffffffff1660e01b8152600401602060405180830381865afa158015610e7f573d5f803e3d5ffd5b505050506040513d601f19601f82011682018060405250810190610ea39190612bf6565b60405180604001604052808c6001600160a01b031663091d27886040518163ffffffff1660e01b8152600401602060405180830381865afa158015610eea573d5f803e3d5ffd5b505050506040513d601f19601f82011682018060405250810190610f0e9190612bf6565b81526001602090910152604051610f2c969594939291908c90612d19565b60405180910390a35050505050565b5f80516020612efa833981519152610f5281611869565b610a49611e62565b5f9182525f80516020612f1a833981519152602090815260408084206001600160a01b0393909316845291905290205460ff1690565b610f986116c7565b335f80516020612eba83398151915214610fc557604051632160203f60e11b815260040160405180910390fd5b610fcd6105d8565b6001600160a01b0384161580610fea57506001600160a01b038216155b156110085760405163d92e233d60e01b815260040160405180910390fd5b825f0361102857604051635d67094f60e01b815260040160405180910390fd5b6001600160a01b0382165f80516020612eba833981519152148061105457506001600160a01b03821630145b156110725760405163416aebb560e11b815260040160405180910390fd5b6040516311f9fbc960e21b81526001600160a01b038381166004830152602482018590528516906347e7ef24906044016020604051808303815f875af11580156110be573d5f803e3d5ffd5b505050506040513d601f19601f820116820180604052508101906110e29190612d98565b6110ff576040516347d19fab60e01b815260040160405180910390fd5b604051636481451b60e11b81526001600160a01b0383169063c9028a369061112b908490600401612a69565b5f604051808303815f87803b158015611142575f80fd5b505af1158015611154573d5f803e3d5ffd5b505050506109ec60015f80516020612f5a83398151915255565b6111766116c7565b335f80516020612eba833981519152146111a357604051632160203f60e11b815260040160405180910390fd5b6111ab6105d8565b6001600160a01b03851615806111c857506001600160a01b038316155b156111e65760405163d92e233d60e01b815260040160405180910390fd5b604051632de7eb0b60e11b81526001600160a01b03841690635bcfd6169061121a9089908990899088908890600401612b7a565b5f604051808303815f87803b158015611231575f80fd5b505af1158015611243573d5f803e3d5ffd5b505050506106c760015f80516020612f5a83398151915255565b6112656116c7565b335f80516020612eba8339815191521461129257604051632160203f60e11b815260040160405180910390fd5b61129a6105d8565b6001600160a01b03851615806112b757506001600160a01b038316155b156112d55760405163d92e233d60e01b815260040160405180910390fd5b835f036112f557604051635d67094f60e01b815260040160405180910390fd5b6001600160a01b0383165f80516020612eba833981519152148061132157506001600160a01b03831630145b1561133f5760405163416aebb560e11b815260040160405180910390fd5b6040516311f9fbc960e21b81526001600160a01b038481166004830152602482018690528616906347e7ef24906044016020604051808303815f875af115801561138b573d5f803e3d5ffd5b505050506040513d601f19601f820116820180604052508101906113af9190612d98565b6111e6576040516347d19fab60e01b815260040160405180910390fd5b6113d58261098f565b6113de81611869565b6109ec8383611914565b335f80516020612eba8339815191521461141557604051632160203f60e11b815260040160405180910390fd5b61141d6105d8565b6001600160a01b038316158061143a57506001600160a01b038116155b156114585760405163d92e233d60e01b815260040160405180910390fd5b815f0361147857604051635d67094f60e01b815260040160405180910390fd5b6001600160a01b0381165f80516020612eba83398151915214806114a457506001600160a01b03811630145b156114c25760405163416aebb560e11b815260040160405180910390fd5b6040516311f9fbc960e21b81526001600160a01b038281166004830152602482018490528416906347e7ef24906044016020604051808303815f875af115801561150e573d5f803e3d5ffd5b505050506040513d601f19601f820116820180604052508101906115329190612d98565b610a25576040516347d19fab60e01b815260040160405180910390fd5b85515f036115705760405163d92e233d60e01b815260040160405180910390fd5b815160405163fc5fecd560e01b815260048101919091525f9081906001600160a01b0388169063fc5fecd5906024016040805180830381865afa1580156115b9573d5f803e3d5ffd5b505050506040513d601f19601f820116820180604052508101906115dd9190612db3565b6040516323b872dd60e01b815291935091506001600160a01b038316906323b872dd9061161f9033905f80516020612eba833981519152908690600401612ddf565b6020604051808303815f875af115801561163b573d5f803e3d5ffd5b505050506040513d601f19601f8201168201806040525081019061165f9190612d98565b61167c5760405163053e6b6b60e11b815260040160405180910390fd5b866001600160a01b0316336001600160a01b03167f306ee13f48319a123b222c69908e44dcf91abffc20cacc502e3cf5a4ff23e0e48a89898989604051610d7a959493929190612e03565b5f80516020612f5a8339815191528054600119016116f857604051633ee5aeb560e01b815260040160405180910390fd5b60029055565b60015f80516020612f5a83398151915255565b5f546040516323b872dd60e01b81526001600160a01b03909116906323b872dd9061174490339030908790600401612ddf565b6020604051808303815f875af1158015611760573d5f803e3d5ffd5b505050506040513d601f19601f820116820180604052508101906117849190612d98565b6117a15760405163c7ffc47b60e01b815260040160405180910390fd5b5f54604051632e1a7d4d60e01b8152600481018490526001600160a01b0390911690632e1a7d4d906024015f604051808303815f87803b1580156117e3575f80fd5b505af11580156117f5573d5f803e3d5ffd5b505050505f816001600160a01b0316836040515f6040518083038185875af1925050503d805f8114611842576040519150601f19603f3d011682016040523d82523d5f602084013e611847565b606091505b5050905080610a255760405163c7ffc47b60e01b815260040160405180910390fd5b610a498133611eaa565b5f5f80516020612f1a83398151915261188c8484610f5a565b61190b575f848152602082815260408083206001600160a01b03871684529091529020805460ff191660011790556118c13390565b6001600160a01b0316836001600160a01b0316857f2f8788117e7eff1d82e926ec794901d17c78024a50270940304540a733656f0d60405160405180910390a4600191505061063a565b5f91505061063a565b5f5f80516020612f1a83398151915261192d8484610f5a565b1561190b575f848152602082815260408083206001600160a01b0387168085529252808320805460ff1916905551339287917ff6391f5c32d9c69d2a47ea670b442974b53935d1edc7fd64eb21e047a839171b9190a4600191505061063a565b611995611ee3565b5f80516020612f3a833981519152805460ff191681557f5db9ee0a495bf2e6ff9c91a7834c1ba4fdd244a5e8aa4e537bd38aeae4b073aa335b6040516001600160a01b03909116815260200160405180910390a150565b610608611f12565b6119fc611f12565b610608611f5b565b611a0c611f12565b610608611f7b565b306001600160a01b037f0000000000000000000000000000000000000000000000000000000000000000161480611a9a57507f00000000000000000000000000000000000000000000000000000000000000006001600160a01b0316611a8e5f80516020612eda833981519152546001600160a01b031690565b6001600160a01b031614155b156106085760405163703e46dd60e11b815260040160405180910390fd5b5f6107a281611869565b816001600160a01b03166352d1902d6040518163ffffffff1660e01b8152600401602060405180830381865afa925050508015611b1c575060408051601f3d908101601f19168201909252611b1991810190612bf6565b60015b611b4957604051634c9c8ce360e01b81526001600160a01b03831660048201526024015b60405180910390fd5b5f80516020612eda8339815191528114611b7957604051632a87526960e21b815260048101829052602401611b40565b610a258383611f83565b306001600160a01b037f000000000000000000000000000000000000000000000000000000000000000016146106085760405163703e46dd60e11b815260040160405180910390fd5b5f805f846001600160a01b031663fc5fecd5856040518263ffffffff1660e01b8152600401611bfd91815260200190565b6040805180830381865afa158015611c17573d5f803e3d5ffd5b505050506040513d601f19601f82011682018060405250810190611c3b9190612db3565b6040516323b872dd60e01b815291935091506001600160a01b038316906323b872dd90611c7d9033905f80516020612eba833981519152908690600401612ddf565b6020604051808303815f875af1158015611c99573d5f803e3d5ffd5b505050506040513d601f19601f82011682018060405250810190611cbd9190612d98565b611cda5760405163053e6b6b60e11b815260040160405180910390fd5b6040516323b872dd60e01b81526001600160a01b038616906323b872dd90611d0a90339030908b90600401612ddf565b6020604051808303815f875af1158015611d26573d5f803e3d5ffd5b505050506040513d601f19601f82011682018060405250810190611d4a9190612d98565b611d6757604051634dd9ee8d60e01b815260040160405180910390fd5b604051630852cd8d60e31b8152600481018790526001600160a01b038616906342966c68906024016020604051808303815f875af1158015611dab573d5f803e3d5ffd5b505050506040513d601f19601f82011682018060405250810190611dcf9190612d98565b611dec57604051630b1df81760e21b815260040160405180910390fd5b9150505b9392505050565b5f611df08383846001600160a01b031663091d27886040518163ffffffff1660e01b8152600401602060405180830381865afa158015611e39573d5f803e3d5ffd5b505050506040513d601f19601f82011682018060405250810190611e5d9190612bf6565b611bcc565b611e6a6105d8565b5f80516020612f3a833981519152805460ff191660011781557f62e78cea01bee320cd4e420270b5ea74000d11b0c9f74754ebdbfc544b05a258336119ce565b611eb48282610f5a565b6107a25760405163e2517d3f60e01b81526001600160a01b038216600482015260248101839052604401611b40565b5f80516020612f3a8339815191525460ff1661060857604051638dfc202b60e01b815260040160405180910390fd5b7ff0c57e16840df040f15088dc2f81fe391c3923bec73e23a9662efc9c229c6a0054600160401b900460ff1661060857604051631afcd79f60e31b815260040160405180910390fd5b611f63611f12565b5f80516020612f3a833981519152805460ff19169055565b6116fe611f12565b611f8c82611fd8565b6040516001600160a01b038316907fbc7cd75a20ee27fd9adebab32041f755214dbc6bffa90cc0225b39da2e5c2d3b905f90a2805115611fd057610a25828261203b565b6107a26120ad565b806001600160a01b03163b5f0361200d57604051634c9c8ce360e01b81526001600160a01b0382166004820152602401611b40565b5f80516020612eda83398151915280546001600160a01b0319166001600160a01b0392909216919091179055565b60605f80846001600160a01b0316846040516120579190612ea3565b5f60405180830381855af49150503d805f811461208f576040519150601f19603f3d011682016040523d82523d5f602084013e612094565b606091505b50915091506120a48583836120cc565b95945050505050565b34156106085760405163b398979f60e01b815260040160405180910390fd5b6060826120e1576120dc82612128565b611df0565b81511580156120f857506001600160a01b0384163b155b1561212157604051639996b31560e01b81526001600160a01b0385166004820152602401611b40565b5080611df0565b8051156121385780518082602001fd5b604051630a12f52160e11b815260040160405180910390fd5b5f60208284031215612161575f80fd5b81356001600160e01b031981168114611df0575f80fd5b634e487b7160e01b5f52604160045260245ffd5b5f82601f83011261219b575f80fd5b81356001600160401b038111156121b4576121b4612178565b604051601f8201601f19908116603f011681016001600160401b03811182821017156121e2576121e2612178565b6040528181528382016020018510156121f9575f80fd5b816020850160208301375f918101602001919091529392505050565b6001600160a01b0381168114610a49575f80fd5b5f8083601f840112612239575f80fd5b5081356001600160401b0381111561224f575f80fd5b602083019150836020828501011115612266575f80fd5b9250929050565b5f6040828403121561227d575f80fd5b50919050565b5f60a0828403121561227d575f80fd5b5f805f805f8060c087890312156122a8575f80fd5b86356001600160401b038111156122bd575f80fd5b6122c989828a0161218c565b96505060208701356122da81612215565b945060408701356001600160401b038111156122f4575f80fd5b61230089828a01612229565b90955093506123149050886060890161226d565b915060a08701356001600160401b0381111561232e575f80fd5b61233a89828a01612283565b9150509295509295509295565b5f6080828403121561227d575f80fd5b5f8060408385031215612368575f80fd5b823561237381612215565b915060208301356001600160401b0381111561238d575f80fd5b61239985828601612347565b9150509250929050565b5f80604083850312156123b4575f80fd5b82356123bf81612215565b915060208301356001600160401b038111156123d9575f80fd5b830160c081860312156123ea575f80fd5b809150509250929050565b5f6060828403121561227d575f80fd5b5f805f805f60808688031215612419575f80fd5b85356001600160401b0381111561242e575f80fd5b61243a888289016123f5565b95505060208601359350604086013561245281612215565b925060608601356001600160401b0381111561246c575f80fd5b61247888828901612229565b969995985093965092949392505050565b5f60208284031215612499575f80fd5b5035919050565b5f805f805f805f60e0888a0312156124b6575f80fd5b87356001600160401b038111156124cb575f80fd5b6124d78a828b0161218c565b975050602088013595506040880135945060608801356001600160401b03811115612500575f80fd5b61250c8a828b01612229565b909550935061252090508960808a0161226d565b915060c08801356001600160401b0381111561253a575f80fd5b6125468a828b01612283565b91505092959891949750929550565b5f8060408385031215612566575f80fd5b8235915060208301356123ea81612215565b5f8060408385031215612589575f80fd5b823561259481612215565b915060208301356123ea81612215565b5f80604083850312156125b5575f80fd5b82356125c081612215565b915060208301356001600160401b038111156125da575f80fd5b6123998582860161218c565b5f805f805f805f60e0888a0312156125fc575f80fd5b87356001600160401b03811115612611575f80fd5b61261d8a828b0161218c565b97505060208801359550604088013561263581612215565b945060608801356001600160401b03811115612500575f80fd5b5f805f8060808587031215612662575f80fd5b84356001600160401b03811115612677575f80fd5b6126838782880161218c565b94505060208501359250604085013561269b81612215565b915060608501356001600160401b038111156126b5575f80fd5b6126c187828801612283565b91505092959194509250565b5f805f80608085870312156126e0575f80fd5b84356001600160401b038111156126f5575f80fd5b6127018782880161218c565b945050602085013592506040850135915060608501356001600160401b038111156126b5575f80fd5b5f805f806080858703121561273d575f80fd5b843561274881612215565b935060208501359250604085013561275f81612215565b915060608501356001600160401b03811115612779575f80fd5b6126c187828801612347565b5f81518084528060208401602086015e5f602082860101526020601f19601f83011685010191505092915050565b602081525f611df06020830184612785565b5f805f805f8060a087890312156127da575f80fd5b86356001600160401b038111156127ef575f80fd5b6127fb89828a016123f5565b965050602087013561280c81612215565b945060408701359350606087013561282381612215565b925060808701356001600160401b0381111561283d575f80fd5b61284989828a01612229565b979a9699509497509295939492505050565b5f805f6060848603121561286d575f80fd5b833561287881612215565b925060208401359150604084013561288f81612215565b809150509250925092565b5f808335601e198436030181126128af575f80fd5b8301803591506001600160401b038211156128c8575f80fd5b602001915036819003821315612266575f80fd5b8082018082111561063a57634e487b7160e01b5f52601160045260245ffd5b8015158114610a49575f80fd5b5f6040828403128015612919575f80fd5b50604080519081016001600160401b038111828210171561293c5761293c612178565b604052823581526020830135612951816128fb565b60208201529392505050565b5f60a0823603121561296d575f80fd5b60405160a081016001600160401b038111828210171561298f5761298f612178565b604052823561299d81612215565b815260208301356129ad816128fb565b602082015260408301356129c081612215565b604082015260608301356001600160401b038111156129dd575f80fd5b6129e93682860161218c565b606083015250608092830135928101929092525090565b5f808335601e19843603018112612a15575f80fd5b83016020810192503590506001600160401b03811115612a33575f80fd5b803603821315612266575f80fd5b81835281816020850137505f828201602090810191909152601f909101601f19169091010190565b602081525f8235612a7981612215565b6001600160a01b0316602083810191909152830135612a9781612215565b6001600160a01b0316604083810191909152830135606080840191909152612ac190840184612a00565b6080808501526120a460a085018284612a41565b602081525f612ae48384612a00565b60c06020850152612af960e085018284612a41565b9150506020840135612b0a81612215565b6001600160a01b0316604084810191909152840135606080850191909152840135612b34816128fb565b8015156080850152505f608085013590508060a085015250612b5960a0850185612a00565b848303601f190160c0860152612b70838284612a41565b9695505050505050565b608081525f612b898788612a00565b60606080850152612b9e60e085018284612a41565b9150506020880135612baf81612215565b6001600160a01b0390811660a085015260408981013560c0860152908816602085015283018690528281036060840152612bea818587612a41565b98975050505050505050565b5f60208284031215612c06575f80fd5b5051919050565b5f8135612c1981612215565b6001600160a01b031683526020820135612c32816128fb565b151560208401526040820135612c4781612215565b6001600160a01b03166040840152612c626060830183612a00565b60a06060860152612c7760a086018284612a41565b6080948501359590940194909452509092915050565b61012081525f612ca161012083018c612785565b6001600160a01b038b166020840152604083018a9052606083018990526080830188905282810360a0840152612cd8818789612a41565b853560c085015290506020850135612cef816128fb565b151560e0840152828103610100840152612d098185612c0d565b9c9b505050505050505050505050565b61012081525f612d2d61012083018a612785565b60018060a01b03891660208401528760408401528660608401528560808401528281038060a08501525f8252612d7260c0850187805182526020908101511515910152565b6020810161010085015250612d8a6020820185612c0d565b9a9950505050505050505050565b5f60208284031215612da8575f80fd5b8151611df0816128fb565b5f8060408385031215612dc4575f80fd5b8251612dcf81612215565b6020939093015192949293505050565b6001600160a01b039384168152919092166020820152604081019190915260600190565b60a081525f612e1560a0830188612785565b8281036020840152612e28818789612a41565b855160408501526020860151151560608501529050828103608084015260018060a01b03845116815260208401511515602082015260018060a01b036040850151166040820152606084015160a06060830152612e8860a0830182612785565b90506080850151608083015280925050509695505050505050565b5f82518060208501845e5f92019182525091905056fe000000000000000000000000735b14bb79463307aacbed86daf3322b1e6226ab360894a13ba1a3210667c828492db98dca3e2076cc3735a920a3ca505d382bbc65d7a28e3265b37a6474929f336521b332c1681b933f6cb9f3376673440d862a02dd7bc7dec4dceedda775e58dd541e08a116c6c53815c0bd028192f7b626800cd5ed15c6e187e77e9aee88184c21f4f2182ab5827cb3b7e07fbedcd63f033009b779b17422d0df92223018b32b4d1fa46e071723d6817e2486d003becc55f00a264697066735822122027a91eaf4b5416911c0873db9aa31014ac300eb6210c968dc96a83b067b62a6b64736f6c634300081a0033","linkReferences":{}},"methodIdentifiers":{"DEFAULT_ADMIN_ROLE()":"a217fddf","MAX_MESSAGE_SIZE()":"97d340f5","PAUSER_ROLE()":"e63ab1e9","PROTOCOL_ADDRESS()":"2722feee","UPGRADE_INTERFACE_VERSION()":"ad3cb1cc","call(bytes,address,bytes,(uint256,bool),(address,bool,address,bytes,uint256))":"06cb8983","deposit(address,uint256,address)":"f45346dc","depositAndCall((bytes,address,uint256),address,uint256,address,bytes)":"c39aca37","depositAndCall((bytes,address,uint256),uint256,address,bytes)":"21501a95","depositAndRevert(address,uint256,address,(address,address,uint256,bytes))":"9d4ba465","execute((bytes,address,uint256),address,uint256,address,bytes)":"bcf7f32b","executeAbort(address,(bytes,address,uint256,bool,uint256,bytes))":"2095dedb","executeRevert(address,(address,address,uint256,bytes))":"184b0793","getRoleAdmin(bytes32)":"248a9ca3","grantRole(bytes32,address)":"2f2ff15d","hasRole(bytes32,address)":"91d14854","initialize(address,address)":"485cc955","pause()":"8456cb59","paused()":"5c975abb","proxiableUUID()":"52d1902d","renounceRole(bytes32,address)":"36568abe","revokeRole(bytes32,address)":"d547741f","supportsInterface(bytes4)":"01ffc9a7","unpause()":"3f4ba83a","upgradeToAndCall(address,bytes)":"4f1ef286","withdraw(bytes,uint256,address,(address,bool,address,bytes,uint256))":"7c0dcb5f","withdraw(bytes,uint256,uint256,(address,bool,address,bytes,uint256))":"97a1cef1","withdrawAndCall(bytes,uint256,address,bytes,(uint256,bool),(address,bool,address,bytes,uint256))":"7b15118b","withdrawAndCall(bytes,uint256,uint256,bytes,(uint256,bool),(address,bool,address,bytes,uint256))":"2810ae63","zetaToken()":"21e093b1"},"id":121}