{"abi":[{"type":"constructor","inputs":[{"name":"gatewayAddress","type":"address","internalType":"address payable"}],"stateMutability":"nonpayable"},{"type":"function","name":"call","inputs":[{"name":"receiver","type":"bytes","internalType":"bytes"},{"name":"zrc20","type":"address","internalType":"address"},{"name":"message","type":"bytes","internalType":"bytes"},{"name":"callOptions","type":"tuple","internalType":"struct CallOptions","components":[{"name":"gasLimit","type":"uint256","internalType":"uint256"},{"name":"isArbitraryCall","type":"bool","internalType":"bool"}]},{"name":"revertOptions","type":"tuple","internalType":"struct RevertOptions","components":[{"name":"revertAddress","type":"address","internalType":"address"},{"name":"callOnRevert","type":"bool","internalType":"bool"},{"name":"abortAddress","type":"address","internalType":"address"},{"name":"revertMessage","type":"bytes","internalType":"bytes"},{"name":"onRevertGasLimit","type":"uint256","internalType":"uint256"}]}],"outputs":[],"stateMutability":"nonpayable"},{"type":"function","name":"callMulti","inputs":[{"name":"receiverArray","type":"bytes[]","internalType":"bytes[]"},{"name":"zrc20Array","type":"address[]","internalType":"address[]"},{"name":"messages","type":"bytes","internalType":"bytes"},{"name":"callOptions","type":"tuple","internalType":"struct CallOptions","components":[{"name":"gasLimit","type":"uint256","internalType":"uint256"},{"name":"isArbitraryCall","type":"bool","internalType":"bool"}]},{"name":"revertOptions","type":"tuple","internalType":"struct RevertOptions","components":[{"name":"revertAddress","type":"address","internalType":"address"},{"name":"callOnRevert","type":"bool","internalType":"bool"},{"name":"abortAddress","type":"address","internalType":"address"},{"name":"revertMessage","type":"bytes","internalType":"bytes"},{"name":"onRevertGasLimit","type":"uint256","internalType":"uint256"}]}],"outputs":[],"stateMutability":"nonpayable"},{"type":"function","name":"gateway","inputs":[],"outputs":[{"name":"","type":"address","internalType":"contract GatewayZEVM"}],"stateMutability":"view"},{"type":"function","name":"onAbort","inputs":[{"name":"context","type":"tuple","internalType":"struct AbortContext","components":[{"name":"sender","type":"bytes","internalType":"bytes"},{"name":"asset","type":"address","internalType":"address"},{"name":"amount","type":"uint256","internalType":"uint256"},{"name":"outgoing","type":"bool","internalType":"bool"},{"name":"chainID","type":"uint256","internalType":"uint256"},{"name":"revertMessage","type":"bytes","internalType":"bytes"}]}],"outputs":[],"stateMutability":"nonpayable"},{"type":"function","name":"onCall","inputs":[{"name":"context","type":"tuple","internalType":"struct MessageContext","components":[{"name":"origin","type":"bytes","internalType":"bytes"},{"name":"sender","type":"address","internalType":"address"},{"name":"chainID","type":"uint256","internalType":"uint256"}]},{"name":"zrc20","type":"address","internalType":"address"},{"name":"amount","type":"uint256","internalType":"uint256"},{"name":"message","type":"bytes","internalType":"bytes"}],"outputs":[],"stateMutability":"nonpayable"},{"type":"function","name":"onRevert","inputs":[{"name":"context","type":"tuple","internalType":"struct RevertContext","components":[{"name":"sender","type":"address","internalType":"address"},{"name":"asset","type":"address","internalType":"address"},{"name":"amount","type":"uint256","internalType":"uint256"},{"name":"revertMessage","type":"bytes","internalType":"bytes"}]}],"outputs":[],"stateMutability":"nonpayable"},{"type":"function","name":"withdraw","inputs":[{"name":"receiver","type":"bytes","internalType":"bytes"},{"name":"amount","type":"uint256","internalType":"uint256"},{"name":"zrc20","type":"address","internalType":"address"},{"name":"revertOptions","type":"tuple","internalType":"struct RevertOptions","components":[{"name":"revertAddress","type":"address","internalType":"address"},{"name":"callOnRevert","type":"bool","internalType":"bool"},{"name":"abortAddress","type":"address","internalType":"address"},{"name":"revertMessage","type":"bytes","internalType":"bytes"},{"name":"onRevertGasLimit","type":"uint256","internalType":"uint256"}]}],"outputs":[],"stateMutability":"nonpayable"},{"type":"function","name":"withdrawAndCall","inputs":[{"name":"receiver","type":"bytes","internalType":"bytes"},{"name":"amount","type":"uint256","internalType":"uint256"},{"name":"zrc20","type":"address","internalType":"address"},{"name":"message","type":"bytes","internalType":"bytes"},{"name":"callOptions","type":"tuple","internalType":"struct CallOptions","components":[{"name":"gasLimit","type":"uint256","internalType":"uint256"},{"name":"isArbitraryCall","type":"bool","internalType":"bool"}]},{"name":"revertOptions","type":"tuple","internalType":"struct RevertOptions","components":[{"name":"revertAddress","type":"address","internalType":"address"},{"name":"callOnRevert","type":"bool","internalType":"bool"},{"name":"abortAddress","type":"address","internalType":"address"},{"name":"revertMessage","type":"bytes","internalType":"bytes"},{"name":"onRevertGasLimit","type":"uint256","internalType":"uint256"}]}],"outputs":[],"stateMutability":"nonpayable"},{"type":"event","name":"AbortEvent","inputs":[{"name":"","type":"string","indexed":false,"internalType":"string"},{"name":"","type":"tuple","indexed":false,"internalType":"struct AbortContext","components":[{"name":"sender","type":"bytes","internalType":"bytes"},{"name":"asset","type":"address","internalType":"address"},{"name":"amount","type":"uint256","internalType":"uint256"},{"name":"outgoing","type":"bool","internalType":"bool"},{"name":"chainID","type":"uint256","internalType":"uint256"},{"name":"revertMessage","type":"bytes","internalType":"bytes"}]}],"anonymous":false},{"type":"event","name":"HelloEvent","inputs":[{"name":"","type":"string","indexed":false,"internalType":"string"},{"name":"","type":"string","indexed":false,"internalType":"string"}],"anonymous":false},{"type":"event","name":"RevertEvent","inputs":[{"name":"","type":"string","indexed":false,"internalType":"string"},{"name":"","type":"tuple","indexed":false,"internalType":"struct RevertContext","components":[{"name":"sender","type":"address","internalType":"address"},{"name":"asset","type":"address","internalType":"address"},{"name":"amount","type":"uint256","internalType":"uint256"},{"name":"revertMessage","type":"bytes","internalType":"bytes"}]}],"anonymous":false},{"type":"error","name":"TransferFailed","inputs":[]},{"type":"error","name":"Unauthorized","inputs":[]}],"bytecode":{"object":"0x60a0604052348015600e575f80fd5b50604051611aa8380380611aa8833981016040819052602b91603b565b6001600160a01b03166080526066565b5f60208284031215604a575f80fd5b81516001600160a01b0381168114605f575f80fd5b9392505050565b6080516119d06100d85f395f818160a30152818161026b015281816102fc0152818161037c015281816103fe015281816105cb01528181610702015281816107940152818161094401528181610a7b01528181610b0d01528181610b5301528181610d300152610dad01526119d05ff3fe608060405234801561000f575f80fd5b5060043610610085575f3560e01c80637b15118b116100585780637b15118b146101075780637c0dcb5f1461011a578063c9028a361461012d578063fe5f4dd014610140575f80fd5b806306cb898314610089578063116191b61461009e5780632d4cfb7e146100e15780635bcfd616146100f4575b5f80fd5b61009c61009736600461109c565b610153565b005b6100c57f000000000000000000000000000000000000000000000000000000000000000081565b6040516001600160a01b03909116815260200160405180910390f35b61009c6100ef366004611150565b610371565b61009c610102366004611186565b6103f3565b61009c61011536600461120e565b610489565b61009c6101283660046112cc565b61080e565b61009c61013b36600461134a565b610b48565b61009c61014e366004611415565b610bbf565b815160405163fc5fecd560e01b81525f916001600160a01b0388169163fc5fecd5916101859160040190815260200190565b6040805180830381865afa15801561019f573d5f803e3d5ffd5b505050506040513d601f19601f820116820180604052508101906101c39190611503565b6040516323b872dd60e01b81529092506001600160a01b03881691506323b872dd906101f79033903090869060040161152f565b6020604051808303815f875af1158015610213573d5f803e3d5ffd5b505050506040513d601f19601f820116820180604052508101906102379190611553565b610254576040516312171d8360e31b815260040160405180910390fd5b60405163095ea7b360e01b81526001600160a01b037f0000000000000000000000000000000000000000000000000000000000000000811660048301526024820183905287169063095ea7b3906044016020604051808303815f875af11580156102c0573d5f803e3d5ffd5b505050506040513d601f19601f820116820180604052508101906102e49190611553565b506040516306cb898360e01b81526001600160a01b037f000000000000000000000000000000000000000000000000000000000000000016906306cb89839061033b908a908a908a908a908a908a9060040161161c565b5f604051808303815f87803b158015610352575f80fd5b505af1158015610364573d5f803e3d5ffd5b5050505050505050505050565b336001600160a01b037f000000000000000000000000000000000000000000000000000000000000000016146103b9576040516282b42960e81b815260040160405180910390fd5b7f1db2949e4142fe8b641ad8aad998e42b8968ccf18acb94c49c4c9f5d67eaa927816040516103e891906116c5565b60405180910390a150565b336001600160a01b037f0000000000000000000000000000000000000000000000000000000000000000161461043b576040516282b42960e81b815260040160405180910390fd5b5f6104488284018461178b565b90507f39f8c79736fed93bca390bb3d6ff7da07482edb61cd7dafcfba496821d6ab7a38160405161047991906117d7565b60405180910390a1505050505050565b815160405163fc5fecd560e01b815260048101919091525f9081906001600160a01b0388169063fc5fecd5906024016040805180830381865afa1580156104d2573d5f803e3d5ffd5b505050506040513d601f19601f820116820180604052508101906104f69190611503565b915091505f826001600160a01b0316886001600160a01b03161461051a5788610524565b610524828a611812565b6040516323b872dd60e01b81529091506001600160a01b038916906323b872dd906105579033903090869060040161152f565b6020604051808303815f875af1158015610573573d5f803e3d5ffd5b505050506040513d601f19601f820116820180604052508101906105979190611553565b6105b4576040516312171d8360e31b815260040160405180910390fd5b60405163095ea7b360e01b81526001600160a01b037f0000000000000000000000000000000000000000000000000000000000000000811660048301526024820183905289169063095ea7b3906044016020604051808303815f875af1158015610620573d5f803e3d5ffd5b505050506040513d601f19601f820116820180604052508101906106449190611553565b50826001600160a01b0316886001600160a01b03161461077d576040516323b872dd60e01b81526001600160a01b038416906323b872dd9061068e9033903090879060040161152f565b6020604051808303815f875af11580156106aa573d5f803e3d5ffd5b505050506040513d601f19601f820116820180604052508101906106ce9190611553565b6106eb576040516312171d8360e31b815260040160405180910390fd5b60405163095ea7b360e01b81526001600160a01b037f0000000000000000000000000000000000000000000000000000000000000000811660048301526024820184905284169063095ea7b3906044016020604051808303815f875af1158015610757573d5f803e3d5ffd5b505050506040513d601f19601f8201168201806040525081019061077b9190611553565b505b604051637b15118b60e01b81526001600160a01b037f00000000000000000000000000000000000000000000000000000000000000001690637b15118b906107d5908d908d908d908d908d908d908d90600401611837565b5f604051808303815f87803b1580156107ec575f80fd5b505af11580156107fe573d5f803e3d5ffd5b5050505050505050505050505050565b5f80836001600160a01b031663d9eeebed6040518163ffffffff1660e01b81526004016040805180830381865afa15801561084b573d5f803e3d5ffd5b505050506040513d601f19601f8201168201806040525081019061086f9190611503565b915091505f826001600160a01b0316856001600160a01b031614610893578561089d565b61089d8287611812565b6040516323b872dd60e01b81529091506001600160a01b038616906323b872dd906108d09033903090869060040161152f565b6020604051808303815f875af11580156108ec573d5f803e3d5ffd5b505050506040513d601f19601f820116820180604052508101906109109190611553565b61092d576040516312171d8360e31b815260040160405180910390fd5b60405163095ea7b360e01b81526001600160a01b037f0000000000000000000000000000000000000000000000000000000000000000811660048301526024820183905286169063095ea7b3906044016020604051808303815f875af1158015610999573d5f803e3d5ffd5b505050506040513d601f19601f820116820180604052508101906109bd9190611553565b50826001600160a01b0316856001600160a01b031614610af6576040516323b872dd60e01b81526001600160a01b038416906323b872dd90610a079033903090879060040161152f565b6020604051808303815f875af1158015610a23573d5f803e3d5ffd5b505050506040513d601f19601f82011682018060405250810190610a479190611553565b610a64576040516312171d8360e31b815260040160405180910390fd5b60405163095ea7b360e01b81526001600160a01b037f0000000000000000000000000000000000000000000000000000000000000000811660048301526024820184905284169063095ea7b3906044016020604051808303815f875af1158015610ad0573d5f803e3d5ffd5b505050506040513d601f19601f82011682018060405250810190610af49190611553565b505b604051637c0dcb5f60e01b81526001600160a01b037f00000000000000000000000000000000000000000000000000000000000000001690637c0dcb5f9061033b908a908a908a908a906004016118a7565b336001600160a01b037f00000000000000000000000000000000000000000000000000000000000000001614610b90576040516282b42960e81b815260040160405180910390fd5b7fa7a2dd1f61a16e9be16558337ccaf27e4bb90761ccfab75065f0003f25a14037816040516103e891906118ec565b5f5b8551811015610e6d575f868281518110610bdd57610bdd611986565b60200260200101516001600160a01b031663fc5fecd5855f01516040518263ffffffff1660e01b8152600401610c1591815260200190565b6040805180830381865afa158015610c2f573d5f803e3d5ffd5b505050506040513d601f19601f82011682018060405250810190610c539190611503565b915050868281518110610c6857610c68611986565b60200260200101516001600160a01b03166323b872dd3330846040518463ffffffff1660e01b8152600401610c9f9392919061152f565b6020604051808303815f875af1158015610cbb573d5f803e3d5ffd5b505050506040513d601f19601f82011682018060405250810190610cdf9190611553565b610cfc576040516312171d8360e31b815260040160405180910390fd5b868281518110610d0e57610d0e611986565b602090810291909101015160405163095ea7b360e01b81526001600160a01b037f000000000000000000000000000000000000000000000000000000000000000081166004830152602482018490529091169063095ea7b3906044016020604051808303815f875af1158015610d86573d5f803e3d5ffd5b505050506040513d601f19601f82011682018060405250810190610daa9190611553565b507f00000000000000000000000000000000000000000000000000000000000000006001600160a01b03166306cb8983898481518110610dec57610dec611986565b6020026020010151898581518110610e0657610e06611986565b6020026020010151898989896040518763ffffffff1660e01b8152600401610e339695949392919061161c565b5f604051808303815f87803b158015610e4a575f80fd5b505af1158015610e5c573d5f803e3d5ffd5b505060019093019250610bc1915050565b50505050505050565b634e487b7160e01b5f52604160045260245ffd5b604051601f8201601f191681016001600160401b0381118282101715610eb257610eb2610e76565b604052919050565b5f806001600160401b03841115610ed357610ed3610e76565b50601f8301601f1916602001610ee881610e8a565b915050828152838383011115610efc575f80fd5b828260208301375f602084830101529392505050565b5f82601f830112610f21575f80fd5b610f3083833560208501610eba565b9392505050565b6001600160a01b0381168114610f4b575f80fd5b50565b5f8083601f840112610f5e575f80fd5b5081356001600160401b03811115610f74575f80fd5b602083019150836020828501011115610f8b575f80fd5b9250929050565b8015158114610f4b575f80fd5b5f60408284031215610faf575f80fd5b604080519081016001600160401b0381118282101715610fd157610fd1610e76565b604052823581529050806020830135610fe981610f92565b6020919091015292915050565b5f60a08284031215611006575f80fd5b60405160a081016001600160401b038111828210171561102857611028610e76565b604052905080823561103981610f37565b8152602083013561104981610f92565b6020820152604083013561105c81610f37565b604082015260608301356001600160401b03811115611079575f80fd5b61108585828601610f12565b606083015250608092830135920191909152919050565b5f805f805f8060c087890312156110b1575f80fd5b86356001600160401b038111156110c6575f80fd5b6110d289828a01610f12565b96505060208701356110e381610f37565b945060408701356001600160401b038111156110fd575f80fd5b61110989828a01610f4e565b909550935061111d90508860608901610f9f565b915060a08701356001600160401b03811115611137575f80fd5b61114389828a01610ff6565b9150509295509295509295565b5f60208284031215611160575f80fd5b81356001600160401b03811115611175575f80fd5b820160c08185031215610f30575f80fd5b5f805f805f6080868803121561119a575f80fd5b85356001600160401b038111156111af575f80fd5b8601606081890312156111c0575f80fd5b945060208601356111d081610f37565b93506040860135925060608601356001600160401b038111156111f1575f80fd5b6111fd88828901610f4e565b969995985093965092949392505050565b5f805f805f805f60e0888a031215611224575f80fd5b87356001600160401b03811115611239575f80fd5b6112458a828b01610f12565b97505060208801359550604088013561125d81610f37565b945060608801356001600160401b03811115611277575f80fd5b6112838a828b01610f4e565b909550935061129790508960808a01610f9f565b915060c08801356001600160401b038111156112b1575f80fd5b6112bd8a828b01610ff6565b91505092959891949750929550565b5f805f80608085870312156112df575f80fd5b84356001600160401b038111156112f4575f80fd5b61130087828801610f12565b94505060208501359250604085013561131881610f37565b915060608501356001600160401b03811115611332575f80fd5b61133e87828801610ff6565b91505092959194509250565b5f6020828403121561135a575f80fd5b81356001600160401b0381111561136f575f80fd5b820160808185031215610f30575f80fd5b5f6001600160401b0382111561139857611398610e76565b5060051b60200190565b5f82601f8301126113b1575f80fd5b81356113c46113bf82611380565b610e8a565b8082825260208201915060208360051b8601019250858311156113e5575f80fd5b602085015b8381101561140b5780356113fd81610f37565b8352602092830192016113ea565b5095945050505050565b5f805f805f8060c0878903121561142a575f80fd5b86356001600160401b0381111561143f575f80fd5b8701601f8101891361144f575f80fd5b803561145d6113bf82611380565b8082825260208201915060208360051b85010192508b83111561147e575f80fd5b602084015b838110156114be5780356001600160401b038111156114a0575f80fd5b6114af8e602083890101610f12565b84525060209283019201611483565b50985050505060208701356001600160401b038111156114dc575f80fd5b6114e889828a016113a2565b95505060408701356001600160401b038111156110fd575f80fd5b5f8060408385031215611514575f80fd5b825161151f81610f37565b6020939093015192949293505050565b6001600160a01b039384168152919092166020820152604081019190915260600190565b5f60208284031215611563575f80fd5b8151610f3081610f92565b5f81518084528060208401602086015e5f602082860101526020601f19601f83011685010191505092915050565b81835281816020850137505f828201602090810191909152601f909101601f19169091010190565b60018060a01b03815116825260208101511515602083015260018060a01b0360408201511660408301525f606082015160a0606085015261160860a085018261156e565b608093840151949093019390935250919050565b60c081525f61162e60c083018961156e565b6001600160a01b0388166020840152828103604084015261165081878961159c565b85516060850152602086015115156080850152905082810360a084015261167781856115c4565b9998505050505050505050565b5f808335601e19843603018112611699575f80fd5b83016020810192503590506001600160401b038111156116b7575f80fd5b803603821315610f8b575f80fd5b60408152601260408201527120b137b93a1037b7102d32ba30a1b430b4b760711b6060820152608060208201525f6116fd8384611684565b60c060808501526117136101408501828461159c565b915050602084013561172481610f37565b6001600160a01b031660a0840152604084013560c0840152606084013561174a81610f92565b151560e0840152608084013561010084015261176960a0850185611684565b848303607f190161012086015261178183828461159c565b9695505050505050565b5f6020828403121561179b575f80fd5b81356001600160401b038111156117b0575f80fd5b8201601f810184136117c0575f80fd5b6117cf84823560208401610eba565b949350505050565b6040815260126040820152712432b636379037b7102d32ba30a1b430b4b760711b6060820152608060208201525f610f30608083018461156e565b8082018082111561183157634e487b7160e01b5f52601160045260245ffd5b92915050565b60e081525f61184960e083018a61156e565b602083018990526001600160a01b0388166040840152828103606084015261187281878961159c565b855160808501526020860151151560a0850152905082810360c084015261189981856115c4565b9a9950505050505050505050565b608081525f6118b9608083018761156e565b602083018690526001600160a01b038516604084015282810360608401526118e181856115c4565b979650505050505050565b6040815260136040820152722932bb32b93a1037b7102d32ba30a1b430b4b760691b6060820152608060208201525f823561192681610f37565b6001600160a01b03166080830152602083013561194281610f37565b6001600160a01b031660a0830152604083013560c08301526119676060840184611684565b608060e085015261197d6101008501828461159c565b95945050505050565b634e487b7160e01b5f52603260045260245ffdfea2646970667358221220403e7ae2f42db331073ca95587ff27a2336b31d5742f311abcd9fdbf720b362864736f6c634300081a0033","linkReferences":{}},"methodIdentifiers":{"call(bytes,address,bytes,(uint256,bool),(address,bool,address,bytes,uint256))":"06cb8983","callMulti(bytes[],address[],bytes,(uint256,bool),(address,bool,address,bytes,uint256))":"fe5f4dd0","gateway()":"116191b6","onAbort((bytes,address,uint256,bool,uint256,bytes))":"2d4cfb7e","onCall((bytes,address,uint256),address,uint256,bytes)":"5bcfd616","onRevert((address,address,uint256,bytes))":"c9028a36","withdraw(bytes,uint256,address,(address,bool,address,bytes,uint256))":"7c0dcb5f","withdrawAndCall(bytes,uint256,address,bytes,(uint256,bool),(address,bool,address,bytes,uint256))":"7b15118b"},"id":17}