{"abi":[{"type":"constructor","inputs":[{"name":"name_","type":"string","internalType":"string"},{"name":"symbol_","type":"string","internalType":"string"},{"name":"decimals_","type":"uint8","internalType":"uint8"},{"name":"chainid_","type":"uint256","internalType":"uint256"},{"name":"coinType_","type":"uint8","internalType":"enum CoinType"},{"name":"gasLimit_","type":"uint256","internalType":"uint256"},{"name":"systemContractAddress_","type":"address","internalType":"address"},{"name":"gatewayAddress_","type":"address","internalType":"address"}],"stateMutability":"nonpayable"},{"type":"function","name":"CHAIN_ID","inputs":[],"outputs":[{"name":"","type":"uint256","internalType":"uint256"}],"stateMutability":"view"},{"type":"function","name":"COIN_TYPE","inputs":[],"outputs":[{"name":"","type":"uint8","internalType":"enum CoinType"}],"stateMutability":"view"},{"type":"function","name":"FUNGIBLE_MODULE_ADDRESS","inputs":[],"outputs":[{"name":"","type":"address","internalType":"address"}],"stateMutability":"view"},{"type":"function","name":"GAS_LIMIT","inputs":[],"outputs":[{"name":"","type":"uint256","internalType":"uint256"}],"stateMutability":"view"},{"type":"function","name":"PROTOCOL_FLAT_FEE","inputs":[],"outputs":[{"name":"","type":"uint256","internalType":"uint256"}],"stateMutability":"view"},{"type":"function","name":"SYSTEM_CONTRACT_ADDRESS","inputs":[],"outputs":[{"name":"","type":"address","internalType":"address"}],"stateMutability":"view"},{"type":"function","name":"allowance","inputs":[{"name":"owner","type":"address","internalType":"address"},{"name":"spender","type":"address","internalType":"address"}],"outputs":[{"name":"","type":"uint256","internalType":"uint256"}],"stateMutability":"view"},{"type":"function","name":"approve","inputs":[{"name":"spender","type":"address","internalType":"address"},{"name":"amount","type":"uint256","internalType":"uint256"}],"outputs":[{"name":"","type":"bool","internalType":"bool"}],"stateMutability":"nonpayable"},{"type":"function","name":"balanceOf","inputs":[{"name":"account","type":"address","internalType":"address"}],"outputs":[{"name":"","type":"uint256","internalType":"uint256"}],"stateMutability":"view"},{"type":"function","name":"burn","inputs":[{"name":"amount","type":"uint256","internalType":"uint256"}],"outputs":[{"name":"","type":"bool","internalType":"bool"}],"stateMutability":"nonpayable"},{"type":"function","name":"burn","inputs":[{"name":"account","type":"address","internalType":"address"},{"name":"amount","type":"uint256","internalType":"uint256"}],"outputs":[],"stateMutability":"nonpayable"},{"type":"function","name":"decimals","inputs":[],"outputs":[{"name":"","type":"uint8","internalType":"uint8"}],"stateMutability":"view"},{"type":"function","name":"deposit","inputs":[{"name":"to","type":"address","internalType":"address"},{"name":"amount","type":"uint256","internalType":"uint256"}],"outputs":[{"name":"","type":"bool","internalType":"bool"}],"stateMutability":"nonpayable"},{"type":"function","name":"gatewayAddress","inputs":[],"outputs":[{"name":"","type":"address","internalType":"address"}],"stateMutability":"view"},{"type":"function","name":"mint","inputs":[{"name":"account","type":"address","internalType":"address"},{"name":"amount","type":"uint256","internalType":"uint256"}],"outputs":[],"stateMutability":"nonpayable"},{"type":"function","name":"name","inputs":[],"outputs":[{"name":"","type":"string","internalType":"string"}],"stateMutability":"view"},{"type":"function","name":"setName","inputs":[{"name":"newName","type":"string","internalType":"string"}],"outputs":[],"stateMutability":"nonpayable"},{"type":"function","name":"setSymbol","inputs":[{"name":"newSymbol","type":"string","internalType":"string"}],"outputs":[],"stateMutability":"nonpayable"},{"type":"function","name":"symbol","inputs":[],"outputs":[{"name":"","type":"string","internalType":"string"}],"stateMutability":"view"},{"type":"function","name":"totalSupply","inputs":[],"outputs":[{"name":"","type":"uint256","internalType":"uint256"}],"stateMutability":"view"},{"type":"function","name":"transfer","inputs":[{"name":"recipient","type":"address","internalType":"address"},{"name":"amount","type":"uint256","internalType":"uint256"}],"outputs":[{"name":"","type":"bool","internalType":"bool"}],"stateMutability":"nonpayable"},{"type":"function","name":"transferFrom","inputs":[{"name":"sender","type":"address","internalType":"address"},{"name":"recipient","type":"address","internalType":"address"},{"name":"amount","type":"uint256","internalType":"uint256"}],"outputs":[{"name":"","type":"bool","internalType":"bool"}],"stateMutability":"nonpayable"},{"type":"function","name":"updateGasLimit","inputs":[{"name":"gasLimit_","type":"uint256","internalType":"uint256"}],"outputs":[],"stateMutability":"nonpayable"},{"type":"function","name":"updateGatewayAddress","inputs":[{"name":"addr","type":"address","internalType":"address"}],"outputs":[],"stateMutability":"nonpayable"},{"type":"function","name":"updateProtocolFlatFee","inputs":[{"name":"protocolFlatFee_","type":"uint256","internalType":"uint256"}],"outputs":[],"stateMutability":"nonpayable"},{"type":"function","name":"updateSystemContractAddress","inputs":[{"name":"addr","type":"address","internalType":"address"}],"outputs":[],"stateMutability":"nonpayable"},{"type":"function","name":"withdraw","inputs":[{"name":"to","type":"bytes","internalType":"bytes"},{"name":"amount","type":"uint256","internalType":"uint256"}],"outputs":[{"name":"","type":"bool","internalType":"bool"}],"stateMutability":"nonpayable"},{"type":"function","name":"withdrawGasFee","inputs":[],"outputs":[{"name":"","type":"address","internalType":"address"},{"name":"","type":"uint256","internalType":"uint256"}],"stateMutability":"view"},{"type":"function","name":"withdrawGasFeeWithGasLimit","inputs":[{"name":"gasLimit","type":"uint256","internalType":"uint256"}],"outputs":[{"name":"","type":"address","internalType":"address"},{"name":"","type":"uint256","internalType":"uint256"}],"stateMutability":"view"},{"type":"event","name":"Approval","inputs":[{"name":"owner","type":"address","indexed":true,"internalType":"address"},{"name":"spender","type":"address","indexed":true,"internalType":"address"},{"name":"value","type":"uint256","indexed":false,"internalType":"uint256"}],"anonymous":false},{"type":"event","name":"Deposit","inputs":[{"name":"from","type":"bytes","indexed":false,"internalType":"bytes"},{"name":"to","type":"address","indexed":true,"internalType":"address"},{"name":"value","type":"uint256","indexed":false,"internalType":"uint256"}],"anonymous":false},{"type":"event","name":"Transfer","inputs":[{"name":"from","type":"address","indexed":true,"internalType":"address"},{"name":"to","type":"address","indexed":true,"internalType":"address"},{"name":"value","type":"uint256","indexed":false,"internalType":"uint256"}],"anonymous":false},{"type":"event","name":"UpdatedGasLimit","inputs":[{"name":"gasLimit","type":"uint256","indexed":false,"internalType":"uint256"}],"anonymous":false},{"type":"event","name":"UpdatedGateway","inputs":[{"name":"gateway","type":"address","indexed":false,"internalType":"address"}],"anonymous":false},{"type":"event","name":"UpdatedProtocolFlatFee","inputs":[{"name":"protocolFlatFee","type":"uint256","indexed":false,"internalType":"uint256"}],"anonymous":false},{"type":"event","name":"UpdatedSystemContract","inputs":[{"name":"systemContract","type":"address","indexed":false,"internalType":"address"}],"anonymous":false},{"type":"event","name":"Withdrawal","inputs":[{"name":"from","type":"address","indexed":true,"internalType":"address"},{"name":"to","type":"bytes","indexed":false,"internalType":"bytes"},{"name":"value","type":"uint256","indexed":false,"internalType":"uint256"},{"name":"gasFee","type":"uint256","indexed":false,"internalType":"uint256"},{"name":"protocolFlatFee","type":"uint256","indexed":false,"internalType":"uint256"}],"anonymous":false},{"type":"error","name":"CallerIsNotFungibleModule","inputs":[]},{"type":"error","name":"GasFeeTransferFailed","inputs":[]},{"type":"error","name":"InvalidSender","inputs":[]},{"type":"error","name":"LowAllowance","inputs":[]},{"type":"error","name":"LowBalance","inputs":[]},{"type":"error","name":"ZeroAddress","inputs":[]},{"type":"error","name":"ZeroGasCoin","inputs":[]},{"type":"error","name":"ZeroGasPrice","inputs":[]}],"bytecode":{"object":"0x60c060405234801561000f575f80fd5b50604051611a24380380611a2483398101604081905261002e916101e0565b87878787878787876001600160a01b038216158061005357506001600160a01b038116155b156100715760405163d92e233d60e01b815260040160405180910390fd5b600661007d8982610325565b50600761008a8882610325565b506008805460ff191660ff881617905560808590528360028111156100b1576100b16103df565b60a08160028111156100c5576100c56103df565b9052506001929092555f80546001600160a01b039283166001600160a01b0319909116179055600880549190921661010002610100600160a81b0319909116179055506103f39b505050505050505050505050565b634e487b7160e01b5f52604160045260245ffd5b5f82601f83011261013d575f80fd5b81516001600160401b038111156101565761015661011a565b604051601f8201601f19908116603f011681016001600160401b03811182821017156101845761018461011a565b60405281815283820160200185101561019b575f80fd5b8160208501602083015e5f918101602001919091529392505050565b8051600381106101c5575f80fd5b919050565b80516001600160a01b03811681146101c5575f80fd5b5f805f805f805f80610100898b0312156101f8575f80fd5b88516001600160401b0381111561020d575f80fd5b6102198b828c0161012e565b60208b015190995090506001600160401b03811115610236575f80fd5b6102428b828c0161012e565b975050604089015160ff81168114610258575f80fd5b60608a0151909650945061026e60808a016101b7565b60a08a0151909450925061028460c08a016101ca565b915061029260e08a016101ca565b90509295985092959890939650565b600181811c908216806102b557607f821691505b6020821081036102d357634e487b7160e01b5f52602260045260245ffd5b50919050565b601f82111561032057805f5260205f20601f840160051c810160208510156102fe5750805b601f840160051c820191505b8181101561031d575f815560010161030a565b50505b505050565b81516001600160401b0381111561033e5761033e61011a565b6103528161034c84546102a1565b846102d9565b6020601f821160018114610384575f831561036d5750848201515b5f19600385901b1c1916600184901b17845561031d565b5f84815260208120601f198516915b828110156103b35787850151825560209485019460019092019101610393565b50848210156103d057868401515f19600387901b60f8161c191681555b50505050600190811b01905550565b634e487b7160e01b5f52602160045260245ffd5b60805160a0516115f46104305f395f61035001525f81816102f6015281816109e301528181610a9a01528181610c400152610cf701526115f45ff3fe608060405234801561000f575f80fd5b50600436106101c6575f3560e01c806395d89b41116100fe578063c835d7cc1161009e578063eddeb1231161006e578063eddeb12314610450578063f2441b3214610463578063f687d12a14610475578063fc5fecd514610488575f80fd5b8063c835d7cc146103cb578063ccc77599146103de578063d9eeebed146103f1578063dd62ed3e14610418575f80fd5b8063a9059cbb116100d9578063a9059cbb1461037f578063b84c824614610392578063c47f0027146103a5578063c7012626146103b8575f80fd5b806395d89b41146103305780639dc29fac14610338578063a3413d031461034b575f80fd5b806340c10f19116101695780634d8943bb116101445780634d8943bb146102c057806370a08231146102c957806385e1f4d0146102f15780638b851b9514610318575f80fd5b806340c10f191461028557806342966c681461029a57806347e7ef24146102ad575f80fd5b806318160ddd116101a457806318160ddd1461022257806323b872dd1461022a578063313ce5671461023d5780633ce4a5bc14610252575f80fd5b806306fdde03146101ca578063091d2788146101e8578063095ea7b3146101ff575b5f80fd5b6101d261049b565b6040516101df919061113a565b60405180910390f35b6101f160015481565b6040519081526020016101df565b61021261020d36600461116a565b61052b565b60405190151581526020016101df565b6005546101f1565b610212610238366004611194565b610541565b60085460405160ff90911681526020016101df565b61026d73735b14bb79463307aacbed86daf3322b1e6226ab81565b6040516001600160a01b0390911681526020016101df565b61029861029336600461116a565b6105b0565b005b6102126102a83660046111d2565b6105be565b6102126102bb36600461116a565b6105d1565b6101f160025481565b6101f16102d73660046111e9565b6001600160a01b03165f9081526003602052604090205490565b6101f17f000000000000000000000000000000000000000000000000000000000000000081565b60085461026d9061010090046001600160a01b031681565b6101d26106c1565b61029861034636600461116a565b6106d0565b6103727f000000000000000000000000000000000000000000000000000000000000000081565b6040516101df9190611204565b61021261038d36600461116a565b6106da565b6102986103a03660046112b5565b6106e6565b6102986103b33660046112b5565b610726565b6102126103c6366004611302565b610766565b6102986103d93660046111e9565b610871565b6102986103ec3660046111e9565b610920565b6103f96109d1565b604080516001600160a01b0390931683526020830191909152016101df565b6101f1610426366004611357565b6001600160a01b039182165f90815260046020908152604080832093909416825291909152205490565b61029861045e3660046111d2565b610b5c565b5f5461026d906001600160a01b031681565b6102986104833660046111d2565b610bc5565b6103f96104963660046111d2565b610c2e565b6060600680546104aa9061138e565b80601f01602080910402602001604051908101604052809291908181526020018280546104d69061138e565b80156105215780601f106104f857610100808354040283529160200191610521565b820191905f5260205f20905b81548152906001019060200180831161050457829003601f168201915b5050505050905090565b5f610537338484610db7565b5060015b92915050565b5f61054d848484610e66565b6001600160a01b0384165f90815260046020908152604080832033845290915290205482811015610591576040516310bad14760e01b815260040160405180910390fd5b6105a585336105a086856113da565b610db7565b506001949350505050565b6105ba8282610f86565b5050565b5f6105c93383611033565b506001919050565b5f3373735b14bb79463307aacbed86daf3322b1e6226ab1480159061060057505f546001600160a01b03163314155b801561061c575060085461010090046001600160a01b03163314155b1561063a57604051636edaef2f60e11b815260040160405180910390fd5b6106448383610f86565b60405173735b14bb79463307aacbed86daf3322b1e6226ab60601b60208201526001600160a01b038416907f67fc7bdaed5b0ec550d8706b87d60568ab70c6b781263c70101d54cd1564aab39060340160408051601f19818403018152908290526106b09186906113ed565b60405180910390a250600192915050565b6060600780546104aa9061138e565b6105ba8282611033565b5f610537338484610e66565b3373735b14bb79463307aacbed86daf3322b1e6226ab1461071a57604051632b2add3d60e01b815260040160405180910390fd5b60076105ba828261145a565b3373735b14bb79463307aacbed86daf3322b1e6226ab1461075a57604051632b2add3d60e01b815260040160405180910390fd5b60066105ba828261145a565b5f805f6107716109d1565b6040516323b872dd60e01b815233600482015273735b14bb79463307aacbed86daf3322b1e6226ab60248201526044810182905291935091506001600160a01b038316906323b872dd906064016020604051808303815f875af11580156107da573d5f803e3d5ffd5b505050506040513d601f19601f820116820180604052508101906107fe9190611515565b61081b5760405163053e6b6b60e11b815260040160405180910390fd5b6108253385611033565b60025460405133917f9ffbffc04a397460ee1dbe8c9503e098090567d6b7f4b3c02a8617d800b6d9559161085e91899189918791611534565b60405180910390a2506001949350505050565b3373735b14bb79463307aacbed86daf3322b1e6226ab146108a557604051632b2add3d60e01b815260040160405180910390fd5b6001600160a01b0381166108cc5760405163d92e233d60e01b815260040160405180910390fd5b5f80546001600160a01b0319166001600160a01b0383169081179091556040519081527fd55614e962c5fd6ece71614f6348d702468a997a394dd5e5c1677950226d97ae906020015b60405180910390a150565b3373735b14bb79463307aacbed86daf3322b1e6226ab1461095457604051632b2add3d60e01b815260040160405180910390fd5b6001600160a01b03811661097b5760405163d92e233d60e01b815260040160405180910390fd5b60088054610100600160a81b0319166101006001600160a01b038416908102919091179091556040519081527f88815d964e380677e86d817e7d65dea59cb7b4c3b5b7a0c8ec7ea4a74f90a38790602001610915565b5f8054604051630be1554760e01b81527f00000000000000000000000000000000000000000000000000000000000000006004820152829182916001600160a01b0390911690630be1554790602401602060405180830381865afa158015610a3b573d5f803e3d5ffd5b505050506040513d601f19601f82011682018060405250810190610a5f9190611562565b90506001600160a01b038116610a8857604051633c7ff9cb60e11b815260040160405180910390fd5b5f805460405163d7fd7afb60e01b81527f000000000000000000000000000000000000000000000000000000000000000060048201526001600160a01b039091169063d7fd7afb90602401602060405180830381865afa158015610aee573d5f803e3d5ffd5b505050506040513d601f19601f82011682018060405250810190610b12919061157d565b9050805f03610b3457604051630e661aed60e41b815260040160405180910390fd5b5f60025460015483610b469190611594565b610b5091906115ab565b92959294509192505050565b3373735b14bb79463307aacbed86daf3322b1e6226ab14610b9057604051632b2add3d60e01b815260040160405180910390fd5b60028190556040518181527fef13af88e424b5d15f49c77758542c1938b08b8b95b91ed0751f98ba99000d8f90602001610915565b3373735b14bb79463307aacbed86daf3322b1e6226ab14610bf957604051632b2add3d60e01b815260040160405180910390fd5b60018190556040518181527fff5788270f43bfc1ca41c503606d2594aa3023a1a7547de403a3e2f146a4a80a90602001610915565b5f8054604051630be1554760e01b81527f00000000000000000000000000000000000000000000000000000000000000006004820152829182916001600160a01b0390911690630be1554790602401602060405180830381865afa158015610c98573d5f803e3d5ffd5b505050506040513d601f19601f82011682018060405250810190610cbc9190611562565b90506001600160a01b038116610ce557604051633c7ff9cb60e11b815260040160405180910390fd5b5f805460405163d7fd7afb60e01b81527f000000000000000000000000000000000000000000000000000000000000000060048201526001600160a01b039091169063d7fd7afb90602401602060405180830381865afa158015610d4b573d5f803e3d5ffd5b505050506040513d601f19601f82011682018060405250810190610d6f919061157d565b9050805f03610d9157604051630e661aed60e41b815260040160405180910390fd5b6002545f90610da08784611594565b610daa91906115ab565b9296929550919350505050565b6001600160a01b038316610dde5760405163d92e233d60e01b815260040160405180910390fd5b6001600160a01b038216610e055760405163d92e233d60e01b815260040160405180910390fd5b6001600160a01b038381165f8181526004602090815260408083209487168084529482529182902085905590518481527f8c5be1e5ebec7d5bd14f71427d1e84f3dd0314c0f7b2291e5b200ac8c7c3b92591015b60405180910390a3505050565b6001600160a01b038316610e8d5760405163d92e233d60e01b815260040160405180910390fd5b6001600160a01b038216610eb45760405163d92e233d60e01b815260040160405180910390fd5b6001600160a01b0383165f9081526003602052604090205481811015610eed5760405163fe382aa760e01b815260040160405180910390fd5b610ef782826113da565b6001600160a01b038086165f908152600360205260408082209390935590851681529081208054849290610f2c9084906115ab565b92505081905550826001600160a01b0316846001600160a01b03167fddf252ad1be2c89b69c2b068fc378daa952ba7f163c4a11628f55a4df523b3ef84604051610f7891815260200190565b60405180910390a350505050565b6001600160a01b038216610fad5760405163d92e233d60e01b815260040160405180910390fd5b8060055f828254610fbe91906115ab565b90915550506001600160a01b0382165f9081526003602052604081208054839290610fea9084906115ab565b90915550506040518181526001600160a01b038316905f907fddf252ad1be2c89b69c2b068fc378daa952ba7f163c4a11628f55a4df523b3ef9060200160405180910390a35050565b6001600160a01b03821661105a5760405163d92e233d60e01b815260040160405180910390fd5b6001600160a01b0382165f90815260036020526040902054818110156110935760405163fe382aa760e01b815260040160405180910390fd5b61109d82826113da565b6001600160a01b0384165f90815260036020526040812091909155600580548492906110ca9084906113da565b90915550506040518281525f906001600160a01b038516907fddf252ad1be2c89b69c2b068fc378daa952ba7f163c4a11628f55a4df523b3ef90602001610e59565b5f81518084528060208401602086015e5f602082860101526020601f19601f83011685010191505092915050565b602081525f61114c602083018461110c565b9392505050565b6001600160a01b0381168114611167575f80fd5b50565b5f806040838503121561117b575f80fd5b823561118681611153565b946020939093013593505050565b5f805f606084860312156111a6575f80fd5b83356111b181611153565b925060208401356111c181611153565b929592945050506040919091013590565b5f602082840312156111e2575f80fd5b5035919050565b5f602082840312156111f9575f80fd5b813561114c81611153565b602081016003831061122457634e487b7160e01b5f52602160045260245ffd5b91905290565b634e487b7160e01b5f52604160045260245ffd5b5f8067ffffffffffffffff8411156112585761125861122a565b50604051601f19601f85018116603f0116810181811067ffffffffffffffff821117156112875761128761122a565b60405283815290508082840185101561129e575f80fd5b838360208301375f60208583010152509392505050565b5f602082840312156112c5575f80fd5b813567ffffffffffffffff8111156112db575f80fd5b8201601f810184136112eb575f80fd5b6112fa8482356020840161123e565b949350505050565b5f8060408385031215611313575f80fd5b823567ffffffffffffffff811115611329575f80fd5b8301601f81018513611339575f80fd5b6113488582356020840161123e565b95602094909401359450505050565b5f8060408385031215611368575f80fd5b823561137381611153565b9150602083013561138381611153565b809150509250929050565b600181811c908216806113a257607f821691505b6020821081036113c057634e487b7160e01b5f52602260045260245ffd5b50919050565b634e487b7160e01b5f52601160045260245ffd5b8181038181111561053b5761053b6113c6565b604081525f6113ff604083018561110c565b90508260208301529392505050565b601f82111561145557805f5260205f20601f840160051c810160208510156114335750805b601f840160051c820191505b81811015611452575f815560010161143f565b50505b505050565b815167ffffffffffffffff8111156114745761147461122a565b61148881611482845461138e565b8461140e565b6020601f8211600181146114ba575f83156114a35750848201515b5f19600385901b1c1916600184901b178455611452565b5f84815260208120601f198516915b828110156114e957878501518255602094850194600190920191016114c9565b508482101561150657868401515f19600387901b60f8161c191681555b50505050600190811b01905550565b5f60208284031215611525575f80fd5b8151801515811461114c575f80fd5b608081525f611546608083018761110c565b6020830195909552506040810192909252606090910152919050565b5f60208284031215611572575f80fd5b815161114c81611153565b5f6020828403121561158d575f80fd5b5051919050565b808202811582820484141761053b5761053b6113c6565b8082018082111561053b5761053b6113c656fea2646970667358221220b55758aad9d643eb0a4cc01b9e9e44f25243c2f385abe189331d39da44430ca464736f6c634300081a0033","linkReferences":{}},"methodIdentifiers":{"CHAIN_ID()":"85e1f4d0","COIN_TYPE()":"a3413d03","FUNGIBLE_MODULE_ADDRESS()":"3ce4a5bc","GAS_LIMIT()":"091d2788","PROTOCOL_FLAT_FEE()":"4d8943bb","SYSTEM_CONTRACT_ADDRESS()":"f2441b32","allowance(address,address)":"dd62ed3e","approve(address,uint256)":"095ea7b3","balanceOf(address)":"70a08231","burn(address,uint256)":"9dc29fac","burn(uint256)":"42966c68","decimals()":"313ce567","deposit(address,uint256)":"47e7ef24","gatewayAddress()":"8b851b95","mint(address,uint256)":"40c10f19","name()":"06fdde03","setName(string)":"c47f0027","setSymbol(string)":"b84c8246","symbol()":"95d89b41","totalSupply()":"18160ddd","transfer(address,uint256)":"a9059cbb","transferFrom(address,address,uint256)":"23b872dd","updateGasLimit(uint256)":"f687d12a","updateGatewayAddress(address)":"ccc77599","updateProtocolFlatFee(uint256)":"eddeb123","updateSystemContractAddress(address)":"c835d7cc","withdraw(bytes,uint256)":"c7012626","withdrawGasFee()":"d9eeebed","withdrawGasFeeWithGasLimit(uint256)":"fc5fecd5"},"id":31}