{"abi":[{"type":"function","name":"DEFAULT_ADMIN_ROLE","inputs":[],"outputs":[{"name":"","type":"bytes32","internalType":"bytes32"}],"stateMutability":"view"},{"type":"function","name":"PAUSER_ROLE","inputs":[],"outputs":[{"name":"","type":"bytes32","internalType":"bytes32"}],"stateMutability":"view"},{"type":"function","name":"TSS_ROLE","inputs":[],"outputs":[{"name":"","type":"bytes32","internalType":"bytes32"}],"stateMutability":"view"},{"type":"function","name":"UPGRADE_INTERFACE_VERSION","inputs":[],"outputs":[{"name":"","type":"string","internalType":"string"}],"stateMutability":"view"},{"type":"function","name":"WITHDRAWER_ROLE","inputs":[],"outputs":[{"name":"","type":"bytes32","internalType":"bytes32"}],"stateMutability":"view"},{"type":"function","name":"gateway","inputs":[],"outputs":[{"name":"","type":"address","internalType":"contract IGatewayEVM"}],"stateMutability":"view"},{"type":"function","name":"getRoleAdmin","inputs":[{"name":"role","type":"bytes32","internalType":"bytes32"}],"outputs":[{"name":"","type":"bytes32","internalType":"bytes32"}],"stateMutability":"view"},{"type":"function","name":"grantRole","inputs":[{"name":"role","type":"bytes32","internalType":"bytes32"},{"name":"account","type":"address","internalType":"address"}],"outputs":[],"stateMutability":"nonpayable"},{"type":"function","name":"hasRole","inputs":[{"name":"role","type":"bytes32","internalType":"bytes32"},{"name":"account","type":"address","internalType":"address"}],"outputs":[{"name":"","type":"bool","internalType":"bool"}],"stateMutability":"view"},{"type":"function","name":"initialize","inputs":[{"name":"gateway_","type":"address","internalType":"address"},{"name":"zetaToken_","type":"address","internalType":"address"},{"name":"tssAddress_","type":"address","internalType":"address"},{"name":"admin_","type":"address","internalType":"address"}],"outputs":[],"stateMutability":"nonpayable"},{"type":"function","name":"pause","inputs":[],"outputs":[],"stateMutability":"nonpayable"},{"type":"function","name":"paused","inputs":[],"outputs":[{"name":"","type":"bool","internalType":"bool"}],"stateMutability":"view"},{"type":"function","name":"proxiableUUID","inputs":[],"outputs":[{"name":"","type":"bytes32","internalType":"bytes32"}],"stateMutability":"view"},{"type":"function","name":"receiveTokens","inputs":[{"name":"amount","type":"uint256","internalType":"uint256"}],"outputs":[],"stateMutability":"nonpayable"},{"type":"function","name":"renounceRole","inputs":[{"name":"role","type":"bytes32","internalType":"bytes32"},{"name":"callerConfirmation","type":"address","internalType":"address"}],"outputs":[],"stateMutability":"nonpayable"},{"type":"function","name":"revokeRole","inputs":[{"name":"role","type":"bytes32","internalType":"bytes32"},{"name":"account","type":"address","internalType":"address"}],"outputs":[],"stateMutability":"nonpayable"},{"type":"function","name":"supportsInterface","inputs":[{"name":"interfaceId","type":"bytes4","internalType":"bytes4"}],"outputs":[{"name":"","type":"bool","internalType":"bool"}],"stateMutability":"view"},{"type":"function","name":"tssAddress","inputs":[],"outputs":[{"name":"","type":"address","internalType":"address"}],"stateMutability":"view"},{"type":"function","name":"unpause","inputs":[],"outputs":[],"stateMutability":"nonpayable"},{"type":"function","name":"updateTSSAddress","inputs":[{"name":"newTSSAddress","type":"address","internalType":"address"}],"outputs":[],"stateMutability":"nonpayable"},{"type":"function","name":"upgradeToAndCall","inputs":[{"name":"newImplementation","type":"address","internalType":"address"},{"name":"data","type":"bytes","internalType":"bytes"}],"outputs":[],"stateMutability":"payable"},{"type":"function","name":"withdraw","inputs":[{"name":"to","type":"address","internalType":"address"},{"name":"amount","type":"uint256","internalType":"uint256"},{"name":"","type":"bytes32","internalType":"bytes32"}],"outputs":[],"stateMutability":"nonpayable"},{"type":"function","name":"withdrawAndCall","inputs":[{"name":"messageContext","type":"tuple","internalType":"struct MessageContext","components":[{"name":"sender","type":"address","internalType":"address"}]},{"name":"to","type":"address","internalType":"address"},{"name":"amount","type":"uint256","internalType":"uint256"},{"name":"data","type":"bytes","internalType":"bytes"},{"name":"","type":"bytes32","internalType":"bytes32"}],"outputs":[],"stateMutability":"nonpayable"},{"type":"function","name":"withdrawAndRevert","inputs":[{"name":"to","type":"address","internalType":"address"},{"name":"amount","type":"uint256","internalType":"uint256"},{"name":"data","type":"bytes","internalType":"bytes"},{"name":"","type":"bytes32","internalType":"bytes32"},{"name":"revertContext","type":"tuple","internalType":"struct RevertContext","components":[{"name":"sender","type":"address","internalType":"address"},{"name":"asset","type":"address","internalType":"address"},{"name":"amount","type":"uint256","internalType":"uint256"},{"name":"revertMessage","type":"bytes","internalType":"bytes"}]}],"outputs":[],"stateMutability":"nonpayable"},{"type":"function","name":"zetaToken","inputs":[],"outputs":[{"name":"","type":"address","internalType":"address"}],"stateMutability":"view"},{"type":"event","name":"Initialized","inputs":[{"name":"version","type":"uint64","indexed":false,"internalType":"uint64"}],"anonymous":false},{"type":"event","name":"Paused","inputs":[{"name":"account","type":"address","indexed":false,"internalType":"address"}],"anonymous":false},{"type":"event","name":"RoleAdminChanged","inputs":[{"name":"role","type":"bytes32","indexed":true,"internalType":"bytes32"},{"name":"previousAdminRole","type":"bytes32","indexed":true,"internalType":"bytes32"},{"name":"newAdminRole","type":"bytes32","indexed":true,"internalType":"bytes32"}],"anonymous":false},{"type":"event","name":"RoleGranted","inputs":[{"name":"role","type":"bytes32","indexed":true,"internalType":"bytes32"},{"name":"account","type":"address","indexed":true,"internalType":"address"},{"name":"sender","type":"address","indexed":true,"internalType":"address"}],"anonymous":false},{"type":"event","name":"RoleRevoked","inputs":[{"name":"role","type":"bytes32","indexed":true,"internalType":"bytes32"},{"name":"account","type":"address","indexed":true,"internalType":"address"},{"name":"sender","type":"address","indexed":true,"internalType":"address"}],"anonymous":false},{"type":"event","name":"Unpaused","inputs":[{"name":"account","type":"address","indexed":false,"internalType":"address"}],"anonymous":false},{"type":"event","name":"UpdatedZetaConnectorTSSAddress","inputs":[{"name":"oldTSSAddress","type":"address","indexed":false,"internalType":"address"},{"name":"newTSSAddress","type":"address","indexed":false,"internalType":"address"}],"anonymous":false},{"type":"event","name":"Upgraded","inputs":[{"name":"implementation","type":"address","indexed":true,"internalType":"address"}],"anonymous":false},{"type":"event","name":"Withdrawn","inputs":[{"name":"to","type":"address","indexed":true,"internalType":"address"},{"name":"amount","type":"uint256","indexed":false,"internalType":"uint256"}],"anonymous":false},{"type":"event","name":"WithdrawnAndCalled","inputs":[{"name":"to","type":"address","indexed":true,"internalType":"address"},{"name":"amount","type":"uint256","indexed":false,"internalType":"uint256"},{"name":"data","type":"bytes","indexed":false,"internalType":"bytes"}],"anonymous":false},{"type":"event","name":"WithdrawnAndReverted","inputs":[{"name":"to","type":"address","indexed":true,"internalType":"address"},{"name":"amount","type":"uint256","indexed":false,"internalType":"uint256"},{"name":"data","type":"bytes","indexed":false,"internalType":"bytes"},{"name":"revertContext","type":"tuple","indexed":false,"internalType":"struct RevertContext","components":[{"name":"sender","type":"address","internalType":"address"},{"name":"asset","type":"address","internalType":"address"},{"name":"amount","type":"uint256","internalType":"uint256"},{"name":"revertMessage","type":"bytes","internalType":"bytes"}]}],"anonymous":false},{"type":"error","name":"AccessControlBadConfirmation","inputs":[]},{"type":"error","name":"AccessControlUnauthorizedAccount","inputs":[{"name":"account","type":"address","internalType":"address"},{"name":"neededRole","type":"bytes32","internalType":"bytes32"}]},{"type":"error","name":"AddressEmptyCode","inputs":[{"name":"target","type":"address","internalType":"address"}]},{"type":"error","name":"AddressInsufficientBalance","inputs":[{"name":"account","type":"address","internalType":"address"}]},{"type":"error","name":"ERC1967InvalidImplementation","inputs":[{"name":"implementation","type":"address","internalType":"address"}]},{"type":"error","name":"ERC1967NonPayable","inputs":[]},{"type":"error","name":"EnforcedPause","inputs":[]},{"type":"error","name":"ExpectedPause","inputs":[]},{"type":"error","name":"FailedInnerCall","inputs":[]},{"type":"error","name":"InvalidInitialization","inputs":[]},{"type":"error","name":"NotInitializing","inputs":[]},{"type":"error","name":"ReentrancyGuardReentrantCall","inputs":[]},{"type":"error","name":"SafeERC20FailedOperation","inputs":[{"name":"token","type":"address","internalType":"address"}]},{"type":"error","name":"UUPSUnauthorizedCallContext","inputs":[]},{"type":"error","name":"UUPSUnsupportedProxiableUUID","inputs":[{"name":"slot","type":"bytes32","internalType":"bytes32"}]},{"type":"error","name":"ZeroAddress","inputs":[]}],"bytecode":{"object":"0x60a0604052306080523480156012575f80fd5b50608051611c096100395f395f8181610d5a01528181610d830152610ec90152611c095ff3fe608060405260043610610161575f3560e01c80636f8728ad116100cd578063950837aa11610087578063ad3cb1cc11610062578063ad3cb1cc146103f9578063d547741f14610436578063e63ab1e914610455578063f8c8765e14610475575f80fd5b8063950837aa146103a7578063a217fddf146103c6578063a783c789146103d9575f80fd5b80636f8728ad146102f75780636fb9a7af14610316578063743e0c9b146103355780638456cb591461035457806385f438c11461036857806391d1485414610388575f80fd5b806336568abe1161011e57806336568abe1461025b5780633f4ba83a1461027a5780634f1ef2861461028e57806352d1902d146102a15780635b112591146102b55780635c975abb146102d4575f80fd5b806301ffc9a714610165578063106e629014610199578063116191b6146101ba57806321e093b1146101f0578063248a9ca31461020f5780632f2ff15d1461023c575b5f80fd5b348015610170575f80fd5b5061018461017f366004611580565b610494565b60405190151581526020015b60405180910390f35b3480156101a4575f80fd5b506101b86101b33660046115c2565b6104ca565b005b3480156101c5575f80fd5b505f546101d8906001600160a01b031681565b6040516001600160a01b039091168152602001610190565b3480156101fb575f80fd5b506001546101d8906001600160a01b031681565b34801561021a575f80fd5b5061022e6102293660046115f2565b610567565b604051908152602001610190565b348015610247575f80fd5b506101b8610256366004611609565b610587565b348015610266575f80fd5b506101b8610275366004611609565b6105a9565b348015610285575f80fd5b506101b86105dc565b6101b861029c366004611647565b6105fe565b3480156102ac575f80fd5b5061022e61061d565b3480156102c0575f80fd5b506002546101d8906001600160a01b031681565b3480156102df575f80fd5b505f80516020611b948339815191525460ff16610184565b348015610302575f80fd5b506101b8610311366004611750565b610638565b348015610321575f80fd5b506101b86103303660046117e1565b61074b565b348015610340575f80fd5b506101b861034f3660046115f2565b610836565b34801561035f575f80fd5b506101b8610856565b348015610373575f80fd5b5061022e5f80516020611b5483398151915281565b348015610393575f80fd5b506101846103a2366004611609565b610875565b3480156103b2575f80fd5b506101b86103c136600461185a565b6108ab565b3480156103d1575f80fd5b5061022e5f81565b3480156103e4575f80fd5b5061022e5f80516020611af483398151915281565b348015610404575f80fd5b50610429604051806040016040528060058152602001640352e302e360dc1b81525081565b6040516101909190611873565b348015610441575f80fd5b506101b8610450366004611609565b6109c0565b348015610460575f80fd5b5061022e5f80516020611b3483398151915281565b348015610480575f80fd5b506101b861048f3660046118a8565b6109dc565b5f6001600160e01b03198216637965db0b60e01b14806104c457506301ffc9a760e01b6001600160e01b03198316145b92915050565b6104d2610af1565b5f80516020611b548339815191526104e981610b28565b6104f1610b32565b600154610508906001600160a01b03168585610b64565b836001600160a01b03167f7084f5476618d8e60b11ef0d7d3f06914655adb8793e28ff7f018d4c76d505d58460405161054391815260200190565b60405180910390a25061056260015f80516020611bb483398151915255565b505050565b5f9081525f80516020611b74833981519152602052604090206001015490565b61059082610567565b61059981610b28565b6105a38383610bd6565b50505050565b6001600160a01b03811633146105d25760405163334bd91960e11b815260040160405180910390fd5b6105628282610c77565b5f80516020611b348339815191526105f381610b28565b6105fb610cf0565b50565b610606610d4f565b61060f82610df3565b6106198282610dfd565b5050565b5f610626610ebe565b505f80516020611b1483398151915290565b610640610af1565b5f80516020611b5483398151915261065781610b28565b61065f610b32565b5f5460015461067b916001600160a01b03918216911688610b64565b5f5460015460405163aa0c0fc160e01b81526001600160a01b039283169263aa0c0fc1926106b8929116908b908b908b908b908a906004016119b0565b5f604051808303815f87803b1580156106cf575f80fd5b505af11580156106e1573d5f803e3d5ffd5b50505050866001600160a01b03167f5272d2fee39bff41b2e763562526315906046373ce08a7bacf76c3080d731ff0878787866040516107249493929190611a02565b60405180910390a25061074360015f80516020611bb483398151915255565b505050505050565b610753610af1565b5f80516020611b5483398151915261076a81610b28565b610772610b32565b5f5460015461078e916001600160a01b03918216911687610b64565b5f54600154604051633ddf4d7d60e11b81526001600160a01b0392831692637bbe9afa926107cc928c92909116908b908b908b908b90600401611a38565b5f604051808303815f87803b1580156107e3575f80fd5b505af11580156107f5573d5f803e3d5ffd5b50505050856001600160a01b03167f23b9573b29ff81f01c7aa1968188e1cb7d5858b08582e111fdaf386d9ef9bd8d86868660405161072493929190611a8e565b61083e610b32565b6001546105fb906001600160a01b0316333084610f07565b5f80516020611b3483398151915261086d81610b28565b6105fb610f40565b5f9182525f80516020611b74833981519152602090815260408084206001600160a01b0393909316845291905290205460ff1690565b5f6108b581610b28565b6001600160a01b0382166108dc5760405163d92e233d60e01b815260040160405180910390fd5b600254610900905f80516020611b54833981519152906001600160a01b0316610c77565b50600254610925905f80516020611af4833981519152906001600160a01b0316610c77565b5061093d5f80516020611b5483398151915283610bd6565b506109555f80516020611af483398151915283610bd6565b50600254604080516001600160a01b03928316815291841660208301527f33770ab682353c17917ad3e667f05905fc8dda00671ef1ed33bef9bc8db0323e910160405180910390a150600280546001600160a01b0319166001600160a01b0392909216919091179055565b6109c982610567565b6109d281610b28565b6105a38383610c77565b7ff0c57e16840df040f15088dc2f81fe391c3923bec73e23a9662efc9c229c6a008054600160401b810460ff16159067ffffffffffffffff165f81158015610a215750825b90505f8267ffffffffffffffff166001148015610a3d5750303b155b905081158015610a4b575080155b15610a695760405163f92ee8a960e01b815260040160405180910390fd5b845467ffffffffffffffff191660011785558315610a9357845460ff60401b1916600160401b1785555b610a9f89898989610f88565b8315610ae657845460ff60401b19168555604051600181527fc7f505b2f371ae2175ee4913f4499e1f2633a7b5936321eed1cdaeb6115181d2906020015b60405180910390a15b505050505050505050565b5f80516020611bb4833981519152805460011901610b2257604051633ee5aeb560e01b815260040160405180910390fd5b60029055565b6105fb81336111a3565b5f80516020611b948339815191525460ff1615610b625760405163d93c066560e01b815260040160405180910390fd5b565b6040516001600160a01b0383811660248301526044820183905261056291859182169063a9059cbb906064015b604051602081830303815290604052915060e01b6020820180516001600160e01b0383818316178352505050506111dc565b60015f80516020611bb483398151915255565b5f5f80516020611b74833981519152610bef8484610875565b610c6e575f848152602082815260408083206001600160a01b03871684529091529020805460ff19166001179055610c243390565b6001600160a01b0316836001600160a01b0316857f2f8788117e7eff1d82e926ec794901d17c78024a50270940304540a733656f0d60405160405180910390a460019150506104c4565b5f9150506104c4565b5f5f80516020611b74833981519152610c908484610875565b15610c6e575f848152602082815260408083206001600160a01b0387168085529252808320805460ff1916905551339287917ff6391f5c32d9c69d2a47ea670b442974b53935d1edc7fd64eb21e047a839171b9190a460019150506104c4565b610cf861123d565b5f80516020611b94833981519152805460ff191681557f5db9ee0a495bf2e6ff9c91a7834c1ba4fdd244a5e8aa4e537bd38aeae4b073aa335b6040516001600160a01b03909116815260200160405180910390a150565b306001600160a01b037f0000000000000000000000000000000000000000000000000000000000000000161480610dd557507f00000000000000000000000000000000000000000000000000000000000000006001600160a01b0316610dc95f80516020611b14833981519152546001600160a01b031690565b6001600160a01b031614155b15610b625760405163703e46dd60e11b815260040160405180910390fd5b5f61061981610b28565b816001600160a01b03166352d1902d6040518163ffffffff1660e01b8152600401602060405180830381865afa925050508015610e57575060408051601f3d908101601f19168201909252610e5491810190611aa7565b60015b610e8457604051634c9c8ce360e01b81526001600160a01b03831660048201526024015b60405180910390fd5b5f80516020611b148339815191528114610eb457604051632a87526960e21b815260048101829052602401610e7b565b610562838361126c565b306001600160a01b037f00000000000000000000000000000000000000000000000000000000000000001614610b625760405163703e46dd60e11b815260040160405180910390fd5b6040516001600160a01b0384811660248301528381166044830152606482018390526105a39186918216906323b872dd90608401610b91565b610f48610b32565b5f80516020611b94833981519152805460ff191660011781557f62e78cea01bee320cd4e420270b5ea74000d11b0c9f74754ebdbfc544b05a25833610d31565b7ff0c57e16840df040f15088dc2f81fe391c3923bec73e23a9662efc9c229c6a008054600160401b810460ff16159067ffffffffffffffff165f81158015610fcd5750825b90505f8267ffffffffffffffff166001148015610fe95750303b155b905081158015610ff7575080155b156110155760405163f92ee8a960e01b815260040160405180910390fd5b845467ffffffffffffffff19166001178555831561103f57845460ff60401b1916600160401b1785555b6001600160a01b038916158061105c57506001600160a01b038816155b8061106e57506001600160a01b038716155b8061108057506001600160a01b038616155b1561109e5760405163d92e233d60e01b815260040160405180910390fd5b6110a66112c1565b6110ae6112c9565b6110b66112c1565b6110be6112d9565b5f80546001600160a01b03808c166001600160a01b0319928316178355600180548c831690841617905560028054918b16919092161790556111009087610bd6565b506111185f80516020611b5483398151915288610bd6565b506111305f80516020611af483398151915288610bd6565b506111485f80516020611b3483398151915287610bd6565b506111605f80516020611b3483398151915288610bd6565b508315610ae657845460ff60401b19168555604051600181527fc7f505b2f371ae2175ee4913f4499e1f2633a7b5936321eed1cdaeb6115181d290602001610add565b6111ad8282610875565b6106195760405163e2517d3f60e01b81526001600160a01b038216600482015260248101839052604401610e7b565b5f6111f06001600160a01b038416836112e9565b905080515f141580156112145750808060200190518101906112129190611abe565b155b1561056257604051635274afe760e01b81526001600160a01b0384166004820152602401610e7b565b5f80516020611b948339815191525460ff16610b6257604051638dfc202b60e01b815260040160405180910390fd5b611275826112fd565b6040516001600160a01b038316907fbc7cd75a20ee27fd9adebab32041f755214dbc6bffa90cc0225b39da2e5c2d3b905f90a28051156112b9576105628282611360565b6106196113d2565b610b626113f1565b6112d16113f1565b610b6261143a565b6112e16113f1565b610b62611442565b60606112f683835f611462565b9392505050565b806001600160a01b03163b5f0361133257604051634c9c8ce360e01b81526001600160a01b0382166004820152602401610e7b565b5f80516020611b1483398151915280546001600160a01b0319166001600160a01b0392909216919091179055565b60605f80846001600160a01b03168460405161137c9190611add565b5f60405180830381855af49150503d805f81146113b4576040519150601f19603f3d011682016040523d82523d5f602084013e6113b9565b606091505b50915091506113c98583836114fb565b95945050505050565b3415610b625760405163b398979f60e01b815260040160405180910390fd5b7ff0c57e16840df040f15088dc2f81fe391c3923bec73e23a9662efc9c229c6a0054600160401b900460ff16610b6257604051631afcd79f60e31b815260040160405180910390fd5b610bc36113f1565b61144a6113f1565b5f80516020611b94833981519152805460ff19169055565b6060814710156114875760405163cd78605960e01b8152306004820152602401610e7b565b5f80856001600160a01b031684866040516114a29190611add565b5f6040518083038185875af1925050503d805f81146114dc576040519150601f19603f3d011682016040523d82523d5f602084013e6114e1565b606091505b50915091506114f18683836114fb565b9695505050505050565b6060826115105761150b82611557565b6112f6565b815115801561152757506001600160a01b0384163b155b1561155057604051639996b31560e01b81526001600160a01b0385166004820152602401610e7b565b50806112f6565b8051156115675780518082602001fd5b604051630a12f52160e11b815260040160405180910390fd5b5f60208284031215611590575f80fd5b81356001600160e01b0319811681146112f6575f80fd5b80356001600160a01b03811681146115bd575f80fd5b919050565b5f805f606084860312156115d4575f80fd5b6115dd846115a7565b95602085013595506040909401359392505050565b5f60208284031215611602575f80fd5b5035919050565b5f806040838503121561161a575f80fd5b8235915061162a602084016115a7565b90509250929050565b634e487b7160e01b5f52604160045260245ffd5b5f8060408385031215611658575f80fd5b611661836115a7565b9150602083013567ffffffffffffffff81111561167c575f80fd5b8301601f8101851361168c575f80fd5b803567ffffffffffffffff8111156116a6576116a6611633565b604051601f8201601f19908116603f0116810167ffffffffffffffff811182821017156116d5576116d5611633565b6040528181528282016020018710156116ec575f80fd5b816020840160208301375f602083830101528093505050509250929050565b5f8083601f84011261171b575f80fd5b50813567ffffffffffffffff811115611732575f80fd5b602083019150836020828501011115611749575f80fd5b9250929050565b5f805f805f8060a08789031215611765575f80fd5b61176e876115a7565b955060208701359450604087013567ffffffffffffffff811115611790575f80fd5b61179c89828a0161170b565b90955093505060608701359150608087013567ffffffffffffffff8111156117c2575f80fd5b87016080818a0312156117d3575f80fd5b809150509295509295509295565b5f805f805f8086880360a08112156117f7575f80fd5b6020811215611804575f80fd5b50869550611814602088016115a7565b945060408701359350606087013567ffffffffffffffff811115611836575f80fd5b61184289828a0161170b565b979a9699509497949695608090950135949350505050565b5f6020828403121561186a575f80fd5b6112f6826115a7565b602081525f82518060208401528060208501604085015e5f604082850101526040601f19601f83011684010191505092915050565b5f805f80608085870312156118bb575f80fd5b6118c4856115a7565b93506118d2602086016115a7565b92506118e0604086016115a7565b91506118ee606086016115a7565b905092959194509250565b81835281816020850137505f828201602090810191909152601f909101601f19169091010190565b6001600160a01b03611932826115a7565b1682526001600160a01b03611949602083016115a7565b166020830152604081810135908301525f606082013536839003601e19018112611971575f80fd5b820160208101903567ffffffffffffffff81111561198d575f80fd5b80360382131561199b575f80fd5b608060608601526113c96080860182846118f9565b6001600160a01b038781168252861660208201526040810185905260a0606082018190525f906119e390830185876118f9565b82810360808401526119f58185611921565b9998505050505050505050565b848152606060208201525f611a1b6060830185876118f9565b8281036040840152611a2d8185611921565b979650505050505050565b6001600160a01b03611a49886115a7565b1681526001600160a01b038681166020830152851660408201526060810184905260a0608082018190525f90611a8290830184866118f9565b98975050505050505050565b838152604060208201525f6113c96040830184866118f9565b5f60208284031215611ab7575f80fd5b5051919050565b5f60208284031215611ace575f80fd5b815180151581146112f6575f80fd5b5f82518060208501845e5f92019182525091905056fe0da06bffcb63442de88b7f8385468eaf51e47079d4fa96875938e2c27c451deb360894a13ba1a3210667c828492db98dca3e2076cc3735a920a3ca505d382bbc65d7a28e3265b37a6474929f336521b332c1681b933f6cb9f3376673440d862a10dac8c06a04bec0b551627dad28bc00d6516b0caacd1c7b345fcdb5211334e402dd7bc7dec4dceedda775e58dd541e08a116c6c53815c0bd028192f7b626800cd5ed15c6e187e77e9aee88184c21f4f2182ab5827cb3b7e07fbedcd63f033009b779b17422d0df92223018b32b4d1fa46e071723d6817e2486d003becc55f00a2646970667358221220482349f00934cd01feb59f087d1c47fb5ee25b0a4d78018df095854992d12b2a64736f6c634300081a0033","linkReferences":{}},"methodIdentifiers":{"DEFAULT_ADMIN_ROLE()":"a217fddf","PAUSER_ROLE()":"e63ab1e9","TSS_ROLE()":"a783c789","UPGRADE_INTERFACE_VERSION()":"ad3cb1cc","WITHDRAWER_ROLE()":"85f438c1","gateway()":"116191b6","getRoleAdmin(bytes32)":"248a9ca3","grantRole(bytes32,address)":"2f2ff15d","hasRole(bytes32,address)":"91d14854","initialize(address,address,address,address)":"f8c8765e","pause()":"8456cb59","paused()":"5c975abb","proxiableUUID()":"52d1902d","receiveTokens(uint256)":"743e0c9b","renounceRole(bytes32,address)":"36568abe","revokeRole(bytes32,address)":"d547741f","supportsInterface(bytes4)":"01ffc9a7","tssAddress()":"5b112591","unpause()":"3f4ba83a","updateTSSAddress(address)":"950837aa","upgradeToAndCall(address,bytes)":"4f1ef286","withdraw(address,uint256,bytes32)":"106e6290","withdrawAndCall((address),address,uint256,bytes,bytes32)":"6fb9a7af","withdrawAndRevert(address,uint256,bytes,bytes32,(address,address,uint256,bytes))":"6f8728ad","zetaToken()":"21e093b1"},"id":115}