{"abi":[{"type":"constructor","inputs":[{"name":"wzeta_","type":"address","internalType":"address"},{"name":"uniswapv2Factory_","type":"address","internalType":"address"},{"name":"uniswapv2Router02_","type":"address","internalType":"address"}],"stateMutability":"nonpayable"},{"type":"function","name":"FUNGIBLE_MODULE_ADDRESS","inputs":[],"outputs":[{"name":"","type":"address","internalType":"address"}],"stateMutability":"view"},{"type":"function","name":"depositAndCall","inputs":[{"name":"context","type":"tuple","internalType":"struct zContext","components":[{"name":"origin","type":"bytes","internalType":"bytes"},{"name":"sender","type":"address","internalType":"address"},{"name":"chainID","type":"uint256","internalType":"uint256"}]},{"name":"zrc20","type":"address","internalType":"address"},{"name":"amount","type":"uint256","internalType":"uint256"},{"name":"target","type":"address","internalType":"address"},{"name":"message","type":"bytes","internalType":"bytes"}],"outputs":[],"stateMutability":"nonpayable"},{"type":"function","name":"gasCoinZRC20ByChainId","inputs":[{"name":"","type":"uint256","internalType":"uint256"}],"outputs":[{"name":"","type":"address","internalType":"address"}],"stateMutability":"view"},{"type":"function","name":"gasPriceByChainId","inputs":[{"name":"","type":"uint256","internalType":"uint256"}],"outputs":[{"name":"","type":"uint256","internalType":"uint256"}],"stateMutability":"view"},{"type":"function","name":"gasZetaPoolByChainId","inputs":[{"name":"","type":"uint256","internalType":"uint256"}],"outputs":[{"name":"","type":"address","internalType":"address"}],"stateMutability":"view"},{"type":"function","name":"setConnectorZEVMAddress","inputs":[{"name":"addr","type":"address","internalType":"address"}],"outputs":[],"stateMutability":"nonpayable"},{"type":"function","name":"setGasCoinZRC20","inputs":[{"name":"chainID","type":"uint256","internalType":"uint256"},{"name":"zrc20","type":"address","internalType":"address"}],"outputs":[],"stateMutability":"nonpayable"},{"type":"function","name":"setGasPrice","inputs":[{"name":"chainID","type":"uint256","internalType":"uint256"},{"name":"price","type":"uint256","internalType":"uint256"}],"outputs":[],"stateMutability":"nonpayable"},{"type":"function","name":"setGasZetaPool","inputs":[{"name":"chainID","type":"uint256","internalType":"uint256"},{"name":"erc20","type":"address","internalType":"address"}],"outputs":[],"stateMutability":"nonpayable"},{"type":"function","name":"setWZETAContractAddress","inputs":[{"name":"addr","type":"address","internalType":"address"}],"outputs":[],"stateMutability":"nonpayable"},{"type":"function","name":"uniswapv2FactoryAddress","inputs":[],"outputs":[{"name":"","type":"address","internalType":"address"}],"stateMutability":"view"},{"type":"function","name":"uniswapv2PairFor","inputs":[{"name":"factory","type":"address","internalType":"address"},{"name":"tokenA","type":"address","internalType":"address"},{"name":"tokenB","type":"address","internalType":"address"}],"outputs":[{"name":"pair","type":"address","internalType":"address"}],"stateMutability":"pure"},{"type":"function","name":"uniswapv2Router02Address","inputs":[],"outputs":[{"name":"","type":"address","internalType":"address"}],"stateMutability":"view"},{"type":"function","name":"wZetaContractAddress","inputs":[],"outputs":[{"name":"","type":"address","internalType":"address"}],"stateMutability":"view"},{"type":"function","name":"zetaConnectorZEVMAddress","inputs":[],"outputs":[{"name":"","type":"address","internalType":"address"}],"stateMutability":"view"},{"type":"event","name":"SetConnectorZEVM","inputs":[{"name":"","type":"address","indexed":false,"internalType":"address"}],"anonymous":false},{"type":"event","name":"SetGasCoin","inputs":[{"name":"","type":"uint256","indexed":false,"internalType":"uint256"},{"name":"","type":"address","indexed":false,"internalType":"address"}],"anonymous":false},{"type":"event","name":"SetGasPrice","inputs":[{"name":"","type":"uint256","indexed":false,"internalType":"uint256"},{"name":"","type":"uint256","indexed":false,"internalType":"uint256"}],"anonymous":false},{"type":"event","name":"SetGasZetaPool","inputs":[{"name":"","type":"uint256","indexed":false,"internalType":"uint256"},{"name":"","type":"address","indexed":false,"internalType":"address"}],"anonymous":false},{"type":"event","name":"SetWZeta","inputs":[{"name":"","type":"address","indexed":false,"internalType":"address"}],"anonymous":false},{"type":"event","name":"SystemContractDeployed","inputs":[],"anonymous":false},{"type":"error","name":"CallerIsNotFungibleModule","inputs":[]},{"type":"error","name":"CantBeIdenticalAddresses","inputs":[]},{"type":"error","name":"CantBeZeroAddress","inputs":[]},{"type":"error","name":"InvalidTarget","inputs":[]},{"type":"error","name":"ZeroAddress","inputs":[]}],"bytecode":{"object":"0x60c060405234801561000f575f80fd5b50604051610cb9380380610cb983398101604081905261002e916100d8565b3373735b14bb79463307aacbed86daf3322b1e6226ab1461006257604051632b2add3d60e01b815260040160405180910390fd5b600380546001600160a01b0319166001600160a01b0385811691909117909155828116608052811660a0526040517f80699e81136d69cb8367ad52a994e25c722a86da654b561d0c14b61a777e7ac5905f90a1505050610118565b80516001600160a01b03811681146100d3575f80fd5b919050565b5f805f606084860312156100ea575f80fd5b6100f3846100bd565b9250610101602085016100bd565b915061010f604085016100bd565b90509250925092565b60805160a051610b796101405f395f6101a901525f818161026f01526103930152610b795ff3fe608060405234801561000f575f80fd5b50600436106100f0575f3560e01c806397770dff11610093578063c63585cc11610063578063c63585cc1461022a578063d7fd7afb1461023d578063d936a0121461026a578063ee2815ba14610291575f80fd5b806397770dff146101de578063a7cb0507146101f1578063c39aca3714610204578063c62178ac14610217575f80fd5b8063513a9c05116100ce578063513a9c0514610169578063569541b914610191578063842da36d146101a457806391dd645f146101cb575f80fd5b80630be15547146100f45780631f0e251b146101395780633ce4a5bc1461014e575b5f80fd5b61011c6101023660046108a7565b60016020525f90815260409020546001600160a01b031681565b6040516001600160a01b0390911681526020015b60405180910390f35b61014c6101473660046108d9565b6102a4565b005b61011c73735b14bb79463307aacbed86daf3322b1e6226ab81565b61011c6101773660046108a7565b60026020525f90815260409020546001600160a01b031681565b60035461011c906001600160a01b031681565b61011c7f000000000000000000000000000000000000000000000000000000000000000081565b61014c6101d93660046108f9565b610354565b61014c6101ec3660046108d9565b61042b565b61014c6101ff366004610923565b6104d4565b61014c610212366004610943565b610555565b60045461011c906001600160a01b031681565b61011c610238366004610a09565b6106b4565b61025c61024b3660046108a7565b5f6020819052908152604090205481565b604051908152602001610130565b61011c7f000000000000000000000000000000000000000000000000000000000000000081565b61014c61029f3660046108f9565b61078b565b3373735b14bb79463307aacbed86daf3322b1e6226ab146102d857604051632b2add3d60e01b815260040160405180910390fd5b6001600160a01b0381166102ff5760405163d92e233d60e01b815260040160405180910390fd5b600480546001600160a01b0319166001600160a01b0383169081179091556040519081527f3ade88e3922d64780e1bf4460d364c2970b69da813f9c0c07a1c187b5647636c906020015b60405180910390a150565b3373735b14bb79463307aacbed86daf3322b1e6226ab1461038857604051632b2add3d60e01b815260040160405180910390fd5b6003545f906103c2907f0000000000000000000000000000000000000000000000000000000000000000906001600160a01b0316846106b4565b5f8481526002602090815260409182902080546001600160a01b0319166001600160a01b0385169081179091558251878152918201529192507f0ecec485166da6139b13bb7e033e9446e2d35348e80ebf1180d4afe2dba1704e910160405180910390a1505050565b3373735b14bb79463307aacbed86daf3322b1e6226ab1461045f57604051632b2add3d60e01b815260040160405180910390fd5b6001600160a01b0381166104865760405163d92e233d60e01b815260040160405180910390fd5b600380546001600160a01b0319166001600160a01b0383169081179091556040519081527fdba79d534382d1a8ae108e4c8ecb27c6ae42ab8b91d44eedf88bd329f3868d5e90602001610349565b3373735b14bb79463307aacbed86daf3322b1e6226ab1461050857604051632b2add3d60e01b815260040160405180910390fd5b5f828152602081815260409182902083905581518481529081018390527f49f492222906ac486c3c1401fa545626df1f0c0e5a77a05597ea2ed66af9850d91015b60405180910390a15050565b3373735b14bb79463307aacbed86daf3322b1e6226ab1461058957604051632b2add3d60e01b815260040160405180910390fd5b6001600160a01b03831673735b14bb79463307aacbed86daf3322b1e6226ab14806105bc57506001600160a01b03831630145b156105da5760405163416aebb560e11b815260040160405180910390fd5b6040516311f9fbc960e21b81526001600160a01b038481166004830152602482018690528616906347e7ef24906044016020604051808303815f875af1158015610626573d5f803e3d5ffd5b505050506040513d601f19601f8201168201806040525081019061064a9190610a49565b50604051636f218ab760e11b81526001600160a01b0384169063de43156e9061067f9089908990899088908890600401610a90565b5f604051808303815f87803b158015610696575f80fd5b505af11580156106a8573d5f803e3d5ffd5b50505050505050505050565b5f805f6106c1858561081d565b6040516bffffffffffffffffffffffff19606084811b8216602084015283901b16603482015291935091508690604801604051602081830303815290604052805190602001206040516020016107699291906001600160f81b0319815260609290921b6bffffffffffffffffffffffff1916600183015260158201527f96e8ac4277198ff8b6f785478aa9a39f403cb768dd02cbee326c3e7da348845f603582015260550190565b60408051601f1981840301815291905280516020909101209695505050505050565b3373735b14bb79463307aacbed86daf3322b1e6226ab146107bf57604051632b2add3d60e01b815260040160405180910390fd5b5f8281526001602090815260409182902080546001600160a01b0319166001600160a01b0385169081179091558251858152918201527fd1b36d30f6248e97c473b4d1348ca164a4ef6759022f54a58ec200326c39c45d9101610549565b5f80826001600160a01b0316846001600160a01b0316036108515760405163658f3e7f60e11b815260040160405180910390fd5b826001600160a01b0316846001600160a01b031610610871578284610874565b83835b90925090506001600160a01b0382166108a057604051633c5a83ed60e11b815260040160405180910390fd5b9250929050565b5f602082840312156108b7575f80fd5b5035919050565b80356001600160a01b03811681146108d4575f80fd5b919050565b5f602082840312156108e9575f80fd5b6108f2826108be565b9392505050565b5f806040838503121561090a575f80fd5b8235915061091a602084016108be565b90509250929050565b5f8060408385031215610934575f80fd5b50508035926020909101359150565b5f805f805f8060a08789031215610958575f80fd5b863567ffffffffffffffff81111561096e575f80fd5b87016060818a03121561097f575f80fd5b955061098d602088016108be565b9450604087013593506109a2606088016108be565b9250608087013567ffffffffffffffff8111156109bd575f80fd5b8701601f810189136109cd575f80fd5b803567ffffffffffffffff8111156109e3575f80fd5b8960208284010111156109f4575f80fd5b60208201935080925050509295509295509295565b5f805f60608486031215610a1b575f80fd5b610a24846108be565b9250610a32602085016108be565b9150610a40604085016108be565b90509250925092565b5f60208284031215610a59575f80fd5b815180151581146108f2575f80fd5b81835281816020850137505f828201602090810191909152601f909101601f19169091010190565b608081525f8635601e19883603018112610aa8575f80fd5b870160208101903567ffffffffffffffff811115610ac4575f80fd5b803603821315610ad2575f80fd5b60606080850152610ae760e085018284610a68565b91506001600160a01b039050610aff60208a016108be565b1660a0840152604088013560c08401526001600160a01b03871660208401528560408401528281036060840152610b37818587610a68565b9897505050505050505056fea26469706673582212201681d6dfafc6f8b4a8c3b9a6cdd90c2fd1de3c72ab75b4fd599d8d8162fbe5aa64736f6c634300081a0033","linkReferences":{}},"methodIdentifiers":{"FUNGIBLE_MODULE_ADDRESS()":"3ce4a5bc","depositAndCall((bytes,address,uint256),address,uint256,address,bytes)":"c39aca37","gasCoinZRC20ByChainId(uint256)":"0be15547","gasPriceByChainId(uint256)":"d7fd7afb","gasZetaPoolByChainId(uint256)":"513a9c05","setConnectorZEVMAddress(address)":"1f0e251b","setGasCoinZRC20(uint256,address)":"ee2815ba","setGasPrice(uint256,uint256)":"a7cb0507","setGasZetaPool(uint256,address)":"91dd645f","setWZETAContractAddress(address)":"97770dff","uniswapv2FactoryAddress()":"d936a012","uniswapv2PairFor(address,address,address)":"c63585cc","uniswapv2Router02Address()":"842da36d","wZetaContractAddress()":"569541b9","zetaConnectorZEVMAddress()":"c62178ac"},"id":9}