{"abi":[{"type":"constructor","inputs":[],"stateMutability":"nonpayable"},{"type":"function","name":"ASSET_HANDLER_ROLE","inputs":[],"outputs":[{"name":"","type":"bytes32","internalType":"bytes32"}],"stateMutability":"view"},{"type":"function","name":"DEFAULT_ADMIN_ROLE","inputs":[],"outputs":[{"name":"","type":"bytes32","internalType":"bytes32"}],"stateMutability":"view"},{"type":"function","name":"PAUSER_ROLE","inputs":[],"outputs":[{"name":"","type":"bytes32","internalType":"bytes32"}],"stateMutability":"view"},{"type":"function","name":"TSS_ROLE","inputs":[],"outputs":[{"name":"","type":"bytes32","internalType":"bytes32"}],"stateMutability":"view"},{"type":"function","name":"UPGRADE_INTERFACE_VERSION","inputs":[],"outputs":[{"name":"","type":"string","internalType":"string"}],"stateMutability":"view"},{"type":"function","name":"call","inputs":[{"name":"receiver","type":"address","internalType":"address"},{"name":"payload","type":"bytes","internalType":"bytes"},{"name":"revertOptions","type":"tuple","internalType":"struct RevertOptions","components":[{"name":"revertAddress","type":"address","internalType":"address"},{"name":"callOnRevert","type":"bool","internalType":"bool"},{"name":"abortAddress","type":"address","internalType":"address"},{"name":"revertMessage","type":"bytes","internalType":"bytes"},{"name":"onRevertGasLimit","type":"uint256","internalType":"uint256"}]}],"outputs":[],"stateMutability":"nonpayable"},{"type":"function","name":"custody","inputs":[],"outputs":[{"name":"","type":"address","internalType":"address"}],"stateMutability":"view"},{"type":"function","name":"deposit","inputs":[{"name":"receiver","type":"address","internalType":"address"},{"name":"amount","type":"uint256","internalType":"uint256"},{"name":"asset","type":"address","internalType":"address"},{"name":"revertOptions","type":"tuple","internalType":"struct RevertOptions","components":[{"name":"revertAddress","type":"address","internalType":"address"},{"name":"callOnRevert","type":"bool","internalType":"bool"},{"name":"abortAddress","type":"address","internalType":"address"},{"name":"revertMessage","type":"bytes","internalType":"bytes"},{"name":"onRevertGasLimit","type":"uint256","internalType":"uint256"}]}],"outputs":[],"stateMutability":"nonpayable"},{"type":"function","name":"deposit","inputs":[{"name":"receiver","type":"address","internalType":"address"},{"name":"revertOptions","type":"tuple","internalType":"struct RevertOptions","components":[{"name":"revertAddress","type":"address","internalType":"address"},{"name":"callOnRevert","type":"bool","internalType":"bool"},{"name":"abortAddress","type":"address","internalType":"address"},{"name":"revertMessage","type":"bytes","internalType":"bytes"},{"name":"onRevertGasLimit","type":"uint256","internalType":"uint256"}]}],"outputs":[],"stateMutability":"payable"},{"type":"function","name":"depositAndCall","inputs":[{"name":"receiver","type":"address","internalType":"address"},{"name":"payload","type":"bytes","internalType":"bytes"},{"name":"revertOptions","type":"tuple","internalType":"struct RevertOptions","components":[{"name":"revertAddress","type":"address","internalType":"address"},{"name":"callOnRevert","type":"bool","internalType":"bool"},{"name":"abortAddress","type":"address","internalType":"address"},{"name":"revertMessage","type":"bytes","internalType":"bytes"},{"name":"onRevertGasLimit","type":"uint256","internalType":"uint256"}]}],"outputs":[],"stateMutability":"payable"},{"type":"function","name":"depositAndCall","inputs":[{"name":"receiver","type":"address","internalType":"address"},{"name":"amount","type":"uint256","internalType":"uint256"},{"name":"asset","type":"address","internalType":"address"},{"name":"payload","type":"bytes","internalType":"bytes"},{"name":"revertOptions","type":"tuple","internalType":"struct RevertOptions","components":[{"name":"revertAddress","type":"address","internalType":"address"},{"name":"callOnRevert","type":"bool","internalType":"bool"},{"name":"abortAddress","type":"address","internalType":"address"},{"name":"revertMessage","type":"bytes","internalType":"bytes"},{"name":"onRevertGasLimit","type":"uint256","internalType":"uint256"}]}],"outputs":[],"stateMutability":"nonpayable"},{"type":"function","name":"execute","inputs":[{"name":"destination","type":"address","internalType":"address"},{"name":"data","type":"bytes","internalType":"bytes"}],"outputs":[{"name":"","type":"bytes","internalType":"bytes"}],"stateMutability":"payable"},{"type":"function","name":"executeRevert","inputs":[{"name":"destination","type":"address","internalType":"address"},{"name":"data","type":"bytes","internalType":"bytes"},{"name":"revertContext","type":"tuple","internalType":"struct RevertContext","components":[{"name":"asset","type":"address","internalType":"address"},{"name":"amount","type":"uint64","internalType":"uint64"},{"name":"revertMessage","type":"bytes","internalType":"bytes"}]}],"outputs":[],"stateMutability":"payable"},{"type":"function","name":"executeWithERC20","inputs":[{"name":"token","type":"address","internalType":"address"},{"name":"to","type":"address","internalType":"address"},{"name":"amount","type":"uint256","internalType":"uint256"},{"name":"data","type":"bytes","internalType":"bytes"}],"outputs":[],"stateMutability":"nonpayable"},{"type":"function","name":"getRoleAdmin","inputs":[{"name":"role","type":"bytes32","internalType":"bytes32"}],"outputs":[{"name":"","type":"bytes32","internalType":"bytes32"}],"stateMutability":"view"},{"type":"function","name":"grantRole","inputs":[{"name":"role","type":"bytes32","internalType":"bytes32"},{"name":"account","type":"address","internalType":"address"}],"outputs":[],"stateMutability":"nonpayable"},{"type":"function","name":"hasRole","inputs":[{"name":"role","type":"bytes32","internalType":"bytes32"},{"name":"account","type":"address","internalType":"address"}],"outputs":[{"name":"","type":"bool","internalType":"bool"}],"stateMutability":"view"},{"type":"function","name":"initialize","inputs":[{"name":"tssAddress_","type":"address","internalType":"address"},{"name":"zetaToken_","type":"address","internalType":"address"},{"name":"admin_","type":"address","internalType":"address"}],"outputs":[],"stateMutability":"nonpayable"},{"type":"function","name":"pause","inputs":[],"outputs":[],"stateMutability":"nonpayable"},{"type":"function","name":"paused","inputs":[],"outputs":[{"name":"","type":"bool","internalType":"bool"}],"stateMutability":"view"},{"type":"function","name":"proxiableUUID","inputs":[],"outputs":[{"name":"","type":"bytes32","internalType":"bytes32"}],"stateMutability":"view"},{"type":"function","name":"renounceRole","inputs":[{"name":"role","type":"bytes32","internalType":"bytes32"},{"name":"callerConfirmation","type":"address","internalType":"address"}],"outputs":[],"stateMutability":"nonpayable"},{"type":"function","name":"revertWithERC20","inputs":[{"name":"token","type":"address","internalType":"address"},{"name":"to","type":"address","internalType":"address"},{"name":"amount","type":"uint256","internalType":"uint256"},{"name":"data","type":"bytes","internalType":"bytes"},{"name":"revertContext","type":"tuple","internalType":"struct RevertContext","components":[{"name":"asset","type":"address","internalType":"address"},{"name":"amount","type":"uint64","internalType":"uint64"},{"name":"revertMessage","type":"bytes","internalType":"bytes"}]}],"outputs":[],"stateMutability":"nonpayable"},{"type":"function","name":"revokeRole","inputs":[{"name":"role","type":"bytes32","internalType":"bytes32"},{"name":"account","type":"address","internalType":"address"}],"outputs":[],"stateMutability":"nonpayable"},{"type":"function","name":"setConnector","inputs":[{"name":"zetaConnector_","type":"address","internalType":"address"}],"outputs":[],"stateMutability":"nonpayable"},{"type":"function","name":"setCustody","inputs":[{"name":"custody_","type":"address","internalType":"address"}],"outputs":[],"stateMutability":"nonpayable"},{"type":"function","name":"supportsInterface","inputs":[{"name":"interfaceId","type":"bytes4","internalType":"bytes4"}],"outputs":[{"name":"","type":"bool","internalType":"bool"}],"stateMutability":"view"},{"type":"function","name":"tssAddress","inputs":[],"outputs":[{"name":"","type":"address","internalType":"address"}],"stateMutability":"view"},{"type":"function","name":"unpause","inputs":[],"outputs":[],"stateMutability":"nonpayable"},{"type":"function","name":"upgradeToAndCall","inputs":[{"name":"newImplementation","type":"address","internalType":"address"},{"name":"data","type":"bytes","internalType":"bytes"}],"outputs":[],"stateMutability":"payable"},{"type":"function","name":"zetaConnector","inputs":[],"outputs":[{"name":"","type":"address","internalType":"address"}],"stateMutability":"view"},{"type":"function","name":"zetaToken","inputs":[],"outputs":[{"name":"","type":"address","internalType":"address"}],"stateMutability":"view"},{"type":"event","name":"Called","inputs":[{"name":"sender","type":"address","indexed":true,"internalType":"address"},{"name":"receiver","type":"address","indexed":true,"internalType":"address"},{"name":"payload","type":"bytes","indexed":false,"internalType":"bytes"},{"name":"revertOptions","type":"tuple","indexed":false,"internalType":"struct RevertOptions","components":[{"name":"revertAddress","type":"address","internalType":"address"},{"name":"callOnRevert","type":"bool","internalType":"bool"},{"name":"abortAddress","type":"address","internalType":"address"},{"name":"revertMessage","type":"bytes","internalType":"bytes"},{"name":"onRevertGasLimit","type":"uint256","internalType":"uint256"}]}],"anonymous":false},{"type":"event","name":"Deposited","inputs":[{"name":"sender","type":"address","indexed":true,"internalType":"address"},{"name":"receiver","type":"address","indexed":true,"internalType":"address"},{"name":"amount","type":"uint256","indexed":false,"internalType":"uint256"},{"name":"asset","type":"address","indexed":false,"internalType":"address"},{"name":"payload","type":"bytes","indexed":false,"internalType":"bytes"},{"name":"revertOptions","type":"tuple","indexed":false,"internalType":"struct RevertOptions","components":[{"name":"revertAddress","type":"address","internalType":"address"},{"name":"callOnRevert","type":"bool","internalType":"bool"},{"name":"abortAddress","type":"address","internalType":"address"},{"name":"revertMessage","type":"bytes","internalType":"bytes"},{"name":"onRevertGasLimit","type":"uint256","internalType":"uint256"}]}],"anonymous":false},{"type":"event","name":"Executed","inputs":[{"name":"destination","type":"address","indexed":true,"internalType":"address"},{"name":"value","type":"uint256","indexed":false,"internalType":"uint256"},{"name":"data","type":"bytes","indexed":false,"internalType":"bytes"}],"anonymous":false},{"type":"event","name":"ExecutedWithERC20","inputs":[{"name":"token","type":"address","indexed":true,"internalType":"address"},{"name":"to","type":"address","indexed":true,"internalType":"address"},{"name":"amount","type":"uint256","indexed":false,"internalType":"uint256"},{"name":"data","type":"bytes","indexed":false,"internalType":"bytes"}],"anonymous":false},{"type":"event","name":"Initialized","inputs":[{"name":"version","type":"uint64","indexed":false,"internalType":"uint64"}],"anonymous":false},{"type":"event","name":"Paused","inputs":[{"name":"account","type":"address","indexed":false,"internalType":"address"}],"anonymous":false},{"type":"event","name":"Reverted","inputs":[{"name":"to","type":"address","indexed":true,"internalType":"address"},{"name":"token","type":"address","indexed":true,"internalType":"address"},{"name":"amount","type":"uint256","indexed":false,"internalType":"uint256"},{"name":"data","type":"bytes","indexed":false,"internalType":"bytes"},{"name":"revertContext","type":"tuple","indexed":false,"internalType":"struct RevertContext","components":[{"name":"asset","type":"address","internalType":"address"},{"name":"amount","type":"uint64","internalType":"uint64"},{"name":"revertMessage","type":"bytes","internalType":"bytes"}]}],"anonymous":false},{"type":"event","name":"RoleAdminChanged","inputs":[{"name":"role","type":"bytes32","indexed":true,"internalType":"bytes32"},{"name":"previousAdminRole","type":"bytes32","indexed":true,"internalType":"bytes32"},{"name":"newAdminRole","type":"bytes32","indexed":true,"internalType":"bytes32"}],"anonymous":false},{"type":"event","name":"RoleGranted","inputs":[{"name":"role","type":"bytes32","indexed":true,"internalType":"bytes32"},{"name":"account","type":"address","indexed":true,"internalType":"address"},{"name":"sender","type":"address","indexed":true,"internalType":"address"}],"anonymous":false},{"type":"event","name":"RoleRevoked","inputs":[{"name":"role","type":"bytes32","indexed":true,"internalType":"bytes32"},{"name":"account","type":"address","indexed":true,"internalType":"address"},{"name":"sender","type":"address","indexed":true,"internalType":"address"}],"anonymous":false},{"type":"event","name":"Unpaused","inputs":[{"name":"account","type":"address","indexed":false,"internalType":"address"}],"anonymous":false},{"type":"event","name":"Upgraded","inputs":[{"name":"implementation","type":"address","indexed":true,"internalType":"address"}],"anonymous":false},{"type":"error","name":"AccessControlBadConfirmation","inputs":[]},{"type":"error","name":"AccessControlUnauthorizedAccount","inputs":[{"name":"account","type":"address","internalType":"address"},{"name":"neededRole","type":"bytes32","internalType":"bytes32"}]},{"type":"error","name":"AddressEmptyCode","inputs":[{"name":"target","type":"address","internalType":"address"}]},{"type":"error","name":"AddressInsufficientBalance","inputs":[{"name":"account","type":"address","internalType":"address"}]},{"type":"error","name":"ApprovalFailed","inputs":[]},{"type":"error","name":"ConnectorInitialized","inputs":[]},{"type":"error","name":"CustodyInitialized","inputs":[]},{"type":"error","name":"DepositFailed","inputs":[]},{"type":"error","name":"ERC1967InvalidImplementation","inputs":[{"name":"implementation","type":"address","internalType":"address"}]},{"type":"error","name":"ERC1967NonPayable","inputs":[]},{"type":"error","name":"EnforcedPause","inputs":[]},{"type":"error","name":"ExecutionFailed","inputs":[]},{"type":"error","name":"ExpectedPause","inputs":[]},{"type":"error","name":"FailedInnerCall","inputs":[]},{"type":"error","name":"InsufficientERC20Amount","inputs":[]},{"type":"error","name":"InsufficientETHAmount","inputs":[]},{"type":"error","name":"InvalidInitialization","inputs":[]},{"type":"error","name":"NotInitializing","inputs":[]},{"type":"error","name":"NotWhitelistedInCustody","inputs":[]},{"type":"error","name":"ReentrancyGuardReentrantCall","inputs":[]},{"type":"error","name":"SafeERC20FailedOperation","inputs":[{"name":"token","type":"address","internalType":"address"}]},{"type":"error","name":"UUPSUnauthorizedCallContext","inputs":[]},{"type":"error","name":"UUPSUnsupportedProxiableUUID","inputs":[{"name":"slot","type":"bytes32","internalType":"bytes32"}]},{"type":"error","name":"ZeroAddress","inputs":[]}],"bytecode":{"object":"0x60a06040523060805234801561001457600080fd5b5061001d610022565b6100d4565b7ff0c57e16840df040f15088dc2f81fe391c3923bec73e23a9662efc9c229c6a00805468010000000000000000900460ff16156100725760405163f92ee8a960e01b815260040160405180910390fd5b80546001600160401b03908116146100d15780546001600160401b0319166001600160401b0390811782556040519081527fc7f505b2f371ae2175ee4913f4499e1f2633a7b5936321eed1cdaeb6115181d29060200160405180910390a15b50565b6080516136f06100fd6000396000818161217a015281816121a3015261262f01526136f06000f3fe6080604052600436106101e35760003560e01c80635d62c86011610102578063ae7a3a6f11610095578063d547741f11610064578063d547741f1461062e578063dda79b751461064e578063e63ab1e91461066e578063f7ad60db146106a257600080fd5b8063ae7a3a6f146105ae578063c0c53b8b146105ce578063d09e3b78146105ee578063d0b492c31461060e57600080fd5b806391d14854116100d157806391d14854146104b7578063a217fddf1461051c578063a783c78914610531578063ad3cb1cc1461056557600080fd5b80635d62c86014610448578063726ac97c1461047c578063744b9b8b1461048f5780638456cb59146104a257600080fd5b806336568abe1161017a57806352d1902d1161014957806352d1902d146103bc57806357bec62f146103d15780635b112591146103f15780635c975abb1461041157600080fd5b806336568abe146103545780633f4ba83a146103745780634f1ef286146103895780635131ab591461039c57600080fd5b80631cff79cd116101b65780631cff79cd1461027f57806321e093b11461029f578063248a9ca3146102d75780632f2ff15d1461033457600080fd5b806301ffc9a7146101e857806310188aef1461021d578063102614b01461023f5780631becceb41461025f575b600080fd5b3480156101f457600080fd5b50610208610203366004612d1f565b6106b5565b60405190151581526020015b60405180910390f35b34801561022957600080fd5b5061023d610238366004612d7d565b61074e565b005b34801561024b57600080fd5b5061023d61025a366004612db0565b610842565b34801561026b57600080fd5b5061023d61027a366004612e61565b610955565b61029261028d366004612ec8565b6109ec565b6040516102149190612f89565b3480156102ab57600080fd5b506003546102bf906001600160a01b031681565b6040516001600160a01b039091168152602001610214565b3480156102e357600080fd5b506103266102f2366004612f9c565b60009081527f02dd7bc7dec4dceedda775e58dd541e08a116c6c53815c0bd028192f7b626800602052604090206001015490565b604051908152602001610214565b34801561034057600080fd5b5061023d61034f366004612fb5565b610aef565b34801561036057600080fd5b5061023d61036f366004612fb5565b610b33565b34801561038057600080fd5b5061023d610b84565b61023d610397366004613010565b610bb9565b3480156103a857600080fd5b5061023d6103b7366004613117565b610bd8565b3480156103c857600080fd5b50610326610ef1565b3480156103dd57600080fd5b506002546102bf906001600160a01b031681565b3480156103fd57600080fd5b506001546102bf906001600160a01b031681565b34801561041d57600080fd5b507fcd5ed15c6e187e77e9aee88184c21f4f2182ab5827cb3b7e07fbedcd63f033005460ff16610208565b34801561045457600080fd5b506103267f584a0b16e9f616d90ccec14a0b852c19aceccfd3d60699398a57dce2b0de01b981565b61023d61048a366004613186565b610f20565b61023d61049d366004612e61565b6110b1565b3480156104ae57600080fd5b5061023d611246565b3480156104c357600080fd5b506102086104d2366004612fb5565b60009182527f02dd7bc7dec4dceedda775e58dd541e08a116c6c53815c0bd028192f7b626800602090815260408084206001600160a01b0393909316845291905290205460ff1690565b34801561052857600080fd5b50610326600081565b34801561053d57600080fd5b506103267f0da06bffcb63442de88b7f8385468eaf51e47079d4fa96875938e2c27c451deb81565b34801561057157600080fd5b506102926040518060400160405280600581526020017f352e302e3000000000000000000000000000000000000000000000000000000081525081565b3480156105ba57600080fd5b5061023d6105c9366004612d7d565b611278565b3480156105da57600080fd5b5061023d6105e93660046131d4565b61136c565b3480156105fa57600080fd5b5061023d610609366004613217565b611621565b34801561061a57600080fd5b5061023d6106293660046132c1565b611732565b34801561063a57600080fd5b5061023d610649366004612fb5565b6118f4565b34801561065a57600080fd5b506000546102bf906001600160a01b031681565b34801561067a57600080fd5b506103267f65d7a28e3265b37a6474929f336521b332c1681b933f6cb9f3376673440d862a81565b61023d6106b036600461334c565b611938565b60007fffffffff0000000000000000000000000000000000000000000000000000000082167f7965db0b00000000000000000000000000000000000000000000000000000000148061074857507f01ffc9a7000000000000000000000000000000000000000000000000000000007fffffffff000000000000000000000000000000000000000000000000000000008316145b92915050565b600061075981611b39565b6001600160a01b038216610799576040517fd92e233d00000000000000000000000000000000000000000000000000000000815260040160405180910390fd5b6002546001600160a01b0316156107dc576040517f0c8dc01600000000000000000000000000000000000000000000000000000000815260040160405180910390fd5b6108067f584a0b16e9f616d90ccec14a0b852c19aceccfd3d60699398a57dce2b0de01b983611b43565b5050600280547fffffffffffffffffffffffff0000000000000000000000000000000000000000166001600160a01b0392909216919091179055565b61084a611c30565b610852611c8e565b8260000361088c576040517f951e19ed00000000000000000000000000000000000000000000000000000000815260040160405180910390fd5b6001600160a01b0384166108cc576040517fd92e233d00000000000000000000000000000000000000000000000000000000815260040160405180910390fd5b6108d7338385611d0f565b836001600160a01b0316336001600160a01b03167fc6f891b65320c682b217616a62b51f218fee95d5f0ba83e758ef9ab4ee8e975c85858560405161091e939291906134f7565b60405180910390a361094f60017f9b779b17422d0df92223018b32b4d1fa46e071723d6817e2486d003becc55f0055565b50505050565b61095d611c30565b610965611c8e565b6001600160a01b0384166109a5576040517fd92e233d00000000000000000000000000000000000000000000000000000000815260040160405180910390fd5b836001600160a01b0316336001600160a01b03167fd34634f30f94a646fdf4ce7078f38fc5fa0d3f0b193658facea4e3e43330d97485858560405161091e9392919061352d565b60607f0da06bffcb63442de88b7f8385468eaf51e47079d4fa96875938e2c27c451deb610a1881611b39565b610a20611c30565b610a28611c8e565b6001600160a01b038516610a68576040517fd92e233d00000000000000000000000000000000000000000000000000000000815260040160405180910390fd5b6000610a75868686611f72565b9050856001600160a01b03167fcaf938de11c367272220bfd1d2baa99ca46665e7bc4d85f00adb51b90fe1fa9f348787604051610ab493929190613553565b60405180910390a29150610ae760017f9b779b17422d0df92223018b32b4d1fa46e071723d6817e2486d003becc55f0055565b509392505050565b60008281527f02dd7bc7dec4dceedda775e58dd541e08a116c6c53815c0bd028192f7b6268006020526040902060010154610b2981611b39565b61094f8383611b43565b6001600160a01b0381163314610b75576040517f6697b23200000000000000000000000000000000000000000000000000000000815260040160405180910390fd5b610b7f828261201b565b505050565b7f65d7a28e3265b37a6474929f336521b332c1681b933f6cb9f3376673440d862a610bae81611b39565b610bb66120df565b50565b610bc161216f565b610bca8261223f565b610bd4828261224a565b5050565b7f584a0b16e9f616d90ccec14a0b852c19aceccfd3d60699398a57dce2b0de01b9610c0281611b39565b610c0a611c30565b610c12611c8e565b83600003610c4c576040517f951e19ed00000000000000000000000000000000000000000000000000000000815260040160405180910390fd5b6001600160a01b038516610c8c576040517fd92e233d00000000000000000000000000000000000000000000000000000000815260040160405180910390fd5b610c96868661236e565b610ccc576040517f8164f84200000000000000000000000000000000000000000000000000000000815260040160405180910390fd5b6040517f095ea7b30000000000000000000000000000000000000000000000000000000081526001600160a01b0386811660048301526024820186905287169063095ea7b3906044016020604051808303816000875af1158015610d34573d6000803e3d6000fd5b505050506040513d601f19601f82011682018060405250810190610d58919061356d565b610d8e576040517f8164f84200000000000000000000000000000000000000000000000000000000815260040160405180910390fd5b610d99858484611f72565b50610da4868661236e565b610dda576040517f8164f84200000000000000000000000000000000000000000000000000000000815260040160405180910390fd5b6040517f70a082310000000000000000000000000000000000000000000000000000000081523060048201526000906001600160a01b038816906370a0823190602401602060405180830381865afa158015610e3a573d6000803e3d6000fd5b505050506040513d601f19601f82011682018060405250810190610e5e919061358a565b90508015610e7057610e7087826123fe565b856001600160a01b0316876001600160a01b03167f29c40793bffd84cb810179f15d1ceec72bc7f0785514c668ba36645cf99b7382878787604051610eb793929190613553565b60405180910390a350610ee960017f9b779b17422d0df92223018b32b4d1fa46e071723d6817e2486d003becc55f0055565b505050505050565b6000610efb612624565b507f360894a13ba1a3210667c828492db98dca3e2076cc3735a920a3ca505d382bbc90565b610f28611c30565b610f30611c8e565b34600003610f6a576040517f7671265e00000000000000000000000000000000000000000000000000000000815260040160405180910390fd5b6001600160a01b038216610faa576040517fd92e233d00000000000000000000000000000000000000000000000000000000815260040160405180910390fd5b6001546040516000916001600160a01b03169034908381818185875af1925050503d8060008114610ff7576040519150601f19603f3d011682016040523d82523d6000602084013e610ffc565b606091505b5050905080611037576040517f79cacff100000000000000000000000000000000000000000000000000000000815260040160405180910390fd5b826001600160a01b0316336001600160a01b03167fc6f891b65320c682b217616a62b51f218fee95d5f0ba83e758ef9ab4ee8e975c3460008660405161107f939291906134f7565b60405180910390a350610bd460017f9b779b17422d0df92223018b32b4d1fa46e071723d6817e2486d003becc55f0055565b6110b9611c30565b6110c1611c8e565b346000036110fb576040517f7671265e00000000000000000000000000000000000000000000000000000000815260040160405180910390fd5b6001600160a01b03841661113b576040517fd92e233d00000000000000000000000000000000000000000000000000000000815260040160405180910390fd5b6001546040516000916001600160a01b03169034908381818185875af1925050503d8060008114611188576040519150601f19603f3d011682016040523d82523d6000602084013e61118d565b606091505b50509050806111c8576040517f79cacff100000000000000000000000000000000000000000000000000000000815260040160405180910390fd5b846001600160a01b0316336001600160a01b03167fc6f891b65320c682b217616a62b51f218fee95d5f0ba83e758ef9ab4ee8e975c3460008888886040516112149594939291906135a3565b60405180910390a35061094f60017f9b779b17422d0df92223018b32b4d1fa46e071723d6817e2486d003becc55f0055565b7f65d7a28e3265b37a6474929f336521b332c1681b933f6cb9f3376673440d862a61127081611b39565b610bb6612686565b600061128381611b39565b6001600160a01b0382166112c3576040517fd92e233d00000000000000000000000000000000000000000000000000000000815260040160405180910390fd5b6000546001600160a01b031615611306576040517fb337f37800000000000000000000000000000000000000000000000000000000815260040160405180910390fd5b6113307f584a0b16e9f616d90ccec14a0b852c19aceccfd3d60699398a57dce2b0de01b983611b43565b5050600080547fffffffffffffffffffffffff0000000000000000000000000000000000000000166001600160a01b0392909216919091179055565b7ff0c57e16840df040f15088dc2f81fe391c3923bec73e23a9662efc9c229c6a00805468010000000000000000810460ff16159067ffffffffffffffff166000811580156113b75750825b905060008267ffffffffffffffff1660011480156113d45750303b155b9050811580156113e2575080155b15611419576040517ff92ee8a900000000000000000000000000000000000000000000000000000000815260040160405180910390fd5b84547fffffffffffffffffffffffffffffffffffffffffffffffff0000000000000000166001178555831561147a5784547fffffffffffffffffffffffffffffffffffffffffffffff00ffffffffffffffff16680100000000000000001785555b6001600160a01b038816158061149757506001600160a01b038716155b156114ce576040517fd92e233d00000000000000000000000000000000000000000000000000000000815260040160405180910390fd5b6114d66126ff565b6114de612707565b6114e66126ff565b6114ee612717565b6114f9600087611b43565b506115247f65d7a28e3265b37a6474929f336521b332c1681b933f6cb9f3376673440d862a87611b43565b50600180547fffffffffffffffffffffffff0000000000000000000000000000000000000000166001600160a01b038a161790556115827f0da06bffcb63442de88b7f8385468eaf51e47079d4fa96875938e2c27c451deb89611b43565b50600380547fffffffffffffffffffffffff0000000000000000000000000000000000000000166001600160a01b03891617905583156116175784547fffffffffffffffffffffffffffffffffffffffffffffff00ffffffffffffffff168555604051600181527fc7f505b2f371ae2175ee4913f4499e1f2633a7b5936321eed1cdaeb6115181d29060200160405180910390a15b5050505050505050565b611629611c30565b611631611c8e565b8460000361166b576040517f951e19ed00000000000000000000000000000000000000000000000000000000815260040160405180910390fd5b6001600160a01b0386166116ab576040517fd92e233d00000000000000000000000000000000000000000000000000000000815260040160405180910390fd5b6116b6338587611d0f565b856001600160a01b0316336001600160a01b03167fc6f891b65320c682b217616a62b51f218fee95d5f0ba83e758ef9ab4ee8e975c87878787876040516117019594939291906135a3565b60405180910390a3610ee960017f9b779b17422d0df92223018b32b4d1fa46e071723d6817e2486d003becc55f0055565b7f584a0b16e9f616d90ccec14a0b852c19aceccfd3d60699398a57dce2b0de01b961175c81611b39565b611764611c30565b61176c611c8e565b846000036117a6576040517f951e19ed00000000000000000000000000000000000000000000000000000000815260040160405180910390fd5b6001600160a01b0386166117e6576040517fd92e233d00000000000000000000000000000000000000000000000000000000815260040160405180910390fd5b6117fa6001600160a01b0388168787612727565b6040517f660b9de00000000000000000000000000000000000000000000000000000000081526001600160a01b0387169063660b9de09061183f908590600401613644565b600060405180830381600087803b15801561185957600080fd5b505af115801561186d573d6000803e3d6000fd5b50505050866001600160a01b0316866001600160a01b03167f1647880d5adf27692c774debf932b888ba15381ed4c4115a9eafeb68080b1436878787876040516118ba9493929190613657565b60405180910390a36118eb60017f9b779b17422d0df92223018b32b4d1fa46e071723d6817e2486d003becc55f0055565b50505050505050565b60008281527f02dd7bc7dec4dceedda775e58dd541e08a116c6c53815c0bd028192f7b626800602052604090206001015461192e81611b39565b61094f838361201b565b7f0da06bffcb63442de88b7f8385468eaf51e47079d4fa96875938e2c27c451deb61196281611b39565b61196a611c30565b611972611c8e565b6001600160a01b0385166119b2576040517fd92e233d00000000000000000000000000000000000000000000000000000000815260040160405180910390fd5b6000856001600160a01b03163460405160006040518083038185875af1925050503d80600081146119ff576040519150601f19603f3d011682016040523d82523d6000602084013e611a04565b606091505b5050905080611a3f576040517facfdb44400000000000000000000000000000000000000000000000000000000815260040160405180910390fd5b6040517f660b9de00000000000000000000000000000000000000000000000000000000081526001600160a01b0387169063660b9de090611a84908690600401613644565b600060405180830381600087803b158015611a9e57600080fd5b505af1158015611ab2573d6000803e3d6000fd5b5050505060006001600160a01b0316866001600160a01b03167f1647880d5adf27692c774debf932b888ba15381ed4c4115a9eafeb68080b143634888888604051611b009493929190613657565b60405180910390a350611b3260017f9b779b17422d0df92223018b32b4d1fa46e071723d6817e2486d003becc55f0055565b5050505050565b610bb6813361279b565b60008281527f02dd7bc7dec4dceedda775e58dd541e08a116c6c53815c0bd028192f7b626800602081815260408084206001600160a01b038616855290915282205460ff16611c26576000848152602082815260408083206001600160a01b0387168452909152902080547fffffffffffffffffffffffffffffffffffffffffffffffffffffffffffffff00166001179055611bdc3390565b6001600160a01b0316836001600160a01b0316857f2f8788117e7eff1d82e926ec794901d17c78024a50270940304540a733656f0d60405160405180910390a46001915050610748565b6000915050610748565b7fcd5ed15c6e187e77e9aee88184c21f4f2182ab5827cb3b7e07fbedcd63f033005460ff1615611c8c576040517fd93c066500000000000000000000000000000000000000000000000000000000815260040160405180910390fd5b565b7f9b779b17422d0df92223018b32b4d1fa46e071723d6817e2486d003becc55f0080547ffffffffffffffffffffffffffffffffffffffffffffffffffffffffffffffffe01611d09576040517f3ee5aeb500000000000000000000000000000000000000000000000000000000815260040160405180910390fd5b60029055565b6003546001600160a01b0390811690831603611e7357611d3a6001600160a01b038316843084612828565b6002546040517f095ea7b30000000000000000000000000000000000000000000000000000000081526001600160a01b039182166004820152602481018390529083169063095ea7b3906044016020604051808303816000875af1158015611da6573d6000803e3d6000fd5b505050506040513d601f19601f82011682018060405250810190611dca919061356d565b611e00576040517f8164f84200000000000000000000000000000000000000000000000000000000815260040160405180910390fd5b6002546040517f743e0c9b000000000000000000000000000000000000000000000000000000008152600481018390526001600160a01b039091169063743e0c9b90602401600060405180830381600087803b158015611e5f57600080fd5b505af11580156118eb573d6000803e3d6000fd5b6000546040517fd936547e0000000000000000000000000000000000000000000000000000000081526001600160a01b0384811660048301529091169063d936547e90602401602060405180830381865afa158015611ed6573d6000803e3d6000fd5b505050506040513d601f19601f82011682018060405250810190611efa919061356d565b611f30576040517fac2175f100000000000000000000000000000000000000000000000000000000815260040160405180910390fd5b600054610b7f906001600160a01b038481169186911684612828565b60017f9b779b17422d0df92223018b32b4d1fa46e071723d6817e2486d003becc55f0055565b6060600080856001600160a01b0316348686604051611f9292919061368e565b60006040518083038185875af1925050503d8060008114611fcf576040519150601f19603f3d011682016040523d82523d6000602084013e611fd4565b606091505b509150915081612010576040517facfdb44400000000000000000000000000000000000000000000000000000000815260040160405180910390fd5b9150505b9392505050565b60008281527f02dd7bc7dec4dceedda775e58dd541e08a116c6c53815c0bd028192f7b626800602081815260408084206001600160a01b038616855290915282205460ff1615611c26576000848152602082815260408083206001600160a01b038716808552925280832080547fffffffffffffffffffffffffffffffffffffffffffffffffffffffffffffff0016905551339287917ff6391f5c32d9c69d2a47ea670b442974b53935d1edc7fd64eb21e047a839171b9190a46001915050610748565b6120e7612861565b7fcd5ed15c6e187e77e9aee88184c21f4f2182ab5827cb3b7e07fbedcd63f0330080547fffffffffffffffffffffffffffffffffffffffffffffffffffffffffffffff001681557f5db9ee0a495bf2e6ff9c91a7834c1ba4fdd244a5e8aa4e537bd38aeae4b073aa335b6040516001600160a01b03909116815260200160405180910390a150565b306001600160a01b037f000000000000000000000000000000000000000000000000000000000000000016148061220857507f00000000000000000000000000000000000000000000000000000000000000006001600160a01b03166121fc7f360894a13ba1a3210667c828492db98dca3e2076cc3735a920a3ca505d382bbc546001600160a01b031690565b6001600160a01b031614155b15611c8c576040517fe07c8dba00000000000000000000000000000000000000000000000000000000815260040160405180910390fd5b6000610bd481611b39565b816001600160a01b03166352d1902d6040518163ffffffff1660e01b8152600401602060405180830381865afa9250505080156122c2575060408051601f3d9081017fffffffffffffffffffffffffffffffffffffffffffffffffffffffffffffffe01682019092526122bf9181019061358a565b60015b612308576040517f4c9c8ce30000000000000000000000000000000000000000000000000000000081526001600160a01b03831660048201526024015b60405180910390fd5b7f360894a13ba1a3210667c828492db98dca3e2076cc3735a920a3ca505d382bbc8114612364576040517faa1d49a4000000000000000000000000000000000000000000000000000000008152600481018290526024016122ff565b610b7f83836128bc565b6040517f095ea7b30000000000000000000000000000000000000000000000000000000081526001600160a01b038281166004830152600060248301819052919084169063095ea7b3906044016020604051808303816000875af11580156123da573d6000803e3d6000fd5b505050506040513d601f19601f82011682018060405250810190612014919061356d565b6003546001600160a01b039081169083160361254d576002546040517f095ea7b30000000000000000000000000000000000000000000000000000000081526001600160a01b039182166004820152602481018390529083169063095ea7b3906044016020604051808303816000875af1158015612480573d6000803e3d6000fd5b505050506040513d601f19601f820116820180604052508101906124a4919061356d565b6124da576040517f8164f84200000000000000000000000000000000000000000000000000000000815260040160405180910390fd5b6002546040517f743e0c9b000000000000000000000000000000000000000000000000000000008152600481018390526001600160a01b039091169063743e0c9b90602401600060405180830381600087803b15801561253957600080fd5b505af1158015610ee9573d6000803e3d6000fd5b6000546040517fd936547e0000000000000000000000000000000000000000000000000000000081526001600160a01b0384811660048301529091169063d936547e90602401602060405180830381865afa1580156125b0573d6000803e3d6000fd5b505050506040513d601f19601f820116820180604052508101906125d4919061356d565b61260a576040517fac2175f100000000000000000000000000000000000000000000000000000000815260040160405180910390fd5b600054610bd4906001600160a01b03848116911683612727565b306001600160a01b037f00000000000000000000000000000000000000000000000000000000000000001614611c8c576040517fe07c8dba00000000000000000000000000000000000000000000000000000000815260040160405180910390fd5b61268e611c30565b7fcd5ed15c6e187e77e9aee88184c21f4f2182ab5827cb3b7e07fbedcd63f0330080547fffffffffffffffffffffffffffffffffffffffffffffffffffffffffffffff001660011781557f62e78cea01bee320cd4e420270b5ea74000d11b0c9f74754ebdbfc544b05a25833612151565b611c8c612912565b61270f612912565b611c8c612979565b61271f612912565b611c8c612981565b6040516001600160a01b03838116602483015260448201839052610b7f91859182169063a9059cbb906064015b604051602081830303815290604052915060e01b6020820180517bffffffffffffffffffffffffffffffffffffffffffffffffffffffff83818316178352505050506129d2565b60008281527f02dd7bc7dec4dceedda775e58dd541e08a116c6c53815c0bd028192f7b626800602090815260408083206001600160a01b038516845290915290205460ff16610bd4576040517fe2517d3f0000000000000000000000000000000000000000000000000000000081526001600160a01b0382166004820152602481018390526044016122ff565b6040516001600160a01b03848116602483015283811660448301526064820183905261094f9186918216906323b872dd90608401612754565b7fcd5ed15c6e187e77e9aee88184c21f4f2182ab5827cb3b7e07fbedcd63f033005460ff16611c8c576040517f8dfc202b00000000000000000000000000000000000000000000000000000000815260040160405180910390fd5b6128c582612a4e565b6040516001600160a01b038316907fbc7cd75a20ee27fd9adebab32041f755214dbc6bffa90cc0225b39da2e5c2d3b90600090a280511561290a57610b7f8282612af6565b610bd4612b6c565b7ff0c57e16840df040f15088dc2f81fe391c3923bec73e23a9662efc9c229c6a005468010000000000000000900460ff16611c8c576040517fd7e6bcf800000000000000000000000000000000000000000000000000000000815260040160405180910390fd5b611f4c612912565b612989612912565b7fcd5ed15c6e187e77e9aee88184c21f4f2182ab5827cb3b7e07fbedcd63f0330080547fffffffffffffffffffffffffffffffffffffffffffffffffffffffffffffff00169055565b60006129e76001600160a01b03841683612ba4565b90508051600014158015612a0c575080806020019051810190612a0a919061356d565b155b15610b7f576040517f5274afe70000000000000000000000000000000000000000000000000000000081526001600160a01b03841660048201526024016122ff565b806001600160a01b03163b600003612a9d576040517f4c9c8ce30000000000000000000000000000000000000000000000000000000081526001600160a01b03821660048201526024016122ff565b7f360894a13ba1a3210667c828492db98dca3e2076cc3735a920a3ca505d382bbc80547fffffffffffffffffffffffff0000000000000000000000000000000000000000166001600160a01b0392909216919091179055565b6060600080846001600160a01b031684604051612b13919061369e565b600060405180830381855af49150503d8060008114612b4e576040519150601f19603f3d011682016040523d82523d6000602084013e612b53565b606091505b5091509150612b63858383612bb2565b95945050505050565b3415611c8c576040517fb398979f00000000000000000000000000000000000000000000000000000000815260040160405180910390fd5b606061201483836000612c27565b606082612bc757612bc282612cdd565b612014565b8151158015612bde57506001600160a01b0384163b155b15612c20576040517f9996b3150000000000000000000000000000000000000000000000000000000081526001600160a01b03851660048201526024016122ff565b5080612014565b606081471015612c65576040517fcd7860590000000000000000000000000000000000000000000000000000000081523060048201526024016122ff565b600080856001600160a01b03168486604051612c81919061369e565b60006040518083038185875af1925050503d8060008114612cbe576040519150601f19603f3d011682016040523d82523d6000602084013e612cc3565b606091505b5091509150612cd3868383612bb2565b9695505050505050565b805115612ced5780518082602001fd5b6040517f1425ea4200000000000000000000000000000000000000000000000000000000815260040160405180910390fd5b600060208284031215612d3157600080fd5b81357fffffffff000000000000000000000000000000000000000000000000000000008116811461201457600080fd5b80356001600160a01b0381168114612d7857600080fd5b919050565b600060208284031215612d8f57600080fd5b61201482612d61565b600060a08284031215612daa57600080fd5b50919050565b60008060008060808587031215612dc657600080fd5b612dcf85612d61565b935060208501359250612de460408601612d61565b9150606085013567ffffffffffffffff811115612e0057600080fd5b612e0c87828801612d98565b91505092959194509250565b60008083601f840112612e2a57600080fd5b50813567ffffffffffffffff811115612e4257600080fd5b602083019150836020828501011115612e5a57600080fd5b9250929050565b60008060008060608587031215612e7757600080fd5b612e8085612d61565b9350602085013567ffffffffffffffff811115612e9c57600080fd5b612ea887828801612e18565b909450925050604085013567ffffffffffffffff811115612e0057600080fd5b600080600060408486031215612edd57600080fd5b612ee684612d61565b9250602084013567ffffffffffffffff811115612f0257600080fd5b612f0e86828701612e18565b9497909650939450505050565b60005b83811015612f36578181015183820152602001612f1e565b50506000910152565b60008151808452612f57816020860160208601612f1b565b601f017fffffffffffffffffffffffffffffffffffffffffffffffffffffffffffffffe0169290920160200192915050565b6020815260006120146020830184612f3f565b600060208284031215612fae57600080fd5b5035919050565b60008060408385031215612fc857600080fd5b82359150612fd860208401612d61565b90509250929050565b7f4e487b7100000000000000000000000000000000000000000000000000000000600052604160045260246000fd5b6000806040838503121561302357600080fd5b61302c83612d61565b9150602083013567ffffffffffffffff81111561304857600080fd5b8301601f8101851361305957600080fd5b803567ffffffffffffffff81111561307357613073612fe1565b6040517fffffffffffffffffffffffffffffffffffffffffffffffffffffffffffffffe0603f7fffffffffffffffffffffffffffffffffffffffffffffffffffffffffffffffe0601f8501160116810181811067ffffffffffffffff821117156130df576130df612fe1565b6040528181528282016020018710156130f757600080fd5b816020840160208301376000602083830101528093505050509250929050565b60008060008060006080868803121561312f57600080fd5b61313886612d61565b945061314660208701612d61565b935060408601359250606086013567ffffffffffffffff81111561316957600080fd5b61317588828901612e18565b969995985093965092949392505050565b6000806040838503121561319957600080fd5b6131a283612d61565b9150602083013567ffffffffffffffff8111156131be57600080fd5b6131ca85828601612d98565b9150509250929050565b6000806000606084860312156131e957600080fd5b6131f284612d61565b925061320060208501612d61565b915061320e60408501612d61565b90509250925092565b60008060008060008060a0878903121561323057600080fd5b61323987612d61565b95506020870135945061324e60408801612d61565b9350606087013567ffffffffffffffff81111561326a57600080fd5b61327689828a01612e18565b909450925050608087013567ffffffffffffffff81111561329657600080fd5b6132a289828a01612d98565b9150509295509295509295565b600060608284031215612daa57600080fd5b60008060008060008060a087890312156132da57600080fd5b6132e387612d61565b95506132f160208801612d61565b945060408701359350606087013567ffffffffffffffff81111561331457600080fd5b61332089828a01612e18565b909450925050608087013567ffffffffffffffff81111561334057600080fd5b6132a289828a016132af565b6000806000806060858703121561336257600080fd5b61336b85612d61565b9350602085013567ffffffffffffffff81111561338757600080fd5b61339387828801612e18565b909450925050604085013567ffffffffffffffff8111156133b357600080fd5b612e0c878288016132af565b8015158114610bb657600080fd5b60008083357fffffffffffffffffffffffffffffffffffffffffffffffffffffffffffffffe184360301811261340257600080fd5b830160208101925035905067ffffffffffffffff81111561342257600080fd5b803603821315612e5a57600080fd5b8183528181602085013750600060208284010152600060207fffffffffffffffffffffffffffffffffffffffffffffffffffffffffffffffe0601f840116840101905092915050565b6001600160a01b0361348b82612d61565b1682526000602082013561349e816133bf565b151560208401526001600160a01b036134b960408401612d61565b1660408401526134cc60608301836133cd565b60a060608601526134e160a086018284613431565b6080948501359590940194909452509092915050565b8381526001600160a01b0383166020820152608060408201526000608082015260a060608201526000612b6360a083018461347a565b604081526000613541604083018587613431565b8281036020840152612cd3818561347a565b838152604060208201526000612b63604083018486613431565b60006020828403121561357f57600080fd5b8151612014816133bf565b60006020828403121561359c57600080fd5b5051919050565b8581526001600160a01b03851660208201526080604082015260006135cc608083018587613431565b82810360608401526135de818561347a565b98975050505050505050565b6001600160a01b036135fb82612d61565b1682526000602082013567ffffffffffffffff811680821461361c57600080fd5b60208501525061362f60408301836133cd565b60606040860152612b63606086018284613431565b60208152600061201460208301846135ea565b848152606060208201526000613671606083018587613431565b828103604084015261368381856135ea565b979650505050505050565b8183823760009101908152919050565b600082516136b0818460208701612f1b565b919091019291505056fea2646970667358221220c87250f92d4ce753add6a7cc4bdbc2e6885f5d3cad06fa9c00c5899f615d88ea64736f6c634300081a0033","linkReferences":{}},"methodIdentifiers":{"ASSET_HANDLER_ROLE()":"5d62c860","DEFAULT_ADMIN_ROLE()":"a217fddf","PAUSER_ROLE()":"e63ab1e9","TSS_ROLE()":"a783c789","UPGRADE_INTERFACE_VERSION()":"ad3cb1cc","call(address,bytes,(address,bool,address,bytes,uint256))":"1becceb4","custody()":"dda79b75","deposit(address,(address,bool,address,bytes,uint256))":"726ac97c","deposit(address,uint256,address,(address,bool,address,bytes,uint256))":"102614b0","depositAndCall(address,bytes,(address,bool,address,bytes,uint256))":"744b9b8b","depositAndCall(address,uint256,address,bytes,(address,bool,address,bytes,uint256))":"d09e3b78","execute(address,bytes)":"1cff79cd","executeRevert(address,bytes,(address,uint64,bytes))":"f7ad60db","executeWithERC20(address,address,uint256,bytes)":"5131ab59","getRoleAdmin(bytes32)":"248a9ca3","grantRole(bytes32,address)":"2f2ff15d","hasRole(bytes32,address)":"91d14854","initialize(address,address,address)":"c0c53b8b","pause()":"8456cb59","paused()":"5c975abb","proxiableUUID()":"52d1902d","renounceRole(bytes32,address)":"36568abe","revertWithERC20(address,address,uint256,bytes,(address,uint64,bytes))":"d0b492c3","revokeRole(bytes32,address)":"d547741f","setConnector(address)":"10188aef","setCustody(address)":"ae7a3a6f","supportsInterface(bytes4)":"01ffc9a7","tssAddress()":"5b112591","unpause()":"3f4ba83a","upgradeToAndCall(address,bytes)":"4f1ef286","zetaConnector()":"57bec62f","zetaToken()":"21e093b1"},"storageLayout":{"storage":[{"astId":523,"contract":"contracts/evm/GatewayEVM.sol:GatewayEVM","label":"custody","offset":0,"slot":"0","type":"t_address"},{"astId":526,"contract":"contracts/evm/GatewayEVM.sol:GatewayEVM","label":"tssAddress","offset":0,"slot":"1","type":"t_address"},{"astId":529,"contract":"contracts/evm/GatewayEVM.sol:GatewayEVM","label":"zetaConnector","offset":0,"slot":"2","type":"t_address"},{"astId":532,"contract":"contracts/evm/GatewayEVM.sol:GatewayEVM","label":"zetaToken","offset":0,"slot":"3","type":"t_address"}],"types":{"t_address":{"encoding":"inplace","label":"address","numberOfBytes":"20"}}},"id":2}