{"abi":[{"type":"constructor","inputs":[{"name":"gatewayAddress","type":"address","internalType":"address payable"}],"stateMutability":"nonpayable"},{"type":"function","name":"gateway","inputs":[],"outputs":[{"name":"","type":"address","internalType":"contract GatewayZEVM"}],"stateMutability":"view"},{"type":"function","name":"onCall","inputs":[{"name":"context","type":"tuple","internalType":"struct MessageContext","components":[{"name":"origin","type":"bytes","internalType":"bytes"},{"name":"sender","type":"address","internalType":"address"},{"name":"chainID","type":"uint256","internalType":"uint256"}]},{"name":"zrc20","type":"address","internalType":"address"},{"name":"amount","type":"uint256","internalType":"uint256"},{"name":"message","type":"bytes","internalType":"bytes"}],"outputs":[],"stateMutability":"nonpayable"},{"type":"event","name":"HelloEvent","inputs":[{"name":"","type":"string","indexed":false,"internalType":"string"},{"name":"","type":"string","indexed":false,"internalType":"string"}],"anonymous":false},{"type":"error","name":"Unauthorized","inputs":[]}],"bytecode":{"object":"0x60a0604052348015600e575f80fd5b506040516103c23803806103c2833981016040819052602b91603b565b6001600160a01b03166080526066565b5f60208284031215604a575f80fd5b81516001600160a01b0381168114605f575f80fd5b9392505050565b60805161033f6100835f395f8181603d0152609b015261033f5ff3fe608060405234801561000f575f80fd5b5060043610610034575f3560e01c8063116191b6146100385780635bcfd6161461007b575b5f80fd5b61005f7f000000000000000000000000000000000000000000000000000000000000000081565b6040516001600160a01b03909116815260200160405180910390f35b61008e610089366004610126565b610090565b005b336001600160a01b037f000000000000000000000000000000000000000000000000000000000000000016146100d8576040516282b42960e81b815260040160405180910390fd5b5f6100e582840184610203565b90507f39f8c79736fed93bca390bb3d6ff7da07482edb61cd7dafcfba496821d6ab7a38160405161011691906102b6565b60405180910390a1505050505050565b5f805f805f6080868803121561013a575f80fd5b853567ffffffffffffffff811115610150575f80fd5b860160608189031215610161575f80fd5b945060208601356001600160a01b038116811461017c575f80fd5b935060408601359250606086013567ffffffffffffffff81111561019e575f80fd5b86015f80601f83018a136101b0575f80fd5b50813567ffffffffffffffff8111156101c7575f80fd5b6020830191508960208285010111156101de575f80fd5b969995985093965092949392505050565b634e487b7160e01b5f52604160045260245ffd5b5f60208284031215610213575f80fd5b813567ffffffffffffffff811115610229575f80fd5b8201601f81018413610239575f80fd5b803567ffffffffffffffff811115610253576102536101ef565b604051601f8201601f19908116603f0116810167ffffffffffffffff81118282101715610282576102826101ef565b604052818152828201602001861015610299575f80fd5b816020840160208301375f91810160200191909152949350505050565b60408152600760408201526602432b636379d160cd1b6060820152608060208201525f8251806080840152806020850160a085015e5f60a0828501015260a0601f19601f8301168401019150509291505056fea26469706673582212208c45764a2583a254f53eea028c921e17e2fd8606223090ba170ccb65df1868f664736f6c634300081a0033","linkReferences":{}},"methodIdentifiers":{"gateway()":"116191b6","onCall((bytes,address,uint256),address,uint256,bytes)":"5bcfd616"},"id":19}