{"abi":[{"type":"constructor","inputs":[],"stateMutability":"nonpayable"},{"type":"receive","stateMutability":"payable"},{"type":"function","name":"UPGRADE_INTERFACE_VERSION","inputs":[],"outputs":[{"name":"","type":"string","internalType":"string"}],"stateMutability":"view"},{"type":"function","name":"approve","inputs":[{"name":"to","type":"address","internalType":"address"},{"name":"tokenId","type":"uint256","internalType":"uint256"}],"outputs":[],"stateMutability":"nonpayable"},{"type":"function","name":"balanceOf","inputs":[{"name":"owner","type":"address","internalType":"address"}],"outputs":[{"name":"","type":"uint256","internalType":"uint256"}],"stateMutability":"view"},{"type":"function","name":"burn","inputs":[{"name":"tokenId","type":"uint256","internalType":"uint256"}],"outputs":[],"stateMutability":"nonpayable"},{"type":"function","name":"gasLimitAmount","inputs":[],"outputs":[{"name":"","type":"uint256","internalType":"uint256"}],"stateMutability":"view"},{"type":"function","name":"gateway","inputs":[],"outputs":[{"name":"","type":"address","internalType":"contract GatewayEVM"}],"stateMutability":"view"},{"type":"function","name":"getApproved","inputs":[{"name":"tokenId","type":"uint256","internalType":"uint256"}],"outputs":[{"name":"","type":"address","internalType":"address"}],"stateMutability":"view"},{"type":"function","name":"initialize","inputs":[{"name":"initialOwner","type":"address","internalType":"address"},{"name":"name","type":"string","internalType":"string"},{"name":"symbol","type":"string","internalType":"string"},{"name":"gatewayAddress","type":"address","internalType":"address payable"},{"name":"gas","type":"uint256","internalType":"uint256"}],"outputs":[],"stateMutability":"nonpayable"},{"type":"function","name":"isApprovedForAll","inputs":[{"name":"owner","type":"address","internalType":"address"},{"name":"operator","type":"address","internalType":"address"}],"outputs":[{"name":"","type":"bool","internalType":"bool"}],"stateMutability":"view"},{"type":"function","name":"name","inputs":[],"outputs":[{"name":"","type":"string","internalType":"string"}],"stateMutability":"view"},{"type":"function","name":"onCall","inputs":[{"name":"context","type":"tuple","internalType":"struct MessageContext","components":[{"name":"sender","type":"address","internalType":"address"}]},{"name":"message","type":"bytes","internalType":"bytes"}],"outputs":[{"name":"","type":"bytes4","internalType":"bytes4"}],"stateMutability":"payable"},{"type":"function","name":"onRevert","inputs":[{"name":"context","type":"tuple","internalType":"struct RevertContext","components":[{"name":"sender","type":"address","internalType":"address"},{"name":"asset","type":"address","internalType":"address"},{"name":"amount","type":"uint256","internalType":"uint256"},{"name":"revertMessage","type":"bytes","internalType":"bytes"}]}],"outputs":[],"stateMutability":"payable"},{"type":"function","name":"owner","inputs":[],"outputs":[{"name":"","type":"address","internalType":"address"}],"stateMutability":"view"},{"type":"function","name":"ownerOf","inputs":[{"name":"tokenId","type":"uint256","internalType":"uint256"}],"outputs":[{"name":"","type":"address","internalType":"address"}],"stateMutability":"view"},{"type":"function","name":"pause","inputs":[],"outputs":[],"stateMutability":"nonpayable"},{"type":"function","name":"paused","inputs":[],"outputs":[{"name":"","type":"bool","internalType":"bool"}],"stateMutability":"view"},{"type":"function","name":"proxiableUUID","inputs":[],"outputs":[{"name":"","type":"bytes32","internalType":"bytes32"}],"stateMutability":"view"},{"type":"function","name":"renounceOwnership","inputs":[],"outputs":[],"stateMutability":"nonpayable"},{"type":"function","name":"safeMint","inputs":[{"name":"to","type":"address","internalType":"address"},{"name":"uri","type":"string","internalType":"string"}],"outputs":[{"name":"","type":"uint256","internalType":"uint256"}],"stateMutability":"nonpayable"},{"type":"function","name":"safeTransferFrom","inputs":[{"name":"from","type":"address","internalType":"address"},{"name":"to","type":"address","internalType":"address"},{"name":"tokenId","type":"uint256","internalType":"uint256"}],"outputs":[],"stateMutability":"nonpayable"},{"type":"function","name":"safeTransferFrom","inputs":[{"name":"from","type":"address","internalType":"address"},{"name":"to","type":"address","internalType":"address"},{"name":"tokenId","type":"uint256","internalType":"uint256"},{"name":"data","type":"bytes","internalType":"bytes"}],"outputs":[],"stateMutability":"nonpayable"},{"type":"function","name":"setApprovalForAll","inputs":[{"name":"operator","type":"address","internalType":"address"},{"name":"approved","type":"bool","internalType":"bool"}],"outputs":[],"stateMutability":"nonpayable"},{"type":"function","name":"setGasLimit","inputs":[{"name":"gas","type":"uint256","internalType":"uint256"}],"outputs":[],"stateMutability":"nonpayable"},{"type":"function","name":"setGateway","inputs":[{"name":"gatewayAddress","type":"address","internalType":"address"}],"outputs":[],"stateMutability":"nonpayable"},{"type":"function","name":"setUniversal","inputs":[{"name":"contractAddress","type":"address","internalType":"address"}],"outputs":[],"stateMutability":"nonpayable"},{"type":"function","name":"supportsInterface","inputs":[{"name":"interfaceId","type":"bytes4","internalType":"bytes4"}],"outputs":[{"name":"","type":"bool","internalType":"bool"}],"stateMutability":"view"},{"type":"function","name":"symbol","inputs":[],"outputs":[{"name":"","type":"string","internalType":"string"}],"stateMutability":"view"},{"type":"function","name":"tokenByIndex","inputs":[{"name":"index","type":"uint256","internalType":"uint256"}],"outputs":[{"name":"","type":"uint256","internalType":"uint256"}],"stateMutability":"view"},{"type":"function","name":"tokenOfOwnerByIndex","inputs":[{"name":"owner","type":"address","internalType":"address"},{"name":"index","type":"uint256","internalType":"uint256"}],"outputs":[{"name":"","type":"uint256","internalType":"uint256"}],"stateMutability":"view"},{"type":"function","name":"tokenURI","inputs":[{"name":"tokenId","type":"uint256","internalType":"uint256"}],"outputs":[{"name":"","type":"string","internalType":"string"}],"stateMutability":"view"},{"type":"function","name":"totalSupply","inputs":[],"outputs":[{"name":"","type":"uint256","internalType":"uint256"}],"stateMutability":"view"},{"type":"function","name":"transferCrossChain","inputs":[{"name":"tokenId","type":"uint256","internalType":"uint256"},{"name":"receiver","type":"address","internalType":"address"},{"name":"destination","type":"address","internalType":"address"}],"outputs":[],"stateMutability":"payable"},{"type":"function","name":"transferFrom","inputs":[{"name":"from","type":"address","internalType":"address"},{"name":"to","type":"address","internalType":"address"},{"name":"tokenId","type":"uint256","internalType":"uint256"}],"outputs":[],"stateMutability":"nonpayable"},{"type":"function","name":"transferOwnership","inputs":[{"name":"newOwner","type":"address","internalType":"address"}],"outputs":[],"stateMutability":"nonpayable"},{"type":"function","name":"universal","inputs":[],"outputs":[{"name":"","type":"address","internalType":"address"}],"stateMutability":"view"},{"type":"function","name":"unpause","inputs":[],"outputs":[],"stateMutability":"nonpayable"},{"type":"function","name":"upgradeToAndCall","inputs":[{"name":"newImplementation","type":"address","internalType":"address"},{"name":"data","type":"bytes","internalType":"bytes"}],"outputs":[],"stateMutability":"payable"},{"type":"event","name":"Approval","inputs":[{"name":"owner","type":"address","indexed":true,"internalType":"address"},{"name":"approved","type":"address","indexed":true,"internalType":"address"},{"name":"tokenId","type":"uint256","indexed":true,"internalType":"uint256"}],"anonymous":false},{"type":"event","name":"ApprovalForAll","inputs":[{"name":"owner","type":"address","indexed":true,"internalType":"address"},{"name":"operator","type":"address","indexed":true,"internalType":"address"},{"name":"approved","type":"bool","indexed":false,"internalType":"bool"}],"anonymous":false},{"type":"event","name":"BatchMetadataUpdate","inputs":[{"name":"_fromTokenId","type":"uint256","indexed":false,"internalType":"uint256"},{"name":"_toTokenId","type":"uint256","indexed":false,"internalType":"uint256"}],"anonymous":false},{"type":"event","name":"Initialized","inputs":[{"name":"version","type":"uint64","indexed":false,"internalType":"uint64"}],"anonymous":false},{"type":"event","name":"MetadataUpdate","inputs":[{"name":"_tokenId","type":"uint256","indexed":false,"internalType":"uint256"}],"anonymous":false},{"type":"event","name":"OwnershipTransferred","inputs":[{"name":"previousOwner","type":"address","indexed":true,"internalType":"address"},{"name":"newOwner","type":"address","indexed":true,"internalType":"address"}],"anonymous":false},{"type":"event","name":"Paused","inputs":[{"name":"account","type":"address","indexed":false,"internalType":"address"}],"anonymous":false},{"type":"event","name":"SetConnected","inputs":[{"name":"zrc20","type":"address","indexed":true,"internalType":"address"},{"name":"contractAddress","type":"bytes","indexed":false,"internalType":"bytes"}],"anonymous":false},{"type":"event","name":"SetUniversal","inputs":[{"name":"universalAddress","type":"address","indexed":true,"internalType":"address"}],"anonymous":false},{"type":"event","name":"TokenMinted","inputs":[{"name":"to","type":"address","indexed":true,"internalType":"address"},{"name":"tokenId","type":"uint256","indexed":true,"internalType":"uint256"},{"name":"uri","type":"string","indexed":false,"internalType":"string"}],"anonymous":false},{"type":"event","name":"TokenTransfer","inputs":[{"name":"destination","type":"address","indexed":true,"internalType":"address"},{"name":"receiver","type":"address","indexed":true,"internalType":"address"},{"name":"tokenId","type":"uint256","indexed":true,"internalType":"uint256"},{"name":"uri","type":"string","indexed":false,"internalType":"string"}],"anonymous":false},{"type":"event","name":"TokenTransferAborted","inputs":[{"name":"sender","type":"address","indexed":true,"internalType":"address"},{"name":"tokenId","type":"uint256","indexed":true,"internalType":"uint256"},{"name":"uri","type":"string","indexed":false,"internalType":"string"},{"name":"outgoing","type":"bool","indexed":false,"internalType":"bool"},{"name":"refundAsset","type":"address","indexed":false,"internalType":"address"},{"name":"refundAmount","type":"uint256","indexed":false,"internalType":"uint256"}],"anonymous":false},{"type":"event","name":"TokenTransferReceived","inputs":[{"name":"receiver","type":"address","indexed":true,"internalType":"address"},{"name":"tokenId","type":"uint256","indexed":true,"internalType":"uint256"},{"name":"uri","type":"string","indexed":false,"internalType":"string"}],"anonymous":false},{"type":"event","name":"TokenTransferReverted","inputs":[{"name":"sender","type":"address","indexed":true,"internalType":"address"},{"name":"tokenId","type":"uint256","indexed":true,"internalType":"uint256"},{"name":"uri","type":"string","indexed":false,"internalType":"string"},{"name":"refundAsset","type":"address","indexed":false,"internalType":"address"},{"name":"refundAmount","type":"uint256","indexed":false,"internalType":"uint256"}],"anonymous":false},{"type":"event","name":"TokenTransferToDestination","inputs":[{"name":"destination","type":"address","indexed":true,"internalType":"address"},{"name":"sender","type":"address","indexed":true,"internalType":"address"},{"name":"tokenId","type":"uint256","indexed":true,"internalType":"uint256"},{"name":"uri","type":"string","indexed":false,"internalType":"string"}],"anonymous":false},{"type":"event","name":"Transfer","inputs":[{"name":"from","type":"address","indexed":true,"internalType":"address"},{"name":"to","type":"address","indexed":true,"internalType":"address"},{"name":"tokenId","type":"uint256","indexed":true,"internalType":"uint256"}],"anonymous":false},{"type":"event","name":"Unpaused","inputs":[{"name":"account","type":"address","indexed":false,"internalType":"address"}],"anonymous":false},{"type":"event","name":"Upgraded","inputs":[{"name":"implementation","type":"address","indexed":true,"internalType":"address"}],"anonymous":false},{"type":"error","name":"AddressEmptyCode","inputs":[{"name":"target","type":"address","internalType":"address"}]},{"type":"error","name":"ERC1967InvalidImplementation","inputs":[{"name":"implementation","type":"address","internalType":"address"}]},{"type":"error","name":"ERC1967NonPayable","inputs":[]},{"type":"error","name":"ERC721EnumerableForbiddenBatchMint","inputs":[]},{"type":"error","name":"ERC721IncorrectOwner","inputs":[{"name":"sender","type":"address","internalType":"address"},{"name":"tokenId","type":"uint256","internalType":"uint256"},{"name":"owner","type":"address","internalType":"address"}]},{"type":"error","name":"ERC721InsufficientApproval","inputs":[{"name":"operator","type":"address","internalType":"address"},{"name":"tokenId","type":"uint256","internalType":"uint256"}]},{"type":"error","name":"ERC721InvalidApprover","inputs":[{"name":"approver","type":"address","internalType":"address"}]},{"type":"error","name":"ERC721InvalidOperator","inputs":[{"name":"operator","type":"address","internalType":"address"}]},{"type":"error","name":"ERC721InvalidOwner","inputs":[{"name":"owner","type":"address","internalType":"address"}]},{"type":"error","name":"ERC721InvalidReceiver","inputs":[{"name":"receiver","type":"address","internalType":"address"}]},{"type":"error","name":"ERC721InvalidSender","inputs":[{"name":"sender","type":"address","internalType":"address"}]},{"type":"error","name":"ERC721NonexistentToken","inputs":[{"name":"tokenId","type":"uint256","internalType":"uint256"}]},{"type":"error","name":"ERC721OutOfBoundsIndex","inputs":[{"name":"owner","type":"address","internalType":"address"},{"name":"index","type":"uint256","internalType":"uint256"}]},{"type":"error","name":"EnforcedPause","inputs":[]},{"type":"error","name":"ExpectedPause","inputs":[]},{"type":"error","name":"FailedInnerCall","inputs":[]},{"type":"error","name":"GasTokenRefundFailed","inputs":[]},{"type":"error","name":"GasTokenTransferFailed","inputs":[]},{"type":"error","name":"InvalidAddress","inputs":[]},{"type":"error","name":"InvalidGasLimit","inputs":[]},{"type":"error","name":"InvalidInitialization","inputs":[]},{"type":"error","name":"NotInitializing","inputs":[]},{"type":"error","name":"OwnableInvalidOwner","inputs":[{"name":"owner","type":"address","internalType":"address"}]},{"type":"error","name":"OwnableUnauthorizedAccount","inputs":[{"name":"account","type":"address","internalType":"address"}]},{"type":"error","name":"ReentrancyGuardReentrantCall","inputs":[]},{"type":"error","name":"TransferToZetaChainRequiresNoGas","inputs":[]},{"type":"error","name":"UUPSUnauthorizedCallContext","inputs":[]},{"type":"error","name":"UUPSUnsupportedProxiableUUID","inputs":[{"name":"slot","type":"bytes32","internalType":"bytes32"}]},{"type":"error","name":"Unauthorized","inputs":[]}],"bytecode":{"object":"0x60a060405230608052348015610013575f80fd5b5061001c610021565b6100d3565b7ff0c57e16840df040f15088dc2f81fe391c3923bec73e23a9662efc9c229c6a00805468010000000000000000900460ff16156100715760405163f92ee8a960e01b815260040160405180910390fd5b80546001600160401b03908116146100d05780546001600160401b0319166001600160401b0390811782556040519081527fc7f505b2f371ae2175ee4913f4499e1f2633a7b5936321eed1cdaeb6115181d29060200160405180910390a15b50565b6080516131446100f95f395f81816111d3015281816111fc015261133b01526131445ff3fe608060405260043610610215575f3560e01c806370a082311161011e578063a22cb465116100a8578063d0f239701161006d578063d0f239701461061f578063d204c45e14610634578063e985e9c514610653578063ee7d72b414610672578063f2fde38b14610691575f80fd5b8063a22cb4651461057f578063ad3cb1cc1461059e578063b88d4fde146105ce578063c87b56dd146105ed578063c9028a361461060c575f80fd5b80638456cb59116100ee5780638456cb59146104e95780638da5cb5b146104fd57806390646b4a1461053957806395d89b41146105585780639b7a4aa41461056c575f80fd5b806370a0823114610478578063715018a61461049757806375b30be6146104ab578063784ec91f146104ca575f80fd5b806342842e0e1161019f5780634f6ccce71161016f5780634f6ccce7146103d757806352d1902d146103f65780635c975abb1461040a5780636352211e1461042d578063676cc0541461044c575f80fd5b806342842e0e1461036757806342966c68146103865780634ee628a3146103a55780634f1ef286146103c4575f80fd5b8063116191b6116101e5578063116191b6146102cd57806318160ddd146102eb57806323b872dd146103155780632f745c59146103345780633f4ba83a14610353575f80fd5b806301ffc9a71461022057806306fdde0314610254578063081812fc14610275578063095ea7b3146102ac575f80fd5b3661021c57005b5f80fd5b34801561022b575f80fd5b5061023f61023a366004612780565b6106b0565b60405190151581526020015b60405180910390f35b34801561025f575f80fd5b506102686106c0565b60405161024b91906127c9565b348015610280575f80fd5b5061029461028f3660046127db565b610761565b6040516001600160a01b03909116815260200161024b565b3480156102b7575f80fd5b506102cb6102c6366004612806565b610775565b005b3480156102d8575f80fd5b505f54610294906001600160a01b031681565b3480156102f6575f80fd5b505f805160206130cf833981519152545b60405190815260200161024b565b348015610320575f80fd5b506102cb61032f366004612830565b610784565b34801561033f575f80fd5b5061030761034e366004612806565b610812565b34801561035e575f80fd5b506102cb610883565b348015610372575f80fd5b506102cb610381366004612830565b610895565b348015610391575f80fd5b506102cb6103a03660046127db565b6108b4565b3480156103b0575f80fd5b50600154610294906001600160a01b031681565b6102cb6103d2366004612911565b6108bf565b3480156103e2575f80fd5b506103076103f13660046127db565b6108da565b348015610401575f80fd5b5061030761094c565b348015610415575f80fd5b505f805160206130ef8339815191525460ff1661023f565b348015610438575f80fd5b506102946104473660046127db565b610967565b61045f61045a36600461295d565b610971565b6040516001600160e01b0319909116815260200161024b565b348015610483575f80fd5b506103076104923660046129e0565b610afa565b3480156104a2575f80fd5b506102cb610b52565b3480156104b6575f80fd5b506102cb6104c53660046129fb565b610b63565b3480156104d5575f80fd5b506102cb6104e43660046129e0565b610cb0565b3480156104f4575f80fd5b506102cb610d28565b348015610508575f80fd5b507f9016d09d72d40fdae2fd8ceac6b6234c7706214fd39c1cd1e609a0528c199300546001600160a01b0316610294565b348015610544575f80fd5b506102cb6105533660046129e0565b610d38565b348015610563575f80fd5b50610268610d88565b6102cb61057a366004612a89565b610dc6565b34801561058a575f80fd5b506102cb610599366004612ac8565b610dd1565b3480156105a9575f80fd5b50610268604051806040016040528060058152602001640352e302e360dc1b81525081565b3480156105d9575f80fd5b506102cb6105e8366004612b03565b610ddc565b3480156105f8575f80fd5b506102686106073660046127db565b610df3565b6102cb61061a366004612b6a565b610dfe565b34801561062a575f80fd5b5061030760025481565b34801561063f575f80fd5b5061030761064e366004612911565b610f2f565b34801561065e575f80fd5b5061023f61066d366004612ba0565b610fc5565b34801561067d575f80fd5b506102cb61068c3660046127db565b611011565b34801561069c575f80fd5b506102cb6106ab3660046129e0565b61103e565b5f6106ba8261107b565b92915050565b5f8051602061308f83398151915280546060919081906106df90612bcc565b80601f016020809104026020016040519081016040528092919081815260200182805461070b90612bcc565b80156107565780601f1061072d57610100808354040283529160200191610756565b820191905f5260205f20905b81548152906001019060200180831161073957829003601f168201915b505050505091505090565b5f61076b82611085565b506106ba826110bc565b6107808282336110f5565b5050565b6001600160a01b0382166107b257604051633250574960e11b81525f60048201526024015b60405180910390fd5b5f6107be838333611102565b9050836001600160a01b0316816001600160a01b03161461080c576040516364283d7b60e01b81526001600160a01b03808616600483015260248201849052821660448201526064016107a9565b50505050565b5f5f8051602061306f83398151915261082a84610afa565b831061085b5760405163295f44f760e21b81526001600160a01b0385166004820152602481018490526044016107a9565b6001600160a01b0384165f908152602091825260408082208583529092522054905092915050565b61088b61110e565b610893611169565b565b6108af83838360405180602001604052805f815250610ddc565b505050565b6107805f8233611102565b6108c76111c8565b6108d08261126c565b6107808282611274565b5f5f8051602061306f8339815191526108fe5f805160206130cf8339815191525490565b83106109265760405163295f44f760e21b81525f6004820152602481018490526044016107a9565b80600201838154811061093b5761093b612c04565b905f5260205f200154915050919050565b5f610955611330565b505f805160206130af83398151915290565b5f6106ba82611085565b5f80546001600160a01b0316331461099b576040516282b42960e81b815260040160405180910390fd5b6001546001600160a01b03166109b460208601866129e0565b6001600160a01b0316146109da576040516282b42960e81b815260040160405180910390fd5b5f808080806109eb87890189612c18565b945094509450945094506109ff8585611379565b610a098484611392565b8115610aa8576001600160a01b038116610a365760405163e6c4247b60e01b815260040160405180910390fd5b5f816001600160a01b0316836040515f6040518083038185875af1925050503d805f8114610a7f576040519150601f19603f3d011682016040523d82523d5f602084013e610a84565b606091505b5050905080610aa6576040516302bf2c1960e61b815260040160405180910390fd5b505b83856001600160a01b03167fbee679df3878e8de7e4adc255af441c447fa2b8767417d4d05a091f2614c22d485604051610ae291906127c9565b60405180910390a35f955050505050505b9392505050565b5f5f8051602061308f8339815191526001600160a01b038316610b32576040516322718ad960e21b81525f60048201526024016107a9565b6001600160a01b039092165f908152600390920160205250604090205490565b610b5a61110e565b6108935f611404565b7ff0c57e16840df040f15088dc2f81fe391c3923bec73e23a9662efc9c229c6a008054600160401b810460ff1615906001600160401b03165f81158015610ba75750825b90505f826001600160401b03166001148015610bc25750303b155b905081158015610bd0575080155b15610bee5760405163f92ee8a960e01b815260040160405180910390fd5b845467ffffffffffffffff191660011785558315610c1857845460ff60401b1916600160401b1785555b610c228989611474565b610c2a611486565b610c32611486565b610c3a61148e565b610c438a61149e565b610c4b611486565b610c53611486565b610c5e8730886114af565b8315610ca457845460ff60401b19168555604051600181527fc7f505b2f371ae2175ee4913f4499e1f2633a7b5936321eed1cdaeb6115181d29060200160405180910390a15b50505050505050505050565b610cb861110e565b6001600160a01b038116610cdf5760405163e6c4247b60e01b815260040160405180910390fd5b600180546001600160a01b0319166001600160a01b0383169081179091556040517f7c2aceab9e5ea924ba2f3285455133a28166ee3fcd968f0124dd61a77c4ba41d905f90a250565b610d3061110e565b610893611559565b610d4061110e565b6001600160a01b038116610d675760405163e6c4247b60e01b815260040160405180910390fd5b5f80546001600160a01b0319166001600160a01b0392909216919091179055565b7f80bb2b638cc20bc4d0a60d66940f3ab4a00c1d7b313497ca82fb0b4ab007930180546060915f8051602061308f833981519152916106df90612bcc565b6108af8383836115a1565b610780338383611818565b610de7848484610784565b61080c848484846118be565b60606106ba826119e4565b5f546001600160a01b03163314610e27576040516282b42960e81b815260040160405180910390fd5b5f8080610e376060850185612c8a565b810190610e449190612cd3565b93509350935050610e558184611379565b610e5f8383611392565b604084013515610edf575f816001600160a01b031685604001356040515f6040518083038185875af1925050503d805f8114610eb6576040519150601f19603f3d011682016040523d82523d5f602084013e610ebb565b606091505b5050905080610edd576040516308d0ddfd60e21b815260040160405180910390fd5b505b82816001600160a01b03167f50a463f0b2254e45ba19aaa2b3b02b83232d660d938c1af19c5e6088cec16b93845f8860400135604051610f2193929190612d3a565b60405180910390a350505050565b5f610f3861110e565b610f406119ef565b600380545f913091439184610f5483612d7b565b9091555060405160609390931b6bffffffffffffffffffffffff191660208401526034830191909152605482015260740160408051601f19818403018152919052805160209091012090506001600160a01b038116610fb38582611379565b610fbd8185611392565b949350505050565b6001600160a01b039182165f9081527f80bb2b638cc20bc4d0a60d66940f3ab4a00c1d7b313497ca82fb0b4ab00793056020908152604080832093909416825291909152205460ff1690565b61101961110e565b805f03611039576040516304c5ed9760e51b815260040160405180910390fd5b600255565b61104661110e565b6001600160a01b03811661106f57604051631e4fbdf760e01b81525f60048201526024016107a9565b61107881611404565b50565b5f6106ba82611a1f565b5f8061109083611a43565b90506001600160a01b0381166106ba57604051637e27328960e01b8152600481018490526024016107a9565b5f9081527f80bb2b638cc20bc4d0a60d66940f3ab4a00c1d7b313497ca82fb0b4ab007930460205260409020546001600160a01b031690565b6108af8383836001611a7c565b5f610fbd848484611b8f565b336111407f9016d09d72d40fdae2fd8ceac6b6234c7706214fd39c1cd1e609a0528c199300546001600160a01b031690565b6001600160a01b0316146108935760405163118cdaa760e01b81523360048201526024016107a9565b611171611ba3565b5f805160206130ef833981519152805460ff191681557f5db9ee0a495bf2e6ff9c91a7834c1ba4fdd244a5e8aa4e537bd38aeae4b073aa335b6040516001600160a01b03909116815260200160405180910390a150565b306001600160a01b037f000000000000000000000000000000000000000000000000000000000000000016148061124e57507f00000000000000000000000000000000000000000000000000000000000000006001600160a01b03166112425f805160206130af833981519152546001600160a01b031690565b6001600160a01b031614155b156108935760405163703e46dd60e11b815260040160405180910390fd5b61107861110e565b816001600160a01b03166352d1902d6040518163ffffffff1660e01b8152600401602060405180830381865afa9250505080156112ce575060408051601f3d908101601f191682019092526112cb91810190612d93565b60015b6112f657604051634c9c8ce360e01b81526001600160a01b03831660048201526024016107a9565b5f805160206130af833981519152811461132657604051632a87526960e21b8152600481018290526024016107a9565b6108af8383611bd2565b306001600160a01b037f000000000000000000000000000000000000000000000000000000000000000016146108935760405163703e46dd60e11b815260040160405180910390fd5b610780828260405180602001604052805f815250611c27565b5f8281527f0542a41881ee128a365a727b282c86fa859579490b9bb45aab8503648c8e7900602081905260409091206113cb8382612dee565b506040518381527ff8e1a15aba9398e019f0b49df1a4fde98ee17ae345cb5f6b5e2c27f5033e8ce79060200160405180910390a1505050565b7f9016d09d72d40fdae2fd8ceac6b6234c7706214fd39c1cd1e609a0528c19930080546001600160a01b031981166001600160a01b03848116918217845560405192169182907f8be0079c531659141344cd1fd0a4f28419497f9722a3daafe3b4186f6b6457e0905f90a3505050565b61147c611c3d565b6107808282611c86565b610893611c3d565b611496611c3d565b610893611cb6565b6114a6611c3d565b61107881611cd6565b6114b7611cde565b6001600160a01b0383166114de5760405163e6c4247b60e01b815260040160405180910390fd5b6001600160a01b0382166115055760405163e6c4247b60e01b815260040160405180910390fd5b805f03611525576040516304c5ed9760e51b815260040160405180910390fd5b5f80546001600160a01b039485166001600160a01b0319918216179091556001805493909416921691909117909155600255565b6115616119ef565b5f805160206130ef833981519152805460ff191660011781557f62e78cea01bee320cd4e420270b5ea74000d11b0c9f74754ebdbfc544b05a258336111aa565b6115a9611cee565b6001600160a01b0382166115d05760405163e6c4247b60e01b815260040160405180910390fd5b6001600160a01b0381161580156115e657505f34115b156116045760405163313781bb60e11b815260040160405180910390fd5b5f61160e84610df3565b90505f828486843360405160200161162a959493929190612ea8565b604051602081830303815290604052905061164485611d38565b84846001600160a01b0316846001600160a01b03167fb2a551a9926bd21f96129ef51e372361101766600883a668bbfb7d425e837e298560405161168891906127c9565b60405180910390a46001600160a01b038316611730575f80546001546040805160a081018252308152602081018590526001600160a01b0392831681830181905260608201879052608082019590955290516306fb33ad60e21b81529190921692631becceb4926116fe92869190600401612ef4565b5f604051808303815f87803b158015611715575f80fd5b505af1158015611727573d5f803e3d5ffd5b505050506117ed565b5f54600180546040805160a0810182523081526020808201949094526001600160a01b039283168183018190529151929094169363744b9b8b9334938792916060830191611786918d918f918d91339101612f7b565b60405160208183030381529060405281526020016002548152506040518563ffffffff1660e01b81526004016117be93929190612ef4565b5f604051808303818588803b1580156117d5575f80fd5b505af11580156117e7573d5f803e3d5ffd5b50505050505b50506108af60017f9b779b17422d0df92223018b32b4d1fa46e071723d6817e2486d003becc55f0055565b5f8051602061308f8339815191526001600160a01b03831661185857604051630b61174360e31b81526001600160a01b03841660048201526024016107a9565b6001600160a01b038481165f818152600584016020908152604080832094881680845294825291829020805460ff191687151590811790915591519182527f17307eab39ab6107e8899845ad3d59bd9653f200f220920489ca2b5937696c319101610f21565b6001600160a01b0383163b1561080c57604051630a85bd0160e11b81526001600160a01b0384169063150b7a0290611900903390889087908790600401612fba565b6020604051808303815f875af192505050801561193a575060408051601f3d908101601f1916820190925261193791810190612ff6565b60015b6119a1573d808015611967576040519150601f19603f3d011682016040523d82523d5f602084013e61196c565b606091505b5080515f0361199957604051633250574960e11b81526001600160a01b03851660048201526024016107a9565b805181602001fd5b6001600160e01b03198116630a85bd0160e11b146119dd57604051633250574960e11b81526001600160a01b03851660048201526024016107a9565b5050505050565b60606106ba82611d96565b5f805160206130ef8339815191525460ff16156108935760405163d93c066560e01b815260040160405180910390fd5b5f6001600160e01b03198216632483248360e11b14806106ba57506106ba82611ec5565b5f9081527f80bb2b638cc20bc4d0a60d66940f3ab4a00c1d7b313497ca82fb0b4ab007930260205260409020546001600160a01b031690565b5f8051602061308f8339815191528180611a9e57506001600160a01b03831615155b15611b5f575f611aad85611085565b90506001600160a01b03841615801590611ad95750836001600160a01b0316816001600160a01b031614155b8015611aec5750611aea8185610fc5565b155b15611b155760405163a9fbf51f60e01b81526001600160a01b03851660048201526024016107a9565b8215611b5d5784866001600160a01b0316826001600160a01b03167f8c5be1e5ebec7d5bd14f71427d1e84f3dd0314c0f7b2291e5b200ac8c7c3b92560405160405180910390a45b505b5f93845260040160205250506040902080546001600160a01b0319166001600160a01b0392909216919091179055565b5f611b986119ef565b610fbd848484611ee9565b5f805160206130ef8339815191525460ff1661089357604051638dfc202b60e01b815260040160405180910390fd5b611bdb82611fdf565b6040516001600160a01b038316907fbc7cd75a20ee27fd9adebab32041f755214dbc6bffa90cc0225b39da2e5c2d3b905f90a2805115611c1f576108af8282612042565b6107806120ab565b611c3183836120ca565b6108af5f8484846118be565b7ff0c57e16840df040f15088dc2f81fe391c3923bec73e23a9662efc9c229c6a0054600160401b900460ff1661089357604051631afcd79f60e31b815260040160405180910390fd5b611c8e611c3d565b5f8051602061308f83398151915280611ca78482612dee565b506001810161080c8382612dee565b611cbe611c3d565b5f805160206130ef833981519152805460ff19169055565b611046611c3d565b611ce6611c3d565b61089361212b565b7f9b779b17422d0df92223018b32b4d1fa46e071723d6817e2486d003becc55f00805460011901611d3257604051633ee5aeb560e01b815260040160405180910390fd5b60029055565b5f611d445f835f611102565b90506001600160a01b03811661078057604051637e27328960e01b8152600481018390526024016107a9565b60017f9b779b17422d0df92223018b32b4d1fa46e071723d6817e2486d003becc55f0055565b60607f0542a41881ee128a365a727b282c86fa859579490b9bb45aab8503648c8e7900611dc283611085565b505f8381526020829052604081208054611ddb90612bcc565b80601f0160208091040260200160405190810160405280929190818152602001828054611e0790612bcc565b8015611e525780601f10611e2957610100808354040283529160200191611e52565b820191905f5260205f20905b815481529060010190602001808311611e3557829003601f168201915b505050505090505f611e6e60408051602081019091525f815290565b905080515f03611e8057509392505050565b815115611eb3578082604051602001611e9a929190613028565b6040516020818303038152906040529350505050919050565b611ebc85612133565b95945050505050565b5f6001600160e01b0319821663780e9d6360e01b14806106ba57506106ba826121a3565b5f80611ef68585856121f2565b90506001600160a01b038116611f7d57611f78845f805160206130cf83398151915280545f8381527f645e039705490088daad89bae25049a34f4a9072d398537b1ab2425f24cbed0360205260408120829055600182018355919091527fa42f15e5d656f8155fd7419d740a6073999f19cd6e061449ce4a257150545bf20155565b611fa0565b846001600160a01b0316816001600160a01b031614611fa057611fa081856122f4565b6001600160a01b038516611fbc57611fb784612393565b610fbd565b846001600160a01b0316816001600160a01b031614610fbd57610fbd8585612460565b806001600160a01b03163b5f0361201457604051634c9c8ce360e01b81526001600160a01b03821660048201526024016107a9565b5f805160206130af83398151915280546001600160a01b0319166001600160a01b0392909216919091179055565b60605f80846001600160a01b03168460405161205e919061303c565b5f60405180830381855af49150503d805f8114612096576040519150601f19603f3d011682016040523d82523d5f602084013e61209b565b606091505b5091509150611ebc8583836124b8565b34156108935760405163b398979f60e01b815260040160405180910390fd5b6001600160a01b0382166120f357604051633250574960e11b81525f60048201526024016107a9565b5f6120ff83835f611102565b90506001600160a01b038116156108af576040516339e3563760e11b81525f60048201526024016107a9565b611d70611c3d565b606061213e82611085565b505f61215460408051602081019091525f815290565b90505f8151116121725760405180602001604052805f815250610af3565b8061217c84612514565b60405160200161218d929190613028565b6040516020818303038152906040529392505050565b5f6001600160e01b031982166380ac58cd60e01b14806121d357506001600160e01b03198216635b5e139f60e01b145b806106ba57506301ffc9a760e01b6001600160e01b03198316146106ba565b5f5f8051602061308f8339815191528161220b85611a43565b90506001600160a01b03841615612227576122278185876125a3565b6001600160a01b03811615612263576122425f865f80611a7c565b6001600160a01b0381165f908152600383016020526040902080545f190190555b6001600160a01b03861615612293576001600160a01b0386165f9081526003830160205260409020805460010190555b5f85815260028301602052604080822080546001600160a01b0319166001600160a01b038a811691821790925591518893918516917fddf252ad1be2c89b69c2b068fc378daa952ba7f163c4a11628f55a4df523b3ef91a495945050505050565b5f8051602061306f8339815191525f61230c84610afa565b5f84815260018401602052604090205490915080821461235f576001600160a01b0385165f9081526020848152604080832085845282528083205484845281842081905583526001860190915290208190555b505f92835260018201602090815260408085208590556001600160a01b039095168452918252838320908352905290812055565b5f805160206130cf833981519152545f8051602061306f833981519152905f906123bf90600190613047565b5f8481526003840160205260408120546002850180549394509092849081106123ea576123ea612c04565b905f5260205f20015490508084600201838154811061240b5761240b612c04565b5f918252602080832090910192909255828152600386019091526040808220849055868252812055600284018054806124465761244661305a565b600190038181905f5260205f20015f905590555050505050565b5f8051602061306f8339815191525f600161247a85610afa565b6124849190613047565b6001600160a01b039094165f9081526020838152604080832087845282528083208690559482526001909301909252502055565b6060826124cd576124c882612607565b610af3565b81511580156124e457506001600160a01b0384163b155b1561250d57604051639996b31560e01b81526001600160a01b03851660048201526024016107a9565b5080610af3565b60605f61252083612630565b60010190505f816001600160401b0381111561253e5761253e61286e565b6040519080825280601f01601f191660200182016040528015612568576020820181803683370190505b5090508181016020015b5f19016f181899199a1a9b1b9c1cb0b131b232b360811b600a86061a8153600a850494508461257257509392505050565b6125ae838383612707565b6108af576001600160a01b0383166125dc57604051637e27328960e01b8152600481018290526024016107a9565b60405163177e802f60e01b81526001600160a01b0383166004820152602481018290526044016107a9565b8051156126175780518082602001fd5b604051630a12f52160e11b815260040160405180910390fd5b5f8072184f03e93ff9f4daa797ed6e38ed64bf6a1f0160401b831061266e5772184f03e93ff9f4daa797ed6e38ed64bf6a1f0160401b830492506040015b6d04ee2d6d415b85acef8100000000831061269a576d04ee2d6d415b85acef8100000000830492506020015b662386f26fc1000083106126b857662386f26fc10000830492506010015b6305f5e10083106126d0576305f5e100830492506008015b61271083106126e457612710830492506004015b606483106126f6576064830492506002015b600a83106106ba5760010192915050565b5f6001600160a01b03831615801590610fbd5750826001600160a01b0316846001600160a01b0316148061274057506127408484610fc5565b80610fbd5750826001600160a01b0316612759836110bc565b6001600160a01b031614949350505050565b6001600160e01b031981168114611078575f80fd5b5f60208284031215612790575f80fd5b8135610af38161276b565b5f81518084528060208401602086015e5f602082860101526020601f19601f83011685010191505092915050565b602081525f610af3602083018461279b565b5f602082840312156127eb575f80fd5b5035919050565b6001600160a01b0381168114611078575f80fd5b5f8060408385031215612817575f80fd5b8235612822816127f2565b946020939093013593505050565b5f805f60608486031215612842575f80fd5b833561284d816127f2565b9250602084013561285d816127f2565b929592945050506040919091013590565b634e487b7160e01b5f52604160045260245ffd5b5f82601f830112612891575f80fd5b8135602083015f806001600160401b038411156128b0576128b061286e565b50604051601f19601f85018116603f011681018181106001600160401b03821117156128de576128de61286e565b6040528381529050808284018710156128f5575f80fd5b838360208301375f602085830101528094505050505092915050565b5f8060408385031215612922575f80fd5b823561292d816127f2565b915060208301356001600160401b03811115612947575f80fd5b61295385828601612882565b9150509250929050565b5f805f8385036040811215612970575f80fd5b602081121561297d575f80fd5b5083925060208401356001600160401b03811115612999575f80fd5b8401601f810186136129a9575f80fd5b80356001600160401b038111156129be575f80fd5b8660208284010111156129cf575f80fd5b939660209190910195509293505050565b5f602082840312156129f0575f80fd5b8135610af3816127f2565b5f805f805f60a08688031215612a0f575f80fd5b8535612a1a816127f2565b945060208601356001600160401b03811115612a34575f80fd5b612a4088828901612882565b94505060408601356001600160401b03811115612a5b575f80fd5b612a6788828901612882565b9350506060860135612a78816127f2565b949793965091946080013592915050565b5f805f60608486031215612a9b575f80fd5b833592506020840135612aad816127f2565b91506040840135612abd816127f2565b809150509250925092565b5f8060408385031215612ad9575f80fd5b8235612ae4816127f2565b915060208301358015158114612af8575f80fd5b809150509250929050565b5f805f8060808587031215612b16575f80fd5b8435612b21816127f2565b93506020850135612b31816127f2565b92506040850135915060608501356001600160401b03811115612b52575f80fd5b612b5e87828801612882565b91505092959194509250565b5f60208284031215612b7a575f80fd5b81356001600160401b03811115612b8f575f80fd5b820160808185031215610af3575f80fd5b5f8060408385031215612bb1575f80fd5b8235612bbc816127f2565b91506020830135612af8816127f2565b600181811c90821680612be057607f821691505b602082108103612bfe57634e487b7160e01b5f52602260045260245ffd5b50919050565b634e487b7160e01b5f52603260045260245ffd5b5f805f805f60a08688031215612c2c575f80fd5b8535612c37816127f2565b94506020860135935060408601356001600160401b03811115612c58575f80fd5b612c6488828901612882565b935050606086013591506080860135612c7c816127f2565b809150509295509295909350565b5f808335601e19843603018112612c9f575f80fd5b8301803591506001600160401b03821115612cb8575f80fd5b602001915036819003821315612ccc575f80fd5b9250929050565b5f805f8060808587031215612ce6575f80fd5b8435612cf1816127f2565b93506020850135925060408501356001600160401b03811115612d12575f80fd5b612d1e87828801612882565b9250506060850135612d2f816127f2565b939692955090935050565b606081525f612d4c606083018661279b565b6001600160a01b039490941660208301525060400152919050565b634e487b7160e01b5f52601160045260245ffd5b5f60018201612d8c57612d8c612d67565b5060010190565b5f60208284031215612da3575f80fd5b5051919050565b601f8211156108af57805f5260205f20601f840160051c81016020851015612dcf5750805b601f840160051c820191505b818110156119dd575f8155600101612ddb565b81516001600160401b03811115612e0757612e0761286e565b612e1b81612e158454612bcc565b84612daa565b6020601f821160018114612e4d575f8315612e365750848201515b5f19600385901b1c1916600184901b1784556119dd565b5f84815260208120601f198516915b82811015612e7c5787850151825560209485019460019092019101612e5c565b5084821015612e9957868401515f19600387901b60f8161c191681555b50505050600190811b01905550565b6001600160a01b038681168252851660208201526040810184905260a0606082018190525f90612eda9083018561279b565b905060018060a01b03831660808301529695505050505050565b6001600160a01b03841681526060602082018190525f90612f179083018561279b565b828103604084015260018060a01b03845116815260208401511515602082015260018060a01b036040850151166040820152606084015160a06060830152612f6260a083018261279b565b9050608085015160808301528092505050949350505050565b60018060a01b0385168152836020820152608060408201525f612fa1608083018561279b565b905060018060a01b038316606083015295945050505050565b6001600160a01b03858116825284166020820152604081018390526080606082018190525f90612fec9083018461279b565b9695505050505050565b5f60208284031215613006575f80fd5b8151610af38161276b565b5f81518060208401855e5f93019283525090919050565b5f610fbd6130368386613011565b84613011565b5f610af38284613011565b818103818111156106ba576106ba612d67565b634e487b7160e01b5f52603160045260245ffdfe645e039705490088daad89bae25049a34f4a9072d398537b1ab2425f24cbed0080bb2b638cc20bc4d0a60d66940f3ab4a00c1d7b313497ca82fb0b4ab0079300360894a13ba1a3210667c828492db98dca3e2076cc3735a920a3ca505d382bbc645e039705490088daad89bae25049a34f4a9072d398537b1ab2425f24cbed02cd5ed15c6e187e77e9aee88184c21f4f2182ab5827cb3b7e07fbedcd63f03300a2646970667358221220da057e6c741afb4a47009f00e7114c7ecf35b7e5ce604ede876eba1a6155354164736f6c634300081a0033","linkReferences":{}},"methodIdentifiers":{"UPGRADE_INTERFACE_VERSION()":"ad3cb1cc","approve(address,uint256)":"095ea7b3","balanceOf(address)":"70a08231","burn(uint256)":"42966c68","gasLimitAmount()":"d0f23970","gateway()":"116191b6","getApproved(uint256)":"081812fc","initialize(address,string,string,address,uint256)":"75b30be6","isApprovedForAll(address,address)":"e985e9c5","name()":"06fdde03","onCall((address),bytes)":"676cc054","onRevert((address,address,uint256,bytes))":"c9028a36","owner()":"8da5cb5b","ownerOf(uint256)":"6352211e","pause()":"8456cb59","paused()":"5c975abb","proxiableUUID()":"52d1902d","renounceOwnership()":"715018a6","safeMint(address,string)":"d204c45e","safeTransferFrom(address,address,uint256)":"42842e0e","safeTransferFrom(address,address,uint256,bytes)":"b88d4fde","setApprovalForAll(address,bool)":"a22cb465","setGasLimit(uint256)":"ee7d72b4","setGateway(address)":"90646b4a","setUniversal(address)":"784ec91f","supportsInterface(bytes4)":"01ffc9a7","symbol()":"95d89b41","tokenByIndex(uint256)":"4f6ccce7","tokenOfOwnerByIndex(address,uint256)":"2f745c59","tokenURI(uint256)":"c87b56dd","totalSupply()":"18160ddd","transferCrossChain(uint256,address,address)":"9b7a4aa4","transferFrom(address,address,uint256)":"23b872dd","transferOwnership(address)":"f2fde38b","universal()":"4ee628a3","unpause()":"3f4ba83a","upgradeToAndCall(address,bytes)":"4f1ef286"},"id":21}