{"abi":[{"type":"function","name":"DEFAULT_ADMIN_ROLE","inputs":[],"outputs":[{"name":"","type":"bytes32","internalType":"bytes32"}],"stateMutability":"view"},{"type":"function","name":"PAUSER_ROLE","inputs":[],"outputs":[{"name":"","type":"bytes32","internalType":"bytes32"}],"stateMutability":"view"},{"type":"function","name":"UPGRADE_INTERFACE_VERSION","inputs":[],"outputs":[{"name":"","type":"string","internalType":"string"}],"stateMutability":"view"},{"type":"function","name":"WHITELISTER_ROLE","inputs":[],"outputs":[{"name":"","type":"bytes32","internalType":"bytes32"}],"stateMutability":"view"},{"type":"function","name":"WITHDRAWER_ROLE","inputs":[],"outputs":[{"name":"","type":"bytes32","internalType":"bytes32"}],"stateMutability":"view"},{"type":"function","name":"deposit","inputs":[{"name":"recipient","type":"bytes","internalType":"bytes"},{"name":"asset","type":"address","internalType":"contract IERC20"},{"name":"amount","type":"uint256","internalType":"uint256"},{"name":"message","type":"bytes","internalType":"bytes"}],"outputs":[],"stateMutability":"nonpayable"},{"type":"function","name":"gateway","inputs":[],"outputs":[{"name":"","type":"address","internalType":"contract IGatewayEVM"}],"stateMutability":"view"},{"type":"function","name":"getRoleAdmin","inputs":[{"name":"role","type":"bytes32","internalType":"bytes32"}],"outputs":[{"name":"","type":"bytes32","internalType":"bytes32"}],"stateMutability":"view"},{"type":"function","name":"grantRole","inputs":[{"name":"role","type":"bytes32","internalType":"bytes32"},{"name":"account","type":"address","internalType":"address"}],"outputs":[],"stateMutability":"nonpayable"},{"type":"function","name":"hasRole","inputs":[{"name":"role","type":"bytes32","internalType":"bytes32"},{"name":"account","type":"address","internalType":"address"}],"outputs":[{"name":"","type":"bool","internalType":"bool"}],"stateMutability":"view"},{"type":"function","name":"initialize","inputs":[{"name":"gateway_","type":"address","internalType":"address"},{"name":"tssAddress_","type":"address","internalType":"address"},{"name":"admin_","type":"address","internalType":"address"}],"outputs":[],"stateMutability":"nonpayable"},{"type":"function","name":"pause","inputs":[],"outputs":[],"stateMutability":"nonpayable"},{"type":"function","name":"paused","inputs":[],"outputs":[{"name":"","type":"bool","internalType":"bool"}],"stateMutability":"view"},{"type":"function","name":"proxiableUUID","inputs":[],"outputs":[{"name":"","type":"bytes32","internalType":"bytes32"}],"stateMutability":"view"},{"type":"function","name":"renounceRole","inputs":[{"name":"role","type":"bytes32","internalType":"bytes32"},{"name":"callerConfirmation","type":"address","internalType":"address"}],"outputs":[],"stateMutability":"nonpayable"},{"type":"function","name":"revokeRole","inputs":[{"name":"role","type":"bytes32","internalType":"bytes32"},{"name":"account","type":"address","internalType":"address"}],"outputs":[],"stateMutability":"nonpayable"},{"type":"function","name":"setSupportsLegacy","inputs":[{"name":"_supportsLegacy","type":"bool","internalType":"bool"}],"outputs":[],"stateMutability":"nonpayable"},{"type":"function","name":"supportsInterface","inputs":[{"name":"interfaceId","type":"bytes4","internalType":"bytes4"}],"outputs":[{"name":"","type":"bool","internalType":"bool"}],"stateMutability":"view"},{"type":"function","name":"supportsLegacy","inputs":[],"outputs":[{"name":"","type":"bool","internalType":"bool"}],"stateMutability":"view"},{"type":"function","name":"tssAddress","inputs":[],"outputs":[{"name":"","type":"address","internalType":"address"}],"stateMutability":"view"},{"type":"function","name":"unpause","inputs":[],"outputs":[],"stateMutability":"nonpayable"},{"type":"function","name":"unwhitelist","inputs":[{"name":"token","type":"address","internalType":"address"}],"outputs":[],"stateMutability":"nonpayable"},{"type":"function","name":"updateTSSAddress","inputs":[{"name":"newTSSAddress","type":"address","internalType":"address"}],"outputs":[],"stateMutability":"nonpayable"},{"type":"function","name":"upgradeToAndCall","inputs":[{"name":"newImplementation","type":"address","internalType":"address"},{"name":"data","type":"bytes","internalType":"bytes"}],"outputs":[],"stateMutability":"payable"},{"type":"function","name":"whitelist","inputs":[{"name":"token","type":"address","internalType":"address"}],"outputs":[],"stateMutability":"nonpayable"},{"type":"function","name":"whitelisted","inputs":[{"name":"","type":"address","internalType":"address"}],"outputs":[{"name":"","type":"bool","internalType":"bool"}],"stateMutability":"view"},{"type":"function","name":"withdraw","inputs":[{"name":"to","type":"address","internalType":"address"},{"name":"token","type":"address","internalType":"address"},{"name":"amount","type":"uint256","internalType":"uint256"}],"outputs":[],"stateMutability":"nonpayable"},{"type":"function","name":"withdrawAndCall","inputs":[{"name":"messageContext","type":"tuple","internalType":"struct MessageContext","components":[{"name":"sender","type":"address","internalType":"address"}]},{"name":"to","type":"address","internalType":"address"},{"name":"token","type":"address","internalType":"address"},{"name":"amount","type":"uint256","internalType":"uint256"},{"name":"data","type":"bytes","internalType":"bytes"}],"outputs":[],"stateMutability":"nonpayable"},{"type":"function","name":"withdrawAndRevert","inputs":[{"name":"to","type":"address","internalType":"address"},{"name":"token","type":"address","internalType":"address"},{"name":"amount","type":"uint256","internalType":"uint256"},{"name":"data","type":"bytes","internalType":"bytes"},{"name":"revertContext","type":"tuple","internalType":"struct RevertContext","components":[{"name":"sender","type":"address","internalType":"address"},{"name":"asset","type":"address","internalType":"address"},{"name":"amount","type":"uint256","internalType":"uint256"},{"name":"revertMessage","type":"bytes","internalType":"bytes"}]}],"outputs":[],"stateMutability":"nonpayable"},{"type":"event","name":"Deposited","inputs":[{"name":"recipient","type":"bytes","indexed":false,"internalType":"bytes"},{"name":"asset","type":"address","indexed":true,"internalType":"contract IERC20"},{"name":"amount","type":"uint256","indexed":false,"internalType":"uint256"},{"name":"message","type":"bytes","indexed":false,"internalType":"bytes"}],"anonymous":false},{"type":"event","name":"Initialized","inputs":[{"name":"version","type":"uint64","indexed":false,"internalType":"uint64"}],"anonymous":false},{"type":"event","name":"Paused","inputs":[{"name":"account","type":"address","indexed":false,"internalType":"address"}],"anonymous":false},{"type":"event","name":"RoleAdminChanged","inputs":[{"name":"role","type":"bytes32","indexed":true,"internalType":"bytes32"},{"name":"previousAdminRole","type":"bytes32","indexed":true,"internalType":"bytes32"},{"name":"newAdminRole","type":"bytes32","indexed":true,"internalType":"bytes32"}],"anonymous":false},{"type":"event","name":"RoleGranted","inputs":[{"name":"role","type":"bytes32","indexed":true,"internalType":"bytes32"},{"name":"account","type":"address","indexed":true,"internalType":"address"},{"name":"sender","type":"address","indexed":true,"internalType":"address"}],"anonymous":false},{"type":"event","name":"RoleRevoked","inputs":[{"name":"role","type":"bytes32","indexed":true,"internalType":"bytes32"},{"name":"account","type":"address","indexed":true,"internalType":"address"},{"name":"sender","type":"address","indexed":true,"internalType":"address"}],"anonymous":false},{"type":"event","name":"Unpaused","inputs":[{"name":"account","type":"address","indexed":false,"internalType":"address"}],"anonymous":false},{"type":"event","name":"Unwhitelisted","inputs":[{"name":"token","type":"address","indexed":true,"internalType":"address"}],"anonymous":false},{"type":"event","name":"UpdatedCustodyTSSAddress","inputs":[{"name":"oldTSSAddress","type":"address","indexed":false,"internalType":"address"},{"name":"newTSSAddress","type":"address","indexed":false,"internalType":"address"}],"anonymous":false},{"type":"event","name":"Upgraded","inputs":[{"name":"implementation","type":"address","indexed":true,"internalType":"address"}],"anonymous":false},{"type":"event","name":"Whitelisted","inputs":[{"name":"token","type":"address","indexed":true,"internalType":"address"}],"anonymous":false},{"type":"event","name":"Withdrawn","inputs":[{"name":"to","type":"address","indexed":true,"internalType":"address"},{"name":"token","type":"address","indexed":true,"internalType":"address"},{"name":"amount","type":"uint256","indexed":false,"internalType":"uint256"}],"anonymous":false},{"type":"event","name":"WithdrawnAndCalled","inputs":[{"name":"to","type":"address","indexed":true,"internalType":"address"},{"name":"token","type":"address","indexed":true,"internalType":"address"},{"name":"amount","type":"uint256","indexed":false,"internalType":"uint256"},{"name":"data","type":"bytes","indexed":false,"internalType":"bytes"}],"anonymous":false},{"type":"event","name":"WithdrawnAndReverted","inputs":[{"name":"to","type":"address","indexed":true,"internalType":"address"},{"name":"token","type":"address","indexed":true,"internalType":"address"},{"name":"amount","type":"uint256","indexed":false,"internalType":"uint256"},{"name":"data","type":"bytes","indexed":false,"internalType":"bytes"},{"name":"revertContext","type":"tuple","indexed":false,"internalType":"struct RevertContext","components":[{"name":"sender","type":"address","internalType":"address"},{"name":"asset","type":"address","internalType":"address"},{"name":"amount","type":"uint256","internalType":"uint256"},{"name":"revertMessage","type":"bytes","internalType":"bytes"}]}],"anonymous":false},{"type":"error","name":"AccessControlBadConfirmation","inputs":[]},{"type":"error","name":"AccessControlUnauthorizedAccount","inputs":[{"name":"account","type":"address","internalType":"address"},{"name":"neededRole","type":"bytes32","internalType":"bytes32"}]},{"type":"error","name":"AddressEmptyCode","inputs":[{"name":"target","type":"address","internalType":"address"}]},{"type":"error","name":"AddressInsufficientBalance","inputs":[{"name":"account","type":"address","internalType":"address"}]},{"type":"error","name":"ERC1967InvalidImplementation","inputs":[{"name":"implementation","type":"address","internalType":"address"}]},{"type":"error","name":"ERC1967NonPayable","inputs":[]},{"type":"error","name":"EnforcedPause","inputs":[]},{"type":"error","name":"ExpectedPause","inputs":[]},{"type":"error","name":"FailedInnerCall","inputs":[]},{"type":"error","name":"InvalidInitialization","inputs":[]},{"type":"error","name":"LegacyMethodsNotSupported","inputs":[]},{"type":"error","name":"NotInitializing","inputs":[]},{"type":"error","name":"NotWhitelisted","inputs":[]},{"type":"error","name":"ReentrancyGuardReentrantCall","inputs":[]},{"type":"error","name":"SafeERC20FailedOperation","inputs":[{"name":"token","type":"address","internalType":"address"}]},{"type":"error","name":"UUPSUnauthorizedCallContext","inputs":[]},{"type":"error","name":"UUPSUnsupportedProxiableUUID","inputs":[{"name":"slot","type":"bytes32","internalType":"bytes32"}]},{"type":"error","name":"ZeroAddress","inputs":[]}],"bytecode":{"object":"0x60a0604052306080523480156012575f80fd5b506080516120666100395f395f81816111ff01528181611228015261137001526120665ff3fe6080604052600436106101ba575f3560e01c806391d14854116100f2578063ad3cb1cc11610092578063d9caed1211610062578063d9caed12146104fc578063e609055e1461051b578063e63ab1e91461053a578063eab103df1461055a575f80fd5b8063ad3cb1cc14610453578063c0c53b8b14610490578063d547741f146104af578063d936547e146104ce575f80fd5b80639a590427116100cd5780639a590427146103e35780639b19251a14610402578063a217fddf14610421578063ad08185214610434575f80fd5b806391d1485414610386578063950837aa146103a557806399a3c356146103c4575f80fd5b80634f1ef2861161015d5780635b112591116101385780635b112591146103105780635c975abb1461032f5780638456cb591461035257806385f438c114610366575f80fd5b80634f1ef286146102c957806352d1902d146102dc578063570618e1146102f0575f80fd5b8063252f07bf11610198578063252f07bf146102555780632f2ff15d1461027557806336568abe146102965780633f4ba83a146102b5575f80fd5b806301ffc9a7146101be578063116191b6146101f2578063248a9ca314610228575b5f80fd5b3480156101c9575f80fd5b506101dd6101d83660046118e5565b610579565b60405190151581526020015b60405180910390f35b3480156101fd575f80fd5b505f54610210906001600160a01b031681565b6040516001600160a01b0390911681526020016101e9565b348015610233575f80fd5b5061024761024236600461190c565b6105af565b6040519081526020016101e9565b348015610260575f80fd5b506002546101dd90600160a01b900460ff1681565b348015610280575f80fd5b5061029461028f366004611937565b6105cf565b005b3480156102a1575f80fd5b506102946102b0366004611937565b6105f1565b3480156102c0575f80fd5b50610294610629565b6102946102d7366004611979565b61064b565b3480156102e7575f80fd5b5061024761066a565b3480156102fb575f80fd5b506102475f80516020611f7183398151915281565b34801561031b575f80fd5b50600254610210906001600160a01b031681565b34801561033a575f80fd5b505f80516020611ff18339815191525460ff166101dd565b34801561035d575f80fd5b50610294610685565b348015610371575f80fd5b506102475f80516020611fb183398151915281565b348015610391575f80fd5b506101dd6103a0366004611937565b6106a4565b3480156103b0575f80fd5b506102946103bf366004611a3f565b6106da565b3480156103cf575f80fd5b506102946103de366004611a9f565b6107ef565b3480156103ee575f80fd5b506102946103fd366004611a3f565b61093d565b34801561040d575f80fd5b5061029461041c366004611a3f565b6109c4565b34801561042c575f80fd5b506102475f81565b34801561043f575f80fd5b5061029461044e366004611b3b565b610a51565b34801561045e575f80fd5b50610483604051806040016040528060058152602001640352e302e360dc1b81525081565b6040516101e99190611bc0565b34801561049b575f80fd5b506102946104aa366004611bf5565b610b76565b3480156104ba575f80fd5b506102946104c9366004611937565b610d98565b3480156104d9575f80fd5b506101dd6104e8366004611a3f565b60016020525f908152604090205460ff1681565b348015610507575f80fd5b50610294610516366004611c3d565b610db4565b348015610526575f80fd5b50610294610535366004611c7b565b610e8b565b348015610545575f80fd5b506102475f80516020611f9183398151915281565b348015610565575f80fd5b50610294610574366004611cf5565b611048565b5f6001600160e01b03198216637965db0b60e01b14806105a957506301ffc9a760e01b6001600160e01b03198316145b92915050565b5f9081525f80516020611fd1833981519152602052604090206001015490565b6105d8826105af565b6105e181611071565b6105eb838361107b565b50505050565b6001600160a01b038116331461061a5760405163334bd91960e11b815260040160405180910390fd5b610624828261111c565b505050565b5f80516020611f9183398151915261064081611071565b610648611195565b50565b6106536111f4565b61065c8261129a565b61066682826112a4565b5050565b5f610673611365565b505f80516020611f5183398151915290565b5f80516020611f9183398151915261069c81611071565b6106486113ae565b5f9182525f80516020611fd1833981519152602090815260408084206001600160a01b0393909316845291905290205460ff1690565b5f6106e481611071565b6001600160a01b03821661070b5760405163d92e233d60e01b815260040160405180910390fd5b60025461072f905f80516020611fb1833981519152906001600160a01b031661111c565b50600254610754905f80516020611f71833981519152906001600160a01b031661111c565b5061076c5f80516020611fb18339815191528361107b565b506107845f80516020611f718339815191528361107b565b50600254604080516001600160a01b03928316815291841660208301527f4d3470c839d3c4dd664eec934b920c12fe0966e3185103dd40149496815df2b6910160405180910390a150600280546001600160a01b0319166001600160a01b0392909216919091179055565b6107f76113f6565b5f80516020611fb183398151915261080e81611071565b61081661142d565b6001600160a01b0386165f9081526001602052604090205460ff1661084e57604051630b094f2760e31b815260040160405180910390fd5b5f54610867906001600160a01b0388811691168761145d565b5f5460405163aa0c0fc160e01b81526001600160a01b039091169063aa0c0fc1906108a09089908b908a908a908a908a90600401611dcb565b5f604051808303815f87803b1580156108b7575f80fd5b505af11580156108c9573d5f803e3d5ffd5b50505050856001600160a01b0316876001600160a01b03167f7b53ec10a80164e60591c43d9c222e9354886981b880a3fba19c9ceb77fb9721878787876040516109169493929190611e1d565b60405180910390a35061093560015f8051602061201183398151915255565b505050505050565b5f80516020611f7183398151915261095481611071565b6001600160a01b03821661097b5760405163d92e233d60e01b815260040160405180910390fd5b6001600160a01b0382165f81815260016020526040808220805460ff19169055517f51085ddf9ebdded84b76e829eb58c4078e4b5bdf97d9a94723f336039da467919190a25050565b5f80516020611f718339815191526109db81611071565b6001600160a01b038216610a025760405163d92e233d60e01b815260040160405180910390fd5b6001600160a01b0382165f818152600160208190526040808320805460ff1916909217909155517faab7954e9d246b167ef88aeddad35209ca2489d95a8aeb59e288d9b19fae5a549190a25050565b610a596113f6565b5f80516020611fb1833981519152610a7081611071565b610a7861142d565b6001600160a01b0385165f9081526001602052604090205460ff16610ab057604051630b094f2760e31b815260040160405180910390fd5b5f54610ac9906001600160a01b0387811691168661145d565b5f54604051633ddf4d7d60e11b81526001600160a01b0390911690637bbe9afa90610b02908a9089908b908a908a908a90600401611e53565b5f604051808303815f87803b158015610b19575f80fd5b505af1158015610b2b573d5f803e3d5ffd5b50505050846001600160a01b0316866001600160a01b03167f6478cbb6e28c0823c691dfd74c01c985634faddd4c401b990fe4ec26277ea8d586868660405161091693929190611ea4565b7ff0c57e16840df040f15088dc2f81fe391c3923bec73e23a9662efc9c229c6a008054600160401b810460ff16159067ffffffffffffffff165f81158015610bbb5750825b90505f8267ffffffffffffffff166001148015610bd75750303b155b905081158015610be5575080155b15610c035760405163f92ee8a960e01b815260040160405180910390fd5b845467ffffffffffffffff191660011785558315610c2d57845460ff60401b1916600160401b1785555b6001600160a01b0388161580610c4a57506001600160a01b038716155b80610c5c57506001600160a01b038616155b15610c7a5760405163d92e233d60e01b815260040160405180910390fd5b610c826114cf565b610c8a6114d7565b610c926114cf565b610c9a6114e7565b5f80546001600160a01b03808b166001600160a01b031992831617835560028054918b1691909216179055610ccf908761107b565b50610ce75f80516020611f918339815191528761107b565b50610cff5f80516020611f918339815191528861107b565b50610d175f80516020611fb18339815191528861107b565b50610d2f5f80516020611f718339815191528761107b565b50610d475f80516020611f718339815191528861107b565b508315610d8e57845460ff60401b19168555604051600181527fc7f505b2f371ae2175ee4913f4499e1f2633a7b5936321eed1cdaeb6115181d29060200160405180910390a15b5050505050505050565b610da1826105af565b610daa81611071565b6105eb838361111c565b610dbc6113f6565b5f80516020611fb1833981519152610dd381611071565b610ddb61142d565b6001600160a01b0383165f9081526001602052604090205460ff16610e1357604051630b094f2760e31b815260040160405180910390fd5b610e276001600160a01b038416858461145d565b826001600160a01b0316846001600160a01b03167fd1c19fbcd4551a5edfb66d43d2e337c04837afda3482b42bdf569a8fccdae5fb84604051610e6c91815260200190565b60405180910390a35061062460015f8051602061201183398151915255565b610e936113f6565b610e9b61142d565b600254600160a01b900460ff16610ec5576040516373cba66360e01b815260040160405180910390fd5b6001600160a01b0384165f9081526001602052604090205460ff16610efd57604051630b094f2760e31b815260040160405180910390fd5b6040516370a0823160e01b81523060048201525f906001600160a01b038616906370a0823190602401602060405180830381865afa158015610f41573d5f803e3d5ffd5b505050506040513d601f19601f82011682018060405250810190610f659190611ebd565b9050610f7c6001600160a01b0386163330876114f7565b6040516370a0823160e01b81523060048201526001600160a01b038616907f1dafa057cc5c3bccb5ad974129a2bccd3c74002d9dfd7062404ba9523b18d6ae9089908990859085906370a0823190602401602060405180830381865afa158015610fe8573d5f803e3d5ffd5b505050506040513d601f19601f8201168201806040525081019061100c9190611ebd565b6110169190611ed4565b8787604051611029959493929190611ef3565b60405180910390a25061093560015f8051602061201183398151915255565b5f61105281611071565b5060028054911515600160a01b0260ff60a01b19909216919091179055565b6106488133611530565b5f5f80516020611fd183398151915261109484846106a4565b611113575f848152602082815260408083206001600160a01b03871684529091529020805460ff191660011790556110c93390565b6001600160a01b0316836001600160a01b0316857f2f8788117e7eff1d82e926ec794901d17c78024a50270940304540a733656f0d60405160405180910390a460019150506105a9565b5f9150506105a9565b5f5f80516020611fd183398151915261113584846106a4565b15611113575f848152602082815260408083206001600160a01b0387168085529252808320805460ff1916905551339287917ff6391f5c32d9c69d2a47ea670b442974b53935d1edc7fd64eb21e047a839171b9190a460019150506105a9565b61119d611569565b5f80516020611ff1833981519152805460ff191681557f5db9ee0a495bf2e6ff9c91a7834c1ba4fdd244a5e8aa4e537bd38aeae4b073aa335b6040516001600160a01b03909116815260200160405180910390a150565b306001600160a01b037f000000000000000000000000000000000000000000000000000000000000000016148061127a57507f00000000000000000000000000000000000000000000000000000000000000006001600160a01b031661126e5f80516020611f51833981519152546001600160a01b031690565b6001600160a01b031614155b156112985760405163703e46dd60e11b815260040160405180910390fd5b565b5f61066681611071565b816001600160a01b03166352d1902d6040518163ffffffff1660e01b8152600401602060405180830381865afa9250505080156112fe575060408051601f3d908101601f191682019092526112fb91810190611ebd565b60015b61132b57604051634c9c8ce360e01b81526001600160a01b03831660048201526024015b60405180910390fd5b5f80516020611f51833981519152811461135b57604051632a87526960e21b815260048101829052602401611322565b6106248383611598565b306001600160a01b037f000000000000000000000000000000000000000000000000000000000000000016146112985760405163703e46dd60e11b815260040160405180910390fd5b6113b661142d565b5f80516020611ff1833981519152805460ff191660011781557f62e78cea01bee320cd4e420270b5ea74000d11b0c9f74754ebdbfc544b05a258336111d6565b5f8051602061201183398151915280546001190161142757604051633ee5aeb560e01b815260040160405180910390fd5b60029055565b5f80516020611ff18339815191525460ff16156112985760405163d93c066560e01b815260040160405180910390fd5b6040516001600160a01b0383811660248301526044820183905261062491859182169063a9059cbb906064015b604051602081830303815290604052915060e01b6020820180516001600160e01b0383818316178352505050506115ed565b60015f8051602061201183398151915255565b61129861164e565b6114df61164e565b611298611697565b6114ef61164e565b61129861169f565b6040516001600160a01b0384811660248301528381166044830152606482018390526105eb9186918216906323b872dd9060840161148a565b61153a82826106a4565b6106665760405163e2517d3f60e01b81526001600160a01b038216600482015260248101839052604401611322565b5f80516020611ff18339815191525460ff1661129857604051638dfc202b60e01b815260040160405180910390fd5b6115a1826116bf565b6040516001600160a01b038316907fbc7cd75a20ee27fd9adebab32041f755214dbc6bffa90cc0225b39da2e5c2d3b905f90a28051156115e5576106248282611722565b610666611794565b5f6116016001600160a01b038416836117b3565b905080515f141580156116255750808060200190518101906116239190611f1f565b155b1561062457604051635274afe760e01b81526001600160a01b0384166004820152602401611322565b7ff0c57e16840df040f15088dc2f81fe391c3923bec73e23a9662efc9c229c6a0054600160401b900460ff1661129857604051631afcd79f60e31b815260040160405180910390fd5b6114bc61164e565b6116a761164e565b5f80516020611ff1833981519152805460ff19169055565b806001600160a01b03163b5f036116f457604051634c9c8ce360e01b81526001600160a01b0382166004820152602401611322565b5f80516020611f5183398151915280546001600160a01b0319166001600160a01b0392909216919091179055565b60605f80846001600160a01b03168460405161173e9190611f3a565b5f60405180830381855af49150503d805f8114611776576040519150601f19603f3d011682016040523d82523d5f602084013e61177b565b606091505b509150915061178b8583836117c7565b95945050505050565b34156112985760405163b398979f60e01b815260040160405180910390fd5b60606117c083835f611823565b9392505050565b6060826117dc576117d7826118bc565b6117c0565b81511580156117f357506001600160a01b0384163b155b1561181c57604051639996b31560e01b81526001600160a01b0385166004820152602401611322565b5092915050565b6060814710156118485760405163cd78605960e01b8152306004820152602401611322565b5f80856001600160a01b031684866040516118639190611f3a565b5f6040518083038185875af1925050503d805f811461189d576040519150601f19603f3d011682016040523d82523d5f602084013e6118a2565b606091505b50915091506118b28683836117c7565b9695505050505050565b8051156118cc5780518082602001fd5b604051630a12f52160e11b815260040160405180910390fd5b5f602082840312156118f5575f80fd5b81356001600160e01b0319811681146117c0575f80fd5b5f6020828403121561191c575f80fd5b5035919050565b6001600160a01b0381168114610648575f80fd5b5f8060408385031215611948575f80fd5b82359150602083013561195a81611923565b809150509250929050565b634e487b7160e01b5f52604160045260245ffd5b5f806040838503121561198a575f80fd5b823561199581611923565b9150602083013567ffffffffffffffff8111156119b0575f80fd5b8301601f810185136119c0575f80fd5b803567ffffffffffffffff8111156119da576119da611965565b604051601f8201601f19908116603f0116810167ffffffffffffffff81118282101715611a0957611a09611965565b604052818152828201602001871015611a20575f80fd5b816020840160208301375f602083830101528093505050509250929050565b5f60208284031215611a4f575f80fd5b81356117c081611923565b5f8083601f840112611a6a575f80fd5b50813567ffffffffffffffff811115611a81575f80fd5b602083019150836020828501011115611a98575f80fd5b9250929050565b5f805f805f8060a08789031215611ab4575f80fd5b8635611abf81611923565b95506020870135611acf81611923565b945060408701359350606087013567ffffffffffffffff811115611af1575f80fd5b611afd89828a01611a5a565b909450925050608087013567ffffffffffffffff811115611b1c575f80fd5b87016080818a031215611b2d575f80fd5b809150509295509295509295565b5f805f805f8086880360a0811215611b51575f80fd5b6020811215611b5e575f80fd5b508695506020870135611b7081611923565b94506040870135611b8081611923565b935060608701359250608087013567ffffffffffffffff811115611ba2575f80fd5b611bae89828a01611a5a565b979a9699509497509295939492505050565b602081525f82518060208401528060208501604085015e5f604082850101526040601f19601f83011684010191505092915050565b5f805f60608486031215611c07575f80fd5b8335611c1281611923565b92506020840135611c2281611923565b91506040840135611c3281611923565b809150509250925092565b5f805f60608486031215611c4f575f80fd5b8335611c5a81611923565b92506020840135611c6a81611923565b929592945050506040919091013590565b5f805f805f8060808789031215611c90575f80fd5b863567ffffffffffffffff811115611ca6575f80fd5b611cb289828a01611a5a565b9097509550506020870135611cc681611923565b935060408701359250606087013567ffffffffffffffff811115611ba2575f80fd5b8015158114610648575f80fd5b5f60208284031215611d05575f80fd5b81356117c081611ce8565b81835281816020850137505f828201602090810191909152601f909101601f19169091010190565b5f8135611d4481611923565b6001600160a01b031683526020820135611d5d81611923565b6001600160a01b0316602084015260408281013590840152606082013536839003601e19018112611d8c575f80fd5b820160208101903567ffffffffffffffff811115611da8575f80fd5b803603821315611db6575f80fd5b6080606086015261178b608086018284611d10565b6001600160a01b038781168252861660208201526040810185905260a0606082018190525f90611dfe9083018587611d10565b8281036080840152611e108185611d38565b9998505050505050505050565b848152606060208201525f611e36606083018587611d10565b8281036040840152611e488185611d38565b979650505050505050565b5f8735611e5f81611923565b6001600160a01b0390811683528781166020840152861660408301526060820185905260a060808301819052611e989083018486611d10565b98975050505050505050565b838152604060208201525f61178b604083018486611d10565b5f60208284031215611ecd575f80fd5b5051919050565b818103818111156105a957634e487b7160e01b5f52601160045260245ffd5b606081525f611f06606083018789611d10565b8560208401528281036040840152611e98818587611d10565b5f60208284031215611f2f575f80fd5b81516117c081611ce8565b5f82518060208501845e5f92019182525091905056fe360894a13ba1a3210667c828492db98dca3e2076cc3735a920a3ca505d382bbc8619cecd8b9e095ab43867f5b69d492180450fe862e6b50bfbfb24b75dd84c8a65d7a28e3265b37a6474929f336521b332c1681b933f6cb9f3376673440d862a10dac8c06a04bec0b551627dad28bc00d6516b0caacd1c7b345fcdb5211334e402dd7bc7dec4dceedda775e58dd541e08a116c6c53815c0bd028192f7b626800cd5ed15c6e187e77e9aee88184c21f4f2182ab5827cb3b7e07fbedcd63f033009b779b17422d0df92223018b32b4d1fa46e071723d6817e2486d003becc55f00a26469706673582212206801a91c2c2cd6c7297b38095f0978c2dfbc1d6aed6cad70ce84dbf4fffbdf3b64736f6c634300081a0033","linkReferences":{}},"methodIdentifiers":{"DEFAULT_ADMIN_ROLE()":"a217fddf","PAUSER_ROLE()":"e63ab1e9","UPGRADE_INTERFACE_VERSION()":"ad3cb1cc","WHITELISTER_ROLE()":"570618e1","WITHDRAWER_ROLE()":"85f438c1","deposit(bytes,address,uint256,bytes)":"e609055e","gateway()":"116191b6","getRoleAdmin(bytes32)":"248a9ca3","grantRole(bytes32,address)":"2f2ff15d","hasRole(bytes32,address)":"91d14854","initialize(address,address,address)":"c0c53b8b","pause()":"8456cb59","paused()":"5c975abb","proxiableUUID()":"52d1902d","renounceRole(bytes32,address)":"36568abe","revokeRole(bytes32,address)":"d547741f","setSupportsLegacy(bool)":"eab103df","supportsInterface(bytes4)":"01ffc9a7","supportsLegacy()":"252f07bf","tssAddress()":"5b112591","unpause()":"3f4ba83a","unwhitelist(address)":"9a590427","updateTSSAddress(address)":"950837aa","upgradeToAndCall(address,bytes)":"4f1ef286","whitelist(address)":"9b19251a","whitelisted(address)":"d936547e","withdraw(address,address,uint256)":"d9caed12","withdrawAndCall((address),address,address,uint256,bytes)":"ad081852","withdrawAndRevert(address,address,uint256,bytes,(address,address,uint256,bytes))":"99a3c356"},"id":112}