{"abi":[{"type":"constructor","inputs":[],"stateMutability":"nonpayable"},{"type":"receive","stateMutability":"payable"},{"type":"function","name":"DEFAULT_ADMIN_ROLE","inputs":[],"outputs":[{"name":"","type":"bytes32","internalType":"bytes32"}],"stateMutability":"view"},{"type":"function","name":"FUNGIBLE_MODULE_ADDRESS","inputs":[],"outputs":[{"name":"","type":"address","internalType":"address"}],"stateMutability":"view"},{"type":"function","name":"PAUSER_ROLE","inputs":[],"outputs":[{"name":"","type":"bytes32","internalType":"bytes32"}],"stateMutability":"view"},{"type":"function","name":"UPGRADE_INTERFACE_VERSION","inputs":[],"outputs":[{"name":"","type":"string","internalType":"string"}],"stateMutability":"view"},{"type":"function","name":"call","inputs":[{"name":"receiver","type":"bytes","internalType":"bytes"},{"name":"zrc20","type":"address","internalType":"address"},{"name":"message","type":"bytes","internalType":"bytes"},{"name":"gasLimit","type":"uint256","internalType":"uint256"},{"name":"revertOptions","type":"tuple","internalType":"struct RevertOptions","components":[{"name":"revertAddress","type":"address","internalType":"address"},{"name":"callOnRevert","type":"bool","internalType":"bool"},{"name":"abortAddress","type":"address","internalType":"address"},{"name":"revertMessage","type":"bytes","internalType":"bytes"},{"name":"onRevertGasLimit","type":"uint256","internalType":"uint256"}]}],"outputs":[],"stateMutability":"nonpayable"},{"type":"function","name":"deposit","inputs":[{"name":"zrc20","type":"address","internalType":"address"},{"name":"amount","type":"uint256","internalType":"uint256"},{"name":"target","type":"address","internalType":"address"}],"outputs":[],"stateMutability":"nonpayable"},{"type":"function","name":"depositAndCall","inputs":[{"name":"context","type":"tuple","internalType":"struct zContext","components":[{"name":"origin","type":"bytes","internalType":"bytes"},{"name":"sender","type":"address","internalType":"address"},{"name":"chainID","type":"uint256","internalType":"uint256"}]},{"name":"amount","type":"uint256","internalType":"uint256"},{"name":"target","type":"address","internalType":"address"},{"name":"message","type":"bytes","internalType":"bytes"}],"outputs":[],"stateMutability":"nonpayable"},{"type":"function","name":"depositAndCall","inputs":[{"name":"context","type":"tuple","internalType":"struct zContext","components":[{"name":"origin","type":"bytes","internalType":"bytes"},{"name":"sender","type":"address","internalType":"address"},{"name":"chainID","type":"uint256","internalType":"uint256"}]},{"name":"zrc20","type":"address","internalType":"address"},{"name":"amount","type":"uint256","internalType":"uint256"},{"name":"target","type":"address","internalType":"address"},{"name":"message","type":"bytes","internalType":"bytes"}],"outputs":[],"stateMutability":"nonpayable"},{"type":"function","name":"depositAndRevert","inputs":[{"name":"zrc20","type":"address","internalType":"address"},{"name":"amount","type":"uint256","internalType":"uint256"},{"name":"target","type":"address","internalType":"address"},{"name":"revertContext","type":"tuple","internalType":"struct RevertContext","components":[{"name":"asset","type":"address","internalType":"address"},{"name":"amount","type":"uint64","internalType":"uint64"},{"name":"revertMessage","type":"bytes","internalType":"bytes"}]}],"outputs":[],"stateMutability":"nonpayable"},{"type":"function","name":"execute","inputs":[{"name":"context","type":"tuple","internalType":"struct zContext","components":[{"name":"origin","type":"bytes","internalType":"bytes"},{"name":"sender","type":"address","internalType":"address"},{"name":"chainID","type":"uint256","internalType":"uint256"}]},{"name":"zrc20","type":"address","internalType":"address"},{"name":"amount","type":"uint256","internalType":"uint256"},{"name":"target","type":"address","internalType":"address"},{"name":"message","type":"bytes","internalType":"bytes"}],"outputs":[],"stateMutability":"nonpayable"},{"type":"function","name":"executeRevert","inputs":[{"name":"target","type":"address","internalType":"address"},{"name":"revertContext","type":"tuple","internalType":"struct RevertContext","components":[{"name":"asset","type":"address","internalType":"address"},{"name":"amount","type":"uint64","internalType":"uint64"},{"name":"revertMessage","type":"bytes","internalType":"bytes"}]}],"outputs":[],"stateMutability":"nonpayable"},{"type":"function","name":"getRoleAdmin","inputs":[{"name":"role","type":"bytes32","internalType":"bytes32"}],"outputs":[{"name":"","type":"bytes32","internalType":"bytes32"}],"stateMutability":"view"},{"type":"function","name":"grantRole","inputs":[{"name":"role","type":"bytes32","internalType":"bytes32"},{"name":"account","type":"address","internalType":"address"}],"outputs":[],"stateMutability":"nonpayable"},{"type":"function","name":"hasRole","inputs":[{"name":"role","type":"bytes32","internalType":"bytes32"},{"name":"account","type":"address","internalType":"address"}],"outputs":[{"name":"","type":"bool","internalType":"bool"}],"stateMutability":"view"},{"type":"function","name":"initialize","inputs":[{"name":"zetaToken_","type":"address","internalType":"address"},{"name":"admin_","type":"address","internalType":"address"}],"outputs":[],"stateMutability":"nonpayable"},{"type":"function","name":"pause","inputs":[],"outputs":[],"stateMutability":"nonpayable"},{"type":"function","name":"paused","inputs":[],"outputs":[{"name":"","type":"bool","internalType":"bool"}],"stateMutability":"view"},{"type":"function","name":"proxiableUUID","inputs":[],"outputs":[{"name":"","type":"bytes32","internalType":"bytes32"}],"stateMutability":"view"},{"type":"function","name":"renounceRole","inputs":[{"name":"role","type":"bytes32","internalType":"bytes32"},{"name":"callerConfirmation","type":"address","internalType":"address"}],"outputs":[],"stateMutability":"nonpayable"},{"type":"function","name":"revokeRole","inputs":[{"name":"role","type":"bytes32","internalType":"bytes32"},{"name":"account","type":"address","internalType":"address"}],"outputs":[],"stateMutability":"nonpayable"},{"type":"function","name":"supportsInterface","inputs":[{"name":"interfaceId","type":"bytes4","internalType":"bytes4"}],"outputs":[{"name":"","type":"bool","internalType":"bool"}],"stateMutability":"view"},{"type":"function","name":"unpause","inputs":[],"outputs":[],"stateMutability":"nonpayable"},{"type":"function","name":"upgradeToAndCall","inputs":[{"name":"newImplementation","type":"address","internalType":"address"},{"name":"data","type":"bytes","internalType":"bytes"}],"outputs":[],"stateMutability":"payable"},{"type":"function","name":"withdraw","inputs":[{"name":"receiver","type":"bytes","internalType":"bytes"},{"name":"amount","type":"uint256","internalType":"uint256"},{"name":"zrc20","type":"address","internalType":"address"},{"name":"revertOptions","type":"tuple","internalType":"struct RevertOptions","components":[{"name":"revertAddress","type":"address","internalType":"address"},{"name":"callOnRevert","type":"bool","internalType":"bool"},{"name":"abortAddress","type":"address","internalType":"address"},{"name":"revertMessage","type":"bytes","internalType":"bytes"},{"name":"onRevertGasLimit","type":"uint256","internalType":"uint256"}]}],"outputs":[],"stateMutability":"nonpayable"},{"type":"function","name":"withdraw","inputs":[{"name":"receiver","type":"bytes","internalType":"bytes"},{"name":"amount","type":"uint256","internalType":"uint256"},{"name":"chainId","type":"uint256","internalType":"uint256"},{"name":"revertOptions","type":"tuple","internalType":"struct RevertOptions","components":[{"name":"revertAddress","type":"address","internalType":"address"},{"name":"callOnRevert","type":"bool","internalType":"bool"},{"name":"abortAddress","type":"address","internalType":"address"},{"name":"revertMessage","type":"bytes","internalType":"bytes"},{"name":"onRevertGasLimit","type":"uint256","internalType":"uint256"}]}],"outputs":[],"stateMutability":"nonpayable"},{"type":"function","name":"withdrawAndCall","inputs":[{"name":"receiver","type":"bytes","internalType":"bytes"},{"name":"amount","type":"uint256","internalType":"uint256"},{"name":"zrc20","type":"address","internalType":"address"},{"name":"message","type":"bytes","internalType":"bytes"},{"name":"gasLimit","type":"uint256","internalType":"uint256"},{"name":"revertOptions","type":"tuple","internalType":"struct RevertOptions","components":[{"name":"revertAddress","type":"address","internalType":"address"},{"name":"callOnRevert","type":"bool","internalType":"bool"},{"name":"abortAddress","type":"address","internalType":"address"},{"name":"revertMessage","type":"bytes","internalType":"bytes"},{"name":"onRevertGasLimit","type":"uint256","internalType":"uint256"}]}],"outputs":[],"stateMutability":"nonpayable"},{"type":"function","name":"withdrawAndCall","inputs":[{"name":"receiver","type":"bytes","internalType":"bytes"},{"name":"amount","type":"uint256","internalType":"uint256"},{"name":"chainId","type":"uint256","internalType":"uint256"},{"name":"message","type":"bytes","internalType":"bytes"},{"name":"revertOptions","type":"tuple","internalType":"struct RevertOptions","components":[{"name":"revertAddress","type":"address","internalType":"address"},{"name":"callOnRevert","type":"bool","internalType":"bool"},{"name":"abortAddress","type":"address","internalType":"address"},{"name":"revertMessage","type":"bytes","internalType":"bytes"},{"name":"onRevertGasLimit","type":"uint256","internalType":"uint256"}]}],"outputs":[],"stateMutability":"nonpayable"},{"type":"function","name":"zetaToken","inputs":[],"outputs":[{"name":"","type":"address","internalType":"address"}],"stateMutability":"view"},{"type":"event","name":"Called","inputs":[{"name":"sender","type":"address","indexed":true,"internalType":"address"},{"name":"zrc20","type":"address","indexed":true,"internalType":"address"},{"name":"receiver","type":"bytes","indexed":false,"internalType":"bytes"},{"name":"message","type":"bytes","indexed":false,"internalType":"bytes"},{"name":"gasLimit","type":"uint256","indexed":false,"internalType":"uint256"},{"name":"revertOptions","type":"tuple","indexed":false,"internalType":"struct RevertOptions","components":[{"name":"revertAddress","type":"address","internalType":"address"},{"name":"callOnRevert","type":"bool","internalType":"bool"},{"name":"abortAddress","type":"address","internalType":"address"},{"name":"revertMessage","type":"bytes","internalType":"bytes"},{"name":"onRevertGasLimit","type":"uint256","internalType":"uint256"}]}],"anonymous":false},{"type":"event","name":"Initialized","inputs":[{"name":"version","type":"uint64","indexed":false,"internalType":"uint64"}],"anonymous":false},{"type":"event","name":"Paused","inputs":[{"name":"account","type":"address","indexed":false,"internalType":"address"}],"anonymous":false},{"type":"event","name":"RoleAdminChanged","inputs":[{"name":"role","type":"bytes32","indexed":true,"internalType":"bytes32"},{"name":"previousAdminRole","type":"bytes32","indexed":true,"internalType":"bytes32"},{"name":"newAdminRole","type":"bytes32","indexed":true,"internalType":"bytes32"}],"anonymous":false},{"type":"event","name":"RoleGranted","inputs":[{"name":"role","type":"bytes32","indexed":true,"internalType":"bytes32"},{"name":"account","type":"address","indexed":true,"internalType":"address"},{"name":"sender","type":"address","indexed":true,"internalType":"address"}],"anonymous":false},{"type":"event","name":"RoleRevoked","inputs":[{"name":"role","type":"bytes32","indexed":true,"internalType":"bytes32"},{"name":"account","type":"address","indexed":true,"internalType":"address"},{"name":"sender","type":"address","indexed":true,"internalType":"address"}],"anonymous":false},{"type":"event","name":"Unpaused","inputs":[{"name":"account","type":"address","indexed":false,"internalType":"address"}],"anonymous":false},{"type":"event","name":"Upgraded","inputs":[{"name":"implementation","type":"address","indexed":true,"internalType":"address"}],"anonymous":false},{"type":"event","name":"Withdrawn","inputs":[{"name":"sender","type":"address","indexed":true,"internalType":"address"},{"name":"chainId","type":"uint256","indexed":true,"internalType":"uint256"},{"name":"receiver","type":"bytes","indexed":false,"internalType":"bytes"},{"name":"zrc20","type":"address","indexed":false,"internalType":"address"},{"name":"value","type":"uint256","indexed":false,"internalType":"uint256"},{"name":"gasfee","type":"uint256","indexed":false,"internalType":"uint256"},{"name":"protocolFlatFee","type":"uint256","indexed":false,"internalType":"uint256"},{"name":"message","type":"bytes","indexed":false,"internalType":"bytes"},{"name":"gasLimit","type":"uint256","indexed":false,"internalType":"uint256"},{"name":"revertOptions","type":"tuple","indexed":false,"internalType":"struct RevertOptions","components":[{"name":"revertAddress","type":"address","internalType":"address"},{"name":"callOnRevert","type":"bool","internalType":"bool"},{"name":"abortAddress","type":"address","internalType":"address"},{"name":"revertMessage","type":"bytes","internalType":"bytes"},{"name":"onRevertGasLimit","type":"uint256","internalType":"uint256"}]}],"anonymous":false},{"type":"error","name":"AccessControlBadConfirmation","inputs":[]},{"type":"error","name":"AccessControlUnauthorizedAccount","inputs":[{"name":"account","type":"address","internalType":"address"},{"name":"neededRole","type":"bytes32","internalType":"bytes32"}]},{"type":"error","name":"AddressEmptyCode","inputs":[{"name":"target","type":"address","internalType":"address"}]},{"type":"error","name":"CallerIsNotFungibleModule","inputs":[]},{"type":"error","name":"ERC1967InvalidImplementation","inputs":[{"name":"implementation","type":"address","internalType":"address"}]},{"type":"error","name":"ERC1967NonPayable","inputs":[]},{"type":"error","name":"EmptyMessage","inputs":[]},{"type":"error","name":"EnforcedPause","inputs":[]},{"type":"error","name":"ExpectedPause","inputs":[]},{"type":"error","name":"FailedInnerCall","inputs":[]},{"type":"error","name":"FailedZetaSent","inputs":[]},{"type":"error","name":"GasFeeTransferFailed","inputs":[]},{"type":"error","name":"InsufficientZRC20Amount","inputs":[]},{"type":"error","name":"InsufficientZetaAmount","inputs":[]},{"type":"error","name":"InvalidInitialization","inputs":[]},{"type":"error","name":"InvalidTarget","inputs":[]},{"type":"error","name":"NotInitializing","inputs":[]},{"type":"error","name":"OnlyWZETAOrFungible","inputs":[]},{"type":"error","name":"ReentrancyGuardReentrantCall","inputs":[]},{"type":"error","name":"UUPSUnauthorizedCallContext","inputs":[]},{"type":"error","name":"UUPSUnsupportedProxiableUUID","inputs":[{"name":"slot","type":"bytes32","internalType":"bytes32"}]},{"type":"error","name":"WithdrawalFailed","inputs":[]},{"type":"error","name":"ZRC20BurnFailed","inputs":[]},{"type":"error","name":"ZRC20DepositFailed","inputs":[]},{"type":"error","name":"ZRC20TransferFailed","inputs":[]},{"type":"error","name":"ZeroAddress","inputs":[]}],"bytecode":{"object":"0x60a06040523060805234801561001457600080fd5b5061001d610022565b6100d4565b7ff0c57e16840df040f15088dc2f81fe391c3923bec73e23a9662efc9c229c6a00805468010000000000000000900460ff16156100725760405163f92ee8a960e01b815260040160405180910390fd5b80546001600160401b03908116146100d15780546001600160401b0319166001600160401b0390811782556040519081527fc7f505b2f371ae2175ee4913f4499e1f2633a7b5936321eed1cdaeb6115181d29060200160405180910390a15b50565b60805161393d6100fd600039600081816125ef0152818161261801526127ee015261393d6000f3fe6080604052600436106101bb5760003560e01c806352d1902d116100ec578063a217fddf1161008a578063c39aca3711610064578063c39aca3714610600578063d547741f14610620578063e63ab1e914610640578063f45346dc1461067457600080fd5b8063a217fddf14610575578063ad3cb1cc1461058a578063bcf7f32b146105e057600080fd5b80637c0dcb5f116100c65780637c0dcb5f146104bb5780638456cb59146104db57806391d14854146104f057806397a1cef11461055557600080fd5b806352d1902d1461044f5780635c975abb14610464578063717d335f1461049b57600080fd5b80632f2ff15d116101595780633ce4a5bc116101335780633ce4a5bc146103df5780633f4ba83a14610407578063485cc9551461041c5780634f1ef2861461043c57600080fd5b80632f2ff15d1461037f57806336568abe1461039f5780633b283933146103bf57600080fd5b80631cb5ea75116101955780631cb5ea75146102aa57806321501a95146102ca57806321e093b1146102ea578063248a9ca31461032257600080fd5b806301ffc9a7146102355780630310eb761461026a578063048ae42c1461028a57600080fd5b36610230576101c8610694565b6000546001600160a01b031633148015906101f757503373735b14bb79463307aacbed86daf3322b1e6226ab14155b1561022e576040517f229930b200000000000000000000000000000000000000000000000000000000815260040160405180910390fd5b005b600080fd5b34801561024157600080fd5b50610255610250366004612d37565b6106f2565b60405190151581526020015b60405180910390f35b34801561027657600080fd5b5061022e610285366004612da6565b61078b565b34801561029657600080fd5b5061022e6102a5366004612f68565b610a17565b3480156102b657600080fd5b5061022e6102c5366004613028565b610b92565b3480156102d657600080fd5b5061022e6102e53660046130dd565b610e03565b3480156102f657600080fd5b5060005461030a906001600160a01b031681565b6040516001600160a01b039091168152602001610261565b34801561032e57600080fd5b5061037161033d366004613169565b60009081527f02dd7bc7dec4dceedda775e58dd541e08a116c6c53815c0bd028192f7b626800602052604090206001015490565b604051908152602001610261565b34801561038b57600080fd5b5061022e61039a366004613182565b610fd0565b3480156103ab57600080fd5b5061022e6103ba366004613182565b61101a565b3480156103cb57600080fd5b5061022e6103da3660046131b2565b61106b565b3480156103eb57600080fd5b5061030a73735b14bb79463307aacbed86daf3322b1e6226ab81565b34801561041357600080fd5b5061022e61118e565b34801561042857600080fd5b5061022e610437366004613245565b6111c3565b61022e61044a366004613273565b611418565b34801561045b57600080fd5b50610371611437565b34801561047057600080fd5b507fcd5ed15c6e187e77e9aee88184c21f4f2182ab5827cb3b7e07fbedcd63f033005460ff16610255565b3480156104a757600080fd5b5061022e6104b63660046132c3565b611466565b3480156104c757600080fd5b5061022e6104d6366004613309565b61156e565b3480156104e757600080fd5b5061022e61173c565b3480156104fc57600080fd5b5061025561050b366004613182565b60009182527f02dd7bc7dec4dceedda775e58dd541e08a116c6c53815c0bd028192f7b626800602090815260408084206001600160a01b0393909316845291905290205460ff1690565b34801561056157600080fd5b5061022e610570366004613382565b61176e565b34801561058157600080fd5b50610371600081565b34801561059657600080fd5b506105d36040518060400160405280600581526020017f352e302e3000000000000000000000000000000000000000000000000000000081525081565b6040516102619190613454565b3480156105ec57600080fd5b5061022e6105fb366004613467565b61188d565b34801561060c57600080fd5b5061022e61061b366004613467565b6119bd565b34801561062c57600080fd5b5061022e61063b366004613182565b611bcc565b34801561064c57600080fd5b506103717f65d7a28e3265b37a6474929f336521b332c1681b933f6cb9f3376673440d862a81565b34801561068057600080fd5b5061022e61068f366004613505565b611c10565b7fcd5ed15c6e187e77e9aee88184c21f4f2182ab5827cb3b7e07fbedcd63f033005460ff16156106f0576040517fd93c066500000000000000000000000000000000000000000000000000000000815260040160405180910390fd5b565b60007fffffffff0000000000000000000000000000000000000000000000000000000082167f7965db0b00000000000000000000000000000000000000000000000000000000148061078557507f01ffc9a7000000000000000000000000000000000000000000000000000000007fffffffff000000000000000000000000000000000000000000000000000000008316145b92915050565b3373735b14bb79463307aacbed86daf3322b1e6226ab146107d8576040517f2b2add3d00000000000000000000000000000000000000000000000000000000815260040160405180910390fd5b6107e0610694565b6001600160a01b03841615806107fd57506001600160a01b038216155b15610834576040517fd92e233d00000000000000000000000000000000000000000000000000000000815260040160405180910390fd5b8260000361086e576040517f5d67094f00000000000000000000000000000000000000000000000000000000815260040160405180910390fd5b6001600160a01b03821673735b14bb79463307aacbed86daf3322b1e6226ab14806108a157506001600160a01b03821630145b156108d8576040517f82d5d76a00000000000000000000000000000000000000000000000000000000815260040160405180910390fd5b6040517f47e7ef240000000000000000000000000000000000000000000000000000000081526001600160a01b038381166004830152602482018590528516906347e7ef24906044016020604051808303816000875af1158015610940573d6000803e3d6000fd5b505050506040513d601f19601f820116820180604052508101906109649190613555565b61099a576040517f47d19fab00000000000000000000000000000000000000000000000000000000815260040160405180910390fd5b6040517f660b9de00000000000000000000000000000000000000000000000000000000081526001600160a01b0383169063660b9de0906109df90849060040161361f565b600060405180830381600087803b1580156109f957600080fd5b505af1158015610a0d573d6000803e3d6000fd5b5050505050505050565b610a1f611e1f565b610a27610694565b8651600003610a62576040517fd92e233d00000000000000000000000000000000000000000000000000000000815260040160405180910390fd5b85600003610a9c576040517f5d67094f00000000000000000000000000000000000000000000000000000000815260040160405180910390fd5b6000610aa9878785611ea0565b90506000336001600160a01b03167fda1215b0949ddb309fe466fa9e70e861a16538f11b8ecdb05c217d4d8677ed2d8a898b868c6001600160a01b0316634d8943bb6040518163ffffffff1660e01b8152600401602060405180830381865afa158015610b1a573d6000803e3d6000fd5b505050506040513d601f19601f82011682018060405250810190610b3e9190613685565b8c8c8c8c604051610b579998979695949392919061371f565b60405180910390a350610b8960017f9b779b17422d0df92223018b32b4d1fa46e071723d6817e2486d003becc55f0055565b50505050505050565b610b9a611e1f565b610ba2610694565b8551600003610bdd576040517fd92e233d00000000000000000000000000000000000000000000000000000000815260040160405180910390fd5b6000839003610c18576040517fbb1b658000000000000000000000000000000000000000000000000000000000815260040160405180910390fd5b6040517ffc5fecd50000000000000000000000000000000000000000000000000000000081526004810183905260009081906001600160a01b0388169063fc5fecd5906024016040805180830381865afa158015610c7a573d6000803e3d6000fd5b505050506040513d601f19601f82011682018060405250810190610c9e9190613792565b6040517f23b872dd00000000000000000000000000000000000000000000000000000000815233600482015273735b14bb79463307aacbed86daf3322b1e6226ab60248201526044810182905291935091506001600160a01b038316906323b872dd906064016020604051808303816000875af1158015610d23573d6000803e3d6000fd5b505050506040513d601f19601f82011682018060405250810190610d479190613555565b610d7d576040517f0a7cd6d600000000000000000000000000000000000000000000000000000000815260040160405180910390fd5b866001600160a01b0316336001600160a01b03167f6c6abd640fc6a0ef7cf2bc54b246b42d5c2629c30be1e24fea4a58157a7728cf8a89898989604051610dc89594939291906137c0565b60405180910390a35050610dfb60017f9b779b17422d0df92223018b32b4d1fa46e071723d6817e2486d003becc55f0055565b505050505050565b3373735b14bb79463307aacbed86daf3322b1e6226ab14610e50576040517f2b2add3d00000000000000000000000000000000000000000000000000000000815260040160405180910390fd5b610e58610694565b6001600160a01b038316610e98576040517fd92e233d00000000000000000000000000000000000000000000000000000000815260040160405180910390fd5b83600003610ed2576040517f19c08f4900000000000000000000000000000000000000000000000000000000815260040160405180910390fd5b6001600160a01b03831673735b14bb79463307aacbed86daf3322b1e6226ab1480610f0557506001600160a01b03831630145b15610f3c576040517f82d5d76a00000000000000000000000000000000000000000000000000000000815260040160405180910390fd5b610f4684846121a3565b6000546040517fde43156e0000000000000000000000000000000000000000000000000000000081526001600160a01b038086169263de43156e92610f97928a92169089908890889060040161380c565b600060405180830381600087803b158015610fb157600080fd5b505af1158015610fc5573d6000803e3d6000fd5b505050505050505050565b60008281527f02dd7bc7dec4dceedda775e58dd541e08a116c6c53815c0bd028192f7b626800602052604090206001015461100a81612371565b611014838361237b565b50505050565b6001600160a01b038116331461105c576040517f6697b23200000000000000000000000000000000000000000000000000000000815260040160405180910390fd5b6110668282612468565b505050565b611073611e1f565b61107b610694565b85516000036110b6576040517fd92e233d00000000000000000000000000000000000000000000000000000000815260040160405180910390fd5b846000036110f0576040517f19c08f4900000000000000000000000000000000000000000000000000000000815260040160405180910390fd5b61110e8573735b14bb79463307aacbed86daf3322b1e6226ab6121a3565b60008054604051869233927fda1215b0949ddb309fe466fa9e70e861a16538f11b8ecdb05c217d4d8677ed2d9261115d928c926001600160a01b0316918c919081908c908c9083908d9061371f565b60405180910390a3610dfb60017f9b779b17422d0df92223018b32b4d1fa46e071723d6817e2486d003becc55f0055565b7f65d7a28e3265b37a6474929f336521b332c1681b933f6cb9f3376673440d862a6111b881612371565b6111c061252c565b50565b7ff0c57e16840df040f15088dc2f81fe391c3923bec73e23a9662efc9c229c6a00805468010000000000000000810460ff16159067ffffffffffffffff1660008115801561120e5750825b905060008267ffffffffffffffff16600114801561122b5750303b155b905081158015611239575080155b15611270576040517ff92ee8a900000000000000000000000000000000000000000000000000000000815260040160405180910390fd5b84547fffffffffffffffffffffffffffffffffffffffffffffffff000000000000000016600117855583156112d15784547fffffffffffffffffffffffffffffffffffffffffffffff00ffffffffffffffff16680100000000000000001785555b6001600160a01b03871615806112ee57506001600160a01b038616155b15611325576040517fd92e233d00000000000000000000000000000000000000000000000000000000815260040160405180910390fd5b61132d6125bc565b6113356125bc565b61133d6125c4565b6113456125d4565b61135060008761237b565b5061137b7f65d7a28e3265b37a6474929f336521b332c1681b933f6cb9f3376673440d862a8761237b565b50600080547fffffffffffffffffffffffff0000000000000000000000000000000000000000166001600160a01b0389161790558315610b895784547fffffffffffffffffffffffffffffffffffffffffffffff00ffffffffffffffff168555604051600181527fc7f505b2f371ae2175ee4913f4499e1f2633a7b5936321eed1cdaeb6115181d29060200160405180910390a150505050505050565b6114206125e4565b611429826126b4565b61143382826126bf565b5050565b60006114416127e3565b507f360894a13ba1a3210667c828492db98dca3e2076cc3735a920a3ca505d382bbc90565b3373735b14bb79463307aacbed86daf3322b1e6226ab146114b3576040517f2b2add3d00000000000000000000000000000000000000000000000000000000815260040160405180910390fd5b6114bb610694565b6001600160a01b0382166114fb576040517fd92e233d00000000000000000000000000000000000000000000000000000000815260040160405180910390fd5b6040517f660b9de00000000000000000000000000000000000000000000000000000000081526001600160a01b0383169063660b9de09061154090849060040161361f565b600060405180830381600087803b15801561155a57600080fd5b505af1158015610dfb573d6000803e3d6000fd5b611576611e1f565b61157e610694565b83516000036115b9576040517fd92e233d00000000000000000000000000000000000000000000000000000000815260040160405180910390fd5b826000036115f3576040517f5d67094f00000000000000000000000000000000000000000000000000000000815260040160405180910390fd5b60006115ff8484612845565b90506000336001600160a01b03167fda1215b0949ddb309fe466fa9e70e861a16538f11b8ecdb05c217d4d8677ed2d87868886896001600160a01b0316634d8943bb6040518163ffffffff1660e01b8152600401602060405180830381865afa158015611670573d6000803e3d6000fd5b505050506040513d601f19601f820116820180604052508101906116949190613685565b8a6001600160a01b031663091d27886040518163ffffffff1660e01b8152600401602060405180830381865afa1580156116d2573d6000803e3d6000fd5b505050506040513d601f19601f820116820180604052508101906116f69190613685565b8a60405161170a979695949392919061387d565b60405180910390a35061101460017f9b779b17422d0df92223018b32b4d1fa46e071723d6817e2486d003becc55f0055565b7f65d7a28e3265b37a6474929f336521b332c1681b933f6cb9f3376673440d862a61176681612371565b6111c06128b3565b611776611e1f565b61177e610694565b83516000036117b9576040517fd92e233d00000000000000000000000000000000000000000000000000000000815260040160405180910390fd5b826000036117f3576040517f19c08f4900000000000000000000000000000000000000000000000000000000815260040160405180910390fd5b6118118373735b14bb79463307aacbed86daf3322b1e6226ab6121a3565b60008054604051849233927fda1215b0949ddb309fe466fa9e70e861a16538f11b8ecdb05c217d4d8677ed2d9261185c928a926001600160a01b0316918a9190819081908b9061387d565b60405180910390a361101460017f9b779b17422d0df92223018b32b4d1fa46e071723d6817e2486d003becc55f0055565b3373735b14bb79463307aacbed86daf3322b1e6226ab146118da576040517f2b2add3d00000000000000000000000000000000000000000000000000000000815260040160405180910390fd5b6118e2610694565b6001600160a01b03851615806118ff57506001600160a01b038316155b15611936576040517fd92e233d00000000000000000000000000000000000000000000000000000000815260040160405180910390fd5b6040517fde43156e0000000000000000000000000000000000000000000000000000000081526001600160a01b0384169063de43156e90611983908990899089908890889060040161380c565b600060405180830381600087803b15801561199d57600080fd5b505af11580156119b1573d6000803e3d6000fd5b50505050505050505050565b3373735b14bb79463307aacbed86daf3322b1e6226ab14611a0a576040517f2b2add3d00000000000000000000000000000000000000000000000000000000815260040160405180910390fd5b611a12610694565b6001600160a01b0385161580611a2f57506001600160a01b038316155b15611a66576040517fd92e233d00000000000000000000000000000000000000000000000000000000815260040160405180910390fd5b83600003611aa0576040517f5d67094f00000000000000000000000000000000000000000000000000000000815260040160405180910390fd5b6001600160a01b03831673735b14bb79463307aacbed86daf3322b1e6226ab1480611ad357506001600160a01b03831630145b15611b0a576040517f82d5d76a00000000000000000000000000000000000000000000000000000000815260040160405180910390fd5b6040517f47e7ef240000000000000000000000000000000000000000000000000000000081526001600160a01b038481166004830152602482018690528616906347e7ef24906044016020604051808303816000875af1158015611b72573d6000803e3d6000fd5b505050506040513d601f19601f82011682018060405250810190611b969190613555565b611936576040517f47d19fab00000000000000000000000000000000000000000000000000000000815260040160405180910390fd5b60008281527f02dd7bc7dec4dceedda775e58dd541e08a116c6c53815c0bd028192f7b6268006020526040902060010154611c0681612371565b6110148383612468565b3373735b14bb79463307aacbed86daf3322b1e6226ab14611c5d576040517f2b2add3d00000000000000000000000000000000000000000000000000000000815260040160405180910390fd5b611c65610694565b6001600160a01b0383161580611c8257506001600160a01b038116155b15611cb9576040517fd92e233d00000000000000000000000000000000000000000000000000000000815260040160405180910390fd5b81600003611cf3576040517f5d67094f00000000000000000000000000000000000000000000000000000000815260040160405180910390fd5b6001600160a01b03811673735b14bb79463307aacbed86daf3322b1e6226ab1480611d2657506001600160a01b03811630145b15611d5d576040517f82d5d76a00000000000000000000000000000000000000000000000000000000815260040160405180910390fd5b6040517f47e7ef240000000000000000000000000000000000000000000000000000000081526001600160a01b038281166004830152602482018490528416906347e7ef24906044016020604051808303816000875af1158015611dc5573d6000803e3d6000fd5b505050506040513d601f19601f82011682018060405250810190611de99190613555565b611066576040517f47d19fab00000000000000000000000000000000000000000000000000000000815260040160405180910390fd5b7f9b779b17422d0df92223018b32b4d1fa46e071723d6817e2486d003becc55f0080547ffffffffffffffffffffffffffffffffffffffffffffffffffffffffffffffffe01611e9a576040517f3ee5aeb500000000000000000000000000000000000000000000000000000000815260040160405180910390fd5b60029055565b6000806000846001600160a01b031663fc5fecd5856040518263ffffffff1660e01b8152600401611ed391815260200190565b6040805180830381865afa158015611eef573d6000803e3d6000fd5b505050506040513d601f19601f82011682018060405250810190611f139190613792565b6040517f23b872dd00000000000000000000000000000000000000000000000000000000815233600482015273735b14bb79463307aacbed86daf3322b1e6226ab60248201526044810182905291935091506001600160a01b038316906323b872dd906064016020604051808303816000875af1158015611f98573d6000803e3d6000fd5b505050506040513d601f19601f82011682018060405250810190611fbc9190613555565b611ff2576040517f0a7cd6d600000000000000000000000000000000000000000000000000000000815260040160405180910390fd5b6040517f23b872dd000000000000000000000000000000000000000000000000000000008152336004820152306024820152604481018790526001600160a01b038616906323b872dd906064016020604051808303816000875af115801561205e573d6000803e3d6000fd5b505050506040513d601f19601f820116820180604052508101906120829190613555565b6120b8576040517f4dd9ee8d00000000000000000000000000000000000000000000000000000000815260040160405180910390fd5b6040517f42966c68000000000000000000000000000000000000000000000000000000008152600481018790526001600160a01b038616906342966c68906024016020604051808303816000875af1158015612118573d6000803e3d6000fd5b505050506040513d601f19601f8201168201806040525081019061213c9190613555565b612172576040517f2c77e05c00000000000000000000000000000000000000000000000000000000815260040160405180910390fd5b9150505b9392505050565b60017f9b779b17422d0df92223018b32b4d1fa46e071723d6817e2486d003becc55f0055565b6000546040517f23b872dd000000000000000000000000000000000000000000000000000000008152336004820152306024820152604481018490526001600160a01b03909116906323b872dd906064016020604051808303816000875af1158015612213573d6000803e3d6000fd5b505050506040513d601f19601f820116820180604052508101906122379190613555565b61226d576040517fc7ffc47b00000000000000000000000000000000000000000000000000000000815260040160405180910390fd5b6000546040517f2e1a7d4d000000000000000000000000000000000000000000000000000000008152600481018490526001600160a01b0390911690632e1a7d4d90602401600060405180830381600087803b1580156122cc57600080fd5b505af11580156122e0573d6000803e3d6000fd5b505050506000816001600160a01b03168360405160006040518083038185875af1925050503d8060008114612331576040519150601f19603f3d011682016040523d82523d6000602084013e612336565b606091505b5050905080611066576040517fc7ffc47b00000000000000000000000000000000000000000000000000000000815260040160405180910390fd5b6111c0813361292c565b60008281527f02dd7bc7dec4dceedda775e58dd541e08a116c6c53815c0bd028192f7b626800602081815260408084206001600160a01b038616855290915282205460ff1661245e576000848152602082815260408083206001600160a01b0387168452909152902080547fffffffffffffffffffffffffffffffffffffffffffffffffffffffffffffff001660011790556124143390565b6001600160a01b0316836001600160a01b0316857f2f8788117e7eff1d82e926ec794901d17c78024a50270940304540a733656f0d60405160405180910390a46001915050610785565b6000915050610785565b60008281527f02dd7bc7dec4dceedda775e58dd541e08a116c6c53815c0bd028192f7b626800602081815260408084206001600160a01b038616855290915282205460ff161561245e576000848152602082815260408083206001600160a01b038716808552925280832080547fffffffffffffffffffffffffffffffffffffffffffffffffffffffffffffff0016905551339287917ff6391f5c32d9c69d2a47ea670b442974b53935d1edc7fd64eb21e047a839171b9190a46001915050610785565b6125346129b9565b7fcd5ed15c6e187e77e9aee88184c21f4f2182ab5827cb3b7e07fbedcd63f0330080547fffffffffffffffffffffffffffffffffffffffffffffffffffffffffffffff001681557f5db9ee0a495bf2e6ff9c91a7834c1ba4fdd244a5e8aa4e537bd38aeae4b073aa335b6040516001600160a01b03909116815260200160405180910390a150565b6106f0612a14565b6125cc612a14565b6106f0612a7b565b6125dc612a14565b6106f0612acc565b306001600160a01b037f000000000000000000000000000000000000000000000000000000000000000016148061267d57507f00000000000000000000000000000000000000000000000000000000000000006001600160a01b03166126717f360894a13ba1a3210667c828492db98dca3e2076cc3735a920a3ca505d382bbc546001600160a01b031690565b6001600160a01b031614155b156106f0576040517fe07c8dba00000000000000000000000000000000000000000000000000000000815260040160405180910390fd5b600061143381612371565b816001600160a01b03166352d1902d6040518163ffffffff1660e01b8152600401602060405180830381865afa925050508015612737575060408051601f3d9081017fffffffffffffffffffffffffffffffffffffffffffffffffffffffffffffffe016820190925261273491810190613685565b60015b61277d576040517f4c9c8ce30000000000000000000000000000000000000000000000000000000081526001600160a01b03831660048201526024015b60405180910390fd5b7f360894a13ba1a3210667c828492db98dca3e2076cc3735a920a3ca505d382bbc81146127d9576040517faa1d49a400000000000000000000000000000000000000000000000000000000815260048101829052602401612774565b6110668383612ad4565b306001600160a01b037f000000000000000000000000000000000000000000000000000000000000000016146106f0576040517fe07c8dba00000000000000000000000000000000000000000000000000000000815260040160405180910390fd5b60006121768383846001600160a01b031663091d27886040518163ffffffff1660e01b8152600401602060405180830381865afa15801561288a573d6000803e3d6000fd5b505050506040513d601f19601f820116820180604052508101906128ae9190613685565b611ea0565b6128bb610694565b7fcd5ed15c6e187e77e9aee88184c21f4f2182ab5827cb3b7e07fbedcd63f0330080547fffffffffffffffffffffffffffffffffffffffffffffffffffffffffffffff001660011781557f62e78cea01bee320cd4e420270b5ea74000d11b0c9f74754ebdbfc544b05a2583361259e565b60008281527f02dd7bc7dec4dceedda775e58dd541e08a116c6c53815c0bd028192f7b626800602090815260408083206001600160a01b038516845290915290205460ff16611433576040517fe2517d3f0000000000000000000000000000000000000000000000000000000081526001600160a01b038216600482015260248101839052604401612774565b7fcd5ed15c6e187e77e9aee88184c21f4f2182ab5827cb3b7e07fbedcd63f033005460ff166106f0576040517f8dfc202b00000000000000000000000000000000000000000000000000000000815260040160405180910390fd5b7ff0c57e16840df040f15088dc2f81fe391c3923bec73e23a9662efc9c229c6a005468010000000000000000900460ff166106f0576040517fd7e6bcf800000000000000000000000000000000000000000000000000000000815260040160405180910390fd5b612a83612a14565b7fcd5ed15c6e187e77e9aee88184c21f4f2182ab5827cb3b7e07fbedcd63f0330080547fffffffffffffffffffffffffffffffffffffffffffffffffffffffffffffff00169055565b61217d612a14565b612add82612b2a565b6040516001600160a01b038316907fbc7cd75a20ee27fd9adebab32041f755214dbc6bffa90cc0225b39da2e5c2d3b90600090a2805115612b22576110668282612bd2565b611433612c48565b806001600160a01b03163b600003612b79576040517f4c9c8ce30000000000000000000000000000000000000000000000000000000081526001600160a01b0382166004820152602401612774565b7f360894a13ba1a3210667c828492db98dca3e2076cc3735a920a3ca505d382bbc80547fffffffffffffffffffffffff0000000000000000000000000000000000000000166001600160a01b0392909216919091179055565b6060600080846001600160a01b031684604051612bef91906138eb565b600060405180830381855af49150503d8060008114612c2a576040519150601f19603f3d011682016040523d82523d6000602084013e612c2f565b606091505b5091509150612c3f858383612c80565b95945050505050565b34156106f0576040517fb398979f00000000000000000000000000000000000000000000000000000000815260040160405180910390fd5b606082612c9557612c9082612cf5565b612176565b8151158015612cac57506001600160a01b0384163b155b15612cee576040517f9996b3150000000000000000000000000000000000000000000000000000000081526001600160a01b0385166004820152602401612774565b5080612176565b805115612d055780518082602001fd5b6040517f1425ea4200000000000000000000000000000000000000000000000000000000815260040160405180910390fd5b600060208284031215612d4957600080fd5b81357fffffffff000000000000000000000000000000000000000000000000000000008116811461217657600080fd5b6001600160a01b03811681146111c057600080fd5b600060608284031215612da057600080fd5b50919050565b60008060008060808587031215612dbc57600080fd5b8435612dc781612d79565b9350602085013592506040850135612dde81612d79565b9150606085013567ffffffffffffffff811115612dfa57600080fd5b612e0687828801612d8e565b91505092959194509250565b7f4e487b7100000000000000000000000000000000000000000000000000000000600052604160045260246000fd5b600082601f830112612e5257600080fd5b813567ffffffffffffffff811115612e6c57612e6c612e12565b6040517fffffffffffffffffffffffffffffffffffffffffffffffffffffffffffffffe0603f7fffffffffffffffffffffffffffffffffffffffffffffffffffffffffffffffe0601f8501160116810181811067ffffffffffffffff82111715612ed857612ed8612e12565b604052818152838201602001851015612ef057600080fd5b816020850160208301376000918101602001919091529392505050565b60008083601f840112612f1f57600080fd5b50813567ffffffffffffffff811115612f3757600080fd5b602083019150836020828501011115612f4f57600080fd5b9250929050565b600060a08284031215612da057600080fd5b600080600080600080600060c0888a031215612f8357600080fd5b873567ffffffffffffffff811115612f9a57600080fd5b612fa68a828b01612e41565b975050602088013595506040880135612fbe81612d79565b9450606088013567ffffffffffffffff811115612fda57600080fd5b612fe68a828b01612f0d565b9095509350506080880135915060a088013567ffffffffffffffff81111561300d57600080fd5b6130198a828b01612f56565b91505092959891949750929550565b60008060008060008060a0878903121561304157600080fd5b863567ffffffffffffffff81111561305857600080fd5b61306489828a01612e41565b965050602087013561307581612d79565b9450604087013567ffffffffffffffff81111561309157600080fd5b61309d89828a01612f0d565b90955093505060608701359150608087013567ffffffffffffffff8111156130c457600080fd5b6130d089828a01612f56565b9150509295509295509295565b6000806000806000608086880312156130f557600080fd5b853567ffffffffffffffff81111561310c57600080fd5b61311888828901612d8e565b95505060208601359350604086013561313081612d79565b9250606086013567ffffffffffffffff81111561314c57600080fd5b61315888828901612f0d565b969995985093965092949392505050565b60006020828403121561317b57600080fd5b5035919050565b6000806040838503121561319557600080fd5b8235915060208301356131a781612d79565b809150509250929050565b60008060008060008060a087890312156131cb57600080fd5b863567ffffffffffffffff8111156131e257600080fd5b6131ee89828a01612e41565b9650506020870135945060408701359350606087013567ffffffffffffffff81111561321957600080fd5b61322589828a01612f0d565b909450925050608087013567ffffffffffffffff8111156130c457600080fd5b6000806040838503121561325857600080fd5b823561326381612d79565b915060208301356131a781612d79565b6000806040838503121561328657600080fd5b823561329181612d79565b9150602083013567ffffffffffffffff8111156132ad57600080fd5b6132b985828601612e41565b9150509250929050565b600080604083850312156132d657600080fd5b82356132e181612d79565b9150602083013567ffffffffffffffff8111156132fd57600080fd5b6132b985828601612d8e565b6000806000806080858703121561331f57600080fd5b843567ffffffffffffffff81111561333657600080fd5b61334287828801612e41565b94505060208501359250604085013561335a81612d79565b9150606085013567ffffffffffffffff81111561337657600080fd5b612e0687828801612f56565b6000806000806080858703121561339857600080fd5b843567ffffffffffffffff8111156133af57600080fd5b6133bb87828801612e41565b9450506020850135925060408501359150606085013567ffffffffffffffff81111561337657600080fd5b60005b838110156134015781810151838201526020016133e9565b50506000910152565b600081518084526134228160208601602086016133e6565b601f017fffffffffffffffffffffffffffffffffffffffffffffffffffffffffffffffe0169290920160200192915050565b602081526000612176602083018461340a565b60008060008060008060a0878903121561348057600080fd5b863567ffffffffffffffff81111561349757600080fd5b6134a389828a01612d8e565b96505060208701356134b481612d79565b94506040870135935060608701356134cb81612d79565b9250608087013567ffffffffffffffff8111156134e757600080fd5b6134f389828a01612f0d565b979a9699509497509295939492505050565b60008060006060848603121561351a57600080fd5b833561352581612d79565b925060208401359150604084013561353c81612d79565b809150509250925092565b80151581146111c057600080fd5b60006020828403121561356757600080fd5b815161217681613547565b60008083357fffffffffffffffffffffffffffffffffffffffffffffffffffffffffffffffe18436030181126135a757600080fd5b830160208101925035905067ffffffffffffffff8111156135c757600080fd5b803603821315612f4f57600080fd5b8183528181602085013750600060208284010152600060207fffffffffffffffffffffffffffffffffffffffffffffffffffffffffffffffe0601f840116840101905092915050565b602081526000823561363081612d79565b6001600160a01b038116602084015250602083013567ffffffffffffffff811680821461365c57600080fd5b80604085015250506136716040840184613572565b606080850152612c3f6080850182846135d6565b60006020828403121561369757600080fd5b5051919050565b600081356136ab81612d79565b6001600160a01b0316835260208201356136c481613547565b1515602084015260408201356136d981612d79565b6001600160a01b031660408401526136f46060830183613572565b60a0606086015261370960a0860182846135d6565b6080948501359590940194909452509092915050565b6101008152600061373461010083018c61340a565b6001600160a01b038b16602084015289604084015288606084015287608084015282810360a08401526137688187896135d6565b90508460c084015282810360e0840152613782818561369e565b9c9b505050505050505050505050565b600080604083850312156137a557600080fd5b82516137b081612d79565b6020939093015192949293505050565b6080815260006137d3608083018861340a565b82810360208401526137e68187896135d6565b90508460408401528281036060840152613800818561369e565b98975050505050505050565b60808152600061381c8788613572565b6060608085015261383160e0850182846135d6565b915050602088013561384281612d79565b6001600160a01b0390811660a085015260408981013560c08601529088166020850152830186905282810360608401526138008185876135d6565b6101008152600061389261010083018a61340a565b6001600160a01b03891660208401528760408401528660608401528560808401528281038060a0850152600082528560c08501526020810160e0850152506138dd602082018561369e565b9a9950505050505050505050565b600082516138fd8184602087016133e6565b919091019291505056fea26469706673582212209729ede334f07afe016eab9b4d72c7ce168ef243ba933f0783bfed07e3f86edf64736f6c634300081a0033","linkReferences":{}},"methodIdentifiers":{"DEFAULT_ADMIN_ROLE()":"a217fddf","FUNGIBLE_MODULE_ADDRESS()":"3ce4a5bc","PAUSER_ROLE()":"e63ab1e9","UPGRADE_INTERFACE_VERSION()":"ad3cb1cc","call(bytes,address,bytes,uint256,(address,bool,address,bytes,uint256))":"1cb5ea75","deposit(address,uint256,address)":"f45346dc","depositAndCall((bytes,address,uint256),address,uint256,address,bytes)":"c39aca37","depositAndCall((bytes,address,uint256),uint256,address,bytes)":"21501a95","depositAndRevert(address,uint256,address,(address,uint64,bytes))":"0310eb76","execute((bytes,address,uint256),address,uint256,address,bytes)":"bcf7f32b","executeRevert(address,(address,uint64,bytes))":"717d335f","getRoleAdmin(bytes32)":"248a9ca3","grantRole(bytes32,address)":"2f2ff15d","hasRole(bytes32,address)":"91d14854","initialize(address,address)":"485cc955","pause()":"8456cb59","paused()":"5c975abb","proxiableUUID()":"52d1902d","renounceRole(bytes32,address)":"36568abe","revokeRole(bytes32,address)":"d547741f","supportsInterface(bytes4)":"01ffc9a7","unpause()":"3f4ba83a","upgradeToAndCall(address,bytes)":"4f1ef286","withdraw(bytes,uint256,address,(address,bool,address,bytes,uint256))":"7c0dcb5f","withdraw(bytes,uint256,uint256,(address,bool,address,bytes,uint256))":"97a1cef1","withdrawAndCall(bytes,uint256,address,bytes,uint256,(address,bool,address,bytes,uint256))":"048ae42c","withdrawAndCall(bytes,uint256,uint256,bytes,(address,bool,address,bytes,uint256))":"3b283933","zetaToken()":"21e093b1"},"storageLayout":{"storage":[{"astId":2515,"contract":"contracts/zevm/GatewayZEVM.sol:GatewayZEVM","label":"zetaToken","offset":0,"slot":"0","type":"t_address"}],"types":{"t_address":{"encoding":"inplace","label":"address","numberOfBytes":"20"}}},"id":10}