{"abi":[{"type":"function","name":"getMinOutAmount","inputs":[{"name":"router","type":"address","internalType":"address"},{"name":"zrc20","type":"address","internalType":"address"},{"name":"target","type":"address","internalType":"address"},{"name":"amountIn","type":"uint256","internalType":"uint256"}],"outputs":[{"name":"minOutAmount","type":"uint256","internalType":"uint256"}],"stateMutability":"view"},{"type":"function","name":"uniswapv2PairFor","inputs":[{"name":"factory","type":"address","internalType":"address"},{"name":"tokenA","type":"address","internalType":"address"},{"name":"tokenB","type":"address","internalType":"address"}],"outputs":[{"name":"pair","type":"address","internalType":"address"}],"stateMutability":"pure"},{"type":"error","name":"AdditionsOverflow","inputs":[]},{"type":"error","name":"CantBeIdenticalAddresses","inputs":[]},{"type":"error","name":"CantBeZeroAddress","inputs":[]},{"type":"error","name":"IdenticalAddresses","inputs":[]},{"type":"error","name":"InsufficientInputAmount","inputs":[]},{"type":"error","name":"InsufficientLiquidity","inputs":[]},{"type":"error","name":"InvalidPath","inputs":[]},{"type":"error","name":"InvalidPathLength","inputs":[]},{"type":"error","name":"MultiplicationsOverflow","inputs":[]},{"type":"error","name":"NotEnoughToPayGasFee","inputs":[]},{"type":"error","name":"WrongGasContract","inputs":[]},{"type":"error","name":"ZeroAddress","inputs":[]}],"bytecode":{"object":"0x610ad3610034600b8282823980515f1a607314602857634e487b7160e01b5f525f60045260245ffd5b305f52607381538281f3fe730000000000000000000000000000000000000000301460806040526004361061003f575f3560e01c806354ce67ae14610043578063c63585cc14610069575b5f80fd5b6100566100513660046108f4565b610094565b6040519081526020015b60405180910390f35b61007c610077366004610942565b610371565b6040516001600160a01b039091168152602001610060565b5f80856001600160a01b031663c45a01556040518163ffffffff1660e01b8152600401602060405180830381865afa1580156100d2573d5f803e3d5ffd5b505050506040513d601f19601f820116820180604052508101906100f6919061098a565b90505f866001600160a01b031663ad5c46486040518163ffffffff1660e01b8152600401602060405180830381865afa158015610135573d5f803e3d5ffd5b505050506040513d601f19601f82011682018060405250810190610159919061098a565b60408051600280825260608083018452939450909160208301908036833701905050905086815f81518110610190576101906109c0565b60200260200101906001600160a01b031690816001600160a01b03168152505085816001815181106101c4576101c46109c0565b60200260200101906001600160a01b031690816001600160a01b0316815250505f6101f0848784610448565b604080516003808252608082019092529192506020820160608036833701905050915087825f81518110610226576102266109c0565b60200260200101906001600160a01b031690816001600160a01b031681525050828260018151811061025a5761025a6109c0565b60200260200101906001600160a01b031690816001600160a01b031681525050868260028151811061028e5761028e6109c0565b60200260200101906001600160a01b031690816001600160a01b0316815250505f6102ba858885610448565b905080600182516102cb91906109e8565b815181106102db576102db6109c0565b602002602001015182600184516102f291906109e8565b81518110610302576103026109c0565b60200260200101511161033b57806001825161031e91906109e8565b8151811061032e5761032e6109c0565b6020026020010151610363565b816001835161034a91906109e8565b8151811061035a5761035a6109c0565b60200260200101515b9a9950505050505050505050565b5f805f61037e8585610595565b6040516bffffffffffffffffffffffff19606084811b8216602084015283901b16603482015291935091508690604801604051602081830303815290604052805190602001206040516020016104269291906001600160f81b0319815260609290921b6bffffffffffffffffffffffff1916600183015260158201527f96e8ac4277198ff8b6f785478aa9a39f403cb768dd02cbee326c3e7da348845f603582015260550190565b60408051601f1981840301815291905280516020909101209695505050505050565b606060028251101561046d576040516320db826760e01b815260040160405180910390fd5b815167ffffffffffffffff811115610487576104876109ac565b6040519080825280602002602001820160405280156104b0578160200160208202803683370190505b50905082815f815181106104c6576104c66109c0565b6020026020010181815250505f5b600183516104e291906109e8565b81101561058d575f8061053487868581518110610501576105016109c0565b60200260200101518786600161051791906109fb565b81518110610527576105276109c0565b602002602001015161061f565b9150915061055c84848151811061054d5761054d6109c0565b602002602001015183836106e4565b846105688560016109fb565b81518110610578576105786109c0565b602090810291909101015250506001016104d4565b509392505050565b5f80826001600160a01b0316846001600160a01b0316036105c95760405163658f3e7f60e11b815260040160405180910390fd5b826001600160a01b0316846001600160a01b0316106105e95782846105ec565b83835b90925090506001600160a01b03821661061857604051633c5a83ed60e11b815260040160405180910390fd5b9250929050565b5f805f61062c8585610778565b5090505f8061063c8888886107fb565b6001600160a01b0316630902f1ac6040518163ffffffff1660e01b8152600401606060405180830381865afa158015610677573d5f803e3d5ffd5b505050506040513d601f19601f8201168201806040525081019061069b9190610a29565b506001600160701b031691506001600160701b03169150826001600160a01b0316876001600160a01b0316146106d25780826106d5565b81815b90999098509650505050505050565b5f835f036107055760405163098fb56160e01b815260040160405180910390fd5b821580610710575081155b1561072e5760405163bb55fd2760e01b815260040160405180910390fd5b5f61073b856103e5610876565b90505f6107488285610876565b90505f6107618361075b886103e8610876565b906108b9565b905061076d8183610a7e565b979650505050505050565b5f80826001600160a01b0316846001600160a01b0316036107ac57604051630bd969eb60e41b815260040160405180910390fd5b826001600160a01b0316846001600160a01b0316106107cc5782846107cf565b83835b90925090506001600160a01b0382166106185760405163d92e233d60e01b815260040160405180910390fd5b60405163e6a4390560e01b81526001600160a01b03838116600483015282811660248301525f919085169063e6a4390590604401602060405180830381865afa15801561084a573d5f803e3d5ffd5b505050506040513d601f19601f8201168201806040525081019061086e919061098a565b949350505050565b5f8215806108965750508181028183828161089357610893610a6a565b04145b6108b357604051632bcb93b560e11b815260040160405180910390fd5b92915050565b818101828110156108b35760405163a259879560e01b815260040160405180910390fd5b6001600160a01b03811681146108f1575f80fd5b50565b5f805f8060808587031215610907575f80fd5b8435610912816108dd565b93506020850135610922816108dd565b92506040850135610932816108dd565b9396929550929360600135925050565b5f805f60608486031215610954575f80fd5b833561095f816108dd565b9250602084013561096f816108dd565b9150604084013561097f816108dd565b809150509250925092565b5f6020828403121561099a575f80fd5b81516109a5816108dd565b9392505050565b634e487b7160e01b5f52604160045260245ffd5b634e487b7160e01b5f52603260045260245ffd5b634e487b7160e01b5f52601160045260245ffd5b818103818111156108b3576108b36109d4565b808201808211156108b3576108b36109d4565b80516001600160701b0381168114610a24575f80fd5b919050565b5f805f60608486031215610a3b575f80fd5b610a4484610a0e565b9250610a5260208501610a0e565b9150604084015163ffffffff8116811461097f575f80fd5b634e487b7160e01b5f52601260045260245ffd5b5f82610a9857634e487b7160e01b5f52601260045260245ffd5b50049056fea26469706673582212201aac6a9a0bc72cf09c33dbfa1cae26cc83524bd33db91c34341445fc20423b5964736f6c634300081a0033","linkReferences":{}},"methodIdentifiers":{"getMinOutAmount(address,address,address,uint256)":"54ce67ae","uniswapv2PairFor(address,address,address)":"c63585cc"},"id":137}